:100000000C942A000C9447000C9447000C94470071
:100010000C9447000C9447000C9447000C949817DC
:100020000C9447000C9447000C9447000C94470034
:100030000C9447000C9447000C9447000C94470024
:100040000C9447000C9447000C9447000C94470014
:100050000C94470011241FBECFE5D8E0DEBFCDBF12
:1000600010E0A0E6B0E0E2ECF3E602C005900D92ED
:10007000A83BB107D9F727E0A8EBB0E001C01D927B
:10008000A631B207E1F70E9446140C94DF310C94BC
:100090000000CF93DF9300D000D0CDB7DEB79C83B4
:1000A0008B8381E00E94E71890930D0780930C07E3
:1000B0000E9416259A83898385E00E94330D8AE386
:1000C0000E94AA0780910C0790910D076AE070E0EA
:1000D0000E94221B882391F086E00E94330D8091BC
:1000E000B8000E94D70E80910C0790910D0720E078
:1000F00040E050E060E070E00E9407196AE070E0C4
:10010000CE0101960E9427228091B8008F5F8093D4
:10011000B8009091B80089E8989F812D11248295AC
:10012000869587702CE3829F802D1124292F281B10
:10013000822F8093B800C6CFCF93DF9300D000D03A
:10014000CDB7DEB79C838B830E9416259A83898363
:1001500082E00E94330D8AE30E94AA0780910C0777
:1001600090910D076AE070E00E94221B882391F0B5
:1001700083E00E94330D8091B9000E94D70E8091D8
:100180000C0790910D0720E040E050E060E070E047
:100190000E94071968E572E0CE0101960E942722AD
:1001A0008091B9008F5F8093B9009091B90089E880
:1001B000989F812D11248295869587702CE3829FCC
:1001C000802D1124292F281B822F8093B900C6CFA0
:1001D000CF93DF9300D000D0CDB7DEB79C838B8365
:1001E0000E9416259A83898382E00E94330D8AE358
:1001F0000E94AA0780910C0790910D076AE070E0B9
:100200000E94221B882319F180E00E94330D209167
:10021000BA008BEA289F812D1124982F96959695E8
:100220009695892F880F890F880F880F922F981B1A
:1002300081E0890F0E94D70E80910C0790910D07E5
:1002400020E040E050E060E070E00E94071960EAC2
:100250007CE8CE0101960E9427228091BA008F5F30
:100260008093BA009091BA008BEA989F812D112457
:1002700082958F7028E1829F802D1124292F281BC1
:10028000822F8093BA00B6CFCF93DF93CDB7DEB77E
:1002900065970FB6F894DEBF0FBECDBF9D8B8C8BDC
:1002A00040E061E081E00E942F189093BC008093B1
:1002B000BB000E9416259A838983CE0103960E9473
:1002C0002C058B8B8B898F3F61F08091BB009091C7
:1002D000BC00BE016D5E7F4F20E04AE050E00E940E
:1002E000071962E370E0CE0101960E942722E5CF54
:1002F000CF93DF9300D000D0CDB7DEB79C838B8344
:100300008FEF8A8319828091BB009091BC009E017F
:100310002E5F3F4F4AE050E0B9010E94711A8823D6
:1003200091F38981882351F08A81833239F08AE1FF
:100330000E94330D8A810E94AA0731C08A81882FCA
:1003400090E083329105B1F08A9749F580910C07CE
:1003500090910D076AE070E00E94221B8823F1F063
:1003600080E10E94330D80E790E00E94540C81E010
:10037000898314C080910C0790910D0720E040E024
:1003800050E060E070E00E94071980E10E94330DA8
:1003900088E790E00E94540C198201C00000B3CF9E
:1003A000CF93DF93CDB7DEB78AE390E0FC011082F4
:1003B00087E390E0FC01108284E390E0FC0110826E
:1003C00081E390E0FC0110820000DF91CF9108955D
:1003D000CF93DF9300D000D01F92CDB7DEB78C83D0
:1003E0006D8319828C81803218F081E08983DDC0B1
:1003F0008D81882331F08D81813019F081E08983EE
:10040000D4C08C818695869586958A838C818770E9
:100410008B838A81882F90E081309105E1F18230D1
:1004200091051CF4892B49F0C0C08230910509F474
:1004300060C0039709F48BC0B8C08D818130A9F4E6
:100440008AE390E02AE330E0F9012081622F2B81DA
:10045000422F50E021E030E002C0220F331F4A95C6
:10046000E2F7262BFC012083A0C08AE390E02AE378
:1004700030E0F9012081622F2B81422F50E021E0F2
:1004800030E002C0220F331F4A95E2F72095262361
:10049000FC0120838AC08D818823B1F487E390E03A
:1004A00027E330E0F9012081622F2B81422F50E0B9
:1004B00021E030E002C0220F331F4A95E2F7209579
:1004C0002623FC01208371C087E390E027E330E01E
:1004D000F9012081622F2B81422F50E021E030E092
:1004E00002C0220F331F4A95E2F7262BFC0120831E
:1004F0005CC08D818130A9F484E390E024E330E096
:10050000F9012081622F2B81422F50E021E030E061
:1005100002C0220F331F4A95E2F7262BFC012083ED
:1005200044C084E390E024E330E0F9012081622FAD
:100530002B81422F50E021E030E002C0220F331F18
:100540004A95E2F720952623FC0120832EC08D8159
:100550008130A9F481E390E021E330E0F9012081CA
:10056000622F2B81422F50E021E030E002C0220FA9
:10057000331F4A95E2F7262BFC01208315C081E347
:1005800090E021E330E0F9012081622F2B81422F9E
:1005900050E021E030E002C0220F331F4A95E2F71D
:1005A00020952623FC012083000089810F900F9065
:1005B0000F900F900F90DF91CF910895CF93DF931D
:1005C00000D000D01F92CDB7DEB78C836D83198227
:1005D0008C81803218F081E08983DDC08D8181308B
:1005E00031F08D81882319F081E08983D4C08C811A
:1005F0008695869586958A838C8187708B838A8180
:10060000882F90E081309105E1F1823091051CF452
:10061000892B49F0C0C08230910509F460C003976E
:1006200009F48BC0B8C08D818130A9F48BE390E0D0
:100630002BE330E0F9012081622F2B81422F50E023
:1006400021E030E002C0220F331F4A95E2F7262B4B
:10065000FC012083A0C08BE390E02BE330E0F901A4
:100660002081622F2B81422F50E021E030E002C038
:10067000220F331F4A95E2F720952623FC012083A1
:100680008AC08D818823B1F488E390E028E330E0CC
:10069000F9012081622F2B81422F50E021E030E0D0
:1006A00002C0220F331F4A95E2F720952623FC0152
:1006B000208371C088E390E028E330E0F9012081D5
:1006C000622F2B81422F50E021E030E002C0220F48
:1006D000331F4A95E2F7262BFC0120835CC08D81F5
:1006E0008130A9F485E390E025E330E0F901208131
:1006F000622F2B81422F50E021E030E002C0220F18
:10070000331F4A95E2F7262BFC01208344C085E382
:1007100090E025E330E0F9012081622F2B81422F08
:1007200050E021E030E002C0220F331F4A95E2F78B
:1007300020952623FC0120832EC08D818130A9F4D1
:1007400082E390E022E330E0F9012081622F2B81E7
:10075000422F50E021E030E002C0220F331F4A95C3
:10076000E2F7262BFC01208315C082E390E022E310
:1007700030E0F9012081622F2B81422F50E021E0EF
:1007800030E002C0220F331F4A95E2F7209526235E
:10079000FC012083000089810F900F900F900F9033
:1007A0000F90DF91CF910895CF93DF9300D01F92E8
:1007B000CDB7DEB78A836B8319828A81843018F0C3
:1007C00081E089832AC08A81882F90E08130910559
:1007D00091F0823091051CF4892B39F01EC08230D3
:1007E000910579F0039799F018C08AE390E02B8186
:1007F000FC01208312C087E390E02B81FC01208361
:100800000CC084E390E02B81FC01208306C081E3CF
:1008100090E02B81FC012083000089810F900F90D4
:100820000F90DF91CF910895CF93DF9300D01F9267
:10083000CDB7DEB78A836B8319828A81843018F042
:1008400081E089832AC08A81882F90E081309105D8
:1008500091F0823091051CF4892B39F01EC0823052
:10086000910579F0039799F018C08BE390E02B8104
:10087000FC01208312C088E390E02B81FC012083DF
:100880000CC085E390E02B81FC01208306C082E34D
:1008900090E02B81FC012083000089810F900F9054
:1008A0000F90DF91CF910895CF93DF9300D000D0C8
:1008B00000D0CDB7DEB78C837E836D8319828C81A7
:1008C000803218F081E089836FC08C81869586958F
:1008D00086958A838C8187708B838A81882F90E0AC
:1008E0008130910511F1823091051CF4892B41F082
:1008F0005BC08230910571F1039709F440C054C088
:1009000089E390E0FC018081882F90E02B81222FE9
:1009100030E002C0959587952A95E2F7282F21703F
:100920008D819E81FC0120833FC086E390E0FC0125
:100930008081882F90E02B81222F30E002C0959596
:1009400087952A95E2F7282F21708D819E81FC01E1
:1009500020832AC083E390E0FC018081882F90E00F
:100960002B81222F30E002C0959587952A95E2F7DA
:10097000282F21708D819E81FC01208315C080E38A
:1009800090E0FC018081882F90E02B81222F30E0C5
:1009900002C0959587952A95E2F7282F21708D81C1
:1009A0009E81FC0120830000898126960FB6F89471
:1009B000DEBF0FBECDBFDF91CF910895CF93DF9300
:1009C00000D000D0CDB7DEB78A837C836B831982D9
:1009D0008A81843018F081E0898336C08A81882F2B
:1009E00090E081309105A9F0823091051CF4892BAB
:1009F00039F02AC082309105A9F00397E1F024C0B4
:100A000089E390E0FC0120818B819C81FC012083A3
:100A10001BC086E390E0FC0120818B819C81FC015E
:100A2000208312C083E390E0FC0120818B819C81B4
:100A3000FC01208309C080E390E0FC0120818B81D0
:100A40009C81FC012083000089810F900F900F9002
:100A50000F90DF91CF910895CF93DF93CDB7DEB79D
:100A600027970FB6F894DEBF0FBECDBF9F838E834E
:100A700019821A821D821C828FEF8B83198252C0C9
:100A80008981882F90E0825F984FFC01808160E02F
:100A90000E94DE021A8236C08A81882F90E08E5E24
:100AA000984FFC012081CE010596BC01822F0E9447
:100AB00054048A81982F990F990F8981890F8C830B
:100AC0008D81813051F48C81882F90E02E813F817F
:100AD000820F931FFC01108212C08C81882F90E03E
:100AE0002E813F81820F931F21E0FC0120838C81A6
:100AF000882F90E0805A9F4FFC0180818B838A81F0
:100B00008F5F8A838A81843038F28981882F90E0D0
:100B1000825F984FFC01808161E00E94DE02898142
:100B20008F5F89838981843008F4AACF8B812796CF
:100B30000FB6F894DEBF0FBECDBFDF91CF91089501
:100B4000CF93DF93CDB7DEB729970FB6F894DEBF0A
:100B50000FBECDBF89878985882F90E081309105B0
:100B600009F442C0823091051CF4892B49F0D8C0A9
:100B70008230910509F46CC0039709F49DC0D0C080
:100B80006FE080E00E94D40361E084E00E94DE0216
:100B900061E085E00E94DE0261E086E00E94DE0204
:100BA00061E087E00E94DE021A82198218C0898102
:100BB00024E0280F89819A818E5E984FFC01208362
:100BC000898193E0292F281B89819A81825F984F20
:100BD000FC01208389819A8101969A838983898186
:100BE0009A81049724F39CC06FE081E00E94D403B3
:100BF00061E08CE00E94DE0261E08DE00E94DE0296
:100C000061E08EE00E94DE0261E08FE00E94DE0281
:100C10001C821B8218C08B812CE0280F8B819C8149
:100C20008E5E984FFC0120838B819BE0292F281B2F
:100C30008B819C81825F984FFC0120838B819C81FA
:100C400001969C838B838B819C81049724F368C0DD
:100C50006FE082E00E94D40361E084E10E94DE0242
:100C600061E085E10E94DE0261E086E10E94DE0231
:100C700061E087E10E94DE021E821D8218C08D8124
:100C800024E1280F8D819E818E5E984FFC01208388
:100C90008D8193E1292F281B8D819E81825F984F42
:100CA000FC0120838D819E8101969E838D838D81A1
:100CB0009E81049724F334C06FE083E00E94D40344
:100CC00061E08CE10E94DE0261E08DE10E94DE02C3
:100CD00061E08EE10E94DE0261E08FE10E94DE02AF
:100CE00018861F8218C08F812CE1280F8F8198856C
:100CF0008E5E984FFC0120838F819BE1292F281B5A
:100D00008F819885825F984FFC0120838F81988521
:100D1000019698878F838F819885049724F300002C
:100D2000000029960FB6F894DEBF0FBECDBFDF914D
:100D3000CF910895CF93DF9300D01F92CDB7DEB748
:100D40009B838A83198216C08981882F90E02A812B
:100D50003B81820F931FFC018081813041F48981A6
:100D6000882F90E0805A9F4FFC01808107C08981C5
:100D70008F5F89838981803138F38FEF0F900F90D7
:100D80000F90DF91CF910895CF93DF93CDB7DEB76A
:100D90002F970FB6F894DEBF0FBECDBF8F8760E0F0
:100DA00081E10E94DE028F858170682F87E00E94BA
:100DB000DE028F8586958170682F86E00E94DE02B4
:100DC0008F85869586958170682F85E00E94DE026A
:100DD0008F858695869586958170682F84E00E9420
:100DE000DE028F8582958F708170682F83E00E946C
:100DF000DE028F858295869587708170682F82E0EC
:100E00000E94DE028F85829586958695837081701B
:100E1000682F81E00E94DE028F85881F8827881F47
:100E2000682F80E00E94DE0261E082E10E94DE0223
:100E300080E090E0A0E8BFE389839A83AB83BC8322
:100E400020E030E04AEF54E469817A818B819C8113
:100E50000E946931DC01CB018D839E83AF83B8870B
:100E600020E030E040E85FE36D817E818F819885EE
:100E70000E94493088232CF481E090E09A8789878A
:100E80003FC020E03FEF4FE757E46D817E818F81C7
:100E900098850E94643118164CF520E030E040E25D
:100EA00051E469817A818B819C810E946931DC01E6
:100EB000CB01BC01CD010E94C030DC01CB019A877F
:100EC00089870FC088EC90E09C878B878B859C85F9
:100ED0000197F1F79C878B8789859A8501979A8777
:100EE000898789859A85892B69F714C06D817E81F0
:100EF0008F8198850E94C030DC01CB019A87898759
:100F000089859A859E878D878D859E850197F1F7C6
:100F10009E878D8760E082E10E94DE0200002F96AE
:100F20000FB6F894DEBF0FBECDBFDF91CF9108950D
:100F3000CF93DF931F92CDB7DEB7898360E080E166
:100F40000E94DE0289810E94C40600000F90DF919A
:100F5000CF910895CF93DF931F92CDB7DEB78983EA
:100F600061E080E10E94DE0289810E94C4060000E7
:100F70000F90DF91CF9108950F931F93CF93DF933D
:100F8000CDB7DEB7CA56D1090FB6F894DEBF0FBE93
:100F9000CDBF61E080E10E94E80161E081E10E9453
:100FA000E80161E082E10E94E80161E087E00E94DF
:100FB000E80161E086E00E94E80161E085E00E94CE
:100FC000E80161E084E00E94E80161E083E00E94C2
:100FD000E80161E082E00E94E80161E081E00E94B6
:100FE000E80161E080E00E94E80180E090E0A8E490
:100FF000B2E489839A83AB83BC838E010F591F4F60
:1010000020E030E04AEF54E469817A818B819C8151
:101010000E946931DC01CB01F80180839183A283B6
:10102000B383CE018F599F4F20E030E040E85FE36B
:10103000FC0160817181828193810E944930882303
:101040004CF4CE018B599F4F21E030E0FC013183FD
:10105000208369C0CE018F599F4F20E03FEF4FE7BB
:1010600057E4FC0160817181828193810E94643127
:1010700018160CF046C020E030E040E251E46981EF
:101080007A818B819C810E946931DC01CB018E01C8
:101090000B591F4FBC01CD010E94C030DC01CB01B8
:1010A000F8019183808324C0CE0189599F4F28EC99
:1010B00030E0FC0131832083CE0189599F4FFC0130
:1010C000808191810197F1F79E0129593F4FF901E4
:1010D00091838083CE018B599F4F9E012B593F4FA7
:1010E000F9012081318121503109FC0131832083B4
:1010F000CE018B599F4FFC0180819181892BA1F6F4
:101100002CC08E010B591F4FCE018F599F4FFC01F0
:1011100060817181828193810E94C030DC01CB01AA
:10112000F80191838083CE0187599F4F9E012B59EF
:101130003F4FF90120813181FC0131832083CE01B1
:1011400087599F4FFC01808191810197F1F79E01A2
:1011500027593F4FF9019183808380E090E0A0E21E
:10116000B2E48D839E83AF83B8878E01095A1F4FE7
:1011700020E030E04AEF54E46D817E818F819885D4
:101180000E946931DC01CB01F80180839183A28345
:10119000B383CE01895A9F4F20E030E040E85FE3FF
:1011A000FC0160817181828193810E944930882392
:1011B0004CF4CE01855A9F4F21E030E0FC01318391
:1011C000208369C0CE01895A9F4F20E03FEF4FE74F
:1011D00057E4FC0160817181828193810E946431B6
:1011E00018160CF046C020E030E040E251E46D817A
:1011F0007E818F8198850E946931DC01CB018E014F
:10120000055A1F4FBC01CD010E94C030DC01CB014B
:10121000F8019183808324C0CE01835A9F4F28EC2C
:1012200030E0FC0131832083CE01835A9F4FFC01C3
:10123000808191810197F1F79E01235A3F4FF90177
:1012400091838083CE01855A9F4F9E01255A3F4F3F
:10125000F9012081318121503109FC013183208342
:10126000CE01855A9F4FFC0180819181892BA1F687
:101270002CC08E01055A1F4FCE01895A9F4FFC0189
:1012800060817181828193810E94C030DC01CB0139
:10129000F80191838083CE01815A9F4F9E01255A88
:1012A0003F4FF90120813181FC0131832083CE0140
:1012B000815A9F4FFC01808191810197F1F79E0136
:1012C000215A3F4FF9019183808388E30E94980758
:1012D00080E090E0A8E4B2E489879A87AB87BC8776
:1012E0002BEA3AEA4AE250E469857A858B859C8547
:1012F0000E946931DC01CB018BAF9CAFADAFBEAFBB
:101300008E01015C1F4F89859A85AB85BC859C0148
:10131000AD01BC01CD010E94DD2FDC01CB01F80144
:1013200080839183A283B38320E030E040E85FE3D1
:101330006BAD7CAD8DAD9EAD0E94493088233CF4F1
:10134000CE018D5B9F4F21E0FC01208322C1CE01A5
:10135000CF9620E03FEF4FE757E4FC0160817181B9
:10136000828193810E94643118160CF0CDC020E078
:1013700030E04AE754E469857A858B859C850E9434
:101380004E30DC01CB019E012C5B3F4FF901808385
:101390009183A283B3838E01085B1F4FCE018C5BC8
:1013A0009F4F20E030E04AEF54E4FC0160817181FE
:1013B000828193810E946931DC01CB01F801808335
:1013C0009183A283B383CE01885B9F4F20E030E0FE
:1013D00040E85FE3FC0160817181828193810E941A
:1013E000493088234CF4CE01845B9F4F21E030E0EC
:1013F000FC01318320836DC0CE01885B9F4F20E0CC
:101400003FEF4FE757E4FC01608171818281938156
:101410000E94643118160CF04AC0CE018C5B9F4FBD
:1014200020E030E040E251E4FC0160817181828182
:1014300093810E946931DC01CB018E01045B1F4F57
:10144000BC01CD010E94C030DC01CB01F8019183C9
:10145000808324C0CE01825B9F4F28EC30E0FC01EA
:1014600031832083CE01825B9F4FFC01808191817B
:101470000197F1F79E01225B3F4FF9019183808331
:10148000CE01845B9F4F9E01245B3F4FF901208179
:10149000318121503109FC0131832083CE01845BED
:1014A0009F4FFC0180819181892BA1F672C08E0132
:1014B000045B1F4FCE01885B9F4FFC0160817181EF
:1014C000828193810E94C030DC01CB01F8019183BD
:1014D0008083CE01805B9F4F9E01245B3F4FF901CB
:1014E00020813181FC0131832083CE01805B9F4FBD
:1014F000FC01808191810197F1F79E01205B3F4FB4
:10150000F9019183808345C020E030E04FE753E448
:101510006BAD7CAD8DAD9EAD0E946431181664F547
:101520008E010E5A1F4FCE01CF96FC016081718152
:10153000828193810E94C030DC01CB01F80191834C
:101540008083CE018C5A9F4F9E012E5A3F4FF90146
:1015500020813181FC0131832083CE018C5A9F4F41
:10156000FC01808191810197F1F79E012C5A3F4F38
:10157000F9019183808324C08E010D5B1F4F6BADF9
:101580007CAD8DAD9EAD0E94C030DC01CB01F80179
:101590008083CE018A5A9F4F9E012D5B3F4FF901F8
:1015A0002081FC012083CE018A5A9F4FFC0180815B
:1015B000282F2A95F1F7CE018A5A9F4FFC012083EC
:1015C0008CE00E94980780E090E0A8E4B2E48D8768
:1015D0009E87AF87B88B2BEA3AEA4AE250E46D85E2
:1015E0007E858F8598890E946931DC01CB018F8FC0
:1015F00098A3A9A3BAA38D859E85AF85B8899C01C0
:10160000AD01BC01CD010E94DD2FDC01CB018BA31C
:101610009CA3ADA3BEA320E030E040E85FE36F8D64
:1016200078A189A19AA10E94493088231CF481E005
:101630008FA3B2C020E03FEF4FE757E46BA17CA13E
:101640008DA19EA10E94643118160CF07BC020E091
:1016500030E04AE754E46D857E858F8598890E9445
:101660004E30DC01CB0188A799A7AAA7BBA720E031
:1016700030E04AEF54E468A579A58AA59BA50E94AD
:101680006931DC01CB018CA79DA7AEA7BFA720E0E5
:1016900030E040E85FE36CA57DA58EA59FA50E9484
:1016A000493088232CF481E090E099AB88AB3FC0AF
:1016B00020E03FEF4FE757E46CA57DA58EA59FA5E1
:1016C0000E94643118164CF520E030E040E251E40D
:1016D00068A579A58AA59BA50E946931DC01CB018B
:1016E000BC01CD010E94C030DC01CB0199AB88ABBD
:1016F0000FC088EC90E09BAB8AAB8AA99BA90197AD
:10170000F1F79BAB8AAB88A999A9019799AB88ABF4
:1017100088A999A9892B69F73FC06CA57DA58EA5DD
:101720009FA50E94C030DC01CB0199AB88AB88A992
:1017300099A99DAB8CAB8CA99DA90197F1F79DABA5
:101740008CAB2AC020E030E04FE753E46F8D78A1E6
:1017500089A19AA10E9464311816ACF46BA17CA1F6
:101760008DA19EA10E94C030DC01CB019FAB8EAB4E
:101770008EA99FA999AF88AF88AD99AD0197F1F770
:1017800099AF88AF0FC06F8D78A189A19AA10E94EF
:10179000C030DC01CB018FA38FA18AAF8AAD8A95BF
:1017A000F1F78AAF81E00E94980780E090E0A0E026
:1017B000B0E4898B9A8BAB8BBC8B20E030E04AEF96
:1017C00054E469897A898B899C890E946931DC019A
:1017D000CB018D8B9E8BAF8BB88F20E030E040E843
:1017E0005FE36D897E898F89988D0E9449308823B7
:1017F0002CF481E090E09A8F898F3FC020E03FEF8A
:101800004FE757E46D897E898F89988D0E946431F6
:1018100018164CF520E030E040E251E469897A89FD
:101820008B899C890E946931DC01CB01BC01CD010F
:101830000E94C030DC01CB019A8F898F0FC088ECE9
:1018400090E09C8F8B8F8B8D9C8D0197F1F79C8FF7
:101850008B8F898D9A8D01979A8F898F898D9A8D1B
:10186000892B69F714C06D897E898F89988D0E94B4
:10187000C030DC01CB019A8F898F898D9A8D9E8F24
:101880008D8F8D8D9E8D0197F1F79E8F8D8F00002E
:10189000C659DF4F0FB6F894DEBF0FBECDBFDF9144
:1018A000CF911F910F910895CF93DF9300D01F9296
:1018B000CDB7DEB79B838A83198214C089818031BA
:1018C00019F480E10E94330D8981882F90E02A81EC
:1018D0003B81820F931FFC0180810E94AA078981AE
:1018E0008F5F89838981882F90E02A813B81820FD5
:1018F000931FFC018081882309F700000F900F904F
:101900000F90DF91CF910895CF93DF93CDB7DEB7DE
:1019100081E00E9498070000DF91CF910895CF9356
:10192000DF93CDB7DEB761970FB6F894DEBF0FBE79
:10193000CDBF998B888B198280C08981882F90E0D8
:1019400028893989820F931FFC0180810E94AA0790
:1019500080E090E0AAEFB3E48A839B83AC83BD83ED
:1019600020E030E04AEF54E46A817B818C819D81E4
:101970000E946931DC01CB018E839F83A887B987E0
:1019800020E030E040E85FE36E817F8188859985C3
:101990000E94493088232CF481E090E09B878A875D
:1019A0003FC020E03FEF4FE757E46E817F8188859D
:1019B00099850E94643118164CF520E030E040E231
:1019C00051E46A817B818C819D810E946931DC01B7
:1019D000CB01BC01CD010E94C030DC01CB019B8753
:1019E0008A870FC088EC90E09D878C878C859D85C9
:1019F0000197F1F79D878C878A859B8501979B8747
:101A00008A878A859B85892B69F714C06E817F81BF
:101A1000888599850E94C030DC01CB019B878A872D
:101A20008A859B859F878E878E859F850197F1F795
:101A30009F878E8789818F5F89838981882F90E036
:101A400028893989820F931FFC018081882309F03E
:101A500074CF000061960FB6F894DEBF0FBECDBF05
:101A6000DF91CF910895CF93DF931F92CDB7DEB76B
:101A700089838981803128F4898180580E94980760
:101A800004C0898180550E94980700000F90DF9163
:101A9000CF910895CF93DF93CDB7DEB763970FB69D
:101AA000F894DEBF0FBECDBF9B8B8A8B1B821A8240
:101AB00097C08A810E94330D19820EC08981882FB8
:101AC00090E02A893B89820F931FFC0180810E944C
:101AD000AA0789818F5F89838981882F90E02A896D
:101AE0003B89820F931FFC018081882339F780E0B6
:101AF00090E0AAE7B4E48C839D83AE83BF8320E0AB
:101B000030E04AEF54E46C817D818E819F810E9498
:101B10006931DC01CB0188879987AA87BB8720E0E0
:101B200030E040E85FE3688579858A859B850E947F
:101B3000493088232CF481E090E09D878C873FC05A
:101B400020E03FEF4FE757E4688579858A859B85DC
:101B50000E94643118164CF520E030E040E251E478
:101B60006C817D818E819F810E946931DC01CB0176
:101B7000BC01CD010E94C030DC01CB019D878C8768
:101B80000FC088EC90E09F878E878E859F85019798
:101B9000F1F79F878E878C859D8501979D878C8720
:101BA0008C859D85892B69F714C0688579858A8520
:101BB0009B850E94C030DC01CB019D878C878C8582
:101BC0009D85998B888B888999890197F1F7998BE5
:101BD000888B0E94840C8A819B8101969B838A83D7
:101BE0008A819B8105970CF464CF000063960FB641
:101BF000F894DEBF0FBECDBFDF91CF9108958F92D5
:101C0000AF92CF92EF920F93CF93DF93CDB7DEB722
:101C100029970FB6F894DEBF0FBECDBF89836A83C4
:101C20004B832C830D83EE82CF82A886898689859B
:101C30000E94980789810E94AA078A810E94AA07A8
:101C40008B810E94AA078C810E94AA078D810E9425
:101C5000AA078E810E94AA078F810E94AA07888501
:101C60000E94AA0780E80E949807000029960FB6F4
:101C7000F894DEBF0FBECDBFDF91CF910F91EF90F3
:101C8000CF90AF908F900895CF93DF9300D000D086
:101C90001F92CDB7DEB79D838C831A8219821B8277
:101CA0003CC04C815D819A01ADECBCEC0E94CD2F13
:101CB0009C01369527953695279536952795C90128
:101CC000880F991F9C01220F331F220F331F820F91
:101CD000931F9A01281B390B89819A81880F991FBC
:101CE000AC01440F551F440F551F840F951F820FE1
:101CF000931F9A8389838C819D819C01ADECBCEC00
:101D00000E94CD2F96958795969587959695879560
:101D10009D838C838B818F5F8B838C819D81892BAD
:101D200009F0BFCF1D821C8231C049815A819A01BE
:101D3000ADECBCEC0E94CD2F969587959695879536
:101D400096958795880F991F9C01220F331F220FAC
:101D5000331F820F931F9A01281B390BC901805D25
:101D60000E94AA0789819A819C01ADECBCEC0E947B
:101D7000CD2F9695879596958795969587959A8375
:101D800089838C819D8101969D838C838B81282FF3
:101D900030E08C819D818217930738F200000F900C
:101DA0000F900F900F900F90DF91CF910895CF93E8
:101DB000DF931F92CDB7DEB7898399818DEC989F11
:101DC000812D1124869586958695805D0E94AA07AF
:101DD00099818DEC989F812D112486958695869505
:101DE000880F282F220F220F820F292F281B822FC6
:101DF000805D0E94AA0700000F90DF91CF910895A7
:101E0000CF93DF9300D0CDB7DEB78BE090E00E9498
:101E100061129A83898389819A81892B51F0898102
:101E20009A81FC011182108289819A8102960E9416
:101E3000E01289819A810F900F90DF91CF910895E0
:101E4000CF93DF93CDB7DEB760970FB6F894DEBFC0
:101E50000FBECDBF9A8789877C876B875E874D874A
:101E6000388B2F8789859A859C838B831D820E945E
:101E700072248B819C81FC01808191819F838E8360
:101E80002B853C8589859A85B9010E9402112E8196
:101E90003F818B859C85282B392B8D859E8528231A
:101EA00039238D859E8528173907D9F42E813F81E6
:101EB0008B859C85822B932B9A8389838B819C8134
:101EC000FC01208131818D859E8580959095282308
:101ED00039238B819C81FC0131832083188A1F86E2
:101EE0001CC08F859889892B79F08D859E859C01F2
:101EF00035608B819C8102964F855889B9010E947B
:101F0000EE261A82198209C08B819C81FC01808196
:101F100091819A83898381E08D830E947F248887C1
:101F20008F859889892B09F43DC08885882311F411
:101F30000E947E160E94512B9A83898389819A81FF
:101F400088279270892B49F50FB6F8940F928B81F0
:101F50009C81FC01808191819A83898329813A81C6
:101F60008D859E85282339238D859E8528173907E1
:101F700081F48B819C81FC01208131818D859E853E
:101F800080959095282339238B819C81FC01318396
:101F900020830F900FBE81E08D8389819A819927DC
:101FA0009A83898389819A8160960FB6F894DEBFFF
:101FB0000FBECDBFDF91CF9108950F931F93CF93A5
:101FC000DF93CDB7DEB763970FB6F894DEBF0FBED1
:101FD000CDBF9D878C877F876E87488B298B1B8B16
:101FE0000A8B8C859D859E838D831C821B821F821C
:101FF0000E9472248D819E81FC018081918199874C
:1020000088872E853F85888599854989B9010E94F1
:102010002F128A878A858823D1F0888599859A83AB
:1020200089831B8A1A8A88898823E1F18D819E81A0
:10203000FC01208131818E859F8580959095282394
:1020400039238D819E81FC01318320832BC08A89B5
:102050009B89892B39F4888599859A83898381E0C6
:102060008F8320C08889882329F08B819C8191608F
:102070009C838B838989882329F08B819C81946040
:102080009C838B832E853F858B819C81282B392BCC
:102090008D819E8102964A895B89B9010E94EE2654
:1020A0001A8219820E947F248B878A899B89892BB7
:1020B00009F43FC08B85882311F40E947E160E948C
:1020C000512B9A83898389819A8188279270892BE1
:1020D00059F50FB6F8940F928D819E81FC01808195
:1020E00091819A8389832E853F8589819A81498947
:1020F000B9010E942F12882399F08889882381F0E2
:102100008D819E81FC01208131818E859F85809506
:102110009095282339238D819E81FC013183208372
:1021200081E08F830F900FBE89819A8199279A83CE
:10213000898389819A8163960FB6F894DEBF0FBEBA
:10214000CDBFDF91CF911F910F910895CF93DF9372
:10215000CDB7DEB728970FB6F894DEBF0FBECDBF60
:102160009E838D8378876F838D819E819A838983F7
:102170000FB6F8940F9289819A81FC018081918138
:102180009C838B8389819A81FC01208131818F819D
:102190009885809590952823392389819A81FC011F
:1021A000318320830F900FBE8B819C8128960FB6C0
:1021B000F894DEBF0FBECDBFDF91CF910895CF93CE
:1021C000DF93CDB7DEB727970FB6F894DEBF0FBE0B
:1021D000CDBF9F838E838E819F819A8389831B824B
:1021E00089819A81FC01808191819D838C838C817E
:1021F0009D8127960FB6F894DEBF0FBECDBFDF914D
:10220000CF910895CF93DF93CDB7DEB765970FB623
:10221000F894DEBF0FBECDBF9B8B8A8B7D8B6C8B02
:102220001C821B828A899B899F838E831D828E815B
:102230009F810296998788878885998503969B87D1
:102240008A870E94722488859985FC018581968100
:102250009A8389838E819F81FC01208131818C89C1
:102260009D89282B392B8E819F81FC01318320830E
:102270005EC089819A81FC01828193819D878C87D0
:1022800089819A81FC01808191819F878E871D823F
:102290008E859F858827998B888B8E859F8599272A
:1022A0009F878E878889998988279470892B71F4F4
:1022B0008E819F81FC01208131818E859F858223C3
:1022C0009323892B99F081E08D8310C08E819F81AB
:1022D000FC01208131818E859F85282339238E85BD
:1022E0009F852817390711F481E08D838D8188231C
:1022F000D1F08889998988279170892B41F02B81A9
:102300003C818E859F85822B932B9C838B838E8132
:102310009F81FC01808191819C01326089819A8139
:10232000B9010E948D278C859D859A838983298197
:102330003A818A859B852817390709F09ACF8E81C3
:102340009F81FC01208131818B819C8180959095BA
:10235000282339238E819F81FC01318320830E94B1
:102360007F248E819F81FC018081918165960FB6CB
:10237000F894DEBF0FBECDBFDF91CF910895CF930C
:10238000DF9300D000D000D0CDB7DEB79E838D8321
:102390008D819E819A83898389819A8102969C830B
:1023A0008B830E94722409C08B819C81FC018581F2
:1023B000968160E072E00E948D278B819C81FC01F8
:1023C0008081882389F789819A810E94B6120E94B0
:1023D0007F24000026960FB6F894DEBF0FBECDBF57
:1023E000DF91CF910895CF93DF9300D000D000D03C
:1023F000CDB7DEB79A8389834B835C836D837E83FD
:102400002B813C8189819A81B9010E9402110000CF
:1024100026960FB6F894DEBF0FBECDBFDF91CF91E9
:102420000895CF93DF9300D000D000D0CDB7DEB7B2
:102430009A8389834B835C836D837E832B813C816C
:1024400089819A81B9010E94A610000026960FB6D4
:10245000F894DEBF0FBECDBFDF91CF910895CF932B
:10246000DF9300D000D000D0CDB7DEB79B838A8346
:102470007D836C834E8319828E81882359F42A814F
:102480003B818C819D8182239323892B81F081E084
:1024900089830DC02A813B818C819D81282339232A
:1024A0008C819D812817390711F481E08983898106
:1024B00026960FB6F894DEBF0FBECDBFDF91CF9149
:1024C0000895CF93DF9300D000D0CDB7DEB79C83C3
:1024D0008B831A8219820E94722480919B069091AC
:1024E0009C06892B31F48EEB90E090939C068093B0
:1024F0009B062091990630919A068B819C81820FD0
:10250000931F8B3D954038F52091990630919A069E
:102510008B819C81280F391F8091990690919A0692
:1025200082179307C0F420919B0630919C068091FE
:10253000990690919A06820F931F9A83898320911E
:10254000990630919A068B819C81820F931F9093FC
:102550009A06809399060E947F2489819A810F9020
:102560000F900F900F90DF91CF910895CF93DF934D
:1025700000D0CDB7DEB79A83898300000F900F900B
:10258000DF91CF910895CF93DF93CDB7DEB710924F
:102590009A06109299060000DF91CF910895CF938B
:1025A000DF93CDB7DEB78091990690919A062BED17
:1025B00035E0A901481B590BCA01DF91CF9108955D
:1025C000CF93DF9300D0CDB7DEB79A83898389811B
:1025D0009A819C012D5F3F4F89819A81FC01328352
:1025E000218389819A812FEF3FEFFC01348323837C
:1025F00089819A819C012D5F3F4F89819A81FC01DD
:102600003683258389819A819C012D5F3F4F898183
:102610009A81FC013087278389819A81FC0110828D
:1026200000000F900F90DF91CF910895CF93DF932B
:1026300000D0CDB7DEB79A83898389819A81FC0166
:102640001186108600000F900F90DF91CF910895B2
:10265000CF93DF9300D000D000D0CDB7DEB79C83FE
:102660008B837E836D838B819C81FC018181928130
:102670009A8389838D819E8129813A81FC013383EC
:10268000228389819A81FC01248135818D819E81FB
:10269000FC013583248389819A81FC0184819581A1
:1026A0002D813E81FC013383228389819A812D8192
:1026B0003E81FC01358324838D819E812B813C8169
:1026C000FC01318720878B819C81FC01808121E086
:1026D000280F8B819C81FC012083000026960FB679
:1026E000F894DEBF0FBECDBFDF91CF910895CF9399
:1026F000DF93CDB7DEB728970FB6F894DEBF0FBED5
:10270000CDBF9E838D8378876F838F819885FC01F1
:10271000808191819C838B838B819C81019641F484
:102720008D819E81FC01878190859A8389831AC05F
:102730008D819E8103969A83898307C089819A81BE
:10274000FC01828193819A83898389819A81FC012A
:1027500082819381FC01208131818B819C81821750
:10276000930760F789819A81FC01228133818F81EF
:102770009885FC01338322838F819885FC018281B7
:1027800093812F813885FC01358324838F8198853F
:1027900029813A81FC013583248389819A812F81A3
:1027A0003885FC01338322838F8198852D813E817A
:1027B000FC01318720878D819E81FC01808121E091
:1027C000280F8D819E81FC012083000028960FB682
:1027D000F894DEBF0FBECDBFDF91CF910895CF93A8
:1027E000DF9300D000D0CDB7DEB79C838B838B8185
:1027F0009C81FC01808591859A8389838B819C8152
:10280000FC01828193812B813C81F90124813581F6
:10281000FC01358324838B819C81FC01848195811B
:102820002B813C81F90122813381FC013383228396
:1028300089819A81FC01218132818B819C812817B9
:10284000390751F48B819C81FC0124813581898178
:102850009A81FC01328321838B819C81FC0111864A
:10286000108689819A81FC0180812FEF280F898150
:102870009A81FC01208389819A81FC0180810F90DB
:102880000F900F900F90DF91CF910895EF92FF92EC
:102890000F93CF93DF93CDB7DEB70E94BC070E94A2
:1028A000840C81E00E94A005E12CF12C01E020E0E5
:1028B00030E046E950E061E870E089E490E00E9491
:1028C000EF1FE12CF12C01E020E030E046E950E080
:1028D00069E870E08CE990E00E94EF1FE12CF12C98
:1028E00001E020E030E046E950E061E970E088EE88
:1028F00090E00E94EF1FE12CF12C02E020E030E09C
:1029000046E950E067E970E084E491E00E94EF1F3F
:10291000E12CF12C02E020E030E04CE251E061EAF1
:1029200070E088E791E00E94EF1F0E943024FFCF03
:10293000CF93DF93CDB7DEB728970FB6F894DEBFFD
:102940000FBECDBF9C838B837E836D8358874F835F
:102950008B819C8121E1FC0120838B819C810197EB
:102960009C838B838B819C8122E2FC0120838B8161
:102970009C8101979C838B838B819C8123E3FC0149
:1029800020838B819C8101979C838B838D819E8189
:102990009A83898329818B819C81FC0120838B818F
:1029A0009C8101979C838B8389819A81892F9927A8
:1029B0009A83898329818B819C81FC0120838B816F
:1029C0009C8101979C838B838B819C81FC0110826D
:1029D0008B819C8101979C838B838B819C8120E8D8
:1029E000FC0120838B819C8101979C838B838B814D
:1029F0009C81FC0110828B819C8101979C838B833D
:102A00008B819C8122E0FC0120838B819C8101973A
:102A10009C838B838B819C8123E0FC0120838B81B1
:102A20009C8101979C838B838B819C8124E0FC019A
:102A300020838B819C8101979C838B838B819C81DC
:102A400025E0FC0120838B819C8101979C838B83F3
:102A50008B819C8126E0FC0120838B819C810197E6
:102A60009C838B838B819C8127E0FC0120838B815D
:102A70009C8101979C838B838B819C8128E0FC0146
:102A800020838B819C8101979C838B838B819C818C
:102A900029E0FC0120838B819C8101979C838B839F
:102AA0008B819C8120E1FC0120838B819C8101979B
:102AB0009C838B838B819C8121E1FC0120838B8112
:102AC0009C8101979C838B838B819C8122E1FC01FB
:102AD00020838B819C8101979C838B838B819C813C
:102AE00023E1FC0120838B819C8101979C838B8354
:102AF0008B819C8124E1FC0120838B819C81019747
:102B00009C838B838B819C8125E1FC0120838B81BD
:102B10009C8101979C838B838B819C8126E1FC01A6
:102B200020838B819C8101979C838B838B819C81EB
:102B300027E1FC0120838B819C8101979C838B83FF
:102B40008B819C8128E1FC0120838B819C810197F2
:102B50009C838B838B819C8129E1FC0120838B8169
:102B60009C8101979C838B838B819C8120E2FC015B
:102B700020838B819C8101979C838B838B819C819B
:102B800021E2FC0120838B819C8101979C838B83B4
:102B90008B819C8122E2FC0120838B819C810197A7
:102BA0009C838B838B819C8123E2FC0120838B811E
:102BB0009C8101979C838B838F8198859A838983DD
:102BC00029818B819C81FC0120838B819C810197D1
:102BD0009C838B8389819A81892F99279A83898302
:102BE00029818B819C81FC0120838B819C810197B1
:102BF0009C838B838B819C8126E2FC0120838B81CB
:102C00009C8101979C838B838B819C8127E2FC01B3
:102C100020838B819C8101979C838B838B819C81FA
:102C200028E2FC0120838B819C8101979C838B830C
:102C30008B819C8129E2FC0120838B819C810197FF
:102C40009C838B838B819C8120E3FC0120838B817F
:102C50009C8101979C838B838B819C8121E3FC0168
:102C600020838B819C8101979C838B838B819C81AA
:102C700028960FB6F894DEBF0FBECDBFDF91CF917F
:102C80000895CF93DF93CDB7DEB70E943617A0919A
:102C90009D06B0919E06CD91CDBFDD91DEBFFF9127
:102CA000EF91DF91CF91BF91AF919F918F917F91E4
:102CB0006F915F914F913F912F911F910F91FF90D5
:102CC000EF90DF90CF90BF90AF909F908F907F90CC
:102CD0006F905F904F903F902F901F900F900FBE7E
:102CE0000F90089581E0DF91CF910895CF93DF9306
:102CF000CDB7DEB70000DF91CF9108950F920FB6E8
:102D0000F8940F921F9211242F923F924F925F924C
:102D10006F927F928F929F92AF92BF92CF92DF92EB
:102D2000EF92FF920F931F932F933F934F935F93D5
:102D30006F937F938F939F93AF93BF93CF93DF93C3
:102D4000EF93FF93A0919D06B0919E060DB60D9254
:102D50000EB60D920E945726A0919D06B0919E0638
:102D6000CD91CDBFDD91DEBFFF91EF91DF91CF918E
:102D7000BF91AF919F918F917F916F915F914F9193
:102D80003F912F911F910F91FF90EF90DF90CF9087
:102D9000BF90AF909F908F907F906F905F904F907B
:102DA0003F902F901F900F900FBE0F90089500003E
:102DB0000F920FB6F8940F921F9211242F923F9208
:102DC0004F925F926F927F928F929F92AF92BF923B
:102DD000CF92DF92EF92FF920F931F932F933F9327
:102DE0004F935F936F937F938F939F93AF93BF9313
:102DF000CF93DF93EF93FF93A0919D06B0919E0632
:102E00000DB60D920EB60D920E946A25882311F020
:102E10000E945726A0919D06B0919E06CD91CDBFF0
:102E2000DD91DEBFFF91EF91DF91CF91BF91AF9127
:102E30009F918F917F916F915F914F913F912F91D2
:102E40001F910F91FF90EF90DF90CF90BF90AF90C8
:102E50009F908F907F906F905F904F903F902F90BA
:102E60001F900F900FBE0F9008950000CF93DF9337
:102E700000D000D000D0CDB7DEB780E095E3ACE065
:102E8000B0E089839A83AB83BC8389819A81AB81CB
:102E9000BC81689415F8B695A79597958795169473
:102EA000D1F789839A83AB83BC8389819A81AB8173
:102EB000BC810197A109B10989839A83AB83BC8343
:102EC00089818D8389819A81AB81BC81892F9A2FD9
:102ED000AB2FBB2789839A83AB83BC8389818E8385
:102EE0008BE490E02E81FC0120838AE490E02D8128
:102EF000FC0120838BE08D838EE490E02D81FC012A
:102F0000208389E590E0FC0180818D838D81806143
:102F10008D8389E590E02D81FC01208300002696B9
:102F20000FB6F894DEBF0FBECDBFDF91CF910895ED
:102F30000E94D81618950000CF93DF9300D000D0E0
:102F40001F92CDB7DEB79C838B836D838B819C8171
:102F50009A8389830FB6F8940F9289819A81FC0134
:102F60008081918129813A81F901238D422F50E09E
:102F700029813A81F901248D222F30E0429FB0014E
:102F8000439F700D529F700D11249B01280F391F14
:102F900089819A81FC013583248389819A81FC018E
:102FA000128E89819A81FC012081318189819A81E7
:102FB000FC013383228389819A81FC012081318144
:102FC00089819A81FC01838D882F90E0BC0161503A
:102FD000710989819A81FC01848D482F50E0649F9A
:102FE000C001659F900D749F900D1124280F391F0B
:102FF00089819A81FC013783268389819A812FEF09
:10300000FC01258F89819A812FEFFC01268F8D810C
:10301000882381F489819A81FC0180858823A1F02D
:1030200089819A8108960E942027882369F00E944E
:103030007E160AC089819A8108960E94E0128981D1
:103040009A8141960E94E0120F900FBE81E00F908E
:103050000F900F900F900F90DF91CF9108950F93E5
:103060001F93CF93DF93CDB7DEB729970FB6F894B0
:10307000DEBF0FBECDBF8F836887498788858823D1
:1030800019F41A8219820FC08F81482F50E0888569
:10309000282F30E0429FC001439F900D529F900D1A
:1030A00011249A83898389819A814F960E946112A3
:1030B0009C838B838B819C81892BA1F08B819C814C
:1030C0009E838D838D819E814F969E838D832B81E0
:1030D0003C818D819E8189012985AC0168858F8124
:1030E0000E947F188B819C8129960FB6F894DEBFD1
:1030F0000FBECDBFDF91CF911F910F9108950F9318
:103100001F93CF93DF93CDB7DEB727970FB6F89411
:10311000DEBF0FBECDBF89836A835C834B832D8363
:103120001F830E838A81882341F48E819F812E81A3
:103130003F81FC013183208307C08E819F812B81D9
:103140003C81FC01318320838E819F812981FC0198
:10315000238F8E819F812A81FC01248F8E819F8104
:1031600061E00E949C17000027960FB6F894DEBF1E
:103170000FBECDBFDF91CF911F910F910895CF93D7
:10318000DF9300D0CDB7DEB79A83898389819A8196
:10319000892BB9F089819A81FC0115821482898179
:1031A0009A81FC011182108289819A81FC01168228
:1031B00089819A8120E040E050E060E070E00E9468
:1031C000071900000F900F90DF91CF910895CF93D2
:1031D000DF9300D000D01F92CDB7DEB78D8381E0A2
:1031E00089831A824D816A8189810E942F189C836C
:1031F0008B838B819C810E94BF188B819C810F9057
:103200000F900F900F900F90DF91CF910895CF9373
:10321000DF93CDB7DEB72E970FB6F894DEBF0FBEA3
:10322000CDBF998788877B876A875D874C872E8784
:103230001982888599859B838A830FB6F8940F92AB
:103240008A819B81FC01228D8A819B81FC01838D77
:10325000281718F08E85823011F52A853B858A81E2
:103260009B814E85B9010E94EC1D8C838A819B81D4
:10327000FC018189882351F08A819B8141960E94BB
:103280002027882341F00E947E1605C08C81882368
:1032900011F00E947E160F900FBE81E060C08C85F9
:1032A0009D85892B21F40F900FBE80E058C0898145
:1032B000882331F4CE0105960E94122881E089838B
:1032C0000F900FBE0E9472240FB6F8940F928A815D
:1032D0009B81FC01858D8F3F21F48A819B81FC01BC
:1032E000158E8A819B81FC01868D8F3F21F48A8116
:1032F0009B81FC01168E0F900FBE9E01245F3F4FF5
:10330000CE010596B9010E942E28882309F58A81ED
:103310009B810E94A91F8823A1F02C853D858A816D
:103320009B810896B9010E94CB268A819B810E94CD
:103330000D1F0E947F24882309F07FCF0E947E16F4
:103340007CCF8A819B810E940D1F0E947F2475CFB4
:103350008A819B810E940D1F0E947F2480E02E960F
:103360000FB6F894DEBF0FBECDBFDF91CF910895A9
:10337000CF93DF93CDB7DEB72C970FB6F894DEBFAF
:103380000FBECDBF9F838E83798768875B874A870F
:103390002C878E819F819B838A831C828A819B815B
:1033A000FC01228D8A819B81FC01838D281718F0F6
:1033B0008C85823089F58A819B81FC01868D8D8385
:1033C000288539858A819B814C85B9010E94EC1D35
:1033D0008D818F3FB9F48A819B81FC01818988238B
:1033E000C1F08A819B8141960E942027882389F021
:1033F0008A859B85892B69F08A859B8521E0FC0164
:10340000208307C08D818F5F282F8A819B81FC01DB
:10341000268F81E0898301C0198289812C960FB69D
:10342000F894DEBF0FBECDBFDF91CF910895CF934B
:10343000DF93CDB7DEB72A970FB6F894DEBF0FBE85
:10344000CDBF98878F837A8769878F8198859B8383
:103450008A831C828A819B81FC01828D8D838A8173
:103460009B81FC01938D8D81891780F58A819B81D9
:10347000FC01868D8E838D8121E0280F8A819B81BE
:10348000FC01228F8E818F3FB9F48A819B81FC01E0
:1034900081898823C1F08A819B8141960E942027DF
:1034A000882389F089859A85892B69F089859A8591
:1034B00021E0FC01208307C08E818F5F282F8A8145
:1034C0009B81FC01268F81E0898301C0198289815B
:1034D0002A960FB6F894DEBF0FBECDBFDF91CF9115
:1034E0000895CF93DF93CDB7DEB72D970FB6F8943D
:1034F000DEBF0FBECDBF998788877B876A875D87D0
:103500004C871982888599859B838A830FB6F894A6
:103510000F928A819B81FC01828D8C838C81882310
:1035200009F12A853B858A819B81B9010E94BC1ED5
:103530008C812FEF280F8A819B81FC01228F8A8149
:103540009B81FC018085882349F08A819B810896B4
:103550000E942027882311F00E947E160F900FBE34
:1035600081E067C08C859D85892B21F40F900FBE6B
:1035700080E05FC08981882331F4CE0105960E94E6
:10358000122881E089830F900FBE0E9472240FB62B
:10359000F8940F928A819B81FC01858D8F3F21F4E5
:1035A0008A819B81FC01158E8A819B81FC01868D1D
:1035B0008F3F21F48A819B81FC01168E0F900FBEF4
:1035C0009E01245F3F4FCE010596B9010E942E282F
:1035D000882309F58A819B810E946B1F8823A1F0B3
:1035E0002C853D858A819B814196B9010E94CB261D
:1035F0008A819B810E940D1F0E947F24882309F0ED
:1036000085CF0E947E1682CF8A819B810E940D1FEA
:103610000E947F247BCF8A819B810E940D1F0E9484
:103620007F248A819B810E946B1F882309F46ECFBF
:1036300080E02D960FB6F894DEBF0FBECDBFDF91B0
:10364000CF910895CF93DF93CDB7DEB72D970FB607
:10365000F894DEBF0FBECDBF9B878A877D876C87BE
:1036600019828A859B859C838B831A820FB6F89476
:103670000F928B819C81FC01828D8D838D818823AB
:1036800049F18D812FEF280F8B819C81FC01228FC6
:103690008B819C81FC0180819181892B41F40E9466
:1036A0007B2B9C018B819C81FC01358324838B8146
:1036B0009C81FC018085882349F08B819C81089640
:1036C0000E942027882311F00E947E160F900FBEC3
:1036D00081E090C08C859D85892B21F40F900FBED1
:1036E00080E088C08981882331F4CE0107960E944A
:1036F000122881E089830F900FBE0E9472240FB6BA
:10370000F8940F928B819C81FC01858D8F3F21F471
:103710008B819C81FC01158E8B819C81FC01868DA7
:103720008F3F21F48B819C81FC01168E0F900FBE80
:103730009E01245F3F4FCE010796B9010E942E28BB
:103740008823A9F58B819C810E946B1F882341F1FE
:103750008B819C81FC0180819181892B69F40FB65A
:10376000F8940F928B819C81FC01848195810E9449
:1037700088298A830F900FBE2C853D858B819C8183
:103780004196B9010E94CB268B819C810E940D1F1E
:103790000E947F24882309F069CF0E947E1666CF9D
:1037A0008B819C810E940D1F0E947F245FCF8B81A3
:1037B0009C810E940D1F0E947F248B819C810E940E
:1037C0006B1F882309F452CF8A81882391F00FB6AA
:1037D000F8940F928B819C810E94C91D8E838B81EE
:1037E0009C81FC01848195816E810E94B12A0F9099
:1037F0000FBE80E02D960FB6F894DEBF0FBECDBF92
:10380000DF91CF910895CF93DF93CDB7DEB72F9798
:103810000FB6F894DEBF0FBECDBF9B878A877D872A
:103820006C875F874E8719828A859B859B838A83F5
:103830000FB6F8940F928A819B81FC01828D8C8354
:103840008C81882341F18A819B81FC01868197814B
:103850009E838D832C853D858A819B81B9010E9441
:10386000BC1E8A819B812D813E81FC01378326838A
:103870008A819B81FC018189882349F08A819B810F
:1038800041960E942027882311F00E947E160F90F7
:103890000FBE81E067C08E859F85892B21F40F9034
:1038A0000FBE80E05FC08981882331F4CE01079686
:1038B0000E94122881E089830F900FBE0E9472241B
:1038C0000FB6F8940F928A819B81FC01858D8F3F02
:1038D00021F48A819B81FC01158E8A819B81FC01E8
:1038E000868D8F3F21F48A819B81FC01168E0F907B
:1038F0000FBE9E01225F3F4FCE010796B9010E9485
:103900002E28882309F58A819B810E946B1F8823BA
:10391000A1F02E853F858A819B814196B9010E9445
:10392000CB268A819B810E940D1F0E947F248823C1
:1039300009F07ECF0E947E167BCF8A819B810E94F8
:103940000D1F0E947F2474CF8A819B810E940D1FCE
:103950000E947F248A819B810E946B1F882309F427
:1039600067CF80E02F960FB6F894DEBF0FBECDBFB5
:10397000DF91CF910895CF93DF93CDB7DEB72C972A
:103980000FB6F894DEBF0FBECDBF98878F837A87BE
:1039900069875C874B878F8198859B838A831C828C
:1039A0008A819B81FC01828D8D838D818823B9F171
:1039B0008A819B81FC01858D8E8329853A858A8148
:1039C0009B81B9010E94BC1E8D812FEF280F8A8137
:1039D0009B81FC01228F8E818F3FB9F48A819B816C
:1039E000FC0180858823C1F08A819B8108960E9412
:1039F0002027882389F08B859C85892B69F08B850E
:103A00009C8521E0FC01208307C08E818F5F282FD9
:103A10008A819B81FC01258F81E0898301C0198205
:103A200089812C960FB6F894DEBF0FBECDBFDF9113
:103A3000CF910895CF93DF93CDB7DEB72A970FB616
:103A4000F894DEBF0FBECDBF98878F837A876987D2
:103A50008F8198859B838A831C828A819B81FC014C
:103A6000828D8823C1F08A819B81FC0186819781A8
:103A70009E838D8329853A858A819B81B9010E9425
:103A8000BC1E8A819B812D813E81FC013783268368
:103A900081E0898301C0198289812A960FB6F89442
:103AA000DEBF0FBECDBFDF91CF910895CF93DF93DF
:103AB00000D01F92CDB7DEB79B838A830FB6F894F0
:103AC0000F928A819B81FC01828D89830F900FBEAA
:103AD00089810F900F900F90DF91CF910895CF9330
:103AE000DF9300D000D01F92CDB7DEB79D838C83CB
:103AF0008C819D819A8389830FB6F8940F92898176
:103B00009A81FC01238D89819A81FC01828DF22F9B
:103B1000F81B8F2F8B830F900FBE8B810F900F9010
:103B20000F900F900F90DF91CF910895CF93DF9377
:103B300000D000D01F92CDB7DEB79D838C838C81DF
:103B40009D819A83898389819A81FC01828D8B83EF
:103B50008B810F900F900F900F900F90DF91CF916E
:103B60000895CF93DF9300D000D0CDB7DEB79C830C
:103B70008B838B819C819A83898389819A810E941E
:103B8000B61200000F900F900F900F90DF91CF9121
:103B90000895CF93DF9300D01F92CDB7DEB79B83FC
:103BA0008A838A819B81FC018189882369F08A81CB
:103BB0009B81FC0186899789FC0180819181982FE6
:103BC00085E0891B898301C0198289810F900F903C
:103BD0000F90DF91CF910895CF93DF93CDB7DEB7EC
:103BE00027970FB6F894DEBF0FBECDBF9C838B83A3
:103BF0007E836D834F8319828B819C81FC01828D32
:103C00008A838B819C81FC01848D8823B1F48B8114
:103C10009C81FC0180819181892B09F09CC08B8162
:103C20009C81FC01848195810E94342A89838B8147
:103C30009C81FC01158214828EC08F818823D9F566
:103C40008B819C81FC01848D482F50E08B819C816D
:103C5000FC01828193812D813E81B9010E94D63180
:103C60008B819C81FC01228133818B819C81FC01B1
:103C7000848D882F90E0280F391F8B819C81FC0157
:103C8000338322838B819C81FC01228133818B8150
:103C90009C81FC01848195812817390708F45BC059
:103CA0008B819C81FC01208131818B819C81FC0175
:103CB0003383228350C08B819C81FC01848D482FEB
:103CC00050E08B819C81FC01868197812D813E8112
:103CD000B9010E94D6318B819C81FC0126813781FC
:103CE0008B819C81FC01848D882F90E0919581953A
:103CF0009109280F391F8B819C81FC013783268312
:103D00008B819C81FC01268137818B819C81FC0108
:103D10008081918128173907A8F48B819C81FC014F
:103D2000248135818B819C81FC01848D882F90E0DA
:103D3000919581959109280F391F8B819C81FC01F8
:103D4000378326838F81823031F48A81882319F06A
:103D50008A8181508A838A8121E0280F8B819C810E
:103D6000FC01228F898127960FB6F894DEBF0FBE23
:103D7000CDBFDF91CF910895CF93DF9300D000D0D6
:103D8000CDB7DEB79A8389837C836B8389819A81DF
:103D9000FC01848D8823C9F189819A81FC012681E7
:103DA000378189819A81FC01848D882F90E0280FCA
:103DB000391F89819A81FC013783268389819A8101
:103DC000FC012681378189819A81FC01848195815A
:103DD0002817390750F089819A81FC0120813181AF
:103DE00089819A81FC013783268389819A81FC012C
:103DF000848D482F50E089819A81FC01268137818A
:103E00008B819C81B9010E94D63100000F900F90E8
:103E10000F900F90DF91CF910895CF93DF9300D053
:103E200000D0CDB7DEB79C838B830FB6F8940F928A
:103E30008B819C81FC01868D898312C08B819C8142
:103E4000FC018189882381F08B819C8141960E94AD
:103E50002027882311F00E94A1288981815089831D
:103E6000898118165CF301C000008B819C812FEFC3
:103E7000FC01268F0F900FBE0FB6F8940F928B8126
:103E80009C81FC01858D8A8312C08B819C81FC0101
:103E90008085882381F08B819C8108960E94202751
:103EA000882311F00E94A1288A8181508A838A8107
:103EB00018165CF301C000008B819C812FEFFC0180
:103EC000258F0F900FBE00000F900F900F900F9056
:103ED000DF91CF910895CF93DF9300D01F92CDB79C
:103EE000DEB79B838A830FB6F8940F928A819B81F9
:103EF000FC01828D882319F481E0898301C0198235
:103F00000F900FBE89810F900F900F90DF91CF918E
:103F10000895CF93DF9300D000D01F92CDB7DEB7C6
:103F20009D838C838C819D819B838A838A819B81E5
:103F3000FC01828D882319F481E0898301C01982F4
:103F400089810F900F900F900F900F90DF91CF917C
:103F50000895CF93DF9300D01F92CDB7DEB79B8338
:103F60008A830FB6F8940F928A819B81FC01228D7F
:103F70008A819B81FC01838D281719F481E0898354
:103F800001C019820F900FBE89810F900F900F9082
:103F9000DF91CF910895CF93DF9300D000D01F928F
:103FA000CDB7DEB79D838C838C819D819B838A8373
:103FB0008A819B81FC01228D8A819B81FC01838DFA
:103FC000281719F481E0898301C0198289810F9033
:103FD0000F900F900F900F90DF91CF9108958F92D7
:103FE0009F92AF92BF92CF92DF92EF92FF920F9388
:103FF0001F93CF93DF93CDB7DEB760970FB6F894DA
:10400000DEBF0FBECDBF9F838E83798768875B87B6
:104010004A873D872C870E87F88AEF868A859B859D
:104020000E9461129D838C838C819D81892BB9F0C4
:1040300088E290E00E9461129A83898389819A8143
:10404000892B41F089819A812C813D81FC01308F3F
:10405000278B07C08C819D810E94B61202C01A82F4
:10406000198289819A81892B09F18A859B85CC01E6
:10407000A0E0B0E009811A814F8558892C853D85E3
:1040800068857985EE81FF81812C912C58016A0128
:10409000EE8489019C01AD01CF010E946C208981D1
:1040A0009A810E94402181E08B8302C08FEF8B8335
:1040B0008B8160960FB6F894DEBF0FBECDBFDF9147
:1040C000CF911F910F91FF90EF90DF90CF90BF9015
:1040D000AF909F908F9008958F929F92AF92BF92D2
:1040E000CF92DF92EF920F931F93CF93DF93CDB7D1
:1040F000DEB764970FB6F894DEBF0FBECDBF9D83C9
:104100008C837F836E83288739874A875B871D87E7
:104110000C87EE86D88ACF86BA8AA98A9C8A8B8A2F
:1041200089899A89FC012789308D8885998501972D
:10413000820F931F9B838A838E819F81892B69F1D4
:10414000198221C08981882F90E02981222F30E0B7
:104150004E815F81240F351FF901408129893A89F9
:10416000820F931F4996FC0140838981882F90E03C
:104170002E813F81820F931FFC018081882339F0BB
:1041800089818F5F898389818830E0F201C00000D6
:1041900089899A89FC0110A204C089899A89FC0145
:1041A000118E8E85853010F084E08E8789899A89FA
:1041B0002E85FC01268B89899A892E85FC0121A3F5
:1041C00089899A89FC0112A289899A8902960E949A
:1041D000161389899A890C960E94161389899A89DF
:1041E00029893A89FC01318720878E85882F90E0C4
:1041F00025E030E0281B390B89899A89FC01358735
:10420000248789899A8929893A89FC01338B228BF1
:1042100089899A89FC0113A214A215A216A2898980
:104220009A89FC0117A24C855D852C813D818A818C
:104230009B81B9010E9498149C0189899A89FC018B
:10424000318320838F859889892B39F08F859889D0
:1042500029893A89FC0131832083000064960FB6D6
:10426000F894DEBF0FBECDBFDF91CF911F910F91AC
:10427000EF90DF90CF90BF90AF909F908F90089578
:10428000CF93DF9300D0CDB7DEB79A8389830FB683
:10429000F8940F928091FE068F5F8093FE068091C6
:1042A0009D0690919E06892B69F489819A8190934D
:1042B0009E0680939D068091FE068130C9F40E947F
:1042C000BC2816C080910207882391F480919D0636
:1042D00090919E06FC01268989819A81FC0186893C
:1042E000821730F089819A8190939E0680939D0673
:1042F000809106078F5F8093060789819A81FC0170
:10430000968980910107891730F489819A81FC018F
:1043100086898093010789819A81AC014E5F5F4F46
:1043200089819A81FC018689282F30E0C901880F94
:10433000991F880F991F880F991F820F931F81560D
:10434000994FBA010E9428130F900FBE8091020767
:10435000882371F080919D0690919E06FC0126892C
:1043600089819A81FC018689281710F40E947E16A3
:1043700000000F900F90DF91CF910895CF93DF93BE
:1043800000D000D0CDB7DEB79C838B830FB6F894F6
:104390000F928B819C81892B29F480919D069091AD
:1043A0009E0602C08B819C819A83898389819A8130
:1043B00002960E94EF1389819A81FC018489958974
:1043C000892B29F089819A810C960E94EF138091A4
:1043D00006078F5F8093060780919D0690919E0649
:1043E00029813A812817390771F489819A810296C7
:1043F000BC018BEE96E00E9428138091F4068F5F3B
:104400008093F4060BC08091FE0681508093FE06D7
:1044100089819A810E942F290E9447290F900FBEFF
:1044200080910207882359F080919D0690919E0605
:1044300029813A812817390711F40E947E1600005D
:104440000F900F900F900F90DF91CF910895CF9321
:10445000DF93CDB7DEB72A970FB6F894DEBF0FBE55
:10446000CDBF98878F837A87698719820E947224CB
:104470008091FF06909100079B838A838F819885A6
:10448000FC012081318189859A85820F931F9D834C
:104490008C838F819885FC01208131818A819B8169
:1044A00082179307A0F48F819885FC0120813181C8
:1044B0008C819D8182179307E8F42C813D818A814C
:1044C0009B8182179307B0F481E0898313C08F81A9
:1044D0009885FC01208131818C819D818217930711
:1044E00038F02C813D818A819B818217930710F4DB
:1044F00081E089838F8198852C813D81FC01318306
:1045000020838981882359F02C813D818A819B8178
:10451000A901481B590BCA0160E00E94532F0E9459
:104520007F248E838E81882311F40E947E160000E2
:104530002A960FB6F894DEBF0FBECDBFDF91CF91A4
:104540000895CF93DF9300D01F92CDB7DEB79B8342
:104550008A8319828A819B81892B51F00E9472245F
:104560008A819B8160E00E94532F0E947F2489836F
:104570008981882311F40E947E1600000F900F900D
:104580000F90DF91CF910895CF93DF9300D000D0AB
:10459000CDB7DEB79C838B830FB6F8940F928B81D7
:1045A0009C81892B29F480919D0690919E0602C0E2
:1045B0008B819C819A83898389819A8102960E944A
:1045C000EF1389819A81FC0184899589892B29F0CF
:1045D00089819A810C960E94EF1389819A810296B3
:1045E000BC0185EF96E00E94281389819A81FC0125
:1045F00087A1813021F489819A81FC0117A20F9053
:104600000FBE80910207882339F00FB6F8940F92FD
:104610000E9447290F900FBE80919D0690919E06A3
:1046200029813A8128173907A1F48091020788234C
:1046300019F00E947E160DC09091F5068091FE063D
:10464000981729F410929E0610929D0602C00E94AF
:10465000572600000F900F900F900F90DF91CF9191
:104660000895CF93DF9300D000D01F92CDB7DEB76F
:104670009D838C8319828C819D819B838A838A810F
:104680009B81FC0182859385855F964089F48A81B0
:104690009B81FC0184899589825E964049F08A81DC
:1046A0009B81FC0184899589892B11F481E08983A0
:1046B00089810F900F900F900F900F90DF91CF9105
:1046C0000895CF93DF9300D000D0CDB7DEB79C83A1
:1046D0008B838B819C819A83898380919D069091A5
:1046E0009E0629813A812817390709F44AC0898131
:1046F0009A81892B09F445C00FB6F8940F928981ED
:104700009A810E9431238823D1F189819A8102966E
:104710000E94EF1389819A81FC019689809101079B
:10472000891730F489819A81FC0186898093010779
:1047300089819A81AC014E5F5F4F89819A81FC012A
:104740008689282F30E0C901880F991F880F991F8B
:10475000880F991F820F931F8156994FBA010E94AB
:10476000281389819A81FC01268980919D06909168
:104770009E06FC018689281710F00E947E160F9075
:104780000FBE00000F900F900F900F90DF91CF9110
:104790000895CF93DF9300D000D000D0CDB7DEB71F
:1047A0009E838D8319828D819E819B838A831C8247
:1047B0008A819B810E943123882309F447C080911C
:1047C0000B078823D9F58A819B81FC01268980917A
:1047D0009D0690919E06FC018689281710F081E0C5
:1047E00089838A819B8102960E94EF138A819B8133
:1047F000FC01968980910107891730F48A819B8199
:10480000FC018689809301078A819B81AC014E5F00
:104810005F4F8A819B81FC018689282F30E0C90186
:10482000880F991F880F991F880F991F820F931F58
:104830008156994FBA010E94281308C08A819B8132
:104840000C96BC0182EE96E00E9428138981269680
:104850000FB6F894DEBF0FBECDBFDF91CF910895A4
:10486000EF92FF920F93CF93DF931F92CDB7DEB7F6
:104870000F2EF9E0EF2EF7E0FF2EF02D00E020E004
:1048800030E045E550E063EB70E08CEA98E20E948E
:10489000EF1F89838981813081F4F8948FEF9FEF36
:1048A000909308078093070781E080930207109296
:1048B00000071092FF060E94411600000F90DF9142
:1048C000CF910F91FF90EF900895CF93DF93CDB7E5
:1048D000DEB7F894109202070E9476160000DF916E
:1048E000CF910895CF93DF93CDB7DEB780910B07BB
:1048F0008F5F80930B070000DF91CF910895CF93D6
:10490000DF9300D000D0CDB7DEB71A8219821B82A8
:104910000FB6F8940F9280910B07815080930B078C
:1049200080910B07882309F077C08091FE068823C9
:1049300009F472C049C08091E7069091E806FC0135
:10494000868197819A83898389819A810C960E94B6
:10495000EF1389819A8102960E94EF1389819A81CF
:10496000FC01968980910107891730F489819A8129
:10497000FC0186898093010789819A81AC014E5F91
:104980005F4F89819A81FC018689282F30E0C90117
:10499000880F991F880F991F880F991F820F931FE7
:1049A0008156994FBA010E94281389819A81FC018E
:1049B000268980919D0690919E06FC018689281784
:1049C00018F081E0809304078091E206882309F0C3
:1049D000B2CF89819A81892B11F00E944729809159
:1049E00003078C838C81882379F00E946A258823B1
:1049F00019F081E0809304078C8181508C838C8135
:104A0000882399F71092030780910407882321F0E7
:104A100081E08B830E947E160F900FBE8B810F90DA
:104A20000F900F900F90DF91CF910895CF93DF9368
:104A300000D0CDB7DEB70FB6F8940F928091FF0685
:104A4000909100079A8389830F900FBE89819A8184
:104A50000F900F90DF91CF910895CF93DF9300D007
:104A60001F92CDB7DEB719828091FF0690910007A3
:104A70009B838A838A819B810F900F900F90DF9197
:104A8000CF910895CF93DF93CDB7DEB78091FE0627
:104A9000DF91CF910895CF93DF9300D000D0CDB7B1
:104AA000DEB79C838B838B819C81892B29F4809139
:104AB0009D0690919E0602C08B819C819A8389837A
:104AC00089819A8149960F900F900F900F90DF91F6
:104AD000CF910895CF93DF93CDB7DEB729970FB667
:104AE000F894DEBF0FBECDBF198280910B078823DB
:104AF00009F0C8C08091FF069091000701969B8342
:104B00008A838A819B81909300078093FF068A8124
:104B10009B81892BD9F48091DE069091DF069D83DD
:104B20008C838091E0069091E1069093DF0680935C
:104B3000DE068C819D819093E1068093E006809152
:104B400005078F5F809305070E944729809107071B
:104B5000909108072A813B812817390708F478C00B
:104B60008091DE069091DF06FC018081882339F474
:104B70008FEF9FEF909308078093070769C080919C
:104B8000DE069091DF06FC0185819681FC0186811D
:104B900097819F838E838E819F81FC018281938187
:104BA000998788872A813B818885998528173907C5
:104BB00038F488859985909308078093070748C043
:104BC0008E819F8102960E94EF138E819F81FC014E
:104BD00084899589892B29F08E819F810C960E946A
:104BE000EF138E819F81FC019689809101078917BF
:104BF00030F48E819F81FC018689809301078E812C
:104C00009F81AC014E5F5F4F8E819F81FC01868941
:104C1000282F30E0C901880F991F880F991F880F2E
:104C2000991F820F931F8156994FBA010E94281332
:104C30008E819F81FC01268980919D0690919E0620
:104C4000FC018689281708F48BCF81E0898388CFFF
:104C500080919D0690919E06FC018689282F30E068
:104C6000C901880F991F880F991F880F991F820FFC
:104C7000931F8156994FFC018081823040F081E082
:104C8000898305C0809103078F5F8093030780911C
:104C90000407882311F081E08983898129960FB662
:104CA000F894DEBF0FBECDBFDF91CF910895CF93B3
:104CB000DF9300D01F92CDB7DEB780910B0788231A
:104CC00021F081E0809304075FC010920407809177
:104CD0000107898303C08981815089838981282FB5
:104CE00030E0C901880F991F880F991F880F991FFD
:104CF000820F931F8156994FFC018081882359F3BD
:104D00008981282F30E0C901880F991F880F991FCA
:104D1000880F991F820F931F8156994F9B838A8317
:104D20008A819B81FC0181819281FC0122813381F6
:104D30008A819B81FC01328321838A819B81FC01D2
:104D4000218132818A819B8103962817390769F472
:104D50008A819B81FC0181819281FC0122813381C6
:104D60008A819B81FC01328321838A819B81FC01A2
:104D700081819281FC018681978190939E06809328
:104D80009D0689818093010700000F900F900F907E
:104D9000DF91CF910895CF93DF9300D000D0CDB7AE
:104DA000DEB79A8389837C836B8380919D06909183
:104DB0009E069C01245F3F4F89819A81B9010E9420
:104DC00077138B819C8161E00E94532F00000F902C
:104DD0000F900F900F90DF91CF910895CF93DF93B5
:104DE00000D000D000D0CDB7DEB79A8389837C8312
:104DF0006B835E834D8380919D0690919E062B81EF
:104E00003C813068FC013587248780919D06909114
:104E10009E069C01245F3F4F89819A81B9010E94BF
:104E200028138D819E8161E00E94532F00002696F9
:104E30000FB6F894DEBF0FBECDBFDF91CF910895BE
:104E4000CF93DF9300D000D01F92CDB7DEB79D8304
:104E50008C838C819D81FC0185819681FC018681FA
:104E600097819B838A838A819B810C960E94EF1392
:104E700080910B07882369F58A819B8102960E94A5
:104E8000EF138A819B81FC01968980910107891724
:104E900030F48A819B81FC018689809301078A8195
:104EA0009B81AC014E5F5F4F8A819B81FC018689AB
:104EB000282F30E0C901880F991F880F991F880F8C
:104EC000991F820F931F8156994FBA010E94281390
:104ED00008C08A819B810C96BC0182EE96E00E94FC
:104EE00028138A819B81FC01268980919D069091DF
:104EF0009E06FC018689821730F481E0898381E077
:104F00008093040701C0198289810F900F900F9040
:104F10000F900F90DF91CF910895CF93DF9300D042
:104F200000D000D0CDB7DEB79C838B837E836D83AA
:104F30008D819E819C0130688B819C81FC01318335
:104F400020838B819C81FC01868197819A83898350
:104F50008B819C810E94EF1389819A8102960E9425
:104F6000EF1389819A81FC01968980910107891745
:104F700030F489819A81FC018689809301078981B7
:104F80009A81AC014E5F5F4F89819A81FC018689CD
:104F9000282F30E0C901880F991F880F991F880FAB
:104FA000991F820F931F8156994FBA010E942813AF
:104FB00089819A81FC01268980919D0690919E06A7
:104FC000FC018689821718F481E0809304070000B1
:104FD00026960FB6F894DEBF0FBECDBFDF91CF91FE
:104FE0000895CF93DF9300D0CDB7DEB79A8389833E
:104FF0000FB6F8940F922091050789819A81FC01E0
:1050000020832091FF063091000789819A81FC015D
:10501000328321830F900FBE00000F900F90DF911D
:10502000CF910895CF93DF9300D0CDB7DEB79A83A9
:1050300089832091050789819A81FC012083209131
:10504000FF063091000789819A81FC013283218318
:1050500000000F900F90DF91CF910895CF93DF93D1
:10506000CDB7DEB729970FB6F894DEBF0FBECDBF20
:105070009F838E83798768870FB6F8940F9280910B
:10508000FF06909100079B838A838E819F81FC019C
:10509000818192812A813B81A901481B590BCA0158
:1050A0009D838C8388859985FC01808191810196FF
:1050B00011F419823AC08E819F81FC019081809108
:1050C0000507981769F08E819F81FC01218132814B
:1050D0008A819B818217930718F081E0898325C01C
:1050E00088859985FC01208131818C819D81821781
:1050F0009307A0F488859985FC01208131818C81FA
:105100009D81281B390B88859985FC01318320837B
:105110008E819F810E941228198207C088859985F7
:10512000FC011182108281E089830F900FBE89817A
:1051300029960FB6F894DEBF0FBECDBFDF91CF9199
:105140000895CF93DF93CDB7DEB781E08093040756
:105150000000DF91CF910895CF93DF9300D0CDB7BA
:10516000DEB79A8389830E94FE2880919F06823051
:10517000D0F30E947E16F7CFCF93DF931F92CDB767
:10518000DEB7198213C08981282F30E0C901880F4A
:10519000991F880F991F880F991F820F931F81569F
:1051A000994F0E94E01289818F5F898389818530C0
:1051B00050F38CEC96E00E94E01285ED96E00E94A0
:1051C000E01282EE96E00E94E0128BEE96E00E94E2
:1051D000E01285EF96E00E94E0128CEC96E090934E
:1051E000DF068093DE0685ED96E09093E1068093DE
:1051F000E00600000F90DF91CF910895CF93DF93E9
:1052000000D0CDB7DEB721C00FB6F8940F928091D1
:10521000F0069091F106FC01868197819A8389833B
:1052200089819A8102960E94EF138091FE06815037
:105230008093FE068091F40681508093F4060F90CF
:105240000FBE89819A810E942F298091F4068823BC
:10525000D9F600000F900F90DF91CF910895CF9372
:10526000DF9300D0CDB7DEB79A83898389819A8195
:10527000FC018789908D0E94B61289819A810E94D3
:10528000B61200000F900F90DF91CF910895CF9349
:10529000DF9300D0CDB7DEB78091DE069091DF06B8
:1052A000FC018081882339F48FEF9FEF90930807EA
:1052B0008093070715C08091DE069091DF06FC0100
:1052C00085819681FC01868197819A838983898172
:1052D0009A81FC018281938190930807809307074C
:1052E00000000F900F90DF91CF910895CF93DF933F
:1052F00000D0CDB7DEB780919D0690919E069A832F
:10530000898389819A810F900F90DF91CF910895C1
:10531000CF93DF9300D000D01F92CDB7DEB79D832F
:105320008C838C819D819B838A8319828C819D8152
:10533000892B09F490C08A819B81FC012689809188
:105340009D0690919E06FC018689281708F075C07D
:105350008A819B81FC018485958599238CF08091BD
:105360009D0690919E06FC018689882F90E025E09D
:1053700030E0281B390B8A819B81FC01358724870B
:105380008A819B81FC01428553858A819B81FC0136
:105390008689282F30E0C901880F991F880F991F2F
:1053A000880F991F820F931F8156994F48175907ED
:1053B000B9F58A819B8102960E94EF1380919D0628
:1053C00090919E06FC0126898A819B81FC01268B97
:1053D0008A819B81FC01968980910107891730F4AD
:1053E0008A819B81FC018689809301078A819B8148
:1053F000AC014E5F5F4F8A819B81FC018689282F1B
:1054000030E0C901880F991F880F991F880F991FD5
:10541000820F931F8156994FBA010E9428130AC028
:1054200080919D0690919E06FC0126898A819B8130
:10543000FC01268B81E089830EC08A819B81FC015F
:1054400021A180919D0690919E06FC0186892817D6
:1054500010F481E0898389810F900F900F900F9055
:105460000F90DF91CF910895CF93DF9300D000D0BC
:105470001F92CDB7DEB79D838C838C819D819B83EA
:105480008A8319828C819D81892B09F461C08A816C
:105490009B81FC0182A12FEF280F8A819B81FC0157
:1054A00022A38A819B81FC0126898A819B81FC0140
:1054B00081A1281709F44CC08A819B81FC0182A13B
:1054C000882309F045C08A819B8102960E94EF13D0
:1054D0008A819B81FC0121A18A819B81FC01268B11
:1054E0008A819B81FC018689882F90E025E030E04D
:1054F000281B390B8A819B81FC01358724878A818F
:105500009B81FC01968980910107891730F48A817B
:105510009B81FC018689809301078A819B81AC0174
:105520004E5F5F4F8A819B81FC018689282F30E086
:10553000C901880F991F880F991F880F991F820F23
:10554000931F8156994FBA010E94281381E08983E5
:1055500089810F900F900F900F900F90DF91CF9156
:105560000895CF93DF93CDB7DEB728970FB6F894A1
:10557000DEBF0FBECDBF9F838E8368878E819F81E4
:105580009B838A8381E08C838E819F81892B09F4A0
:105590007EC08A819B81FC0191A18885981718F4AF
:1055A0008885898305C08A819B81FC0181A18983CB
:1055B0008A819B81FC0196898981981709F467C0CB
:1055C0008A819B81FC0192A18C81981709F05FC0B0
:1055D0008A819B81FC0186898D838A819B812981B7
:1055E000FC01268B8A819B81FC018485958599230A
:1055F00064F08981882F90E025E030E0281B390B8A
:105600008A819B81FC01358724878A819B81FC01EB
:10561000428553858D81282F30E0C901880F991F5D
:10562000880F991F880F991F820F931F8156994FDA
:105630004817590761F58A819B8102960E94EF13F2
:105640008A819B81FC01968980910107891730F43A
:105650008A819B81FC018689809301078A819B81D5
:10566000AC014E5F5F4F8A819B81FC018689282FA8
:1056700030E0C901880F991F880F991F880F991F63
:10568000820F931F8156994FBA010E942813000080
:1056900028960FB6F894DEBF0FBECDBFDF91CF9135
:1056A0000895CF93DF9300D0CDB7DEB780919D06EC
:1056B00090919E06FC01848595859A8389838091CB
:1056C0009D0690919E0620919D0630919E06F901BF
:1056D0002689222F30E045E050E0BA01621B730BAF
:1056E0009B01FC013587248789819A810F900F9057
:1056F000DF91CF910895CF93DF93CDB7DEB780913F
:105700009D0690919E06892B49F080919D0690916F
:105710009E06FC0122A12F5FFC0122A380919D0621
:1057200090919E06DF91CF910895CF93DF93CDB7EF
:10573000DEB727970FB6F894DEBF0FBECDBF8D83BF
:105740007F836E830FB6F8940F9280919D0690919F
:105750009E06FC0183A194A1A5A1B6A1892B8A2B49
:105760008B2B91F480919D0690919E0621E0FC0187
:1057700027A38E819F81892B39F08E819F8161E0E3
:105780000E94532F0E947E160F900FBE0FB6F89402
:105790000F9280919D0690919E06FC0183A194A199
:1057A000A5A1B6A189839A83AB83BC8389819A81A1
:1057B000AB81BC81892B8A2B8B2BE9F08D818823CF
:1057C00051F080919D0690919E06FC0113A214A2B7
:1057D00015A216A210C020919D0630919E068981C7
:1057E0009A81AB81BC810197A109B109F90183A319
:1057F00094A3A5A3B6A380919D0690919E06FC015B
:1058000017A20F900FBE89819A81AB81BC81BC0128
:10581000CD0127960FB6F894DEBF0FBECDBFDF9146
:10582000CF910895EF92FF920F931F93CF93DF9341
:10583000CDB7DEB72D970FB6F894DEBF0FBECDBF44
:105840006A837B838C839D832E833F83488759871C
:105850001B870A87FD86EC860FB6F8940F9280911D
:105860009D0690919E06FC0187A1823061F16091B6
:105870009D0670919E06FB0123A134A145A156A16E
:105880008A819B81AC81BD8180959095A095B095D2
:1058900082239323A423B523FB0183A394A3A5A36D
:1058A000B6A380919D0690919E0621E0FC0127A35E
:1058B0008C859D85892B39F08C859D8561E00E94C2
:1058C000532F0E947E160F900FBE0FB6F8940F92C2
:1058D0008A859B85892B81F080919D0690919E06FB
:1058E000FC0183A194A1A5A1B6A12A853B85F9015C
:1058F00080839183A283B38380919D0690919E06BD
:10590000FC0187A1823011F019821CC060919D06B4
:1059100070919E06FB0123A134A145A156A18E8161
:105920009F81A885B98580959095A095B095822393
:105930009323A423B523FB0183A394A3A5A3B6A318
:1059400081E0898380919D0690919E06FC0117A2BB
:105950000F900FBE89812D960FB6F894DEBF0FBE53
:10596000CDBFDF91CF911F910F91FF90EF900895E0
:105970000F931F93CF93DF93CDB7DEB72D970FB65D
:10598000F894DEBF0FBECDBF9E838D834F835887B3
:1059900069877A872B871D870C8781E089838D81B2
:1059A0009E819B838A830FB6F8940F928C859D8588
:1059B000892B71F08A819B81FC0183A194A1A5A10F
:1059C000B6A12C853D85F90180839183A283B383A1
:1059D0008A819B81FC0187A18C838A819B8122E043
:1059E000FC0127A38B85882F90E08230910531F14F
:1059F0008330910534F4009709F44FC0019739F0D2
:105A00004DC08330910561F10497B1F147C08A819F
:105A10009B81FC0123A134A145A156A18F819885CA
:105A2000A985BA85822B932BA42BB52B2A813B8188
:105A3000F90183A394A3A5A3B6A330C08A819B8157
:105A4000FC0183A194A1A5A1B6A10196A11DB11D40
:105A50002A813B81F90183A394A3A5A3B6A31EC009
:105A60002A813B818F819885A985BA85F90183A315
:105A700094A3A5A3B6A312C08C81823061F02A81C1
:105A80003B818F819885A985BA85F90183A394A369
:105A9000A5A3B6A303C0198201C000008C81813088
:105AA000D1F58A819B8102960E94EF138A819B81A6
:105AB000FC01968980910107891730F48A819B81C6
:105AC000FC018689809301078A819B81AC014E5F2E
:105AD0005F4F8A819B81FC018689282F30E0C901B4
