:100000000C942A000C9447000C9447000C94470071
:100010000C9447000C9447000C9447000C94EB1789
:100020000C9447000C9447000C9447000C94470034
:100030000C9447000C9447000C9447000C94470024
:100040000C9447000C9447000C9447000C94470014
:100050000C94470011241FBECFE5D8E0DEBFCDBF12
:1000600010E0A0E6B0E0E8E6F4E602C005900D92EC
:10007000A83AB107D9F727E0A8EAB0E001C01D927D
:10008000A630B207E1F70E9497140C9432320C9418
:100090000000CF93DF93CDB7DEB780E00E94840DE0
:1000A0008091AA000E94280F82E00E94840D8AE3BA
:1000B0000E94FB078091A9000E94280F85E00E9402
:1000C000840D8AE30E94FB078091A8000E94280FFC
:1000D0000000DF91CF910895CF93DF9300D000D03F
:1000E000CDB7DEB79C838B8381E00E943A19909351
:1000F000FD068093FC060E9469259A83898385E02A
:100100000E94840D8AE30E94FB078091FC06909177
:10011000FD066AE070E00E94751B882391F086E07E
:100120000E94840D8091A8000E94280F8091FC06F7
:100130009091FD0620E040E050E060E070E00E9419
:100140005A1965E070E0CE0101960E947A228091F2
:10015000A8008F5F8093A8009091A80089E8989FDD
:10016000812D11248295869587702CE3829F802DA6
:100170001124292F281B822F8093A800C6CFCF934C
:10018000DF9300D000D0CDB7DEB79C838B830E9475
:1001900069259A83898382E00E94840D8AE30E9404
:1001A000FB078091FC069091FD066AE070E00E94DA
:1001B000751B882391F083E00E94840D8091A90033
:1001C0000E94280F8091FC069091FD0620E040E0FF
:1001D00050E060E070E00E945A196CE271E0CE01DC
:1001E00001960E947A228091A9008F5F8093A900D6
:1001F0009091A90089E8989F812D11248295869578
:1002000087702CE3829F802D1124292F281B822F99
:100210008093A900C6CFCF93DF9300D000D0CDB795
:10022000DEB79C838B830E9469259A83898382E051
:100230000E94840D8AE30E94FB078091FC06909146
:10024000FD066AE070E00E94751B882319F180E0CA
:100250000E94840D2091AA008BEA289F812D1124F1
:10026000982F969596959695892F880F890F880FC8
:10027000880F922F981B81E0890F0E94280F809190
:10028000FC069091FD0620E040E050E060E070E068
:100290000E945A1960E576E4CE0101960E947A2206
:1002A0008091AA008F5F8093AA009091AA008BEAA8
:1002B000989F812D112482958F7028E1829F802D37
:1002C0001124292F281B822F8093AA00B6CFCF9309
:1002D000DF93CDB7DEB765970FB6F894DEBF0FBEDC
:1002E000CDBF9D8B8C8B40E061E081E00E94821845
:1002F0009093AC008093AB000E9469259A83898318
:10030000CE0103960E947D058B8B8B898F3F61F018
:100310008091AB009091AC00BE016D5E7F4F20E0FC
:100320004AE050E00E945A1980916000882F90E0C6
:10033000BC01CE0101960E947A22E2CFCF93DF93D7
:1003400000D000D000D0CDB7DEB79E838D838FEF75
:100350008C8319828AE18A831B828091AB00909101
:10036000AC009E012C5F3F4F4AE050E0B9010E9473
:10037000C41A882391F38C81882F90E08A97B9F072
:100380008981882309F459C08A810E94840D80E202
:100390000E94FB078C81882F90E0CE9709F050C017
:1003A0008A818F5F8A838EE50E94FB0749C08B811B
:1003B0008170882301F58091FC069091FD066AE02A
:1003C00070E00E94751B8823D1F180E10E94840DAA
:1003D00081E0898385E090E00E94F4228A810E9476
:1003E000840D8EE50E94FB078B818F5F8B8381E0FC
:1003F0008093600024C08091FC069091FD0620E06F
:1004000040E050E060E070E00E945A1980E10E94F4
:10041000840D19820E9449008AE0809360008A81DD
:100420000E94840D80E20E94FB0785E090E00E941C
:10043000F4228B818F5F8B8302C000008ECF00007F
:100440008CCFCF93DF93CDB7DEB78AE390E0FC018A
:10045000108287E390E0FC01108284E390E0FC01CD
:10046000108281E390E0FC0110820000DF91CF91C7
:100470000895CF93DF9300D000D01F92CDB7DEB7A1
:100480008C836D8319828C81803218F081E089839E
:10049000DDC08D81882331F08D81813019F081E0BC
:1004A0008983D4C08C818695869586958A838C8134
:1004B00087708B838A81882F90E081309105E1F1EC
:1004C000823091051CF4892B49F0C0C0823091051F
:1004D00009F460C0039709F48BC0B8C08D818130E6
:1004E000A9F48AE390E02AE330E0F9012081622F49
:1004F0002B81422F50E021E030E002C0220F331F59
:100500004A95E2F7262BFC012083A0C08AE390E005
:100510002AE330E0F9012081622F2B81422F50E045
:1005200021E030E002C0220F331F4A95E2F7209508
:100530002623FC0120838AC08D818823B1F487E3C0
:1005400090E027E330E0F9012081622F2B81422FD8
:1005500050E021E030E002C0220F331F4A95E2F75D
:1005600020952623FC01208371C087E390E027E3D8
:1005700030E0F9012081622F2B81422F50E021E0F1
:1005800030E002C0220F331F4A95E2F7262BFC0110
:1005900020835CC08D818130A9F484E390E024E362
:1005A00030E0F9012081622F2B81422F50E021E0C1
:1005B00030E002C0220F331F4A95E2F7262BFC01E0
:1005C000208344C084E390E024E330E0F9012081FB
:1005D000622F2B81422F50E021E030E002C0220F39
:1005E000331F4A95E2F720952623FC0120832EC075
:1005F0008D818130A9F481E390E021E330E0F901BD
:100600002081622F2B81422F50E021E030E002C098
:10061000220F331F4A95E2F7262BFC01208315C0D9
:1006200081E390E021E330E0F9012081622F2B810A
:10063000422F50E021E030E002C0220F331F4A95E4
:10064000E2F720952623FC012083000089810F908A
:100650000F900F900F900F90DF91CF910895CF934F
:10066000DF9300D000D01F92CDB7DEB78C836D83AF
:1006700019828C81803218F081E08983DDC08D8100
:10068000813031F08D81882319F081E08983D4C0D5
:100690008C818695869586958A838C8187708B83DD
:1006A0008A81882F90E081309105E1F182309105B7
:1006B0001CF4892B49F0C0C08230910509F460C058
:1006C000039709F48BC0B8C08D818130A9F48BE306
:1006D00090E02BE330E0F9012081622F2B81422F43
:1006E00050E021E030E002C0220F331F4A95E2F7CC
:1006F000262BFC012083A0C08BE390E02BE330E0AD
:10070000F9012081622F2B81422F50E021E030E05F
:1007100002C0220F331F4A95E2F720952623FC01E1
:1007200020838AC08D818823B1F488E390E028E398
:1007300030E0F9012081622F2B81422F50E021E02F
:1007400030E002C0220F331F4A95E2F7209526239E
:10075000FC01208371C088E390E028E330E0F901D8
:100760002081622F2B81422F50E021E030E002C037
:10077000220F331F4A95E2F7262BFC0120835CC031
:100780008D818130A9F485E390E025E330E0F90123
:100790002081622F2B81422F50E021E030E002C007
:1007A000220F331F4A95E2F7262BFC01208344C019
:1007B00085E390E025E330E0F9012081622F2B8171
:1007C000422F50E021E030E002C0220F331F4A9553
:1007D000E2F720952623FC0120832EC08D818130F5
:1007E000A9F482E390E022E330E0F9012081622F56
:1007F0002B81422F50E021E030E002C0220F331F56
:100800004A95E2F7262BFC01208315C082E390E095
:1008100022E330E0F9012081622F2B81422F50E04A
:1008200021E030E002C0220F331F4A95E2F7209505
:100830002623FC012083000089810F900F900F90E8
:100840000F900F90DF91CF910895CF93DF9300D059
:100850001F92CDB7DEB78A836B8319828A81843079
:1008600018F081E089832AC08A81882F90E0813046
:10087000910591F0823091051CF4892B39F01EC04E
:100880008230910579F0039799F018C08AE390E0DF
:100890002B81FC01208312C087E390E02B81FC01B7
:1008A00020830CC084E390E02B81FC01208306C0F0
:1008B00081E390E02B81FC012083000089810F906F
:1008C0000F900F90DF91CF910895CF93DF9300D0D9
:1008D0001F92CDB7DEB78A836B8319828A818430F9
:1008E00018F081E089832AC08A81882F90E08130C6
:1008F000910591F0823091051CF4892B39F01EC0CE
:100900008230910579F0039799F018C08BE390E05D
:100910002B81FC01208312C088E390E02B81FC0135
:1009200020830CC085E390E02B81FC01208306C06E
:1009300082E390E02B81FC012083000089810F90ED
:100940000F900F90DF91CF910895CF93DF9300D058
:1009500000D000D0CDB7DEB78C837E836D83198243
:100960008C81803218F081E089836FC08C818695FC
:10097000869586958A838C8187708B838A81882F60
:1009800090E08130910511F1823091051CF4892BA2
:1009900041F05BC08230910571F1039709F440C0CA
:1009A00054C089E390E0FC018081882F90E02B8186
:1009B000222F30E002C0959587952A95E2F7282FDF
:1009C00021708D819E81FC0120833FC086E390E0F1
:1009D000FC018081882F90E02B81222F30E002C023
:1009E000959587952A95E2F7282F21708D819E8114
:1009F000FC0120832AC083E390E0FC018081882FE2
:100A000090E02B81222F30E002C0959587952A95A2
:100A1000E2F7282F21708D819E81FC01208315C073
:100A200080E390E0FC018081882F90E02B81222FD1
:100A300030E002C0959587952A95E2F7282F21701E
:100A40008D819E81FC0120830000898126960FB64E
:100A5000F894DEBF0FBECDBFDF91CF910895CF9345
:100A6000DF9300D000D0CDB7DEB78A837C836B8361
:100A700019828A81843018F081E0898336C08A81A6
:100A8000882F90E081309105A9F0823091051CF407
:100A9000892B39F02AC082309105A9F00397E1F043
:100AA00024C089E390E0FC0120818B819C81FC01C2
:100AB00020831BC086E390E0FC0120818B819C8118
:100AC000FC01208312C083E390E0FC0120818B8134
:100AD0009C81FC01208309C080E390E0FC0120811F
:100AE0008B819C81FC012083000089810F900F90F5
:100AF0000F900F90DF91CF910895CF93DF93CDB7F3
:100B0000DEB727970FB6F894DEBF0FBECDBF9F8329
:100B10008E8319821A821D821C828FEF8B83198229
:100B200052C08981882F90E08250994FFC018081CA
:100B300060E00E942F031A8236C08A81882F90E0DD
:100B40008E5F984FFC012081CE010596BC01822F5B
:100B50000E94A5048A81982F990F990F8981890F86
:100B60008C838D81813051F48C81882F90E02E818F
:100B70003F81820F931FFC01108212C08C81882F4D
:100B800090E02E813F81820F931F21E0FC012083A2
:100B90008C81882F90E08F599F4FFC0180818B833F
:100BA0008A818F5F8A838A81843038F28981882F95
:100BB00090E08250994FFC01808161E00E942F03F8
:100BC00089818F5F89838981843008F4AACF8B81E2
:100BD00027960FB6F894DEBF0FBECDBFDF91CF9141
:100BE0000895CF93DF93CDB7DEB729970FB6F8946A
:100BF000DEBF0FBECDBF89878985882F90E0813009
:100C0000910509F442C0823091051CF4892B49F00A
:100C1000D8C08230910509F46CC0039709F49DC0D7
:100C2000D0C06FE080E00E94250461E084E00E9473
:100C30002F0361E085E00E942F0361E086E00E94BF
:100C40002F0361E087E00E942F031A82198218C0E7
:100C5000898124E0280F89819A818E5F984FFC0159
:100C60002083898193E0292F281B89819A818250D2
:100C7000994FFC01208389819A8101969A83898307
:100C800089819A81049724F39CC06FE081E00E94DF
:100C9000250461E08CE00E942F0361E08DE00E945A
:100CA0002F0361E08EE00E942F0361E08FE00E943D
:100CB0002F031C821B8218C08B812CE0280F8B8194
:100CC0009C818E5F984FFC0120838B819BE0292FB4
:100CD000281B8B819C818250994FFC0120838B8142
:100CE0009C8101969C838B838B819C81049724F348
:100CF00068C06FE082E00E94250461E084E10E9408
:100D00002F0361E085E10E942F0361E086E10E94EC
:100D10002F0361E087E10E942F031E821D8218C00D
:100D20008D8124E1280F8D819E818E5F984FFC017B
:100D300020838D8193E1292F281B8D819E818250F4
:100D4000994FFC0120838D819E8101969E838D8326
:100D50008D819E81049724F334C06FE083E00E946C
:100D6000250461E08CE10E942F0361E08DE10E9487
:100D70002F0361E08EE10E942F0361E08FE10E946A
:100D80002F0318861F8218C08F812CE1280F8F81B6
:100D900098858E5F984FFC0120838F819BE1292FDE
:100DA000281B8F8198858250994FFC0120838F8169
:100DB0009885019698878F838F819885049724F36F
:100DC0000000000029960FB6F894DEBF0FBECDBF1D
:100DD000DF91CF910895CF93DF9300D01F92CDB7CD
:100DE000DEB79B838A83198216C08981882F90E0A1
:100DF0002A813B81820F931FFC018081813041F465
:100E00008981882F90E08F599F4FFC01808107C016
:100E100089818F5F89838981803138F38FEF0F90CB
:100E20000F900F90DF91CF910895CF93DF93CDB7BF
:100E3000DEB72F970FB6F894DEBF0FBECDBF8F87FA
:100E400060E081E10E942F038F858170682F87E029
:100E50000E942F038F8586958170682F86E00E94FF
:100E60002F038F85869586958170682F85E00E9477
:100E70002F038F858695869586958170682F84E0EF
:100E80000E942F038F8582958F708170682F83E079
:100E90000E942F038F858295869587708170682FB9
:100EA00082E00E942F038F858295869586958370B8
:100EB0008170682F81E00E942F038F85881F88270B
:100EC000881F682F80E00E942F0361E082E10E946A
:100ED0002F0380E090E0A0E8BFE389839A83AB838F
:100EE000BC8320E030E04AEF54E469817A818B8151
:100EF0009C810E94BC31DC01CB018D839E83AF833A
:100F0000B88720E030E040E85FE36D817E818F812B
:100F100098850E949C3088232CF481E090E09A8789
:100F200089873FC020E03FEF4FE757E46D817E8126
:100F30008F8198850E94B73118164CF520E030E07B
:100F400040E251E469817A818B819C810E94BC31AD
:100F5000DC01CB01BC01CD010E941331DC01CB01CE
:100F60009A8789870FC088EC90E09C878B878B8558
:100F70009C850197F1F79C878B8789859A850197D6
:100F80009A87898789859A85892B69F714C06D812D
:100F90007E818F8198850E941331DC01CB019A8775
:100FA000898789859A859E878D878D859E850197FE
:100FB000F1F79E878D8760E082E10E942F03000099
:100FC0002F960FB6F894DEBF0FBECDBFDF91CF9145
:100FD0000895CF93DF931F92CDB7DEB7898360E08A
:100FE00080E10E942F0389810E94150700000F9065
:100FF000DF91CF910895CF93DF931F92CDB7DEB7E6
:10100000898361E080E10E942F0389810E94150796
:1010100000000F90DF91CF9108950F931F93CF930E
:10102000DF93CDB7DEB7CA56D1090FB6F894DEBF4D
:101030000FBECDBF61E080E10E94390261E081E135
:101040000E94390261E082E10E94390261E087E09A
:101050000E94390261E086E00E94390261E085E089
:101060000E94390261E084E00E94390261E083E07D
:101070000E94390261E082E00E94390261E081E071
:101080000E94390261E080E00E94390280E090E035
:10109000A8E4B2E489839A83AB83BC838E010F59A1
:1010A0001F4F20E030E04AEF54E469817A818B8160
:1010B0009C810E94BC31DC01CB01F80180839183CB
:1010C000A283B383CE018F599F4F20E030E040E8E8
:1010D0005FE3FC0160817181828193810E949C3079
:1010E00088234CF4CE018B599F4F21E030E0FC0166
:1010F0003183208369C0CE018F599F4F20E03FEF9D
:101100004FE757E4FC0160817181828193810E94E5
:10111000B73118160CF046C020E030E040E251E450
:1011200069817A818B819C810E94BC31DC01CB0179
:101130008E010B591F4FBC01CD010E941331DC0100
:10114000CB01F8019183808324C0CE0189599F4F40
:1011500028EC30E0FC0131832083CE0189599F4F78
:10116000FC01808191810197F1F79E0129593F4F40
:10117000F90191838083CE018B599F4F9E012B599A
:101180003F4FF9012081318121503109FC01318328
:101190002083CE018B599F4FFC0180819181892B47
:1011A000A1F62CC08E010B591F4FCE018F599F4FB6
:1011B000FC0160817181828193810E941331DC0185
:1011C000CB01F80191838083CE0187599F4F9E0107
:1011D0002B593F4FF90120813181FC01318320835C
:1011E000CE0187599F4FFC01808191810197F1F7D2
:1011F0009E0127593F4FF9019183808380E090E061
:10120000A0E2B2E48D839E83AF83B8878E01095A32
:101210001F4F20E030E04AEF54E46D817E818F81E2
:1012200098850E94BC31DC01CB01F8018083918359
:10123000A283B383CE01895A9F4F20E030E040E87B
:101240005FE3FC0160817181828193810E949C3007
:1012500088234CF4CE01855A9F4F21E030E0FC01F9
:101260003183208369C0CE01895A9F4F20E03FEF30
:101270004FE757E4FC0160817181828193810E9474
:10128000B73118160CF046C020E030E040E251E4DF
:101290006D817E818F8198850E94BC31DC01CB01FC
:1012A0008E01055A1F4FBC01CD010E941331DC0194
:1012B000CB01F8019183808324C0CE01835A9F4FD4
:1012C00028EC30E0FC0131832083CE01835A9F4F0C
:1012D000FC01808191810197F1F79E01235A3F4FD4
:1012E000F90191838083CE01855A9F4F9E01255A33
:1012F0003F4FF9012081318121503109FC013183B7
:101300002083CE01855A9F4FFC0180819181892BDA
:10131000A1F62CC08E01055A1F4FCE01895A9F4F4E
:10132000FC0160817181828193810E941331DC0113
:10133000CB01F80191838083CE01815A9F4F9E019A
:10134000255A3F4FF90120813181FC0131832083EF
:10135000CE01815A9F4FFC01808191810197F1F765
:101360009E01215A3F4FF9019183808388E30E94B7
:10137000E90780E090E0A8E4B2E489879A87AB8728
:10138000BC872BEA3AEA4AE250E469857A858B8584
:101390009C850E94BC31DC01CB018BAF9CAFADAF13
:1013A000BEAF8E01015C1F4F89859A85AB85BC85D8
:1013B0009C01AD01BC01CD010E943030DC01CB01AC
:1013C000F80180839183A283B38320E030E040E87A
:1013D0005FE36BAD7CAD8DAD9EAD0E949C308823EC
:1013E0003CF4CE018D5B9F4F21E0FC01208322C1A4
:1013F000CE01CF9620E03FEF4FE757E4FC0160813C
:101400007181828193810E94B73118160CF0CDC092
:1014100020E030E04AE754E469857A858B859C8535
:101420000E94A130DC01CB019E012C5B3F4FF901F2
:1014300080839183A283B3838E01085B1F4FCE010B
:101440008C5B9F4F20E030E04AEF54E4FC01608168
:101450007181828193810E94BC31DC01CB01F80152
:1014600080839183A283B383CE01885B9F4F20E06A
:1014700030E040E85FE3FC0160817181828193810B
:101480000E949C3088234CF4CE01845B9F4F21E066
:1014900030E0FC01318320836DC0CE01885B9F4F1B
:1014A00020E03FEF4FE757E4FC01608171818281CA
:1014B00093810E94B73118160CF04AC0CE018C5BA4
:1014C0009F4F20E030E040E251E4FC0160817181F7
:1014D000828193810E94BC31DC01CB018E01045BCF
:1014E0001F4FBC01CD010E941331DC01CB01F8017B
:1014F0009183808324C0CE01825B9F4F28EC30E033
:10150000FC0131832083CE01825B9F4FFC018081EF
:1015100091810197F1F79E01225B3F4FF901918381
:101520008083CE01845B9F4F9E01245B3F4FF90176
:101530002081318121503109FC0131832083CE018A
:10154000845B9F4FFC0180819181892BA1F672C041
:101550008E01045B1F4FCE01885B9F4FFC016081B1
:101560007181828193810E941331DC01CB01F801EA
:1015700091838083CE01805B9F4F9E01245B3F4F10
:10158000F90120813181FC0131832083CE01805B10
:101590009F4FFC01808191810197F1F79E01205BB3
:1015A0003F4FF9019183808345C020E030E04FE751
:1015B00053E46BAD7CAD8DAD9EAD0E94B731181676
:1015C00064F58E010E5A1F4FCE01CF96FC0160814B
:1015D0007181828193810E941331DC01CB01F8017A
:1015E00091838083CE018C5A9F4F9E012E5A3F4F8C
:1015F000F90120813181FC0131832083CE018C5A95
:101600009F4FFC01808191810197F1F79E012C5A37
:101610003F4FF9019183808324C08E010D5B1F4FE2
:101620006BAD7CAD8DAD9EAD0E941331DC01CB0165
:10163000F8018083CE018A5A9F4F9E012D5B3F4F58
:10164000F9012081FC012083CE018A5A9F4FFC01C1
:101650008081282F2A95F1F7CE018A5A9F4FFC01ED
:1016600020838CE00E94E90780E090E0A8E4B2E4E7
:101670008D879E87AF87B88B2BEA3AEA4AE250E41F
:101680006D857E858F8598890E94BC31DC01CB01F8
:101690008F8F98A3A9A3BAA38D859E85AF85B8899E
:1016A0009C01AD01BC01CD010E943030DC01CB01B9
:1016B0008BA39CA3ADA3BEA320E030E040E85FE392
:1016C0006F8D78A189A19AA10E949C3088231CF477
:1016D00081E08FA3B2C020E03FEF4FE757E46BA15A
:1016E0007CA18DA19EA10E94B73118160CF07BC081
:1016F00020E030E04AE754E46D857E858F85988947
:101700000E94A130DC01CB0188A799A7AAA7BBA79B
:1017100020E030E04AEF54E468A579A58AA59BA5AE
:101720000E94BC31DC01CB018CA79DA7AEA7BFA74F
:1017300020E030E040E85FE36CA57DA58EA59FA585
:101740000E949C3088232CF481E090E099AB88AB18
:101750003FC020E03FEF4FE757E46CA57DA58EA585
:101760009FA50E94B73118164CF520E030E040E20A
:1017700051E468A579A58AA59BA50E94BC31DC012E
:10178000CB01BC01CD010E941331DC01CB0199AB2F
:1017900088AB0FC088EC90E09BAB8AAB8AA99BA971
:1017A0000197F1F79BAB8AAB88A999A9019799ABEF
:1017B00088AB88A999A9892B69F73FC06CA57DA53D
:1017C0008EA59FA50E941331DC01CB0199AB88AB9C
:1017D00088A999A99DAB8CAB8CA99DA90197F1F71C
:1017E0009DAB8CAB2AC020E030E04FE753E46F8D17
:1017F00078A189A19AA10E94B7311816ACF46BA107
:101800007CA18DA19EA10E941331DC01CB019FAB75
:101810008EAB8EA99FA999AF88AF88AD99AD01977E
:10182000F1F799AF88AF0FC06F8D78A189A19AA108
:101830000E941331DC01CB018FA38FA18AAF8AAD47
:101840008A95F1F78AAF81E00E94E90780E090E095
:10185000A0E0B0E4898B9A8BAB8BBC8B20E030E0AE
:101860004AEF54E469897A898B899C890E94BC314A
:10187000DC01CB018D8B9E8BAF8BB88F20E030E0ED
:1018800040E85FE36D897E898F89988D0E949C3046
:1018900088232CF481E090E09A8F898F3FC020E06C
:1018A0003FEF4FE757E46D897E898F89988D0E94BD
:1018B000B73118164CF520E030E040E251E4698978
:1018C0007A898B899C890E94BC31DC01CB01BC01E7
:1018D000CD010E941331DC01CB019A8F898F0FC09B
:1018E00088EC90E09C8F8B8F8B8D9C8D0197F1F70E
:1018F0009C8F8B8F898D9A8D01979A8F898F898D77
:101900009A8D892B69F714C06D897E898F89988D8E
:101910000E941331DC01CB019A8F898F898D9A8DBA
:101920009E8F8D8F8D8D9E8D0197F1F79E8F8D8F60
:101930000000C659DF4F0FB6F894DEBF0FBECDBF13
:10194000DF91CF911F910F910895CF93DF9300D036
:101950001F92CDB7DEB79B838A83198214C0898119
:10196000803119F480E10E94840D8981882F90E0F4
:101970002A813B81820F931FFC0180810E94FB071B
:1019800089818F5F89838981882F90E02A813B81BB
:10199000820F931FFC018081882309F700000F90BC
:1019A0000F900F90DF91CF910895CF93DF93CDB734
:1019B000DEB781E00E94E9070000DF91CF91089532
:1019C000CF93DF93CDB7DEB761970FB6F894DEBF44
:1019D0000FBECDBF998B888B198280C08981882FDB
:1019E00090E028893989820F931FFC0180810E9431
:1019F000FB0780E090E0AAEFB3E48A839B83AC838B
:101A0000BD8320E030E04AEF54E46A817B818C8121
:101A10009D810E94BC31DC01CB018E839F83A8870E
:101A2000B98720E030E040E85FE36E817F81888500
:101A300099850E949C3088232CF481E090E09B875C
:101A40008A873FC020E03FEF4FE757E46E817F81F8
:101A5000888599850E94B73118164CF520E030E052
:101A600040E251E46A817B818C819D810E94BC317E
:101A7000DC01CB01BC01CD010E941331DC01CB01A3
:101A80009B878A870FC088EC90E09D878C878C8528
:101A90009D850197F1F79D878C878A859B850197A6
:101AA0009B878A878A859B85892B69F714C06E81FD
:101AB0007F81888599850E941331DC01CB019B874A
:101AC0008A878A859B859F878E878E859F850197CC
:101AD000F1F79F878E8789818F5F89838981882F1E
:101AE00090E028893989820F931FFC018081882327
:101AF00009F074CF000061960FB6F894DEBF0FBEF8
:101B0000CDBFDF91CF910895CF93DF931F92CDB7D3
:101B1000DEB789838981803128F4898180580E94C9
:101B2000E90704C0898180550E94E90700000F90F1
:101B3000DF91CF910895CF93DF93CDB7DEB7639751
:101B40000FB6F894DEBF0FBECDBF9B8B8A8B1B8276
:101B50001A8297C08A810E94840D19820EC08981E1
:101B6000882F90E02A893B89820F931FFC01808196
:101B70000E94FB0789818F5F89838981882F90E08C
:101B80002A893B89820F931FFC018081882339F7C2
:101B900080E090E0AAE7B4E48C839D83AE83BF83AA
:101BA00020E030E04AEF54E46C817D818E819F819A
:101BB0000E94BC31DC01CB0188879987AA87BB874B
:101BC00020E030E040E85FE3688579858A859B8581
:101BD0000E949C3088232CF481E090E09D878C87C4
:101BE0003FC020E03FEF4FE757E4688579858A855D
:101BF0009B850E94B73118164CF520E030E040E29A
:101C000051E46C817D818E819F810E94BC31DC0119
:101C1000CB01BC01CD010E941331DC01CB019D87BA
:101C20008C870FC088EC90E09F878E878E859F857C
:101C30000197F1F79F878E878C859D8501979D87FA
:101C40008C878C859D85892B69F714C0688579857B
:101C50008A859B850E941331DC01CB019D878C878F
:101C60008C859D85998B888B888999890197F1F757
:101C7000998B888B0E94D50C8A819B8101969B83CE
:101C80008A838A819B8105970CF464CF0000639658
:101C90000FB6F894DEBF0FBECDBFDF91CF91089590
:101CA0008F92AF92CF92EF920F93CF93DF93CDB7F6
:101CB000DEB729970FB6F894DEBF0FBECDBF89837C
:101CC0006A834B832C830D83EE82CF82A88689861C
:101CD00089850E94E90789810E94FB078A810E9409
:101CE000FB078B810E94FB078C810E94FB078D8183
:101CF0000E94FB078E810E94FB078F810E94FB07D9
:101D000088850E94FB0780E80E94E9070000299669
:101D10000FB6F894DEBF0FBECDBFDF91CF910F910C
:101D2000EF90CF90AF908F900895CF93DF9300D036
:101D300000D01F92CDB7DEB79D838C831A821982A3
:101D40001B823CC04C815D819A01ADECBCEC0E94D1
:101D500020309C0136952795369527953695279501
:101D6000C901880F991F9C01220F331F220F331FB7
:101D7000820F931F9A01281B390B89819A81880F42
:101D8000991FAC01440F551F440F551F840F951F19
:101D9000820F931F9A8389838C819D819C01ADEC76
:101DA000BCEC0E94203096958795969587959695E0
:101DB00087959D838C838B818F5F8B838C819D81A5
:101DC000892B09F0BFCF1D821C8231C049815A8105
:101DD0009A01ADECBCEC0E942030969587959695C3
:101DE000879596958795880F991F9C01220F331F21
:101DF000220F331F820F931F9A01281B390BC90131
:101E0000805D0E94FB0789819A819C01ADECBCEC4E
:101E10000E942030969587959695879596958795FB
:101E20009A8389838C819D8101969D838C838B818C
:101E3000282F30E08C819D818217930738F20000B3
:101E40000F900F900F900F900F90DF91CF9108950A
:101E5000CF93DF931F92CDB7DEB7898399818DEC45
:101E6000989F812D1124869586958695805D0E9488
:101E7000FB0799818DEC989F812D1124869586957D
:101E80008695880F282F220F220F820F292F281BBB
:101E9000822F805D0E94FB0700000F90DF91CF91A1
:101EA0000895CF93DF9300D0CDB7DEB78BE090E0FD
:101EB0000E94B2129A83898389819A81892B51F079
:101EC00089819A81FC011182108289819A8102960E
:101ED0000E94311389819A810F900F90DF91CF91E9
:101EE0000895CF93DF93CDB7DEB760970FB6F89420
:101EF000DEBF0FBECDBF9A8789877C876B875E87E1
:101F00004D87388B2F8789859A859C838B831D828B
:101F10000E94C5248B819C81FC01808191819F83DB
:101F20008E832B853C8589859A85B9010E94531142
:101F30002E813F818B859C85282B392B8D859E8515
:101F4000282339238D859E8528173907D9F42E81BA
:101F50003F818B859C85822B932B9A8389838B81F0
:101F60009C81FC01208131818D859E858095909595
:101F7000282339238B819C81FC0131832083188A9B
:101F80001F861CC08F859889892B79F08D859E8549
:101F90009C0135608B819C8102964F855889B901DF
:101FA0000E9441271A82198209C08B819C81FC0101
:101FB000808191819A83898381E08D830E94D224DC
:101FC00088878F859889892B09F43DC08885882367
:101FD00011F40E94D1160E94A42B9A8389838981CF
:101FE0009A8188279270892B49F50FB6F8940F9241
:101FF0008B819C81FC01808191819A8389832981D5
:102000003A818D859E85282339238D859E852817C5
:10201000390781F48B819C81FC01208131818D8580
:102020009E8580959095282339238B819C81FC0186
:10203000318320830F900FBE81E08D8389819A8147
:1020400099279A83898389819A8160960FB6F8943B
:10205000DEBF0FBECDBFDF91CF9108950F931F93C9
:10206000CF93DF93CDB7DEB763970FB6F894DEBF9B
:102070000FBECDBF9D878C877F876E87488B298B4E
:102080001B8B0A8B8C859D859E838D831C821B8276
:102090001F820E94C5248D819E81FC0180819181D7
:1020A000998788872E853F85888599854989B901D3
:1020B0000E9480128A878A858823D1F08885998535
:1020C0009A8389831B8A1A8A88898823E1F18D8102
:1020D0009E81FC01208131818E859F858095909520
:1020E000282339238D819E81FC01318320832BC0DD
:1020F0008A899B89892B39F4888599859A83898374
:1021000081E08F8320C08889882329F08B819C817E
:1021100091609C838B838989882329F08B819C81A2
:1021200094609C838B832E853F858B819C81282B9B
:10213000392B8D819E8102964A895B89B9010E9463
:1021400041271A8219820E94D2248B878A899B890F
:10215000892B09F43FC08B85882311F40E94D11686
:102160000E94A42B9A83898389819A8188279270FF
:10217000892B59F50FB6F8940F928D819E81FC0141
:10218000808191819A8389832E853F8589819A8177
:102190004989B9010E948012882399F0888988238F
:1021A00081F08D819E81FC01208131818E859F850A
:1021B00080959095282339238D819E81FC01318360
:1021C000208381E08F830F900FBE89819A819927A8
:1021D0009A83898389819A8163960FB6F894DEBFCA
:1021E0000FBECDBFDF91CF911F910F910895CF9377
:1021F000DF93CDB7DEB728970FB6F894DEBF0FBEDA
:10220000CDBF9E838D8378876F838D819E819A83D6
:1022100089830FB6F8940F9289819A81FC0180819D
:1022200091819C838B8389819A81FC0120813181FA
:102230008F819885809590952823392389819A816B
:10224000FC01318320830F900FBE8B819C812896E7
:102250000FB6F894DEBF0FBECDBFDF91CF910895CA
:10226000CF93DF93CDB7DEB727970FB6F894DEBFD5
:102270000FBECDBF9F838E838E819F819A8389837A
:102280001B8289819A81FC01808191819D838C834D
:102290008C819D8127960FB6F894DEBF0FBECDBF0F
:1022A000DF91CF910895CF93DF93CDB7DEB76597D8
:1022B0000FB6F894DEBF0FBECDBF9B8B8A8B7D8B94
:1022C0006C8B1C821B828A899B899F838E831D82D3
:1022D0008E819F8102969987888788859985039644
:1022E0009B878A870E94C52488859985FC01858102
:1022F00096819A8389838E819F81FC01208131811F
:102300008C899D89282B392B8E819F81FC013183FB
:1023100020835EC089819A81FC01828193819D879F
:102320008C8789819A81FC01808191819F878E872A
:102330001D828E859F858827998B888B8E859F85AA
:1023400099279F878E878889998988279470892BF8
:1023500071F48E819F81FC01208131818E859F8562
:1023600082239323892B99F081E08D8310C08E8185
:102370009F81FC01208131818E859F85282339230F
:102380008E859F852817390711F481E08D838D8113
:102390008823D1F08889998988279170892B41F009
:1023A0002B813C818E859F85822B932B9C838B83F5
:1023B0008E819F81FC01808191819C0132608981A5
:1023C0009A81B9010E94E0278C859D859A83898333
:1023D00029813A818A859B852817390709F09ACF88
:1023E0008E819F81FC01208131818B819C81809530
:1023F0009095282339238E819F81FC01318320838E
:102400000E94D2248E819F81FC01808191816596FA
:102410000FB6F894DEBF0FBECDBFDF91CF91089508
:10242000CF93DF9300D000D000D0CDB7DEB79E832E
:102430008D838D819E819A83898389819A81029679
:102440009C838B830E94C52409C08B819C81FC01E5
:102450008581968160E072E00E94E0278B819C81FB
:10246000FC018081882389F789819A810E94071362
:102470000E94D224000026960FB6F894DEBF0FBE4D
:10248000CDBFDF91CF910895CF93DF9300D000D0DF
:1024900000D0CDB7DEB79A8389834B835C836D838D
:1024A0007E832B813C8189819A81B9010E945311DD
:1024B000000026960FB6F894DEBF0FBECDBFDF91A9
:1024C000CF910895CF93DF9300D000D000D0CDB747
:1024D000DEB79A8389834B835C836D837E832B81F4
:1024E0003C8189819A81B9010E94F71000002696EB
:1024F0000FB6F894DEBF0FBECDBFDF91CF91089528
:10250000CF93DF9300D000D000D0CDB7DEB79B8350
:102510008A837D836C834E8319828E81882359F44C
:102520002A813B818C819D8182239323892B81F099
:1025300081E089830DC02A813B818C819D81282384
:1025400039238C819D812817390711F481E0898313
:10255000898126960FB6F894DEBF0FBECDBFDF91FE
:10256000CF910895CF93DF9300D000D0CDB7DEB7E1
:102570009C838B831A8219820E94C52480918B06CA
:1025800090918C06892B31F48EEA90E090938C0622
:1025900080938B062091890630918A068B819C81DD
:1025A000820F931F8B3D954038F52091890630911D
:1025B0008A068B819C81280F391F80918906909112
:1025C0008A0682179307C0F420918B0630918C06FF
:1025D0008091890690918A06820F931F9A8389833E
:1025E0002091890630918A068B819C81820F931FEE
:1025F00090938A06809389060E94D22489819A81C9
:102600000F900F900F900F90DF91CF910895CF937F
:10261000DF9300D0CDB7DEB79A83898300000F9097
:102620000F90DF91CF910895CF93DF93CDB7DEB7B1
:1026300010928A06109289060000DF91CF910895CA
:10264000CF93DF93CDB7DEB78091890690918A064C
:102650002BED35E0A901481B590BCA01DF91CF9141
:102660000895CF93DF9300D0CDB7DEB79A838983E7
:1026700089819A819C012D5F3F4F89819A81FC015C
:102680003283218389819A812FEF3FEFFC013483CC
:10269000238389819A819C012D5F3F4F89819A8193
:1026A000FC013683258389819A819C012D5F3F4FF0
:1026B00089819A81FC013087278389819A81FC0175
:1026C000108200000F900F90DF91CF910895CF936B
:1026D000DF9300D0CDB7DEB79A83898389819A8151
:1026E000FC011186108600000F900F90DF91CF91B2
:1026F0000895CF93DF9300D000D000D0CDB7DEB7E0
:102700009C838B837E836D838B819C81FC01818183
:1027100092819A8389838D819E8129813A81FC01EE
:102720003383228389819A81FC01248135818D81C3
:102730009E81FC013583248389819A81FC018481F7
:1027400095812D813E81FC013383228389819A8189
:102750002D813E81FC01358324838D819E812B81D7
:102760003C81FC01318720878B819C81FC01808129
:1027700021E0280F8B819C81FC012083000026969C
:102780000FB6F894DEBF0FBECDBFDF91CF91089595
:10279000CF93DF93CDB7DEB728970FB6F894DEBF9F
:1027A0000FBECDBF9E838D8378876F838F81988581
:1027B000FC01808191819C838B838B819C8101961C
:1027C00041F48D819E81FC01878190859A83898364
:1027D0001AC08D819E8103969A83898307C089815F
:1027E0009A81FC01828193819A83898389819A816C
:1027F000FC0182819381FC01208131818B819C814C
:102800008217930760F789819A81FC0122813381C5
:102810008F819885FC01338322838F819885FC0109
:10282000828193812F813885FC01358324838F81B8
:10283000988529813A81FC013583248389819A8195
:102840002F813885FC01338322838F8198852D81E8
:102850003E81FC01318720878D819E81FC01808132
:1028600021E0280F8D819E81FC01208300002896A5
:102870000FB6F894DEBF0FBECDBFDF91CF910895A4
:10288000CF93DF9300D000D0CDB7DEB79C838B838E
:102890008B819C81FC01808591859A8389838B81C2
:1028A0009C81FC01828193812B813C81F9012481EF
:1028B0003581FC01358324838B819C81FC018481DB
:1028C00095812B813C81F90122813381FC01338385
:1028D000228389819A81FC01218132818B819C81B3
:1028E0002817390751F48B819C81FC0124813581A3
:1028F00089819A81FC01328321838B819C81FC0137
:102900001186108689819A81FC0180812FEF280F22
:1029100089819A81FC01208389819A81FC018081CF
:102920000F900F900F900F90DF91CF910895EF923D
:10293000FF920F93CF93DF93CDB7DEB70E940D08C0
:102940000E94D50C0E94490081E00E94F105E12C13
:10295000F12C01E020E030E046E950E061E770E072
:102960008CE690E00E944220E12CF12C01E020E076
:1029700030E046E950E069E770E08FEB90E00E94BC
:102980004220E12CF12C01E020E030E046E950E06B
:1029900061E870E08BE091E00E944220E12CF12C94
:1029A00002E020E030E046E950E067E870E087E6CA
:1029B00091E00E944220E12CF12C02E020E030E086
:1029C0004CE251E061E970E08EE991E00E94422022
:1029D0000E948324FFCFCF93DF93CDB7DEB7289734
:1029E0000FB6F894DEBF0FBECDBF9C838B837E8372
:1029F0006D8358874F838B819C8121E1FC0120836B
:102A00008B819C8101979C838B838B819C8122E2AB
:102A1000FC0120838B819C8101979C838B838B811C
:102A20009C8123E3FC0120838B819C8101979C8303
:102A30008B838D819E819A83898329818B819C815F
:102A4000FC0120838B819C8101979C838B838981EE
:102A50009A81892F99279A83898329818B819C81E7
:102A6000FC0120838B819C8101979C838B838B81CC
:102A70009C81FC0110828B819C8101979C838B83BC
:102A80008B819C8120E8FC0120838B819C810197B4
:102A90009C838B838B819C81FC0110828B819C8128
:102AA00001979C838B838B819C8122E0FC01208396
:102AB0008B819C8101979C838B838B819C8123E0FC
:102AC000FC0120838B819C8101979C838B838B816C
:102AD0009C8124E0FC0120838B819C8101979C8355
:102AE0008B838B819C8125E0FC0120838B819C81E1
:102AF00001979C838B838B819C8126E0FC01208342
:102B00008B819C8101979C838B838B819C8127E0A7
:102B1000FC0120838B819C8101979C838B838B811B
:102B20009C8128E0FC0120838B819C8101979C8300
:102B30008B838B819C8129E0FC0120838B819C818C
:102B400001979C838B838B819C8120E1FC012083F6
:102B50008B819C8101979C838B838B819C8121E15C
:102B6000FC0120838B819C8101979C838B838B81CB
:102B70009C8122E1FC0120838B819C8101979C83B5
:102B80008B838B819C8123E1FC0120838B819C8141
:102B900001979C838B838B819C8124E1FC012083A2
:102BA0008B819C8101979C838B838B819C8125E108
:102BB000FC0120838B819C8101979C838B838B817B
:102BC0009C8126E1FC0120838B819C8101979C8361
:102BD0008B838B819C8127E1FC0120838B819C81ED
:102BE00001979C838B838B819C8128E1FC0120834E
:102BF0008B819C8101979C838B838B819C8129E1B4
:102C0000FC0120838B819C8101979C838B838B812A
:102C10009C8120E2FC0120838B819C8101979C8315
:102C20008B838B819C8121E2FC0120838B819C81A1
:102C300001979C838B838B819C8122E2FC01208302
:102C40008B819C8101979C838B838B819C8123E268
:102C5000FC0120838B819C8101979C838B838F81D6
:102C600098859A83898329818B819C81FC012083AB
:102C70008B819C8101979C838B8389819A81892F89
:102C800099279A83898329818B819C81FC012083E8
:102C90008B819C8101979C838B838B819C8126E215
:102CA000FC0120838B819C8101979C838B838B818A
:102CB0009C8127E2FC0120838B819C8101979C836E
:102CC0008B838B819C8128E2FC0120838B819C81FA
:102CD00001979C838B838B819C8129E2FC0120835B
:102CE0008B819C8101979C838B838B819C8120E3CA
:102CF000FC0120838B819C8101979C838B838B813A
:102D00009C8121E3FC0120838B819C8101979C8322
:102D10008B838B819C8128960FB6F894DEBF0FBE03
:102D2000CDBFDF91CF910895CF93DF93CDB7DEB7BD
:102D30000E948917A0918D06B0918E06CD91CDBFCE
:102D4000DD91DEBFFF91EF91DF91CF91BF91AF9108
:102D50009F918F917F916F915F914F913F912F91B3
:102D60001F910F91FF90EF90DF90CF90BF90AF90A9
:102D70009F908F907F906F905F904F903F902F909B
:102D80001F900F900FBE0F90089581E0DF91CF91BB
:102D90000895CF93DF93CDB7DEB70000DF91CF91D9
:102DA00008950F920FB6F8940F921F9211242F924C
:102DB0003F924F925F926F927F928F929F92AF92CB
:102DC000BF92CF92DF92EF92FF920F931F932F93B8
:102DD0003F934F935F936F937F938F939F93AF93A3
:102DE000BF93CF93DF93EF93FF93A0918D06B091A4
:102DF0008E060DB60D920EB60D920E94AA26A091D7
:102E00008D06B0918E06CD91CDBFDD91DEBFFF91D5
:102E1000EF91DF91CF91BF91AF919F918F917F9172
:102E20006F915F914F913F912F911F910F91FF9063
:102E3000EF90DF90CF90BF90AF909F908F907F905A
:102E40006F905F904F903F902F901F900F900FBE0C
:102E50000F90089500000F920FB6F8940F921F92F2
:102E600011242F923F924F925F926F927F928F9296
:102E70009F92AF92BF92CF92DF92EF92FF920F9309
:102E80001F932F933F934F935F936F937F938F93F2
:102E90009F93AF93BF93CF93DF93EF93FF93A09153
:102EA0008D06B0918E060DB60D920EB60D920E9453
:102EB000BD25882311F00E94AA26A0918D06B0910D
:102EC0008E06CD91CDBFDD91DEBFFF91EF91DF91F9
:102ED000CF91BF91AF919F918F917F916F915F91B2
:102EE0004F913F912F911F910F91FF90EF90DF90A5
:102EF000CF90BF90AF909F908F907F906F905F909A
:102F00004F903F902F901F900F900FBE0F900895FD
:102F10000000CF93DF9300D000D000D0CDB7DEB754
:102F200080E09AE6A8E1B0E089839A83AB83BC8312
:102F300089819A81AB81BC81689415F8B695A79573
:102F4000979587951694D1F789839A83AB83BC8331
:102F500089819A81AB81BC810197A109B1098983DB
:102F60009A83AB83BC8389818D8389819A81AB816C
:102F7000BC81892F9A2FAB2FBB2789839A83AB8380
:102F8000BC8389818E838BE490E02E81FC012083B9
:102F90008AE490E02D81FC0120838BE08D838EE418
:102FA00090E02D81FC01208389E590E0FC01808187
:102FB0008D838D8180618D8389E590E02D81FC0179
:102FC0002083000026960FB6F894DEBF0FBECDBF5B
:102FD000DF91CF9108950E942B1718950000CF9391
:102FE000DF9300D000D01F92CDB7DEB79C838B83D8
:102FF0006D838B819C819A8389830FB6F8940F929D
:1030000089819A81FC018081918129813A81F9012C
:10301000238D422F50E029813A81F901248D222FFE
:1030200030E0429FB001439F700D529F700D1124FC
:103030009B01280F391F89819A81FC0135832483E4
:1030400089819A81FC01128E89819A81FC012081FB
:10305000318189819A81FC013383228389819A811C
:10306000FC012081318189819A81FC01838D882F27
:1030700090E0BC016150710989819A81FC01848DC5
:10308000482F50E0649FC001659F900D749F900D84
:103090001124280F391F89819A81FC0137832683E7
:1030A00089819A812FEFFC01258F89819A812FEFE9
:1030B000FC01268F8D81882381F489819A81FC010E
:1030C00080858823A1F089819A8108960E947327C0
:1030D000882369F00E94D1160AC089819A810896D6
:1030E0000E94311389819A8141960E9431130F9079
:1030F0000FBE81E00F900F900F900F900F90DF9117
:10310000CF9108950F931F93CF93DF93CDB7DEB781
:1031100029970FB6F894DEBF0FBECDBF8F836887A7
:1031200049878885882319F41A8219820FC08F81F4
:10313000482F50E08885282F30E0429FC001439FF0
:10314000900D529F900D11249A83898389819A81D1
:103150004F960E94B2129C838B838B819C81892B1A
:10316000A1F08B819C819E838D838D819E814F9662
:103170009E838D832B813C818D819E818901298550
:10318000AC0168858F810E94D2188B819C81299621
:103190000FB6F894DEBF0FBECDBFDF91CF911F9168
:1031A0000F9108950F931F93CF93DF93CDB7DEB7A1
:1031B00027970FB6F894DEBF0FBECDBF89836A8311
:1031C0005C834B832D831F830E838A81882341F484
:1031D0008E819F812E813F81FC013183208307C036
:1031E0008E819F812B813C81FC01318320838E81E4
:1031F0009F812981FC01238F8E819F812A81FC017F
:10320000248F8E819F8161E00E94EF170000279636
:103210000FB6F894DEBF0FBECDBFDF91CF911F91E7
:103220000F910895CF93DF9300D0CDB7DEB79A8387
:10323000898389819A81892BB9F089819A81FC01DE
:103240001582148289819A81FC0111821082898100
:103250009A81FC01168289819A8120E040E050E049
:1032600060E070E00E945A1900000F900F90DF910B
:10327000CF910895CF93DF9300D000D01F92CDB7A8
:10328000DEB78D8381E089831A824D816A818981CD
:103290000E9482189C838B838B819C810E941219CF
:1032A0008B819C810F900F900F900F900F90DF916A
:1032B000CF910895CF93DF93CDB7DEB72E970FB69A
:1032C000F894DEBF0FBECDBF998788877B876A875A
:1032D0005D874C872E871982888599859B838A8391
:1032E0000FB6F8940F928A819B81FC01228D8A810E
:1032F0009B81FC01838D281718F08E85823011F593
:103300002A853B858A819B814E85B9010E943F1E9B
:103310008C838A819B81FC018189882351F08A8179
:103320009B8141960E947327882341F00E94D11609
:1033300005C08C81882311F00E94D1160F900FBE1A
:1033400081E060C08C859D85892B21F40F900FBE94
:1033500080E058C08981882331F4CE0105960E940F
:10336000652881E089830F900FBE0E94C5240FB6A7
:10337000F8940F928A819B81FC01858D8F3F21F407
:103380008A819B81FC01158E8A819B81FC01868D3F
:103390008F3F21F48A819B81FC01168E0F900FBE16
:1033A0009E01245F3F4FCE010596B9010E948128FE
:1033B000882309F58A819B810E94FC1F8823A1F044
:1033C0002C853D858A819B810896B9010E941E2724
:1033D0008A819B810E94601F0E94D224882309F069
:1033E0007FCF0E94D1167CCF8A819B810E94601F73
:1033F0000E94D22475CF8A819B810E94601F0E9407
:10340000D22480E02E960FB6F894DEBF0FBECDBF5B
:10341000DF91CF910895CF93DF93CDB7DEB72C978F
:103420000FB6F894DEBF0FBECDBF9F838E83798722
:1034300068875B874A872C878E819F819B838A83DD
:103440001C828A819B81FC01228D8A819B81FC01E7
:10345000838D281718F08C85823089F58A819B81AD
:10346000FC01868D8D83288539858A819B814C85D9
:10347000B9010E943F1E8D818F3FB9F48A819B81E3
:10348000FC0181898823C1F08A819B8141960E9439
:103490007327882389F08A859B85892B69F08A8523
:1034A0009B8521E0FC01208307C08D818F5F282F41
:1034B0008A819B81FC01268F81E0898301C019826A
:1034C00089812C960FB6F894DEBF0FBECDBFDF9179
:1034D000CF910895CF93DF93CDB7DEB72A970FB67C
:1034E000F894DEBF0FBECDBF98878F837A87698738
:1034F0008F8198859B838A831C828A819B81FC01B2
:10350000828D8D838A819B81FC01938D8D818917AA
:1035100080F58A819B81FC01868D8E838D8121E0DF
:10352000280F8A819B81FC01228F8E818F3FB9F405
:103530008A819B81FC0181898823C1F08A819B81DA
:1035400041960E947327882389F089859A85892B63
:1035500069F089859A8521E0FC01208307C08E816E
:103560008F5F282F8A819B81FC01268F81E08983D0
:1035700001C0198289812A960FB6F894DEBF0FBE6A
:10358000CDBFDF91CF910895CF93DF93CDB7DEB755
:103590002D970FB6F894DEBF0FBECDBF99878887F1
:1035A0007B876A875D874C871982888599859B838D
:1035B0008A830FB6F8940F928A819B81FC01828DD9
:1035C0008C838C81882309F12A853B858A819B81A4
:1035D000B9010E940F1F8C812FEF280F8A819B81D8
:1035E000FC01228F8A819B81FC018085882349F020
:1035F0008A819B8108960E947327882311F00E947C
:10360000D1160F900FBE81E067C08C859D85892BF8
:1036100021F40F900FBE80E05FC08981882331F4D0
:10362000CE0105960E94652881E089830F900FBE28
:103630000E94C5240FB6F8940F928A819B81FC01E9
:10364000858D8F3F21F48A819B81FC01158E8A81B3
:103650009B81FC01868D8F3F21F48A819B81FC0137
:10366000168E0F900FBE9E01245F3F4FCE01059630
:10367000B9010E948128882309F58A819B810E94D3
:10368000BE1F8823A1F02C853D858A819B814196B0
:10369000B9010E941E278A819B810E94601F0E949F
:1036A000D224882309F085CF0E94D11682CF8A8147
:1036B0009B810E94601F0E94D2247BCF8A819B81C4
:1036C0000E94601F0E94D2248A819B810E94BE1F9B
:1036D000882309F46ECF80E02D960FB6F894DEBFF4
:1036E0000FBECDBFDF91CF910895CF93DF93CDB7BC
:1036F000DEB72D970FB6F894DEBF0FBECDBF9B8708
:103700008A877D876C8719828A859B859C838B83BA
:103710001A820FB6F8940F928B819C81FC01828DE6
:103720008D838D81882349F18D812FEF280F8B8127
:103730009C81FC01228F8B819C81FC018081918185
:10374000892B41F40E94CE2B9C018B819C81FC0132
:10375000358324838B819C81FC018085882349F0FB
:103760008B819C8108960E947327882311F00E9408
:10377000D1160F900FBE81E090C08C859D85892B5E
:1037800021F40F900FBE80E088C08981882331F436
:10379000CE0107960E94652881E089830F900FBEB5
:1037A0000E94C5240FB6F8940F928B819C81FC0176
:1037B000858D8F3F21F48B819C81FC01158E8B813F
:1037C0009C81FC01868D8F3F21F48B819C81FC01C3
:1037D000168E0F900FBE9E01245F3F4FCE010796BD
:1037E000B9010E9481288823A9F58B819C810E94C0
:1037F000BE1F882341F18B819C81FC0180819181D6
:10380000892B69F40FB6F8940F928B819C81FC018F
:10381000848195810E94DB298A830F900FBE2C85BD
:103820003D858B819C814196B9010E941E278B8129
:103830009C810E94601F0E94D224882309F069CFD6
:103840000E94D11666CF8B819C810E94601F0E94CE
:10385000D2245FCF8B819C810E94601F0E94D22462
:103860008B819C810E94BE1F882309F452CF8A81DC
:10387000882391F00FB6F8940F928B819C810E945F
:103880001C1E8E838B819C81FC01848195816E81BD
:103890000E94042B0F900FBE80E02D960FB6F89477
:1038A000DEBF0FBECDBFDF91CF910895CF93DF93E1
:1038B000CDB7DEB72F970FB6F894DEBF0FBECDBFE2
:1038C0009B878A877D876C875F874E8719828A8569
:1038D0009B859B838A830FB6F8940F928A819B8184
:1038E000FC01828D8C838C81882341F18A819B81AC
:1038F000FC01868197819E838D832C853D858A81FD
:103900009B81B9010E940F1F8A819B812D813E817D
:10391000FC01378326838A819B81FC01818988236E
:1039200049F08A819B8141960E947327882311F078
:103930000E94D1160F900FBE81E067C08E859F85D3
:10394000892B21F40F900FBE80E05FC0898188230E
:1039500031F4CE0107960E94652881E089830F909B
:103960000FBE0E94C5240FB6F8940F928A819B81E6
:10397000FC01858D8F3F21F48A819B81FC01158E8E
:103980008A819B81FC01868D8F3F21F48A819B81F6
:10399000FC01168E0F900FBE9E01225F3F4FCE019D
:1039A0000796B9010E948128882309F58A819B81A5
:1039B0000E94BE1F8823A1F02E853F858A819B81AE
:1039C0004196B9010E941E278A819B810E94601F37
:1039D0000E94D224882309F07ECF0E94D1167BCF8B
:1039E0008A819B810E94601F0E94D22474CF8A81A9
:1039F0009B810E94601F0E94D2248A819B810E9429
:103A0000BE1F882309F467CF80E02F960FB6F89485
:103A1000DEBF0FBECDBFDF91CF910895CF93DF936F
:103A2000CDB7DEB72C970FB6F894DEBF0FBECDBF73
:103A300098878F837A8769875C874B878F81988582
:103A40009B838A831C828A819B81FC01828D8D836A
:103A50008D818823B9F18A819B81FC01858D8E83BC
:103A600029853A858A819B81B9010E940F1F8D812A
:103A70002FEF280F8A819B81FC01228F8E818F3F3F
:103A8000B9F48A819B81FC0180858823C1F08A81F9
:103A90009B8108960E947327882389F08B859C85DB
:103AA000892B69F08B859C8521E0FC01208307C070
:103AB0008E818F5F282F8A819B81FC01258F81E079
:103AC000898301C0198289812C960FB6F894DEBFD4
:103AD0000FBECDBFDF91CF910895CF93DF93CDB7C8
:103AE000DEB72A970FB6F894DEBF0FBECDBF98871A
:103AF0008F837A8769878F8198859B838A831C82CD
:103B00008A819B81FC01828D8823C1F08A819B81FF
:103B1000FC01868197819E838D8329853A858A81E0
:103B20009B81B9010E940F1F8A819B812D813E815B
:103B3000FC013783268381E0898301C01982898152
:103B40002A960FB6F894DEBF0FBECDBFDF91CF919E
:103B50000895CF93DF9300D01F92CDB7DEB79B833C
:103B60008A830FB6F8940F928A819B81FC01828D23
:103B700089830F900FBE89810F900F900F90DF9176
:103B8000CF910895CF93DF9300D000D01F92CDB78F
:103B9000DEB79D838C838C819D819A8389830FB648
:103BA000F8940F9289819A81FC01238D89819A81F1
:103BB000FC01828DF22FF81B8F2F8B830F900FBE8D
:103BC0008B810F900F900F900F900F90DF91CF91FE
:103BD0000895CF93DF9300D000D01F92CDB7DEB70A
:103BE0009D838C838C819D819A83898389819A812D
:103BF000FC01828D8B838B810F900F900F900F9023
:103C00000F90DF91CF910895CF93DF9300D000D034
:103C1000CDB7DEB79C838B838B819C819A8389830C
:103C200089819A810E94071300000F900F900F90D6
:103C30000F90DF91CF910895CF93DF9300D01F9223
:103C4000CDB7DEB79B838A838A819B81FC01818902
:103C5000882369F08A819B81FC0186899789FC0110
:103C600080819181982F85E0891B898301C0198209
:103C700089810F900F900F90DF91CF910895CF938E
:103C8000DF93CDB7DEB727970FB6F894DEBF0FBE30
:103C9000CDBF9C838B837E836D834F8319828B8101
:103CA0009C81FC01828D8A838B819C81FC01848DA7
:103CB0008823B1F48B819C81FC0180819181892BC7
:103CC00009F09CC08B819C81FC01848195810E94BC
:103CD000872A89838B819C81FC01158214828EC086
:103CE0008F818823D9F58B819C81FC01848D482F9D
:103CF00050E08B819C81FC01828193812D813E81EA
:103D0000B9010E9429328B819C81FC01228133817F
:103D10008B819C81FC01848D882F90E0280F391FB6
:103D20008B819C81FC01338322838B819C81FC01EC
:103D3000228133818B819C81FC01848195812817AC
:103D4000390708F45BC08B819C81FC0120813181A3
:103D50008B819C81FC013383228350C08B819C81A9
:103D6000FC01848D482F50E08B819C81FC01868171
:103D700097812D813E81B9010E9429328B819C81DE
:103D8000FC01268137818B819C81FC01848D882FE9
:103D900090E0919581959109280F391F8B819C8125
:103DA000FC01378326838B819C81FC01268137812E
:103DB0008B819C81FC018081918128173907A8F4AF
:103DC0008B819C81FC01248135818B819C81FC014C
:103DD000848D882F90E0919581959109280F391F46
:103DE0008B819C81FC01378326838F81823031F463
:103DF0008A81882319F08A8181508A838A8121E00F
:103E0000280F8B819C81FC01228F898127960FB618
:103E1000F894DEBF0FBECDBFDF91CF910895CF9351
:103E2000DF9300D000D0CDB7DEB79A8389837C833F
:103E30006B8389819A81FC01848D8823C9F18981F2
:103E40009A81FC012681378189819A81FC01848DC8
:103E5000882F90E0280F391F89819A81FC013783D0
:103E6000268389819A81FC012681378189819A8103
:103E7000FC01848195812817390750F089819A8146
:103E8000FC012081318189819A81FC01378326835D
:103E900089819A81FC01848D482F50E089819A8123
:103EA000FC01268137818B819C81B9010E942932D6
:103EB00000000F900F900F900F90DF91CF91089519
:103EC000CF93DF9300D000D0CDB7DEB79C838B8338
:103ED0000FB6F8940F928B819C81FC01868D8983AB
:103EE00012C08B819C81FC018189882381F08B81A8
:103EF0009C8141960E947327882311F00E94F42828
:103F0000898181508983898118165CF301C0000082
:103F10008B819C812FEFFC01268F0F900FBE0FB677
:103F2000F8940F928B819C81FC01858D8A8312C04D
:103F30008B819C81FC018085882381F08B819C8111
:103F400008960E947327882311F00E94F4288A8122
:103F500081508A838A8118165CF301C000008B812E
:103F60009C812FEFFC01258F0F900FBE00000F905A
:103F70000F900F900F90DF91CF910895CF93DF9323
:103F800000D01F92CDB7DEB79B838A830FB6F8941B
:103F90000F928A819B81FC01828D882319F481E034
:103FA000898301C019820F900FBE89810F900F90F5
:103FB0000F90DF91CF910895CF93DF9300D000D081
:103FC0001F92CDB7DEB79D838C838C819D819B83AF
:103FD0008A838A819B81FC01828D882319F481E088
:103FE000898301C0198289810F900F900F900F90E3
:103FF0000F90DF91CF910895CF93DF9300D01F9260
:10400000CDB7DEB79B838A830FB6F8940F928A816F
:104010009B81FC01228D8A819B81FC01838D281765
:1040200019F481E0898301C019820F900FBE898144
:104030000F900F900F90DF91CF910895CF93DF9362
:1040400000D000D01F92CDB7DEB79D838C838C81CA
:104050009D819B838A838A819B81FC01228D8A8139
:104060009B81FC01838D281719F481E0898301C0AD
:10407000198289810F900F900F900F900F90DF9110
:10408000CF9108958F929F92AF92BF92CF92DF927D
:10409000EF92FF920F931F93CF93DF93CDB7DEB7CD
:1040A00060970FB6F894DEBF0FBECDBF9F838E839F
:1040B000798768875B874A873D872C870E87F88AD0
:1040C000EF868A859B850E94B2129D838C838C81AA
:1040D0009D81892BB9F088E290E00E94B2129A8308
:1040E000898389819A81892B41F089819A812C81E8
:1040F0003D81FC01308F278B07C08C819D810E9400
:10410000071302C01A82198289819A81892B09F1C9
:104110008A859B85CC01A0E0B0E009811A814F859A
:1041200058892C853D8568857985EE81FF81812CB4
:10413000912C58016A01EE8489019C01AD01CF01E7
:104140000E94BF2089819A810E94932181E08B8304
:1041500002C08FEF8B838B8160960FB6F894DEBF21
:104160000FBECDBFDF91CF911F910F91FF90EF90C8
:10417000DF90CF90BF90AF909F908F9008958F92D7
:104180009F92AF92BF92CF92DF92EF920F931F93C5
:10419000CF93DF93CDB7DEB764970FB6F894DEBF49
:1041A0000FBECDBF9D838C837F836E832887398725
:1041B0004A875B871D870C87EE86D88ACF86BA8AA6
:1041C000A98A9C8A8B8A89899A89FC012789308DE2
:1041D000888599850197820F931F9B838A838E819F
:1041E0009F81892B69F1198221C08981882F90E0F4
:1041F0002981222F30E04E815F81240F351FF90184
:10420000408129893A89820F931F4996FC01408396
:104210008981882F90E02E813F81820F931FFC01BE
:104220008081882339F089818F5F898389818830F3
:10423000E0F201C0000089899A89FC0110A204C043
:1042400089899A89FC01118E8E85853010F084E071
:104250008E8789899A892E85FC01268B89899A897E
:104260002E85FC0121A389899A89FC0112A28989E2
:104270009A8902960E94671389899A890C960E94EE
:10428000671389899A8929893A89FC0131872087AE
:104290008E85882F90E025E030E0281B390B898936
:1042A0009A89FC013587248789899A8929893A89DD
:1042B000FC01338B228B89899A89FC0113A214A2F9
:1042C00015A216A289899A89FC0117A24C855D85E1
:1042D0002C813D818A819B81B9010E94EB149C0154
:1042E00089899A89FC01318320838F859889892B5C
:1042F00039F08F85988929893A89FC013183208397
:10430000000064960FB6F894DEBF0FBECDBFDF91FC
:10431000CF911F910F91EF90DF90CF90BF90AF9012
:104320009F908F900895CF93DF9300D0CDB7DEB7E5
:104330009A8389830FB6F8940F928091EE068F5F6F
:104340008093EE0680918D0690918E06892B69F4FC
:1043500089819A8190938E0680938D068091EE06D6
:104360008130C9F40E940F2916C08091F20688237B
:1043700091F480918D0690918E06FC0126898981A9
:104380009A81FC018689821730F089819A81909305
:104390008E0680938D068091F6068F5F8093F606D9
:1043A00089819A81FC0196898091F106891730F400
:1043B00089819A81FC0186898093F10689819A819D
:1043C000AC014E5F5F4F89819A81FC018689282F5D
:1043D00030E0C901880F991F880F991F880F991F16
:1043E000820F931F8157994FBA010E9479130F9042
:1043F0000FBE8091F206882371F080918D06909116
:104400008E06FC01268989819A81FC0186892817FC
:1044100010F40E94D11600000F900F90DF91CF9101
:104420000895CF93DF9300D000D0CDB7DEB79C8343
:104430008B830FB6F8940F928B819C81892B29F482
:1044400080918D0690918E0602C08B819C819A830B
:10445000898389819A8102960E94401489819A8178
:10446000FC0184899589892B29F089819A810C9690
:104470000E9440148091F6068F5F8093F60680912B
:104480008D0690918E0629813A812817390771F49B
:1044900089819A810296BC018BED96E00E94791386
:1044A0008091E4068F5F8093E4060BC08091EE0656
:1044B00081508093EE0689819A810E9482290E9410
:1044C0009A290F900FBE8091F206882359F08091AF
:1044D0008D0690918E0629813A812817390711F4AB
:1044E0000E94D11600000F900F900F900F90DF9157
:1044F000CF910895CF93DF93CDB7DEB72A970FB64C
:10450000F894DEBF0FBECDBF98878F837A87698707
:1045100019820E94C5248091EF069091F0069B833A
:104520008A838F819885FC012081318189859A85D4
:10453000820F931F9D838C838F819885FC0120813E
:1045400031818A819B8182179307A0F48F8198859E
:10455000FC01208131818C819D8182179307E8F4D1
:104560002C813D818A819B8182179307B0F481E081
:10457000898313C08F819885FC01208131818C81D2
:104580009D818217930738F02C813D818A819B8120
:104590008217930710F481E089838F8198852C819D
:1045A0003D81FC01318320838981882359F02C814E
:1045B0003D818A819B81A901481B590BCA0160E09A
:1045C0000E94A62F0E94D2248E838E81882311F40C
:1045D0000E94D11600002A960FB6F894DEBF0FBED7
:1045E000CDBFDF91CF910895CF93DF9300D01F927D
:1045F000CDB7DEB79B838A8319828A819B81892B01
:1046000051F00E94C5248A819B8160E00E94A62F00
:104610000E94D22489838981882311F40E94D116B3
:1046200000000F900F900F90DF91CF910895CF93DE
:10463000DF9300D000D0CDB7DEB79C838B830FB65D
:10464000F8940F928B819C81892B29F480918D069F
:1046500090918E0602C08B819C819A838983898187
:104660009A8102960E94401489819A81FC01848972
:104670009589892B29F089819A810C960E94401492
:1046800089819A810296BC0185EE96E00E94791399
:1046900089819A81FC0187A1813021F489819A81E5
:1046A000FC0117A20F900FBE8091F206882339F00B
:1046B0000FB6F8940F920E949A290F900FBE809126
:1046C0008D0690918E0629813A8128173907A1F429
:1046D0008091F206882319F00E94D1160DC09091A6
:1046E000E5068091EE06981729F410928E06109236
:1046F0008D0602C00E94AA2600000F900F900F9016
:104700000F90DF91CF910895CF93DF9300D000D029
:104710001F92CDB7DEB79D838C8319828C819D81DA
:104720009B838A838A819B81FC0182859385855E38
:10473000964089F48A819B81FC0184899589825DF8
:10474000964049F08A819B81FC0184899589892B57
:1047500011F481E0898389810F900F900F900F9061
:104760000F90DF91CF910895CF93DF9300D000D0C9
:10477000CDB7DEB79C838B838B819C819A838983A1
:1047800080918D0690918E0629813A8128173907EC
:1047900009F44AC089819A81892B09F445C00FB672
:1047A000F8940F9289819A810E9484238823D1F101
:1047B00089819A8102960E94401489819A81FC0124
:1047C00096898091F106891730F489819A81FC01DC
:1047D00086898093F10689819A81AC014E5F5F4F93
:1047E00089819A81FC018689282F30E0C901880FD0
:1047F000991F880F991F880F991F820F931F815748
:10480000994FBA010E94791389819A81FC01268906
:1048100080918D0690918E06FC018689281710F0F4
:104820000E94D1160F900FBE00000F900F900F90B6
:104830000F90DF91CF910895CF93DF9300D000D0F8
:1048400000D0CDB7DEB79E838D8319828D819E8186
:104850009B838A831C828A819B810E948423882374
:1048600009F447C08091FB068823D9F58A819B8192
:10487000FC01268980918D0690918E06FC01868927
:10488000281710F081E089838A819B8102960E941B
:1048900040148A819B81FC0196898091F1068917D9
:1048A00030F48A819B81FC0186898093F1068A819C
:1048B0009B81AC014E5F5F4F8A819B81FC018689A1
:1048C000282F30E0C901880F991F880F991F880F82
:1048D000991F820F931F8157994FBA010E94791334
:1048E00008C08A819B810C96BC0182ED96E00E94F3
:1048F0007913898126960FB6F894DEBF0FBECDBF1F
:10490000DF91CF910895EF92FF920F93CF93DF93B2
:104910001F92CDB7DEB70F2EF9EFEF2EF6E0FF2E88
:10492000F02D00E020E030E045E550E063EA70E083
:104930008FEF98E20E94422089838981813081F43F
:10494000F8948FEF9FEF9093F8068093F70681E03D
:104950008093F2061092F0061092EF060E949416D1
:1049600000000F90DF91CF910F91FF90EF9008958D
:10497000CF93DF93CDB7DEB7F8941092F2060E9482
:10498000C9160000DF91CF910895CF93DF93CDB783
:10499000DEB78091FB068F5F8093FB060000DF91FE
:1049A000CF910895CF93DF9300D000D0CDB7DEB77D
:1049B0001A8219821B820FB6F8940F928091FB061F
:1049C00081508093FB068091FB06882309F077C015
:1049D0008091EE06882309F472C049C08091D70601
:1049E0009091D806FC01868197819A838983898179
:1049F0009A810C960E94401489819A8102960E94A5
:104A0000401489819A81FC0196898091F106891769
:104A100030F489819A81FC0186898093F10689812D
:104A20009A81AC014E5F5F4F89819A81FC01868932
:104A3000282F30E0C901880F991F880F991F880F10
:104A4000991F820F931F8157994FBA010E947913C2
:104A500089819A81FC01268980918D0690918E062C
:104A6000FC018689281718F081E08093F406809174
:104A7000D206882309F0B2CF89819A81892B11F05F
:104A80000E949A298091F3068C838C81882379F087
:104A90000E94BD25882319F081E08093F4068C8163
:104AA00081508C838C81882399F71092F306809132
:104AB000F406882321F081E08B830E94D1160F90A9
:104AC0000FBE8B810F900F900F900F90DF91CF91C1
:104AD0000895CF93DF9300D0CDB7DEB70FB6F8942B
:104AE0000F928091EF069091F0069A8389830F9040
:104AF0000FBE89819A810F900F90DF91CF91089519
:104B0000CF93DF9300D01F92CDB7DEB7198280918B
:104B1000EF069091F0069B838A838A819B810F9098
:104B20000F900F90DF91CF910895CF93DF93CDB782
:104B3000DEB78091EE06DF91CF910895CF93DF939A
:104B400000D000D0CDB7DEB79C838B838B819C8156
:104B5000892B29F480918D0690918E0602C08B815D
:104B60009C819A83898389819A8149960F900F90BD
:104B70000F900F90DF91CF910895CF93DF93CDB732
:104B8000DEB729970FB6F894DEBF0FBECDBF1982EE
:104B90008091FB06882309F0C8C08091EF069091B0
:104BA000F00601969B838A838A819B819093F0060D
:104BB0008093EF068A819B81892BD9F48091CE0660
:104BC0009091CF069D838C838091D0069091D106E1
:104BD0009093CF068093CE068C819D819093D106D1
:104BE0008093D0068091F5068F5F8093F5060E9432
:104BF0009A298091F7069091F8062A813B8128171F
:104C0000390708F478C08091CE069091CF06FC0158
:104C10008081882339F48FEF9FEF9093F80680937B
:104C2000F70669C08091CE069091CF06FC01858180
:104C30009681FC01868197819F838E838E819F81DF
:104C4000FC0182819381998788872A813B818885AD
:104C500099852817390738F4888599859093F8063F
:104C60008093F70648C08E819F8102960E9440146F
:104C70008E819F81FC0184899589892B29F08E8101
:104C80009F810C960E9440148E819F81FC01968921
:104C90008091F106891730F48E819F81FC0186890D
:104CA0008093F1068E819F81AC014E5F5F4F8E81B4
:104CB0009F81FC018689282F30E0C901880F991F48
:104CC000880F991F880F991F820F931F8157994F43
:104CD000BA010E9479138E819F81FC0126898091FF
:104CE0008D0690918E06FC018689281708F48BCFDB
:104CF00081E0898388CF80918D0690918E06FC019A
:104D00008689282F30E0C901880F991F880F991FC5
:104D1000880F991F820F931F8157994FFC01808143
:104D2000823040F081E0898305C08091F3068F5F77
:104D30008093F3068091F406882311F081E0898343
:104D4000898129960FB6F894DEBF0FBECDBFDF91E3
:104D5000CF910895CF93DF9300D01F92CDB7DEB7E8
:104D60008091FB06882321F081E08093F4065FC0E8
:104D70001092F4068091F106898303C089818150E5
:104D800089838981282F30E0C901880F991F880FF6
:104D9000991F880F991F820F931F8157994FFC010C
:104DA0008081882359F38981282F30E0C901880F39
:104DB000991F880F991F880F991F820F931F815782
:104DC000994F9B838A838A819B81FC018181928197
:104DD000FC01228133818A819B81FC013283218302
:104DE0008A819B81FC01218132818A819B8103968A
:104DF0002817390769F48A819B81FC01818192819E
:104E0000FC01228133818A819B81FC0132832183D1
:104E10008A819B81FC0181819281FC01868197813D
:104E200090938E0680938D0689818093F106000011
:104E30000F900F900F90DF91CF910895CF93DF9354
:104E400000D000D0CDB7DEB79A8389837C836B8393
:104E500080918D0690918E069C01245F3F4F898141
:104E60009A81B9010E94C8138B819C8161E00E94E4
:104E7000A62F00000F900F900F900F90DF91CF9111
:104E80000895CF93DF9300D000D000D0CDB7DEB728
:104E90009A8389837C836B835E834D8380918D06A7
:104EA00090918E062B813C813068FC0135872487E8
:104EB00080918D0690918E069C01245F3F4F8981E1
:104EC0009A81B9010E9479138D819E8161E00E94CF
:104ED000A62F000026960FB6F894DEBF0FBECDBFFA
:104EE000DF91CF910895CF93DF9300D000D01F9230
:104EF000CDB7DEB79D838C838C819D81FC0185813C
:104F00009681FC01868197819B838A838A819B811C
:104F10000C960E9440148091FB06882369F58A81D3
:104F20009B8102960E9440148A819B81FC01968994
:104F30008091F106891730F48A819B81FC01868972
:104F40008093F1068A819B81AC014E5F5F4F8A811D
:104F50009B81FC018689282F30E0C901880F991FA9
:104F6000880F991F880F991F820F931F8157994FA0
:104F7000BA010E94791308C08A819B810C96BC01FA
:104F800082ED96E00E9479138A819B81FC0126893B
:104F900080918D0690918E06FC018689821730F4EF
:104FA00081E0898381E08093F40601C019828981C0
:104FB0000F900F900F900F900F90DF91CF91089569
:104FC000CF93DF9300D000D000D0CDB7DEB79C8365
:104FD0008B837E836D838D819E819C0130688B8164
:104FE0009C81FC01318320838B819C81FC01868123
:104FF00097819A8389838B819C810E944014898147
:105000009A8102960E94401489819A81FC019689B6
:105010008091F106891730F489819A81FC01868993
:105020008093F10689819A81AC014E5F5F4F89813F
:105030009A81FC018689282F30E0C901880F991FC9
:10504000880F991F880F991F820F931F8157994FBF
:10505000BA010E94791389819A81FC012689809185
:105060008D0690918E06FC018689821718F481E0E6
:105070008093F406000026960FB6F894DEBF0FBEAC
:10508000CDBFDF91CF910895CF93DF9300D0CDB7FF
:10509000DEB79A8389830FB6F8940F922091F506B4
:1050A00089819A81FC0120832091EF063091F006DE
:1050B00089819A81FC01328321830F900FBE000009
:1050C0000F900F90DF91CF910895CF93DF9300D091
:1050D000CDB7DEB79A8389832091F50689819A81BD
:1050E000FC0120832091EF063091F00689819A819E
:1050F000FC013283218300000F900F90DF91CF914C
:105100000895CF93DF93CDB7DEB729970FB6F89404
:10511000DEBF0FBECDBF9F838E83798768870FB6B2
:10512000F8940F928091EF069091F0069B838A830A
:105130008E819F81FC01818192812A813B81A9011D
:10514000481B590BCA019D838C8388859985FC0176
:1051500080819181019611F419823AC08E819F81DC
:10516000FC0190818091F506981769F08E819F81EE
:10517000FC01218132818A819B818217930718F07B
:1051800081E0898325C088859985FC012081318152
:105190008C819D8182179307A0F488859985FC01F5
:1051A000208131818C819D81281B390B88859985CF
:1051B000FC01318320838E819F810E9465281982A2
:1051C00007C088859985FC011182108281E089835E
:1051D0000F900FBE898129960FB6F894DEBF0FBEDF
:1051E000CDBFDF91CF910895CF93DF93CDB7DEB7D9
:1051F00081E08093F4060000DF91CF910895CF9372
:10520000DF9300D0CDB7DEB79A8389830E945129FE
:1052100080918F068230D0F30E94D116F7CFCF93C2
:10522000DF931F92CDB7DEB7198213C08981282F73
:1052300030E0C901880F991F880F991F880F991FA7
:10524000820F931F8157994F0E94311389818F5F7D
:1052500089838981853050F38CEB96E00E9431136D
:1052600085EC96E00E94311382ED96E00E943113A6
:105270008BED96E00E94311385EE96E00E9431138B
:105280008CEB96E09093CF068093CE0685EC96E06B
:105290009093D1068093D00600000F90DF91CF91BC
:1052A0000895CF93DF9300D0CDB7DEB721C00FB6FE
:1052B000F8940F928091E0069091E106FC018681BE
:1052C00097819A83898389819A8102960E944014EA
:1052D0008091EE0681508093EE068091E406815025
:1052E0008093E4060F900FBE89819A810E948229E3
:1052F0008091E4068823D9F600000F900F90DF918B
:10530000CF910895CF93DF9300D0CDB7DEB79A83C6
:10531000898389819A81FC018789908D0E94071376
:1053200089819A810E94071300000F900F90DF91EE
:10533000CF910895CF93DF9300D0CDB7DEB78091A2
:10534000CE069091CF06FC018081882339F48FEF3F
:105350009FEF9093F8068093F70615C08091CE06D4
:105360009091CF06FC0185819681FC018681978111
:105370009A83898389819A81FC01828193819093A8
:10538000F8068093F70600000F900F90DF91CF9101
:105390000895CF93DF9300D0CDB7DEB780918D060F
:1053A00090918E069A83898389819A810F900F90BC
:1053B000DF91CF910895CF93DF9300D000D01F925B
:1053C000CDB7DEB79D838C838C819D819B838A833F
:1053D00019828C819D81892B09F490C08A819B81DF
:1053E000FC01268980918D0690918E06FC018689AC
:1053F000281708F075C08A819B81FC0184859585FA
:1054000099238CF080918D0690918E06FC018689FF
:10541000882F90E025E030E0281B390B8A819B81A2
:10542000FC01358724878A819B81FC014285538555
:105430008A819B81FC018689282F30E0C901880F71
:10544000991F880F991F880F991F820F931F8157EB
:10545000994F48175907B9F58A819B8102960E9496
:10546000401480918D0690918E06FC0126898A81D8
:105470009B81FC01268B8A819B81FC01968980910E
:10548000F106891730F48A819B81FC01868980931B
:10549000F1068A819B81AC014E5F5F4F8A819B81BF
:1054A000FC018689282F30E0C901880F991F880FD9
:1054B000991F880F991F820F931F8157994FBA0127
:1054C0000E9479130AC080918D0690918E06FC018E
:1054D00026898A819B81FC01268B81E089830EC00D
:1054E0008A819B81FC0121A180918D0690918E067D
:1054F000FC018689281710F481E0898389810F9047
:105500000F900F900F900F90DF91CF910895CF9350
:10551000DF9300D000D01F92CDB7DEB79D838C8380
:105520008C819D819B838A8319828C819D81892BAB
:1055300009F461C08A819B81FC0182A12FEF280FB1
:105540008A819B81FC0122A38A819B81FC0126899F
:105550008A819B81FC0181A1281709F44CC08A81B2
:105560009B81FC0182A1882309F045C08A819B812F
:1055700002960E9440148A819B81FC0121A18A81AC
:105580009B81FC01268B8A819B81FC018689882F67
:1055900090E025E030E0281B390B8A819B81FC01DB
:1055A000358724878A819B81FC0196898091F10649
:1055B000891730F48A819B81FC0186898093F106EA
:1055C0008A819B81AC014E5F5F4F8A819B81FC0188
:1055D0008689282F30E0C901880F991F880F991FED
:1055E000880F991F820F931F8157994FBA010E940C
:1055F000791381E0898389810F900F900F900F902C
:105600000F90DF91CF910895CF93DF93CDB7DEB7A1
:1056100028970FB6F894DEBF0FBECDBF9F838E8351
:1056200068878E819F819B838A8381E08C838E81B2
:105630009F81892B09F47EC08A819B81FC0191A105
:105640008885981718F48885898305C08A819B818D
:10565000FC0181A189838A819B81FC0196898981D2
:10566000981709F467C08A819B81FC0192A18C8103
:10567000981709F05FC08A819B81FC0186898D8320
:105680008A819B812981FC01268B8A819B81FC0177
:1056900084859585992364F08981882F90E025E0A1
:1056A00030E0281B390B8A819B81FC0135872487D8
:1056B0008A819B81FC01428553858D81282F30E0B2
:1056C000C901880F991F880F991F880F991F820F92
:1056D000931F8157994F4817590761F58A819B811C
:1056E00002960E9440148A819B81FC0196898091D8
:1056F000F106891730F48A819B81FC0186898093A9
:10570000F1068A819B81AC014E5F5F4F8A819B814C
:10571000FC018689282F30E0C901880F991F880F66
:10572000991F880F991F820F931F8157994FBA01B4
:105730000E947913000028960FB6F894DEBF0FBEC2
:10574000CDBFDF91CF910895CF93DF9300D0CDB738
:10575000DEB780918D0690918E06FC01848595853B
:105760009A83898380918D0690918E0620918D0673
:1057700030918E06F9012689222F30E045E050E075
:10578000BA01621B730B9B01FC0135872487898159
:105790009A810F900F90DF91CF910895CF93DF936F
:1057A000CDB7DEB780918D0690918E06892B49F09A
:1057B00080918D0690918E06FC0122A12F5FFC0145
:1057C00022A380918D0690918E06DF91CF9108954E
:1057D000CF93DF93CDB7DEB727970FB6F894DEBF30
:1057E0000FBECDBF8D837F836E830FB6F8940F926B
:1057F00080918D0690918E06FC0183A194A1A5A1B4
:10580000B6A1892B8A2B8B2B91F480918D069091D8
:105810008E0621E0FC0127A38E819F81892B39F020
:105820008E819F8161E00E94A62F0E94D1160F9069
:105830000FBE0FB6F8940F9280918D0690918E0650
:10584000FC0183A194A1A5A1B6A189839A83AB830E
:10585000BC8389819A81AB81BC81892B8A2B8B2B5C
:10586000E9F08D81882351F080918D0690918E060C
:10587000FC0113A214A215A216A210C020918D063D
:1058800030918E0689819A81AB81BC810197A109F3
:10589000B109F90183A394A3A5A3B6A380918D06B2
:1058A00090918E06FC0117A20F900FBE89819A81FC
:1058B000AB81BC81BC01CD0127960FB6F894DEBF49
:1058C0000FBECDBFDF91CF910895EF92FF920F935E
:1058D0001F93CF93DF93CDB7DEB72D970FB6F89414
:1058E000DEBF0FBECDBF6A837B838C839D832E83F7
:1058F0003F83488759871B870A87FD86EC860FB64A
:10590000F8940F9280918D0690918E06FC0187A1EC
:10591000823061F160918D0670918E06FB0123A1AA
:1059200034A145A156A18A819B81AC81BD8180951E
:105930009095A095B09582239323A423B523FB01D2
:1059400083A394A3A5A3B6A380918D0690918E0600
:1059500021E0FC0127A38C859D85892B39F08C855E
:105960009D8561E00E94A62F0E94D1160F900FBE68
:105970000FB6F8940F928A859B85892B81F08091D0
:105980008D0690918E06FC0183A194A1A5A1B6A1DC
:105990002A853B85F90180839183A283B38380911B
:1059A0008D0690918E06FC0187A1823011F019823C
:1059B0001CC060918D0670918E06FB0123A134A15D
:1059C00045A156A18E819F81A885B9858095909526
:1059D000A095B09582239323A423B523FB0183A331
:1059E00094A3A5A3B6A381E0898380918D069091AD
:1059F0008E06FC0117A20F900FBE89812D960FB65F
:105A0000F894DEBF0FBECDBFDF91CF911F910F91F4
:105A1000FF90EF9008950F931F93CF93DF93CDB72F
:105A2000DEB72D970FB6F894DEBF0FBECDBF9E83B5
:105A30008D834F83588769877A872B871D870C87CB
:105A400081E089838D819E819B838A830FB6F89440
:105A50000F928C859D85892B71F08A819B81FC0139
:105A600083A194A1A5A1B6A12C853D85F9018083D0
:105A70009183A283B3838A819B81FC0187A18C835C
:105A80008A819B8122E0FC0127A38B85882F90E0EF
:105A90008230910531F18330910534F4009709F497
:105AA0004FC0019739F04DC08330910561F10497E3
:105AB000B1F147C08A819B81FC0123A134A145A19A
:105AC00056A18F819885A985BA85822B932BA42B0B
:105AD000B52B2A813B81F90183A394A3A5A3B6A387
