:100000000C9434000C94B8060C94E1060C940A0786
:100010000C9451000C9451000C9451000C942A0E35
:100020000C9451000C9451000C9451000C9451000C
:100030000C9451000C9451000C9451000C945100FC
:100040000C9451000C9451000C9451000C945100EC
:100050000C945100D51DD51DD51D141EFF1D0E1E5F
:10006000D51DD51D141EFF1D11241FBECFE5D8E0E0
:10007000DEBFCDBF10E0A0E6B0E0E0E3FDE302C0EC
:1000800005900D92A43EB107D9F727E0A4EEB0E0A9
:1000900001C01D92A837B207E1F70E94950C0C949D
:1000A000961E0C9400000895CF93DF9300D0CDB737
:1000B000DEB70E947A156091F50048E354E0649F32
:1000C0009001659F300D1124821B930B9A838983C5
:1000D00082E00E9459098AE30E9411091CE06AE04B
:1000E00070E080916C0790916D070E94DE1088236C
:1000F00029F180E00E9459098091F400612F0E944B
:10010000531E81E0890F0E943B0A86E00E94590934
:100110008091F300811103C081E790E002C084E781
:1001200090E00E941B0920E040E050E060E070E0B9
:1001300080916C0790916D070E944A0F60E27DEFFD
:10014000CE0101960E94AF168091F4008F5F8C3033
:1001500031F49091F3009F5F91709093F300612FC1
:100160000E94531E9093F400BACFCF93DF9300D038
:10017000CDB7DEB70E947A159A83898382E00E9408
:1001800059098AE30E9411091CE38091EE0080FF67
:1001900021C09091F4008091F10098131BC09091C0
:1001A000F5008091F200981315C09091F3008091B2
:1001B000F00098130FC088EEE82E80E0F82E05E0DE
:1001C00020E030E04CE350E069E870E085ED94E039
:1001D0000E945B136AE070E080916C0790916D075C
:1001E0000E94DE108823F1F083E00E94590980917B
:1001F000F5000E943B0A89E00E9459098091EE00B7
:1002000080FF02C080E001C080E20E94110920E06E
:1002100040E050E060E070E080916C0790916D07E5
:100220000E944A0F68E374E0CE0101960E94AF1667
:100230008091F5008F5F612F0E94531E9093F5000F
:10024000A4CF0E943A0980E00E9459098091F400ED
:100250006CE00E94531E81E0890F0E943B0A82E0FD
:100260000E9459098AE30E9411098091F5006CE30C
:100270000E94531E892F0E943B0A86E00E94590962
:100280008091F300811103C081E790E002C084E710
:1002900090E00E941B0989E00E9459098091EE00BC
:1002A00080FF02C080E001C080E20E9411098EE060
:1002B0000E9459098091F6000C943B0ACF93DF937A
:1002C00000D0CDB7DEB70E947A159A8389831CE3EC
:1002D0006AE070E080916C0790916D070E94DE10DB
:1002E000882391F08EE00E9459098091F6000E94C7
:1002F0003B0A20E040E050E060E070E080916C0755
:1003000090916D070E944A0F62E170E0CE01019664
:100310000E94AF168091F6008F5F612F0E94531EDE
:100320009093F600D5CFCF93DF93EC012881822FF5
:1003300090E0019663E070E00E94731E892B51F4F7
:1003400081E0820F0E94590980E20E941109888190
:100350008F5F888388818F5F873111F0888304C025
:1003600080E188830E94590981E0DF91CF910C944C
:100370001109CF93DF93EC012881822F90E0019740
:1003800063E070E00E94731E892B51F48FEF820F9F
:100390000E94590980E20E94110988818150888356
:1003A000888181508E3011F0888304C086E1888373
:1003B0000E94590988810E94590981E0DF91CF91FB
:1003C0000C9411090F931F93CF93DF93FC012081AD
:1003D0002631F1F4EB018C0198819F5F9170988335
:1003E00086E00E9459098881811103C081E790E06D
:1003F00002C084E790E00E941B09F80180810E94FE
:10040000590981E0DF91CF911F910F910C9411094F
:10041000DF91CF911F910F910895DF92EF92FF929C
:100420000F931F93CF93DF937C01D62EEA01D9015E
:100430008881813151F198F4803109F054C0F7017D
:100440008081880F8056982F990F990F282F290F98
:100450008C916AE00E94531E920F9C9333C08331AB
:1004600009F1843109F03FC0F80180816AE00E94FF
:10047000531E880F982F990F990F890F8053F701FA
:100480009081890FF80180831DC08C916AE00E94E1
:10049000531EF70190819153FAE08F9F900D112424
:1004A0009C9310C0F7018081880F8056982F990F78
:1004B000990F282F290FF80180816AE00E94531EAE
:1004C000920F908381E090E002C0880F991FDA9428
:1004D000E2F72091EE003091EF00822B932B909366
:1004E000EF008093EE00888180510E945909888135
:1004F000863121F0F70180810E94110988818F5F88
:100500000E9459092881822F90E0019663E070E0F3
:100510000E94731E892B51F481E0820F0E945909B9
:1005200080E20E94110988818F5F888388818F5FB4
:10053000873111F0888304C080E188830E945909C3
:1005400081E0DF91CF911F910F91FF90EF90DF90AD
:100550000C941109CF93DF93CDB7DEB761970FB637
:10056000F894DEBF0FBECDBF8FEF898BCE01019611
:100570000E949B07898B8F3FE9F1809160000E9468
:10058000590980E20E94110989898E3349F08E351C
:1005900061F08C33C1F480E690E00E94B9012AC07A
:1005A00080E690E00E94930125C08091EE0081FDDD
:1005B00003C063EF70E002C060EF70E080E690E09F
:1005C0000E94E20117C08091EE0081FD08C005EF96
:1005D00010E024EF30E040E650E068E007C002EFB2
:1005E00010E021EF30E040E650E069E0CE014196B6
:1005F0000E940D0286E090E00E94E716B7CFEF92CE
:10060000FF920F93CF93DF93EC0120E040E050E0A6
:1006100060E070E080916C0790916D070E944A0F36
:1006200080E10E9459090E94210188810E94590994
:1006300080E20E9411098091EE009091EF0090FFFE
:1006400032C08091EC009091ED00009731F00E9453
:100650005D141092ED001092EC009CEEE92E90E0FB
:10066000F92E02E020E030E046E450E067E770E079
:1006700085EB90E00E945B138091EA009091EB0083
:10068000009731F00E945D141092EB001092EA0086
:100690008091EE009091EF009E7F9093EF00809309
:1006A000EE001092F6008AEEE82E80E0F82E03E0CD
:1006B00020E030E046E450E06FE770E084E590E051
:1006C0000E945B13DF91CF910F91FF90EF900895FF
:1006D000CF93DF93EC016AE070E080916C0790911A
:1006E0006D070E94DE10882349F080E188830E9414
:1006F000590981E0DF91CF910C941109DF91CF91DD
:1007000008958091F8008F5F8093F80060E087E1A2
:100710000E94EB058091EE009091EF009C01207803
:10072000332780799927892B59F480E690E00E943D
:1007300068038091E6009091E7000E94B2140CC01B
:10074000232B51F480E690E00E94FF028091E600A6
:100750009091E7000E943F178091EE009091EF008A
:1007600020E182279093EF008093EE0008956AE0E5
:1007700070E080916C0790916D070E94DE108823D5
:10078000A9F180E1809360000E94590981E00E94F4
:1007900011098091EE009091EF0082609093EF003C
:1007A0008093EE0080E00E94590980E00E943B0A9D
:1007B00082E00E9459098AE30E94110980E00E94A8
:1007C0003B0A86E00E9459098091F000811103C024
:1007D00081E790E002C084E790E00E941B0987E176
:1007E0000E94590985E890E00C941B0908958091B6
:1007F000EE009091EF0091FF05C081609093EF00B3
:100800008093EE008091EE009091EF009D7F909399
:10081000EF008093EE000E943A0980E1809360002F
:100820000E94590981E00E9411098091EE00909187
:10083000EF008D7F9093EF008093EE000E942101E6
:1008400020E040E050E060E070E080916C07909123
:100850006D070C944A0F80E090E00E943F17809152
:100860006A0790916B070E94381E8111F4CF0E9495
:100870007A150AE010E020E030E0AC0162E08091FF
:100880006A0790916B070E94861C80916E07909179
:100890006F070E94381E81110DC00E947A1520E05A
:1008A00030E0AC0162E080916E0790916F070E948A
:1008B000861CD1CF8091F7008F5F8093F7000AE00C
:1008C00010E020E030E040E050E063E080916E070F
:1008D00090916F070E94861C61E087E10E94EB0502
:1008E0008091EE009091EF0080FF02C08E7F20C0CB
:1008F0009C012071332780799927892B49F40E9424
:10090000B7038091E6009091E7000E94B2140BC0FB
:10091000232B09F0A0CF0E94F7038091E60090916D
:10092000E7000E943F178091EE009091EF00805801
:100930009093EF008093EE008ECF0E943A0980E002
:100940000E9459098091F1006CE00E94531E81E0E1
:10095000890F0E943B0A82E00E9459098AE30E94A3
:1009600011098091F2006CE30E94531E892F0E94AE
:100970003B0A86E00E9459098091F300811103C06F
:1009800081E790E002C084E790E00E941B0985E1C6
:100990000E9459098091EE0082FF03C08FE890E029
:1009A00002C086E990E00C941B096AE070E0809137
:1009B0006C0790916D070E94DE10882359F00E9409
:1009C0009D048091EE009091EF0088609093EF007D
:1009D0008093EE008091EE009091EF0024E082275A
:1009E0009093EF008093EE0080FF05C083FF1FC04F
:1009F0000E949D041CC00E94210120E040E050E0C4
:100A000060E070E080916C0790916D070E944A0F42
:100A10008091EE009091EF00877F9093EF0080939C
:100A2000EE008091E8009091E9000E945D1482E15F
:100A300090E00E94E716CECF8091E4009091E5000F
:100A40000E94F9140E94750D0895EF92FF920F9382
:100A50001F9381E00E94E00F90936D0780936C07D5
:100A600001E813E020E030E040E062E170E08DE971
:100A700090E00E944F1C90936F0780936E0703E5F0
:100A800010E021E030E040E064E070E083EA90E0D4
:100A90000E944F1C90936B0780936A0786EEE82EA6
:100AA00080E0F82E04E020E030E045E550E06AEA1E
:100AB00070E08AEA92E00E945B1394EEE92E90E0E7
:100AC000F92E20E030E045E550E06EEA70E08BE280
:100AD00094E00E945B138091E6009091E7001F91E3
:100AE0000F91FF90EF900C943F171ABA17BA14BAEF
:100AF00011BA0895803208F06CC0623008F069C005
:100B0000982F97708695869586958230A1F18330CF
:100B100009F448C08130B9F04AB321E030E06130D7
:100B200039F401C0220F9A95EAF7242B2ABB17C08B
:100B3000B90102C0660F771F9A95E2F7CB01809545
:100B400084238ABB0CC047B321E030E0611109C0A7
:100B500001C0220F9A95EAF72095242327BB80E055
:100B60000895B90102C0660F771F9A95E2F7CB018D
:100B7000842B87BBF4CF44B321E030E0613039F4FB
:100B800001C0220F9A95EAF7242B24BBE8CFB901C4
:100B900002C0660F771F9A95E2F7CB0180958423F8
:100BA00084BBDDCF41B321E030E0613039F401C0D6
:100BB000220F9A95EAF7242B21BBD1CFB90102C0AD
:100BC000660F771F9A95E2F7CB018095842381BB4E
:100BD000C6CF81E00895803208F06CC0623008F022
:100BE00069C0982F97708695869586958230A1F179
:100BF000833009F448C08130B9F04BB321E030E0D4
:100C0000613039F401C0220F9A95EAF7242B2BBBEF
:100C100017C0B90102C0660F771F9A95E2F7CB01A2
:100C2000809584238BBB0CC048B321E030E0611178
:100C300009C001C0220F9A95EAF72095242328BB0A
:100C400080E00895B90102C0660F771F9A95E2F718
:100C5000CB01842B88BBF4CF45B321E030E0613079
:100C600039F401C0220F9A95EAF7242B25BBE8CF6F
:100C7000B90102C0660F771F9A95E2F7CB01809504
:100C8000842385BBDDCF42B321E030E0613039F40D
:100C900001C0220F9A95EAF7242B22BBD1CFB901CC
:100CA00002C0660F771F9A95E2F7CB0180958423E7
:100CB00082BBC6CF81E00895843078F4823041F061
:100CC000833049F0813011F06ABB03C067BB01C0BB
:100CD00064BB80E0089561BBFCCF81E0089584305F
:100CE00078F4823041F0833049F0813011F06BBBF1
:100CF00003C068BB01C065BB80E0089562BBFCCF48
:100D000081E00895FB018032E0F4282F277086955A
:100D100086958695823041F0833041F0813011F024
:100D200089B305C086B303C083B301C080B390E02C
:100D300002C0959587952A95E2F78170808380E0BF
:100D4000089581E00895FB01843080F4823041F001
:100D5000833041F0813011F089B305C086B303C000
:100D600083B301C080B3808380E0089581E008955B
:100D70001F920F920FB60F9211242F933F934F9310
:100D80005F936F937F938F939F93AF93BF93EF93F3
:100D9000FF93E091F900F091FA00309709F009957E
:100DA000FF91EF91BF91AF919F918F917F916F9143
:100DB0005F914F913F912F910F900FBE0F901F9019
:100DC00018951F920F920FB60F9211242F933F93F5
:100DD0004F935F936F937F938F939F93AF93BF9343
:100DE000EF93FF93E091FB00F091FC00309709F046
:100DF0000995FF91EF91BF91AF919F918F917F9155
:100E00006F915F914F913F912F910F900FBE0F9077
:100E10001F9018951F920F920FB60F9211242F93C7
:100E20003F934F935F936F937F938F939F93AF9372
:100E3000BF93EF93FF93E091FD00F091FE00309798
:100E400009F00995FF91EF91BF91AF919F918F911B
:100E50007F916F915F914F913F912F910F900FBEB6
:100E60000F901F901895E82FF0E0EE0FFF1FE7504E
:100E7000FF4F7183608308958FB780688FBF089597
:100E8000813039F018F0823039F008958BB78064E2
:100E900005C08BB7806802C08BB780628BBF089596
:100EA000813039F018F0823039F008958BB78F7B9C
:100EB00005C08BB78F7702C08BB78F7D8BBF08952E
:100EC0008130D1F018F0823071F10895611103C0C2
:100ED00085B78C7F26C0633019F485B7836021C045
:100EE000623021F485B78E7F82601BC0613011F5BE
:100EF00085B78D7F816015C0611103C085B7837F81
:100F000010C0633019F485B78C600BC0623021F4D7
:100F100085B78B7F886005C0613061F485B7877FB6
:100F2000846085BF089584B7613011F4806401C086
:100F30008F7B84BF08956F927F928F929F92AF9222
:100F4000BF92CF92DF92EF92FF920F931F93CF93B6
:100F5000DF931F92CDB7DEB77C01198200E717E05F
:100F600066246A94912C77247394580160E0F80108
:100F700080810E94EB0584E7C82E87E0D82E812C63
:100F8000BE016F5F7F4FF60181916F010E94820663
:100F90002981882D890D90E0F701E80FF91F213094
:100FA00011F4108205C07082FC01EF59FF4F608080
:100FB000F4E08F0E80E18812E3CF0F5F1F4F61E0F6
:100FC000F50180810E94EB059394F4E09F12CDCF50
:100FD000862D0F90DF91CF911F910F91FF90EF9091
:100FE000DF90CF90BF90AF909F908F907F906F9049
:100FF00008958130A1F138F0823009F45BC083306C
:1010000009F483C008956FE080E00E945C0661E00F
:1010100084E00E94EB0561E085E00E94EB0561E061
:1010200086E00E94EB0561E087E00E94EB0587E027
:101030008093740783E08093700786E08093750740
:1010400082E08093710785E08093760781E080934A
:10105000720784E0809377071092730708956FE01A
:1010600081E00E945C0661E08CE00E94EB0561E09B
:101070008DE00E94EB0561E08EE00E94EB0561E0EF
:101080008FE00E94EB058FE0809374078BE08093E4
:1010900070078EE0809375078AE0809371078DE07A
:1010A0008093760789E0809372078CE080937707BE
:1010B00088E055C06FE082E00E945C0661E084E158
:1010C0000E94EB0561E085E10E94EB0561E086E1AD
:1010D0000E94EB0561E087E10E94EB0587E18093C8
:1010E000740783E18093700786E18093750782E13E
:1010F0008093710785E18093760781E18093720781
:1011000084E18093770780E12AC06FE083E00E944A
:101110005C0661E08CE10E94EB0561E08DE10E94DC
:10112000EB0561E08EE10E94EB0561E08FE10E943A
:10113000EB058FE1809374078BE1809370078EE15C
:10114000809375078AE1809371078DE1809376071C
:1011500089E1809372078CE18093770788E180931F
:1011600073070895E0E0DC012D91CD01213029F4D1
:10117000F0E0EF59FF4F80810895EF5FE03199F77C
:101180008FEF0895CF93C82F60E081E10E94EB05B7
:101190006C2F617087E00E94EB05C1FB662760F948
:1011A00086E00E94EB05C2FB662760F985E00E949D
:1011B000EB05C3FB662760F984E00E94EB05C4FBE6
:1011C000662760F983E00E94EB05C5FB662760F99E
:1011D00082E00E94EB05C6FB662760F981E00E9471
:1011E000EB056C2F661F6627661F80E00E94EB05EB
:1011F00061E082E10E94EB058FEC97E00197F1F747
:1012000000C0000060E082E1CF910C94EB05CF9329
:10121000C82F60E080E10E94EB058C2FCF910C94E9
:10122000C208CF93C82F61E080E10E94EB058C2FAC
:10123000CF910C94C208EF92FF920F931F93CF931C
:101240007C01C0E087010C0F111DF801808188230B
:1012500059F0C03119F480EC0E940709F80180812F
:101260000E941109CF5FEECFCF911F910F91FF9098
:10127000EF90089581E00C9407090F931F93CF938B
:101280008C01C0E0F801EC0FF11D8081882369F02A
:101290000E9411092FEF84E39CE021508040904090
:1012A000E1F700C00000CF5FEDCFCF911F910F910C
:1012B0000895803110F4805801C080550C940709BE
:1012C0000F931F93CF93DF938C01C0E08C2F0E946C
:1012D0005909D0E0F801ED0FF11D8081882321F03C
:1012E0000E941109DF5FF6CF2FEF89E698E12150C8
:1012F00080409040E1F700C000000E943A09CF5FB3
:10130000C53021F7DF91CF911F910F9108950F9371
:101310001F93CF93DF938C01862F880F880F880F40
:10132000805C0E940709E801085F1F4F89910E94B5
:101330001109C017D107D1F780E8DF91CF911F9134
:101340000F910C94070961E080E10E947A0561E049
:1013500081E10E947A0561E082E10E947A0561E004
:1013600087E00E947A0561E086E00E947A0561E0EC
:1013700085E00E947A0561E084E00E947A0561E0E0
:1013800083E00E947A0561E082E00E947A0561E0D4
:1013900081E00E947A0561E080E00E947A052FE7F3
:1013A00088E391E0215080409040E1F700C00000C8
:1013B0002FEF89EF90E0215080409040E1F700C08E
:1013C000000088E30E94070925E82A95F1F700004C
:1013D0008CE00E94070985E88A95F1F7000081E01A
:1013E0000E9407098FE99FE00197F1F700C0000014
:1013F00060E087EC90E00E94870961E087EB90E075
:101400000C948709CF92DF92EF92FF920F931F9374
:10141000CF93DF93EC0100E080E090E02AE0EAE087
:10142000F0E0209771F0289F7001299FF00C1124A3
:10143000CE01BF010E945F1E8E0D9F1DEB010F5F4D
:10144000F0CF10E02AE0E22EF12CC017D10750F4C3
:10145000B7010E945F1E6B01805D0E941109C601E9
:101460002196F3CFDF91CF911F910F91FF90EF90D5
:10147000DF90CF900895CF936AE00E94531EC92F4A
:10148000805D0E94110980E38C0FCF910C941109AB
:10149000805D0C941109CF93DF938BE090E00E9464
:1014A000C50BEC01009731F0FC0111921192CF01B4
:1014B0000E94060CCE01DF91CF910895AF92BF92AA
:1014C000CF92DF92EF92FF920F931F93CF93DF9310
:1014D0006C017B01B42EA22E0E947415F601C0810E
:1014E000D181CE018E219F21A11003C0892B21F42F
:1014F0003BC0E816F906C1F5BB2041F0C701809555
:1015000090958C239D23F6019183808300E010E069
:101510000E944016012B09F43DC0811102C00E94B7
:10152000750D0E94911991FD1CC00FB6F8940F9291
:10153000F60180819181970128233923A11003C0EE
:10154000232B21F40CC0E216F30649F4BB2039F03A
:10155000E094F094E822F922F601F182E0820F9003
:101560000FBEEC01DD2716C00115110589F2BB2065
:1015700019F060E071E002C060E070E0A1107460FA
:101580006E297F29A801C60102960E94A617C0E015
:10159000D0E0BECFCE01DF91CF911F910F91FF9090
:1015A000EF90DF90CF90BF90AF900895FC010FB601
:1015B000F8940F92808191816095709568237923CA
:1015C000718360830F900FBE0895FC01808191812B
:1015D0000895CF92DF92EF92FF920F931F93CF93D4
:1015E000DF938C01EB017C0185E0E80EF11C0E9489
:1015F0007415D8011796ED91FC9118978D919C91D7
:101600001197C82BD92BCD93DC93C0E0D0E0D80143
:101610006D917C911197EE15FF05E1F0D280C380AA
:1016200020813181C9019927AC014623572332FD1E
:1016300003C0452B21F40BC08417950741F430FFFC
:1016400002C0C82BD92B7260CF010E941618ED2D55
:10165000FC2DDDCFC095D0956C237D236D937C93BD
:101660000E944016F80180819181DF91CF911F91F6
:101670000F91FF90EF90DF90CF900895AF92BF92BF
:10168000CF92DF92EF92FF920F931F93CF93DF934E
:101690007C01EB018A0169010E947415F701A080A9
:1016A000B180BE01C7010E94E90ACA29DB29CE0127
:1016B000802391230817190769F4F70120813181EC
:1016C000C801809590958223932391838083C12CB8
:1016D000D12C10C0C114D10451F0A601B80175601D
:1016E000C70102960E94A617C0E0D0E003C0F70130
:1016F000C081D1810E944016CD28F9F0811102C02D
:101700000E94750D0E94911991FD15C00FB6F894B5
:101710000F92F701808191819801282339230217C4
:10172000130739F4A8014095509548235923518354
:1017300040830F900FBEEC01DD27CE01DF91CF91EA
:101740001F910F91FF90EF90DF90CF90BF90AF90DF
:101750000895CF93DF93EC010E9474158A8188234A
:1017600039F060E072E08F8198850E941618F6CFFC
:10177000CE010E94F70BDF91CF910C944016BA0175
:101780000C94E90ABA010C94D60ACF93DF93EC01CA
:101790000E9474158091FF0090910001892B31F413
:1017A00084E091E0909300018093FF00209101017B
:1017B00030910201C9018C0F9D1F8B3D45E09407BC
:1017C00070F42817390758F4C091FF00D091000138
:1017D000C20FD31F909302018093010102C0C0E0A9
:1017E000D0E00E944016CE01DF91CF910895089578
:1017F000109202011092010108952091010130918F
:1018000002018BED95E0821B930B0895FC0103967A
:10181000928381832FEF3FEF3483238396838583E5
:101820009087878310820895FC01118610860895A1
:10183000CF93DF939C01FB01DC011196CD91DC91EC
:101840001297D383C2838C819D81958384838C81FD
:101850009D81DC0113967C936E9312977D836C833C
:1018600031872087F90180818F5F8083DF91CF915D
:1018700008950F931F93CF93DF938C01FB01808119
:1018800091818F3F2FEF920721F4E801AF81B88556
:101890000EC0D801139612962D913C911397E90131
:1018A000488159818417950710F0D901F4CF129619
:1018B0008D919C91139793838283EC01FD83EC833C
:1018C000B583A4831396FC93EE9312971187008738
:1018D000F80180818F5F8083DF91CF911F910F91FD
:1018E0000895CF93DF93FC01A085B1858281938118
:1018F00024813581EC013D832C83C481D5819B8378
:101900008A8311968D919C911297E817F90721F41B
:101910001296DC93CE931197118610868C9181508C
:101920008C938C91DF91CF910895EF92FF920F935A
:101930000E94A3090E943A090E94210181E00E94AD
:10194000F9070E9425056CE175E080E00E943307ED
:1019500060E08AE10E947A0561E08AE10E94EB057D
:1019600061E087E10E947A0563E080E00E94600701
:101970000E943C0780E00E944007E12CF12C02E02D
:1019800020E030E04CE350E06FEC70E08EE591E059
:101990000E945B130E94411580E090E00F91FF9040
:1019A000EF90089531E1FC013083319722E22083EA
:1019B0003197A3E3A0833197608331977083319788
:1019C0001082319760E8608331971082319762E02E
:1019D0006083319763E06083319764E0608331977F
:1019E00065E06083319766E06083319767E06083EC
:1019F000319768E06083319769E06083319760E1F7
:101A0000608331973083319732E13083319733E10E
:101A10003083319734E13083319735E1308331972A
:101A200036E13083319737E13083319738E13083C5
:101A3000319739E13083319730E23083319731E2A9
:101A4000308331972083319723E22083319740837D
:101A500031975083319726E22083319727E2208304
:101A6000319728E22083319729E22083319720E3C0
:101A70002083319721E32083869708958BE18BBDE6
:101A80008FE18ABD8BE08EBD89B7806189BFA0914F
:101A90004C07B0914D07CD91CDBFDD91DEBFFF91D9
:101AA000EF91DF91CF91BF91AF919F918F917F91F6
:101AB0006F915F914F913F912F911F910F91FF90E7
:101AC000EF90DF90CF90BF90AF909F908F907F90DE
:101AD0006F905F904F903F902F901F900F900FBE90
:101AE0000F90089581E0089508950F920FB6F8942D
:101AF0000F921F9211242F923F924F925F926F92FA
:101B00007F928F929F92AF92BF92CF92DF92EF928D
:101B1000FF920F931F932F933F934F935F936F9376
:101B20007F938F939F93AF93BF93CF93DF93EF9365
:101B3000FF93A0914C07B0914D070DB60D920EB6D4
:101B40000D920E94FC16A0914C07B0914D07CD91CB
:101B5000CDBFDD91DEBFFF91EF91DF91CF91BF91BE
:101B6000AF919F918F917F916F915F914F913F9135
:101B70002F911F910F91FF90EF90DF90CF90BF902A
:101B8000AF909F908F907F906F905F904F903F901D
:101B90002F901F900F900FBE0F9008950F920FB6C9
:101BA000F8940F921F9211242F923F924F925F92BE
:101BB0006F927F928F929F92AF92BF92CF92DF925D
:101BC000EF92FF920F931F932F933F934F935F9347
:101BD0006F937F938F939F93AF93BF93CF93DF9335
:101BE000EF93FF93A0914C07B0914D070DB60D9266
:101BF0000EB60D920E94941581110E94FC16A091C0
:101C00004C07B0914D07CD91CDBFDD91DEBFFF9167
:101C1000EF91DF91CF91BF91AF919F918F917F9184
:101C20006F915F914F913F912F911F910F91FF9075
:101C3000EF90DF90CF90BF90AF909F908F907F906C
:101C40006F905F904F903F902F901F900F900FBE1E
:101C50000F9008950E94CE0D18950FB6F8940F922C
:101C6000FC01928D0F900FBE81E0911180E00895EC
:101C70000F931F93CF93DF93EC01042F1A8D4C8D9C
:101C800041110BC088819981892BE9F58C819D8157
:101C90000E9410191D821C8237C050E0011115C02E
:101CA0008A819B810E948D1E2C8D8A819B81820F4F
:101CB000911D9B838A832C813D818217930718F1A4
:101CC000888199819B838A831EC08E819F810E9417
:101CD0008D1E8C8D90E09195819591092E813F818B
:101CE000280F391F3F832E834881598124173507D8
:101CF00030F42C813D81820F931F9F838E830230AD
:101D000011F41111115080E01F5F1A8FDF91CF91F4
:101D10001F910F910895FC01CB01448D4423A1F044
:101D200050E026813781240F351F37832683648155
:101D300075812617370720F020813181378326836C
:101D4000668177810C948D1E0895EF92FF921F9308
:101D5000CF93DF93EC010FB6F8940F921E8D7C01A8
:101D600081E1E80EF11C11165CF48989882341F0A9
:101D7000C7010E94D61781110E9496181150F3CF07
:101D80008FEF8E8F0F900FBE0FB6F8940F921D8DB0
:101D90007E0188E0E80EF11C11165CF4888588232A
:101DA00041F0C7010E94D61781110E949618115068
:101DB000F3CF8FEF8D8F0F900FBEDF91CF911F91DB
:101DC000FF90EF900895CF93DF93EC010FB6F89456
:101DD0000F92488159818B8D7C8D9A01879F200DB0
:101DE000311D11243D832C831A8E5B834A8390E03E
:101DF0000197789F9001799F300D1124CA01820FBD
:101E0000931F9F838E838FEF8D8F8E8F61110CC0F8
:101E10008885882389F0CE0108960E94D6178823EA
:101E200059F00E94750D08C0CE0108960E94060C5C
:101E3000CE0141960E94060C0F900FBE81E0DF910B
:101E4000CF9108950F931F93CF93DF93082F162FF1
:101E5000662321F0869FC001112402C080E090E03B
:101E60004F960E94C50BEC01009771F0111103C051
:101E70009983888303C04F96998388830B8F1C8F27
:101E800061E0CE010E94E30ECE01DF91CF911F9160
:101E90000F910895AF92BF92CF92DF92FF920F936E
:101EA0001F93CF93DF9300D000D01F92CDB7DEB742
:101EB0008C016B015D834C83F22E80E0580198E029
:101EC000A90EB11C0FB6F8940F92F801228D938DD4
:101ED000291718F0F2E0FF1214C04F2DB601C80107
:101EE0000E94380EF8019189992321F0C80141968A
:101EF0000E94D61781110E94750D0F900FBE81E0D0
:101F000050C02C813D81232B19F40F900FBE48C087
:101F1000811104C0CE0101960E9458180F900FBE87
:101F20000E9474150FB6F8940F92F801858D8F3FBB
:101F300009F4158EF801868D8F3F09F4168E0F90E7
:101F40000FBEBE016C5F7F4FCE0101960E946318E9
:101F5000811121C00FB6F8940F92F801928D0F9065
:101F60000FBE838D981311C06C817D81C5010E94C5
:101F70009517C8010E94A50E0E944016882311F0F3
:101F800081E0A0CF0E94750DFBCFC8010E94A50E75
:101F90000E944016F5CFC8010E94A50E0E9440166F
:101FA00080E00F900F900F900F900F90DF91CF91E6
:101FB0001F910F91FF90DF90CF90BF90AF90089549
:101FC000CF93DF93482F60E081E00E94220FEC0165
:101FD000009761F01D821C82198218821E8220E007
:101FE00040E050E060E070E00E944A0FCE01DF91D7
:101FF000CF910895EF92FF921F93CF93DF93EC015F
:102000009A8D8B8D981710F02230E1F47A011E8D95
:10201000422FCE010E94380E1F3F81F48989882308
:1020200079F0CE0141960E94D617882349F0E11439
:10203000F10431F081E0F701808305C01F5F1E8F3E
:1020400081E001C080E0DF91CF911F91FF90EF9080
:102050000895CF93DF93FC01928D838D9817C0F480
:10206000868D9F5F928F8F3F79F48189882371F0ED
:10207000EB01CF0141960E94D617882339F02097B3
:1020800029F081E0888305C08F5F868F81E001C0E1
:1020900080E0DF91CF910895AF92BF92CF92DF920F
:1020A000FF920F931F93CF93DF9300D000D01F9226
:1020B000CDB7DEB78C016B015D834C8380E05801A6
:1020C00091E1A90EB11C0FB6F8940F92F801F28CB1
:1020D000FF20A9F0B601C8010E948B0EFA94F80106
:1020E000F28E8085882339F0C80108960E94D617A1
:1020F00081110E94750D0F900FBE81E050C02C81A0
:102100003D81232B19F40F900FBE48C0811104C0EC
:10211000CE0101960E9458180F900FBE0E947415B0
:102120000FB6F8940F92F801858D8F3F09F4158E44
:10213000F801868D8F3F09F4168E0F900FBEBE01F9
:102140006C5F7F4FCE0101960E94631881111CC005
:10215000C8010E942D0E882389F06C817D81C50104
:102160000E949517C8010E94A50E0E944016882360
:1021700011F081E0A8CF0E94750DFBCFC8010E942D
:10218000A50E0E944016F5CFC8010E94A50E0E9420
:102190004016C8010E942D0E882359F380E00F904D
:1021A0000F900F900F900F90DF91CF911F910F9193
:1021B000FF90DF90CF90BF90AF900895CF92DF92C5
:1021C000FF920F931F93CF93DF9300D000D01F9205
:1021D000CDB7DEB78C017D836C83F12C90E0680174
:1021E00081E1C80ED11C0FB6F8940F92D8015A960F
:1021F0008C915A978823E9F081505A968C935A977C
:102200008D919C91892B29F40E94A819F80195833E
:102210008483D80118968C91882339F0C8010896D8
:102220000E94D61781110E94750D0F900FBE81E09C
:102230007AC02C813D81232B09F472C0911104C016
:10224000CE0101960E9458180F900FBE0E9474157F
:102250000FB6F8940F92F801858D8F3F09F4158E13
:10226000D8015E968C915E978F3F11F45E961C921A
:102270000F900FBEBE016C5F7F4FCE0101960E9492
:10228000631881112BC0C8010E942D0E882301F113
:10229000F80180819181892B51F40FB6F8940F9247
:1022A000848195810E94AD18F82E0F900FBE6C812D
:1022B0007D81C6010E949517C8010E94A50E0E944B
:1022C0004016882311F091E08ECF0E94750DFBCF50
:1022D000C8010E94A50E0E944016F5CFC8010E94B9
:1022E000A50E0E944016C8010E942D0E882359F3A6
:1022F000FF20C1F00FB6F8940F92F801818988236E
:1023000039F00688F789E02D808165E0681B01C0FF
:1023100060E0D80114968D919C9115970E944A19FE
:102320000F900FBE80E00F900F900F900F900F90C6
:10233000DF91CF911F910F91FF90DF90CF90089583
:10234000CF92DF92EF92FF920F931F93CF93DF9381
:1023500000D000D01F92CDB7DEB78C017B015D832A
:102360004C8380E0680191E1C90ED11C0FB6F8944E
:102370000F92F801928D9923B9F0C680D780B701EA
:10238000C8010E948B0EF801D782C68281898823FA
:1023900039F0C80141960E94D61781110E94750D2F
:1023A0000F900FBE81E050C02C813D81232B19F48A
:1023B0000F900FBE48C0811104C0CE0101960E944B
:1023C00058180F900FBE0E9474150FB6F8940F9214
:1023D000F801858D8F3F09F4158EF801868D8F3FAA
:1023E00009F4168E0F900FBEBE016C5F7F4FCE01B9
:1023F00001960E94631881111CC0C8010E942D0E15
:10240000882389F06C817D81C6010E949517C801DF
:102410000E94A50E0E944016882311F081E0A6CFED
:102420000E94750DFBCFC8010E94A50E0E944016A8
:10243000F5CFC8010E94A50E0E944016C8010E9457
:102440002D0E882359F380E00F900F900F900F907E
:102450000F90DF91CF911F910F91FF90EF90DF9040
:10246000CF900895EF92FF920F931F93CF93DF9336
:10247000FC01028D0023E9F07A01EC01158D0E9428
:102480008B0E01500A8F1F3F81F48885882379F0D5
:10249000CE0108960E94D617882349F0E114F10472
:1024A00031F081E0F701808305C01F5F1D8F81E05F
:1024B00001C080E0DF91CF911F910F91FF90EF90CD
:1024C00008950F931F93CF93DF93FC01228D222356
:1024D00049F0EC01068117810E948B0E1F830E8349
:1024E00081E001C080E0DF91CF911F910F910895AD
:1024F0000FB6F8940F92FC01828D0F900FBE0895D5
:102500000FB6F8940F92FC01228D0F900FBE838DB1
:10251000821B0895FC01828D08950C94F70BFC0139
:10252000928D81E0911180E00895FC01928D81E00F
:10253000238D291380E00895CF93DF93EC010FB62C
:10254000F8940F928D8D8F3F09F41D8E8E8D8F3FE5
:1025500009F41E8E0F900FBE8A8D811104C0CE012A
:1025600041960E94BE17CE01DF91CF910C94A50E2B
:10257000E0910B07F0910C078081811103C08FEF70
:102580009FEF0CC0E0910B07F0910C070580F681DE
:10259000E02D0680F781E02D828193819093E30600
:1025A0008093E2060895FF920F931F93CF93DF93DA
:1025B000EC01F62E0091EA061091EB0680914C0793
:1025C00090914D0702960E94710CCF3F8FEFD80774
:1025D00089F4FF2079F060914C0770914D076E5F90
:1025E0007F4F8DEE96E0DF91CF911F910F91FF907D
:1025F0000C94180CC00FD11FE0914C07F0914D07BF
:10260000D383C28360914C0770914D07C017D107E7
:1026100068F48091090790910A076E5F7F4FDF9100
:10262000CF911F910F91FF900C94390C80910B0763
:1026300090910C076E5F7F4F0E94390C8091E206EB
:102640009091E306C817D90720F4D093E306C0930E
:10265000E206DF91CF911F910F91FF900895809135
:10266000F606882309F10FB6F8940F92E091FC0664
:10267000F091FD06C681D781CE0102960E94710CB1
:102680008091EC0681508093EC068091F606815093
:102690008093F6060F900FBE8F89988D0E94F70BDE
:1026A000CE010E94F70BDBCF80911F078230B8F27A
:1026B0000E94750DD4CF4F925F926F927F928F924E
:1026C0009F92AF92BF92CF92DF92EF92FF920F93C1
:1026D0001F93CF93DF934C016B015A012901CA016B
:1026E0000E94C50B3C01892B09F4D5C088E290E01B
:1026F0000E94C50BEC01009789F0788E6F8A21E06B
:10270000A21AB1086A0C7B1CC114D104C9F0BC0127
:10271000675E7F4FF601C601089607C0C3010E949D
:10272000F70BB9C08E179F0749F09F014191DB015C
:102730004D93BD01D9012C912111F4CF18A201C0F4
:10274000198E053008F004E00E8B09A31AA26E0161
:10275000B2E0CB0ED11CC6010E94140CCE010C9627
:102760000E94140CD987C88785E090E0801B9109EE
:102770009D878C87DB8BCA8B1BA21CA21DA21EA26D
:102780001FA2A201B401C3010E94D20C99838883C5
:10279000E114F10419F0F701D183C0830FB6F89466
:1027A0000F928091EC068F5F8093EC0680914C072E
:1027B00090914D07892BC1F5D0934D07C0934C07DD
:1027C0008091EC06813009F03FC00FE117E08CE406
:1027D000E82E87E0F82EC8010E94060C075F1F4F05
:1027E000E016F106C1F786E197E00E94060C8DE045
:1027F00097E00E94060C80E097E00E94060C87EFAD
:1028000096E00E94060C8DEE96E00E94060C86E192
:1028100097E090930C0780930B078DE097E09093DF
:102820000A078093090710C08091E80681110CC047
:10283000E0914C07F0914D0796898E89891720F019
:10284000D0934D07C0934C078091E4068F5F80932F
:10285000E4068E899091E906981710F48093E906B2
:10286000F9E08F9FC0011124B601815E984F0E944C
:10287000180C0F900FBE8091E806882351F0E0916C
:102880004C07F0914D0796898E89981710F40E9495
:10289000750D81E001C08FEFDF91CF911F910F91F6
:1028A000FF90EF90DF90CF90BF90AF909F908F9070
:1028B0007F906F905F904F9008950F931F93CF93E9
:1028C000DF93EC010FB6F8940F92892B21F4C0919D
:1028D0004C07D0914D078E010E5F1F4FC8010E941B
:1028E000710C8C899D89892B21F0CE010C960E9458
:1028F000710C8091E4068F5F8093E40680914C0711
:1029000090914D07C817D90759F4B80187EF96E0A1
:102910000E94180C8091F6068F5F8093F6060EC019
:102920008091EC0681508093EC068F89988D0E94EF
:10293000F70BCE010E94F70B0E94B8120F900FBE4A
:102940008091E806882349F080914C0790914D07CB
:10295000C817D90711F40E94750DDF91CF911F910F
:102960000F9108950F931F93CF93DF9320914C07FE
:1029700030914D0782179307B9F10097A9F10FB66F
:10298000F8940F92FC01228533852D5E364051F577
:10299000FC0124893589F7E020303F0719F1232B0A
:1029A00009F5EC018C010E5F1F4FC8010E94710CEC
:1029B0008E899091E906981710F48093E90629E032
:1029C000829FC0011124B801815E984F0E94180CAB
:1029D000E0914C07F0914D079E898689981710F079
:1029E0000E94750D0F900FBEDF91CF911F910F9137
:1029F0000895EF92FF921F93CF93DF93EC018A85A6
:102A00009B858D5E964099F48C899D8927E0803066
:102A1000920769F0892B59F48091DF06882349F0E9
:102A2000BE01645F7F4F80E097E00E94180C10E0C9
:102A300021C0E0914C07F0914D0711E09E898689F5
:102A4000981708F410E07E0182E0E80EF11CC7013F
:102A50000E94710C8E899091E906981710F480936A
:102A6000E90629E0829FC0011124B701815E984FD9
:102A70000E94180C812FDF91CF911F91FF90EF9052
:102A80000895EF92FF920F9380EEE82E86E0F82EE5
:102A900000E020E030E045E550E067ED70E08FE2D7
:102AA00093E10E945B138130B1F40E942F1C8130AE
:102AB00091F4F8942FEF3FEF3093E3062093E20672
:102AC0008093E8061092EB061092EA060F91FF90B1
:102AD000EF900C943E0D0F91FF90EF900895F894B5
:102AE0001092E8060C94740D8091DF068F5F80933E
:102AF000DF0608950FB6F8940F928091EA06909140
:102B0000EB060F900FBE08958091EA069091EB06B8
:102B100008958091EC060895009721F480914C0768
:102B200090914D0749960895CF92DF92EF92FF92D0
:102B30000F931F93CF93DF938091DF0681118CC099
:102B40000091EA061091EB060F5F1F4F1093EB0602
:102B50000093EA0601151105B9F480910B079091D5
:102B60000C072091090730910A0730930C07209336
:102B70000B0790930A07809309078091E5068F5F02
:102B80008093E5060E94B8128091E2069091E306D8
:102B9000C0E00817190708F44FC0D9E0E0910B070F
:102BA000F0910C078081811103C08FEF9FEF11C05E
:102BB000E0910B07F0910C070580F681E02DE6808F
:102BC000F780D70112968D919C91139708171907DA
:102BD00028F49093E3068093E2062EC06701B2E0EA
:102BE000CB0ED11CC6010E94710CF7018489958916
:102BF000892B21F0C7010C960E94710CD7015696C3
:102C00008C919091E906981710F48093E906D89F6B
:102C1000C0011124B601815E984F0E94180CE0910A
:102C20004C07F0914D07D70156969C9186899817CD
:102C300008F4B4CFC1E0B2CFE0914C07F0914D075A
:102C4000E689B9E0EB9FF0011124E15EF84F808145
:102C5000823040F0C1E006C08091E7068F5F80932C
:102C6000E706C0E08091E6068111C1E08C2FDF917C
:102C7000CF911F910F91FF90EF90DF90CF9008952B
:102C8000EF92FF920F931F93CF93DF930FB6F894B9
:102C90000F928091DF0681508093DF068091DF06DE
:102CA000882311F080E052C08091EC068823D1F394
:102CB000C0E0D0E089E0F82EEE24E3948091000794
:102CC000882351F1E0910507F0910607C681D7816D
:102CD000CE010C960E94710C8E010E5F1F4FC80131
:102CE0000E94710C8E899091E906981710F48093D8
:102CF000E906F89EC0011124B801815E984F0E9438
:102D0000180CE0914C07F0914D079E898689981721
:102D1000A8F2E092E606D2CFCD2B11F00E94B812B5
:102D2000C091E706CC2351F0D1E00E9494158111A7
:102D3000D093E606C150C9F71092E7068091E606E7
:102D4000882309F4AFCF0E94750D81E00F900FBE6C
:102D5000DF91CF911F910F91FF90EF9008950F9306
:102D60001F93CF93DF938C01EB010E947415409168
:102D7000EA065091EB06F80120813181C9018C0FE0
:102D80009D1F4217530720F48217930740F403C096
:102D90008217930730F021E04817590718F020E018
:102DA00001C021E0F80191838083222329F060E0B3
:102DB000841B950B0E94D3120E944016811102C001
:102DC0000E94750DDF91CF911F910F910895CF93C0
:102DD000DF93EC01892B19F40E94750D0AC00E9443
:102DE000741560E0CE010E94D3120E944016882321
:102DF00099F3DF91CF9108958091DF06882321F028
:102E000081E08093E60608951092E6068091E90637
:102E100069E0482F50E0649F9001659F300D1124B8
:102E2000F901E15EF84F9081911102C08150F1CF1C
:102E3000A181B28112960D90BC91A02DB283A18385
:102E40002E5D384FA217B30731F412962D913C91A5
:102E500013973283218399E0949FF001959FF00DA1
:102E60001124E15EF84F0180F281E02D2681378147
:102E700030934D0720934C078093E90608950F93F4
:102E80001F93CF93DF93EC010FB6F8940F92892B29
:102E900021F4C0914C07D0914D078E010E5F1F4F5A
:102EA000C8010E94710C8C899D89892B21F0CE016B
:102EB0000C960E94710CB8018DEE96E00E94180CE1
:102EC0008FA1813009F41FA20F900FBE8091E806F8
:102ED000882339F00FB6F8940F920E94B8120F9021
:102EE0000FBE80914C0790914D07C817D907C1F4C8
:102EF0008091E806882319F00E94750D11C0909109
:102F0000ED068091EC06981305C010924D071092C3
:102F10004C0706C0DF91CF911F910F910C94FC16C6
:102F2000DF91CF911F910F910895CF93DF93EB0124
:102F300060914C0770914D07645F7F4F0E94390C80
:102F400061E0CE01DF91CF910C94D312CF93DF9348
:102F5000EA01E0914C07F0914D077068758764872E
:102F600060914C0770914D07645F7F4F0E94180C71
:102F700061E0CE01DF91CF910C94D3121F93CF93D8
:102F8000DF93EB01142F60914C0770914D07645F44
:102F90007F4F0E94180C112311F0CFEFDFEF612F4C
:102FA000CE01DF91CF911F910C94D3120F931F93F9
:102FB000CF93DF93DC011596ED91FC911697C681B6
:102FC000D7818E01045F1F4FC8010E94710C809150
:102FD000DF06811114C00A501109C8010E94710C4A
:102FE0008E899091E906981710F48093E906B9E06C
:102FF0008B9FC0011124B801815E984F03C0B801B6
:1030000080E097E00E94180CE0914C07F0914D078A
:103010009E898689891720F481E08093E60601C0A5
:1030200080E0DF91CF911F910F9108950F931F932F
:10303000CF93DF937068FC0171836083C681D78171
:103040000E94710C8E010E5F1F4FC8010E94710C0F
:103050008E899091E906981710F48093E906F9E0BB
:103060008F9FC0011124B801815E984F0E94180CF7
:10307000E0914C07F0914D079E898689891718F4D5
:1030800081E08093E606DF91CF911F910F91089523
:103090000FB6F8940F922091E506FC012083209151
:1030A000EA063091EB06328321830F900FBE08951C
:1030B0002091E506FC0120832091EA063091EB0681
:1030C000328321830895CF93DF930FB6F8940F9244
:1030D0004091EA065091EB06DB012D913C912F3F88
:1030E000BFEF3B07D9F0EC01E981FA81A091E50639
:1030F000B881BA1719F04E175F0790F44E1B5F0B9B
:10310000FB014217530738F4241B350B318320830E
:103110000E94581803C01182108202C080E001C0D2
:1031200081E00F900FBEDF91CF91089581E08093F1
:10313000E606089580914C0790914D07089580917F
:10314000E806882331F08091DF06882321F080E0B3
:10315000089581E0089582E008950F931F93CF931F
:10316000DF93FC01892B09F455C08689A0914C0797
:10317000B0914D0756969C91891708F041C024855F
:10318000358537FD0CC0A0914C07B0914D07569680
:103190009C9125E030E0291B31093587248729E0FF
:1031A000829FC0011124815E984F228533852817A4
:1031B0003907E9F48F01EF012296CE010E94710CCC
:1031C000E0914C07F0914D078689F801868B90912C
:1031D000E906981710F48093E906F9E08F9FC00183
:1031E0001124BE01815E984F0E94180C07C0A09167
:1031F0004C07B0914D0756968C91868B81E00BC0A1
:10320000A0914C07B0914D0781E021A156969C9169
:10321000291708F080E0DF91CF911F910F91089559
:103220000F931F93CF93DF93FC01892B11F480E060
:103230002CC082A1815082A3268991A12917B9F3BC
:103240008111F5CFEF018F010E5F1F4FC8010E9462
:10325000710C89A18E8B482F50E025E030E0241BB3
:10326000350B3D872C879091E906981710F48093D1
:10327000E90629E0249FC001259F900D1124B80183
:10328000815E984F0E94180C81E0DF91CF911F91D1
:103290000F9108950F931F93CF93DF93FC01892B18
:1032A000D9F191A1961708F4962F86898917A1F173
:1032B00022A1213089F5968B2485358537FD06C0FE
:1032C00025E030E0291B31093587248729E0829FDA
:1032D000C0011124815E984F228533852817390754
:1032E000D9F4EF018F010E5F1F4FC8010E94710CCE
:1032F0008E899091E906981710F48093E90629E0E9
:10330000829FC0011124B801815E984FDF91CF9157
:103310001F910F910C94180CDF91CF911F910F9179
:103320000895E0914C07F0914D0784859585E091D3
:103330004C07F0914D07A0914C07B0914D07569660
:103340004C9125E030E0241B31093587248708950E
:1033500080914C0790914D07892B39F0E0914C07F3
:10336000F0914D0782A18F5F82A380914C079091CD
:103370004D0708950F931F93182FCB010FB6F894A4
:103380000F92E0914C07F0914D0743A154A165A124
:1033900076A1452B462B472B69F4E0914C07F09121
:1033A0004D0721E027A3009729F061E00E94D31286
:1033B0000E94750D0F900FBE0FB6F8940F92E0911A
:1033C0004C07F0914D0763A174A185A196A16115E9
:1033D000710581059105A9F0E0914C07F0914D0729
:1033E000112329F013A214A215A216A20AC08B0160
:1033F0009C01015011092109310903A314A325A33C
:1034000036A3E0914C07F0914D0717A20F900FBE25
:103410001F910F9108954F925F926F927F928F92BA
:103420009F92AF92BF92EF92FF920F931F93490129
:103430005A010FB6F8940F92E0914C07F0914D07A6
:1034400027A1223039F1E0914C07F0914D0723A1DB
:1034500034A145A156A12B013C01409450946094A5
:103460007094D301C20182239323A423B52383A3A1
:1034700094A3A5A3B6A3E0914C07F0914D0781E07A
:1034800087A3E114F10431F061E0C7010E94D31277
:103490000E94750D0F900FBE0FB6F8940F92011594
:1034A000110569F0E0914C07F0914D0783A194A1BB
:1034B000A5A1B6A1F80180839183A283B383E09193
:1034C0004C07F0914D0787A18230C1F4E0914C0781
:1034D000F0914D0743A154A165A176A1D501C40186
:1034E00080959095A095B09584239523A623B72326
:1034F00083A394A3A5A3B6A381E001C080E0E091DB
:103500004C07F0914D0717A20F900FBE1F910F911E
:10351000FF90EF90BF90AF909F908F907F906F90B3
:103520005F904F9008950F931F93CF93DF93FC010B
:103530000FB6F8940F920115110549F083A194A1DB
:10354000A5A1B6A1E80188839983AA83BB8337A18B
:1035500082E087A3223089F058F4213001F583A15D
:1035600094A1A5A1B6A1482B592B6A2B7B2B13C084
:10357000233089F0243069F012C083A194A1A5A161
:10358000B6A10196A11DB11D83A394A3A5A3B6A3C3
:1035900006C0323049F143A354A365A376A331306A
:1035A00009F5EF018F010E5F1F4FC8010E94710CDA
:1035B0008E899091E906981710F48093E90629E026
:1035C000829FC0011124B801815E984F0E94180C9F
:1035D000E0914C07F0914D079E898689891710F478
:1035E0000E94750D81E001C080E00F900FBEDF9159
:1035F000CF911F910F910895EF92FF920F931F9318
:10360000CF93DF93FC010115110549F083A194A12B
:10361000A5A1B6A1E80188839983AA83BB8337A1BA
:1036200082E087A3223089F058F4213001F583A18C
:1036300094A1A5A1B6A1482B592B6A2B7B2B13C0B3
:10364000233089F0243069F012C083A194A1A5A190
:10365000B6A10196A11DB11D83A394A3A5A3B6A3F2
:1036600006C03230D9F143A354A365A376A3313009
:1036700011F081E034C0EF018091DF06811115C0A7
:103680008F010E5F1F4FC8010E94710C8E899091AF
:10369000E906981710F48093E906E9E08E9FC001CF
:1036A0001124B801815E984F05C0BF01645F7F4F50
:1036B00080E097E00E94180CE0914C07F0914D07D4
:1036C0009E8986898917A8F6E114F10419F081E032
:1036D000E701888381E08093E60601C080E0DF9106
:1036E000CF911F910F91FF90EF900895EF92FF926D
:1036F0000F931F93CF93DF93FC0127A182E087A351
:1037000083A194A1A5A1B6A10196A11DB11D83A37A
:1037100094A3A5A3B6A32130A1F58B01EF0180915D
:10372000DF06811116C07F0122E0E20EF11CC70105
:103730000E94710C8E899091E906981710F480937D
:10374000E906E9E08E9FC0011124B701815E984F20
:1037500005C0BF01645F7F4F80E097E00E94180CB6
:10376000E0914C07F0914D079E898689891748F4AE
:103770000115110519F081E0F801808381E0809343
:10378000E606DF91CF911F910F91FF90EF90089582
:10379000009721F480914C0790914D070FB6F89453
:1037A0000F92FC0127A1223019F417A281E001C079
:1037B00080E00F900FBE08950FB6F8940F9280919D
:1037C000520790915307892BE9F481E697E00E9414
:1037D000060C88E597E00E94060C81E697E090933E
:1037E00057078093560788E597E090935507809395
:1037F000540740E065E088E20E94220F909353074F
:10380000809352070F900FBE0895FC01738362836B
:10381000918780874617570778F0421B530B8485A2
:10382000958548175907C8F4BF016E5F7F4F809197
:103830005407909155070DC04217530718F46217AB
:10384000730758F4BF016E5F7F4F809156079091C8
:1038500057070E94390C80E0089581E00895EF92A7
:10386000FF920F930E94DC1B8091520790915307A7
:10387000892B81F080E5E82E87E0F82E04E020E037
:1038800030E045E550E06CED70E086E19DE10E949E
:103890005B1301C080E00F91FF90EF9008958F922D
:1038A0009F92AF92BF92CF92DF92FF920F931F939E
:1038B000CF93DF934C015B01F42E690183E190E02B
:1038C0000E94C50BEC01892BA1F01A8A0E94DC1B17
:1038D00099828882BD86AC86DF86CE86198B088B5E
:1038E000CE0102960E94140CFF2019F08A89846090
:1038F0008A8BCE01DF91CF911F910F91FF90DF90C6
:10390000CF90BF90AF909F908F9008950F931F938B
:10391000CF93DF9300D000D01F92CDB7DEB7A09138
:103920005207B0915307109729F1F90169835B831E
:103930004A839D838C836630A4F40E949F18E09193
:103940005207F091530720E0823011F4A80102C021
:1039500040E050E0BE016F5F7F4FCF010E944A0FF1
:103960000AC020E0AF01BE016F5F7F4FCD010E9412
:10397000FA0F01C080E00F900F900F900F900F9002
:10398000DF91CF911F910F910895EF92FF920F93C6
:103990001F93CF93DF93E0915607F09157078081F3
:1039A000882389F10580F681E02DE080F180C681D1
:1039B000D7818E010E5F1F4FC8010E94710CE889EC
:1039C000F989CE0109958A8982FFE5CF8C859D858D
:1039D0008E0D9F1DE816F90660F49B838A83D987B4
:1039E000C887B80180915607909157070E94390CFB
:1039F000D2CF00E010E020E030E0A70160E0CE018F
:103A00000E94861CC8CF80915407909155079093CF
:103A1000570780935607F0935507E0935407DF91BB
:103A2000CF911F910F91FF90EF900895CF93DF9367
:103A300000D000D01F92CDB7DEB7E0915607F091CD
:103A40005707D080DD2031F00580F681E02DE08041
:103A5000F18002C0E12CF12C0E9474150E947A15AD
:103A60008C0180914E0790914F070817190720F499
:103A70000E94C51C81E001C080E010934F070093B5
:103A80004E07811155C0DD20D9F10E151F0508F430
:103A90003EC00E944016E0915607F09157070580FE
:103AA000F681E02DC680D780C60102960E94710C77
:103AB000D60152968C91529782FF17C01C966D9139
:103AC0007C911D976E0D7F1D9701A801C6010E9474
:103AD000051C882369F000E010E020E030E0A70139
:103AE00060E0C6010E94861C03C08E7FF601828BB7
:103AF000D6015096ED91FC915197C60109951EC0D3
:103B0000E0915407F0915507808141E0811140E038
:103B1000B701601B710B80915207909153070E946F
:103B20009C120E944016811109C00E94750D06C0AA
:103B30000E94401603C0898187FF0EC040E050E01C
:103B4000BE016F5F7F4F80915207909153070E9493
:103B50004C108111F0CF71CFEC80FD80F701828590
:103B60009385892B21F0C70102960E94710C0E9457
:103B70007A156C0180914E0790914F07C816D906AF
:103B800010F40E94C51CD0924F07C0924E07E981E5
:103B90000E2E000CFF0BEA30F10580F6E65DFF4FBC
:103BA000D70152968C910C94871E8160F701828B0D
:103BB0002A813B8164857585620F731FA601C70149
:103BC0000E94051C882309F4B9CFD7015096ED91C6
:103BD000FC915197C7010995F701828982FFAECF09
:103BE0004A815B8184859585480F591F00E010E06C
:103BF00020E030E060E0C7010E94861C9FCF81601A
:103C0000F701828B6A817B81758764876C0D7D1DCE
:103C10009601A601C7010E94051C90CF81FD04C03A
:103C2000C7010E94F70B8ACF8E7FD70152968C93E3
:103C300085CF80915007909151070895FC018485AC
:103C400095850895FC010FB6F8940F92928966232A
:103C500011F0946001C09B7F928B0F900FBE08956E
:103C6000FC01828193810895FC01808191810895F6
:103C70000FB6F8940F92FC0182890F900FBE8170ED
:103C800008950FB6F8940F920F900FBEFC01868531
:103C9000978508950FB6F8940F92FC017787668791
:103CA0000F900FBE0895991B79E004C0991F9617D5
:103CB00008F0961B881F7A95C9F780950895AA1B6E
:103CC000BB1B51E107C0AA1FBB1FA617B70710F007
:103CD000A61BB70B881F991F5A95A9F78095909539
:103CE000BC01CD01089597FB072E16F4009407D070
:103CF00077FD09D00E945F1E07FC05D03EF4909529
:103D000081959F4F0895709561957F4F0895EE0FAF
:103D1000FF1F0590F491E02D0994FB01DC0102C026
:103D200001900D9241505040D8F70895F894FFCF7C
:103D300010313233413435365E373839762A303CEB
:103D40003E414D00504D006D696E7574657300689D
:103D50006F7572730053657420416C61726D004120
:103D60004C41524D21002020202020200074696DFC
:103D700065720074696D657232004B5044004B509F
:103D8000445F49535231000000040A150404040E34
:103D9000111F11111B151100110E1517110E1173A2
:103DA00065636F6E64730049444C4500546D722026
:043DB00053766300E3
:00000001FF
