:100000000C942A000C9447000C9447000C94470071
:100010000C9447000C9447000C9447000C94D60BAA
:100020000C9447000C9447000C9447000C94470034
:100030000C9447000C9447000C9447000C94470024
:100040000C9447000C9447000C9447000C94470014
:100050000C94470011241FBECFE5D8E0DEBFCDBF12
:1000600010E0A0E6B0E0E2E0F3E302C005900D92FC
:10007000A03DB107D9F727E0A0EDB0E001C01D9287
:10008000A933B207E1F70E94490A0C947F190C9436
:100090000000CF93DF9300D0CDB7DEB70E940613E8
:1000A0006091DA004CE251E0649F9001659F300D51
:1000B0001124821B930B9A83898382E00E940D078F
:1000C0008AE30E94C5061CE06AE070E080912E077A
:1000D00090912F070E948A0E882329F180E00E94C8
:1000E0000D078091D900612F0E94421981E0890F8C
:1000F0000E94EF0786E00E940D078091D8008111D1
:1001000003C081E790E002C084E790E00E94CF0640
:1001100020E040E050E060E070E080912E07909198
:100120002F070E94F60C60E576E4CE0101960E944E
:100130003B148091D9008F5F8C3031F49091D800BE
:100140009F5F91709093D800612F0E944219909305
:10015000D900BACF80E00E940D078091D9006CE0F1
:100160000E94421981E0890F0E94EF0782E00E94FD
:100170000D078AE30E94C5068091DA006CE30E94B5
:100180004219892F0E94EF0786E00E940D07809197
:10019000D800811103C081E790E002C084E790E0BD
:1001A0000E94CF068EE00E940D078091DB000C9428
:1001B000EF07CF93DF9300D0CDB7DEB781E00E9489
:1001C0008C0D90932F0780932E070E9406139A831D
:1001D00089831CE36AE070E080912E0790912F07DD
:1001E0000E948A0E882391F08EE00E940D07809174
:1001F000DB000E94EF0720E040E050E060E070E0AC
:1002000080912E0790912F070E94F60C65E070E018
:10021000CE0101960E943B148091DB008F5F612F1D
:100220000E9442199093DB00D5CFCF93DF93CDB7D7
:10023000DEB763970FB6F894DEBF0FBECDBF40E0C8
:1002400061E081E00E94CE0C9093D7008093D600AD
:100250000E9406139A8B898BCE0101960E944F054E
:100260008B8B8F3F61F020E04AE050E0BE016D5E75
:100270007F4F8091D6009091D7000E94F60C60913C
:10028000600070E0CE0141960E943B14E5CFCF9311
:10029000DF93EC012881822F90E0019663E070E00B
:1002A0000E946219892B51F481E0820F0E940D0790
:1002B00080E20E94C50688818F5F888388818F5F76
:1002C000873111F0888304C080E188830E940D0784
:1002D00081E0DF91CF910C94C506CF93DF93EC01C1
:1002E0002881822F90E0019763E070E00E946219FC
:1002F000892B51F48FEF820F0E940D0780E20E943C
:10030000C506888181508883888181508E3011F0A4
:10031000888304C086E188830E940D0788810E943B
:100320000D0781E0DF91CF910C94C506CF93DF9349
:10033000FC0120812631E9F4EC019091D8009F5F07
:1003400091709093D80086E00E940D078091D800AC
:10035000811103C081E790E002C084E790E00E9431
:10036000CF0688810E940D0781E0DF91CF910C9428
:10037000C506DF91CF910895EF92FF920F931F93DF
:10038000CF93DF937C01FB01EA018881813149F140
:10039000A0F4803109F04AC0D7018C91880F8056B3
:1003A000982F990F990F482F490F8091D9006AE033
:1003B0000E944219940FD90134C0833111F1843164
:1003C000A9F58091DA006AE00E944219880F982FFF
:1003D000990F990F890F8053D7019C91890FD801EC
:1003E00022C08091D9006AE00E944219880F982F9C
:1003F000990F990F890F8153D7019C91890FD901CA
:1004000012C0D7018C91880F8056982F990F990FA1
:10041000282F290F8091DA006AE00E944219920F7A
:10042000D8019C9301C08C9381E0808388818051A6
:100430000E940D078881863121F0F70180810E949A
:10044000C50688818F5F0E940D072881822F90E06A
:10045000019663E070E00E946219892B51F481E0FB
:10046000820F0E940D0780E20E94C50688818F5F7F
:10047000888388818F5F873111F0888304C080E191
:1004800088830E940D0781E0DF91CF911F910F912A
:10049000FF90EF900C94C506CF92DF92EF92FF92FF
:1004A0000F931F93CF93DF938C016B01EA017901C6
:1004B00020E040E050E060E070E080912E079091F5
:1004C0002F070E94F60C80E10E940D07F6011082B2
:1004D0000E94AA008AE080936000F70180810E9458
:1004E0000D0780E20E94C50685E090E00E9473142B
:1004F000F80180818F5F80838881882341F180911A
:10050000D2009091D300009731F00E94ED1110922B
:10051000D3001092D20082EDE82E80E0F82E02E0A7
:1005200020E030E046E450E067E770E08BEF92E0D7
:100530000E94EB108091D0009091D100009731F093
:100540000E94ED111092D1001092D0001882E0901C
:10055000D000F090D10002E020E030E046E450E02E
:100560006FE770E089E490E00E94EB10DF91CF919B
:100570001F910F91FF90EF90DF90CF900895CF9251
:10058000DF92EF92FF920F931F93CF938C016B0139
:100590007A016AE070E080912E0790912F070E9407
:1005A0008A0E882399F080E1F7018083C1E0F6018B
:1005B000C083F70180810E940D0781E00E94C5067B
:1005C000F80180818F5F8083C0936000CF911F917D
:1005D0000F91FF90EF90DF90CF90089588E10E94F7
:1005E0000D0785E890E00E94CF0680912D078E7F51
:1005F00080932D070895CF93DF9300D0CDB7DEB75A
:100600000E9406139A83898382E00E940D078AE381
:100610000E94C5061CE380912D0780FF1DC08AE162
:100620000E940D0780912C070E94EF078BE890E055
:100630000E94CF06809130070E94EF079091D90069
:1006400080912C07981308C09091DA0080913007B0
:10065000981302C00E94EE026AE070E080912E07BB
:1006600090912F070E948A0E882391F083E00E94C8
:100670000D078091DA000E94EF0720E040E050E093
:1006800060E070E080912E0790912F070E94F60C99
:100690006CE271E0CE0101960E943B148091DA0079
:1006A0008F5F612F0E9442199093DA00B4CFCF93ED
:1006B000DF9300D000D01F92CDB7DEB78FEF8D83D0
:1006C0001C8280E18B831A8219824AE050E0BE01CD
:1006D0006B5F7F4F8091D6009091D7000E94F80DFC
:1006E000882399F38D818A3209F47AC08C8188231A
:1006F00061F38B810E940D0780E20E94C5068D8107
:100700008E3389F038F48C33D9F5CE0103960E94EC
:100710006D0161C0813461F08E3591F5CE01039693
:100720000E94960158C0CE0103960E94470153C013
:1007300080912D0781FD1AC0826080932D0780E093
:100740000E940D0780E00E94EF0782E00E940D07E3
:100750008AE30E94C50680E00E94EF0786E00E94BF
:100760000D0781E790E00E94CF0635C00E94EE069B
:1007700080912D078D7F80932D070E94AA002BC0AA
:1007800080912D0781FD0FC00AED10E029ED30E0CA
:10079000AE014D5F5F4FBE016F5F7F4FCE0105968B
:1007A0000E94BC0118C000E317E02CE237E0AE0164
:1007B0004D5F5F4FBE016F5F7F4FCE0105960E9478
:1007C000BC01998180912D07913011F4816001C0A5
:1007D0008E7F80932D0783E090E00E94731475CF85
:1007E0008A8180FD0BC0AE014D5F5F4FBE016C5F23
:1007F0007F4FCE0102960E94BF0267CF9E012D5F00
:100800003F4FAE014F5F5F4FBE016C5F7F4FCE0128
:1008100002960E944C0259CF1ABA17BA14BA11BAEA
:100820000895803208F06CC0623008F069C0982FDB
:1008300097708695869586958230A1F1833009F46C
:1008400048C08130B9F04AB321E030E0613039F47A
:1008500001C0220F9A95EAF7242B2ABB17C0B901D1
:1008600002C0660F771F9A95E2F7CB01809584232B
:100870008ABB0CC047B321E030E0611109C001C060
:10088000220F9A95EAF72095242327BB80E008954C
:10089000B90102C0660F771F9A95E2F7CB01842B4E
:1008A00087BBF4CF44B321E030E0613039F401C0BC
:1008B000220F9A95EAF7242B24BBE8CFB90102C096
:1008C000660F771F9A95E2F7CB018095842384BB4E
:1008D000DDCF41B321E030E0613039F401C0220FB7
:1008E0009A95EAF7242B21BBD1CFB90102C0660F3C
:1008F000771F9A95E2F7CB018095842381BBC6CF01
:1009000081E00895803208F06CC0623008F069C060
:10091000982F97708695869586958230A1F18330C1
:1009200009F448C08130B9F04BB321E030E06130C8
:1009300039F401C0220F9A95EAF7242B2BBB17C07C
:10094000B90102C0660F771F9A95E2F7CB01809537
:1009500084238BBB0CC048B321E030E0611109C097
:1009600001C0220F9A95EAF72095242328BB80E046
:100970000895B90102C0660F771F9A95E2F7CB017F
:10098000842B88BBF4CF45B321E030E0613039F4EB
:1009900001C0220F9A95EAF7242B25BBE8CFB901B5
:1009A00002C0660F771F9A95E2F7CB0180958423EA
:1009B00085BBDDCF42B321E030E0613039F401C0C6
:1009C000220F9A95EAF7242B22BBD1CFB90102C09E
:1009D000660F771F9A95E2F7CB018095842382BB3F
:1009E000C6CF81E00895843078F4823041F08330BE
:1009F00049F0813011F06ABB03C067BB01C064BB22
:100A000080E0089561BBFCCF81E00895843078F4E4
:100A1000823041F0833049F0813011F06BBB03C06C
:100A200068BB01C065BB80E0089562BBFCCF81E07C
:100A30000895FB018032E0F4282F27708695869573
:100A40008695823041F0833041F0813011F089B3D6
:100A500005C086B303C083B301C080B390E002C079
:100A6000959587952A95E2F78170808380E00895B7
:100A700081E00895FB01843080F4823041F08330BE
:100A800041F0813011F089B305C086B303C083B350
:100A900001C080B3808380E0089581E008956F9263
:100AA0007F928F929F92AF92BF92CF92DF92EF92FE
:100AB000FF920F931F93CF93DF931F92CDB7DEB7B3
:100AC0007C01198201E317E066246A94912C772453
:100AD0007394580160E0F80180810E94820485E3EC
:100AE000C82E87E0D82E812CBE016F5F7F4FF601A4
:100AF00081916F010E9419052981882D890D90E04F
:100B0000F701E80FF91F213011F4108205C070823F
:100B1000FC01EF59FF4F6080F4E08F0E80E18812F6
:100B2000E3CF0F5F1F4F61E0F50180810E948204D7
:100B30009394F4E09F12CDCF862D0F90DF91CF914B
:100B40001F910F91FF90EF90DF90CF90BF90AF90EB
:100B50009F908F907F906F9008958130A1F138F031
:100B6000823009F45BC0833009F483C008956FE0DC
:100B700080E00E94F30461E084E00E94820461E06E
:100B800085E00E94820461E086E00E94820461E0C8
:100B900087E00E94820484E08093350783E080939D
:100BA000310785E08093360782E08093320786E044
:100BB0008093370781E08093330787E0809338077D
:100BC0001092340708956FE081E00E94F30461E021
:100BD0008CE00E94820461E08DE00E94820461E06A
:100BE0008EE00E94820461E08FE00E9482048CE02B
:100BF000809335078BE0809331078DE08093360733
:100C00008AE0809332078EE08093370789E08093F3
:100C100033078FE08093380788E055C06FE082E0AB
:100C20000E94F30461E084E10E94820461E085E1B6
:100C30000E94820461E086E10E94820461E087E113
:100C40000E94820484E18093350783E18093310719
:100C500085E18093360782E18093320786E18093B5
:100C6000370781E18093330787E18093380780E17C
:100C70002AC06FE083E00E94F30461E08CE10E94EF
:100C8000820461E08DE10E94820461E08EE10E94B5
:100C9000820461E08FE10E9482048CE18093350739
:100CA0008BE1809331078DE1809336078AE1809351
:100CB00032078EE18093370789E1809333078FE114
:100CC0008093380788E1809334070895E0E0DC01E1
:100CD0002D91CD01213029F4F0E0EF59FF4F8081B3
:100CE0000895EF5FE03199F78FEF0895CF93C82F04
:100CF00060E081E10E9482046C2F617087E00E94B5
:100D00008204C1FB662760F986E00E948204C2FB70
:100D1000662760F985E00E948204C3FB662760F9BC
:100D200084E00E948204C4FB662760F983E00E948D
:100D30008204C5FB662760F982E00E948204C6FB3C
:100D4000662760F981E00E9482046C2F661F662787
:100D5000661F80E00E94820461E082E10E948204BA
:100D60008FEC97E00197F1F700C0000060E082E1AE
:100D7000CF910C948204CF93C82F60E080E10E9451
:100D800082048C2FCF910C947606CF93C82F61E00C
:100D900080E10E9482048C2FCF910C947606EF9212
:100DA000FF920F931F93CF937C01C0E087010C0F3C
:100DB000111DF8018081882359F0C03119F480ECAD
:100DC0000E94BB06F80180810E94C506CF5FEECF6E
:100DD000CF911F910F91FF90EF90089581E00C94B7
:100DE000BB060F931F93CF938C01C0E0F801EC0F6B
:100DF000F11D8081882369F00E94C5062FEF84E3EE
:100E00009CE0215080409040E1F700C00000CF5F9F
:100E1000EDCFCF911F910F910895803110F480583C
:100E200001C080550C94BB060F931F93CF93DF93A3
:100E30008C01C0E08C2F0E940D07D0E0F801ED0F6F
:100E4000F11D8081882321F00E94C506DF5FF6CF67
:100E50002FEF89E698E1215080409040E1F700C0F3
:100E600000000E94EE06CF5FC53021F7DF91CF91E1
:100E70001F910F9108950F931F93CF93DF938C01D0
:100E8000862F880F880F880F805C0E94BB06E801C0
:100E9000085F1F4F89910E94C506C017D107D1F77F
:100EA00080E8DF91CF911F910F910C94BB0661E018
:100EB00080E10E94110461E081E10E94110461E07F
:100EC00082E10E94110461E087E00E94110461E068
:100ED00086E00E94110461E085E00E94110461E057
:100EE00084E00E94110461E083E00E94110461E04B
:100EF00082E00E94110461E081E00E94110461E03F
:100F000080E00E9411042FE788E391E021508040A7
:100F10009040E1F700C000002FEF89EF90E02150F2
:100F200080409040E1F700C0000088E30E94BB06CB
:100F300025E82A95F1F700008CE00E94BB0685E8C1
:100F40008A95F1F7000081E00E94BB068FE99FE0DF
:100F50000197F1F700C0000060E08EE990E00E9488
:100F60003B0761E08EE890E00C943B07CF92DF9264
:100F7000EF92FF920F931F93CF93DF93EC0100E06A
:100F800080E090E02AE0EAE0F0E0209771F0289F0E
:100F90007001299FF00C1124CE01BF010E944E194F
:100FA0008E0D9F1DEB010F5FF0CF10E02AE0E22EC7
:100FB000F12CC017D10750F4B7010E944E196B01F4
:100FC000805D0E94C506C6012196F3CFDF91CF91C7
:100FD0001F910F91FF90EF90DF90CF900895CF93E6
:100FE0006AE00E944219C92F805D0E94C50680E315
:100FF0008C0FCF910C94C506805D0C94C506CF93E1
:10100000DF938BE090E00E947909EC01009731F0CA
:10101000FC0111921192CF010E94BA09CE01DF9119
:10102000CF910895AF92BF92CF92DF92EF92FF924D
:101030000F931F93CF93DF936C017B01B42EA22EED
:101040000E940013F601C081D181CE018E219F2123
:10105000A11003C0892B21F43BC0E816F906C1F5A5
:10106000BB2041F0C701809590958C239D23F6010C
:101070009183808300E010E00E94CC13012B09F4DF
:101080003DC0811102C00E94210B0E94F71691FD04
:101090001CC00FB6F8940F92F601808191819701E0
:1010A00028233923A11003C0232B21F40CC0E216FE
:1010B000F30649F4BB2039F0E094F094E822F922D9
:1010C000F601F182E0820F900FBEEC01DD2716C021
:1010D0000115110589F2BB2019F060E071E002C032
:1010E00060E070E0A11074606E297F29A801C6013C
:1010F00002960E943215C0E0D0E0BECFCE01DF9153
:10110000CF911F910F91FF90EF90DF90CF90BF9004
:10111000AF900895FC010FB6F8940F9280819181F1
:101120006095709568237923718360830F900FBE5B
:101130000895FC01808191810895CF92DF92EF9212
:10114000FF920F931F93CF93DF938C01EB017C01F0
:1011500085E0E80EF11C0E940013D8011796ED916E
:10116000FC9118978D919C911197C82BD92BCD93F9
:10117000DC93C0E0D0E0D8016D917C911197EE1521
:10118000FF05E1F0D280C38020813181C901992718
:10119000AC014623572332FD03C0452B21F40BC07D
:1011A0008417950741F430FF02C0C82BD92B726019
:1011B000CF010E948A15ED2DFC2DDDCFC095D09575
:1011C0006C237D236D937C930E94CC13F801808166
:1011D0009181DF91CF911F910F91FF90EF90DF9060
:1011E000CF900895AF92BF92CF92DF92EF92FF928D
:1011F0000F931F93CF93DF937C01EB018A01690169
:101200000E940013F701A080B180BE01C7010E94B7
:101210009D08CA29DB29CE018023912308171907CD
:1012200069F4F70120813181C8018095909582236E
:10123000932391838083C12CD12C10C0C114D1047D
:1012400051F0A601B8017560C70102960E943215DF
:10125000C0E0D0E003C0F701C081D1810E94CC136F
:10126000CD28F9F0811102C00E94210B0E94F716CF
:1012700091FD15C00FB6F8940F92F701808191810E
:101280009801282339230217130739F4A801409540
:10129000509548235923518340830F900FBEEC0192
:1012A000DD27CE01DF91CF911F910F91FF90EF903D
:1012B000DF90CF90BF90AF900895CF93DF93EC0174
:1012C0000E9400138A81882339F060E072E08F81E8
:1012D00098850E948A15F6CFCE010E94AB09DF9156
:1012E000CF910C94CC13BA010C949D08BA010C94C4
:1012F0008A08CF93DF93EC010E9400138091DC00F9
:101300009091DD00892B31F481EE90E09093DD0027
:101310008093DC002091DE003091DF00C9018C0F4A
:101320009D1F8B3D45E0940770F42817390758F44A
:10133000C091DC00D091DD00C20FD31F9093DF007D
:101340008093DE0002C0C0E0D0E00E94CC13CE014A
:10135000DF91CF91089508951092DF001092DE0082
:1013600008952091DE003091DF008BED95E0821B27
:10137000930B0895FC010396928381832FEF3FEF37
:10138000348323839683858390878783108208958F
:10139000FC01118610860895CF93DF939C01FB0119
:1013A000DC011196CD91DC911297D383C2838C819D
:1013B0009D81958384838C819D81DC0113967C9330
:1013C0006E9312977D836C8331872087F90180812A
:1013D0008F5F8083DF91CF9108950F931F93CF93F9
:1013E000DF938C01FB01808191818F3F2FEF92076A
:1013F00021F4E801AF81B8850EC0D801139612968A
:101400002D913C911397E9014881598184179507E3
:1014100010F0D901F4CF12968D919C91139793837C
:101420008283EC01FD83EC83B583A4831396FC9344
:10143000EE93129711870087F80180818F5F808378
:10144000DF91CF911F910F910895CF93DF93FC010E
:10145000A085B1858281938124813581EC013D8312
:101460002C83C481D5819B838A8311968D919C9115
:101470001297E817F90721F41296DC93CE9311978F
:10148000118610868C9181508C938C91DF91CF9135
:101490000895EF92FF920F930E9457070E94EE0665
:1014A0000E94AA0081E00E94AD05E12CF12C02E02F
:1014B00020E030E046E450E066EA70E089ED90E03C
:1014C0000E94EB1020E030E046E450E06EEA70E06D
:1014D00085E191E00E94EB1020E030E042E350E033
:1014E00068EB70E087E593E00E94EB100E94D11258
:1014F00080E090E00F91FF90EF90089531E1FC01C2
:101500003083319722E220833197A3E3A083319780
:1015100060833197708331971082319760E86083E0
:1015200031971082319762E06083319763E0608386
:10153000319764E06083319765E06083319766E0BE
:101540006083319767E06083319768E0608331970B
:1015500069E06083319760E1608331973083319730
:1015600032E13083319733E13083319734E1308396
:10157000319735E13083319736E13083319737E168
:101580003083319738E13083319739E130833197B7
:1015900030E23083319731E23083319720833197C5
:1015A00023E220833197408331975083319726E29D
:1015B0002083319727E22083319728E220833197D7
:1015C00029E22083319720E32083319721E3208390
:1015D0008697089581E68BBD87EA8ABD8BE08EBD34
:1015E00089B7806189BFA0912907B0912A07CD9161
:1015F000CDBFDD91DEBFFF91EF91DF91CF91BF9124
:10160000AF919F918F917F916F915F914F913F919A
:101610002F911F910F91FF90EF90DF90CF90BF908F
:10162000AF909F908F907F906F905F904F903F9082
:101630002F901F900F900FBE0F90089581E0089596
:1016400008950F920FB6F8940F921F9211242F92C3
:101650003F924F925F926F927F928F929F92AF9242
:10166000BF92CF92DF92EF92FF920F931F932F932F
:101670003F934F935F936F937F938F939F93AF931A
:10168000BF93CF93DF93EF93FF93A0912907B0917E
:101690002A070DB60D920EB60D920E948814A091E5
:1016A0002907B0912A07CD91CDBFDD91DEBFFF9113
:1016B000EF91DF91CF91BF91AF919F918F917F91EA
:1016C0006F915F914F913F912F911F910F91FF90DB
:1016D000EF90DF90CF90BF90AF909F908F907F90D2
:1016E0006F905F904F903F902F901F900F900FBE84
:1016F0000F9008950F920FB6F8940F921F92112435
:101700002F923F924F925F926F927F928F929F9211
:10171000AF92BF92CF92DF92EF92FF920F931F93FF
:101720002F933F934F935F936F937F938F939F93E9
:10173000AF93BF93CF93DF93EF93FF93A0912907CC
:10174000B0912A070DB60D920EB60D920E9420138D
:1017500081110E948814A0912907B0912A07CD9188
:10176000CDBFDD91DEBFFF91EF91DF91CF91BF91B2
:10177000AF919F918F917F916F915F914F913F9129
:101780002F911F910F91FF90EF90DF90CF90BF901E
:10179000AF909F908F907F906F905F904F903F9011
:1017A0002F901F900F900FBE0F9008950E947A0BFC
:1017B00018950FB6F8940F92FC01928D0F900FBE02
:1017C00081E0911180E008950F931F93CF93DF93F1
:1017D000EC01042F1A8D4C8D41110BC08881998129
:1017E000892BE9F58C819D810E9476161D821C82D1
:1017F00037C050E0011115C08A819B810E94761983
:101800002C8D8A819B81820F911D9B838A832C81E1
:101810003D818217930718F1888199819B838A8380
:101820001EC08E819F810E9476198C8D90E09195CB
:10183000819591092E813F81280F391F3F832E8387
:10184000488159812417350730F42C813D81820F5E
:10185000931F9F838E83023011F41111115080E089
:101860001F5F1A8FDF91CF911F910F910895FC0197
:10187000CB01448D4423A1F050E026813781240F11
:10188000351F37832683648175812617370720F03B
:101890002081318137832683668177810C94761984
:1018A0000895EF92FF921F93CF93DF93EC010FB651
:1018B000F8940F921E8D7C0181E1E80EF11C111647
:1018C0005CF48989882341F0C7010E944A1581117F
:1018D0000E940A161150F3CF8FEF8E8F0F900FBE1C
:1018E0000FB6F8940F921D8D7E0188E0E80EF11C72
:1018F00011165CF48885882341F0C7010E944A15BF
:1019000081110E940A161150F3CF8FEF8D8F0F9027
:101910000FBEDF91CF911F91FF90EF900895CF936D
:10192000DF93EC010FB6F8940F92488159818B8DAB
:101930007C8D9A01879F200D311D11243D832C83BE
:101940001A8E5B834A8390E00197789F9001799F7C
:10195000300D1124CA01820F931F9F838E838FEF56
:101960008D8F8E8F61110CC08885882389F0CE0100
:1019700008960E944A15882359F00E94210B08C03E
:10198000CE0108960E94BA09CE0141960E94BA097A
:101990000F900FBE81E0DF91CF9108950F931F93B9
:1019A000CF93DF93082F162F662321F0869FC00167
:1019B000112402C080E090E04F960E947909EC016A
:1019C000009771F0111103C09983888303C04F966B
:1019D000998388830B8F1C8F61E0CE010E948F0C4E
:1019E000CE01DF91CF911F910F910895AF92BF92D9
:1019F000CF92DF92FF920F931F93CF93DF9300D08C
:101A000000D01F92CDB7DEB78C016B015D834C8394
:101A1000F22E80E0580198E0A90EB11C0FB6F894A0
:101A20000F92F801228D938D291718F0F2E0FF1222
:101A300014C04F2DB601C8010E94E40BF801918932
:101A4000992321F0C80141960E944A1581110E94F4
:101A5000210B0F900FBE81E050C02C813D81232BC4
:101A600019F40F900FBE48C0811104C0CE01019639
:101A70000E94CC150F900FBE0E9400130FB6F89471
:101A80000F92F801858D8F3F09F4158EF801868D30
:101A90008F3F09F4168E0F900FBEBE016C5F7F4F13
:101AA000CE0101960E94D715811121C00FB6F8947E
:101AB0000F92F801928D0F900FBE838D981311C075
:101AC0006C817D81C5010E942115C8010E94510CC5
:101AD0000E94CC13882311F081E0A0CF0E94210B3B
:101AE000FBCFC8010E94510C0E94CC13F5CFC80156
:101AF0000E94510C0E94CC1380E00F900F900F9029
:101B00000F900F90DF91CF911F910F91FF90DF9079
:101B1000CF90BF90AF900895CF93DF93482F60E0B0
:101B200081E00E94CE0CEC01009761F01D821C82C6
:101B3000198218821E8220E040E050E060E070E0F0
:101B40000E94F60CCE01DF91CF910895EF92FF92A3
:101B50001F93CF93DF93EC019A8D8B8D981710F024
:101B60002230E1F47A011E8D422FCE010E94E40B57
:101B70001F3F81F48989882379F0CE0141960E9424
:101B80004A15882349F0E114F10431F081E0F701AE
:101B9000808305C01F5F1E8F81E001C080E0DF9160
:101BA000CF911F91FF90EF900895CF93DF93FC01A9
:101BB000928D838D9817C0F4868D9F5F928F8F3F93
:101BC00079F48189882371F0EB01CF0141960E945D
:101BD0004A15882339F0209729F081E0888305C0D1
:101BE0008F5F868F81E001C080E0DF91CF91089503
:101BF000AF92BF92CF92DF92FF920F931F93CF933A
:101C0000DF9300D000D01F92CDB7DEB78C016B01FF
:101C10005D834C8380E0580191E1A90EB11C0FB6A1
:101C2000F8940F92F801F28CFF20A9F0B601C801D8
:101C30000E94370CFA94F801F28E8085882339F0DF
:101C4000C80108960E944A1581110E94210B0F902D
:101C50000FBE81E050C02C813D81232B19F40F90E1
:101C60000FBE48C0811104C0CE0101960E94CC1560
:101C70000F900FBE0E9400130FB6F8940F92F80158
:101C8000858D8F3F09F4158EF801868D8F3F09F4FD
:101C9000168E0F900FBEBE016C5F7F4FCE01019676
:101CA0000E94D71581111CC0C8010E94D90B88233E
:101CB00089F06C817D81C5010E942115C8010E94B7
:101CC000510C0E94CC13882311F081E0A8CF0E9410
:101CD000210BFBCFC8010E94510C0E94CC13F5CF01
:101CE000C8010E94510C0E94CC13C8010E94D90B5C
:101CF000882359F380E00F900F900F900F900F9072
:101D0000DF91CF911F910F91FF90DF90CF90BF9007
:101D1000AF900895CF92DF92FF920F931F93CF93CE
:101D2000DF9300D000D01F92CDB7DEB78C017D834A
:101D30006C83F12C90E0680181E1C80ED11C0FB6D4
:101D4000F8940F92D8015A968C915A978823E9F00B
:101D500081505A968C935A978D919C91892B29F496
:101D60000E940E17F80195838483D80118968C91F0
:101D7000882339F0C80108960E944A1581110E94F3
:101D8000210B0F900FBE81E07AC02C813D81232B67
:101D900009F472C0911104C0CE0101960E94CC15C5
:101DA0000F900FBE0E9400130FB6F8940F92F80127
:101DB000858D8F3F09F4158ED8015E968C915E97C4
:101DC0008F3F11F45E961C920F900FBEBE016C5FA8
:101DD0007F4FCE0101960E94D71581112BC0C801FB
:101DE0000E94D90B882301F1F80180819181892B10
:101DF00051F40FB6F8940F92848195810E941316C6
:101E0000F82E0F900FBE6C817D81C6010E942115B6
:101E1000C8010E94510C0E94CC13882311F091E05C
:101E20008ECF0E94210BFBCFC8010E94510C0E9453
:101E3000CC13F5CFC8010E94510C0E94CC13C801ED
:101E40000E94D90B882359F3FF20C1F00FB6F894F4
:101E50000F92F8018189882339F00688F789E02DEF
:101E6000808165E0681B01C060E0D80114968D9107
:101E70009C9115970E94B0160F900FBE80E00F90B6
:101E80000F900F900F900F90DF91CF911F910F91B6
:101E9000FF90DF90CF900895CF92DF92EF92FF9264
:101EA0000F931F93CF93DF9300D000D01F92CDB735
:101EB000DEB78C017B015D834C8380E0680191E19A
:101EC000C90ED11C0FB6F8940F92F801928D992388
:101ED000B9F0C680D780B701C8010E94370CF8015D
:101EE000D782C6828189882339F0C80141960E9431
:101EF0004A1581110E94210B0F900FBE81E050C046
:101F00002C813D81232B19F40F900FBE48C0811105
:101F100004C0CE0101960E94CC150F900FBE0E9406
:101F200000130FB6F8940F92F801858D8F3F09F4D6
:101F3000158EF801868D8F3F09F4168E0F900FBE17
:101F4000BE016C5F7F4FCE0101960E94D7158111B3
:101F50001CC0C8010E94D90B882389F06C817D8147
:101F6000C6010E942115C8010E94510C0E94CC1389
:101F7000882311F081E0A6CF0E94210BFBCFC8017E
:101F80000E94510C0E94CC13F5CFC8010E94510C45
:101F90000E94CC13C8010E94D90B882359F380E01A
:101FA0000F900F900F900F900F90DF91CF911F9196
:101FB0000F91FF90EF90DF90CF900895EF92FF92F6
:101FC0000F931F93CF93DF93FC01028D0023E9F061
:101FD0007A01EC01158D0E94370C01500A8F1F3FCA
:101FE00081F48885882379F0CE0108960E944A15ED
:101FF000882349F0E114F10431F081E0F701808396
:1020000005C01F5F1D8F81E001C080E0DF91CF918F
:102010001F910F91FF90EF9008950F931F93CF930F
:10202000DF93FC01228D222349F0EC010681178108
:102030000E94370C1F830E8381E001C080E0DF9196
:10204000CF911F910F9108950FB6F8940F92FC0154
:10205000828D0F900FBE08950FB6F8940F92FC0179
:10206000228D0F900FBE838D821B0895FC01828DFF
:1020700008950C94AB09FC01928D81E0911180E0F0
:102080000895FC01928D81E0238D291380E008954D
:10209000E091E806F091E9068081811103C08FEF9D
:1020A0009FEF0CC0E091E806F091E9060580F6810B
:1020B000E02D0680F781E02D828193819093C00608
:1020C0008093BF060895FF920F931F93CF93DF93E2
:1020D000EC01F62E0091C7061091C80680912907E1
:1020E00090912A0702960E94250ACF3F8FEFD807CA
:1020F00089F4FF2079F06091290770912A076E5FBB
:102100007F4F8AEC96E0DF91CF911F910F91FF9066
:102110000C94CC09C00FD11FE0912907F0912A0738
:10212000D383C2836091290770912A07C017D10712
:1021300068F48091E6069091E7066E5F7F4FDF912D
:10214000CF911F910F91FF900C94ED098091E806BB
:102150009091E9066E5F7F4F0E94ED098091BF0666
:102160009091C006C817D90720F4D093C006C09339
:10217000BF06DF91CF911F910F91FF90089580913D
:10218000D306882309F10FB6F8940F92E091D9068F
:10219000F091DA06C681D781CE0102960E94250A07
:1021A0008091C90681508093C9068091D3068150E1
:1021B0008093D3060F900FBE8F89988D0E94AB0934
:1021C000CE010E94AB09DBCF8091FC068230B8F2D1
:1021D0000E94210BD4CF4F925F926F927F928F9289
:1021E0009F92AF92BF92CF92DF92EF92FF920F93A6
:1021F0001F93CF93DF934C016B015A012901CA0150
:102200000E9479093C01892B09F4D5C088E290E04D
:102210000E947909EC01009789F0788E6F8A21E09D
:10222000A21AB1086A0C7B1CC114D104C9F0BC010C
:10223000675E7F4FF601C601089607C0C3010E9482
:10224000AB09B9C08E179F0749F09F014191DB018F
:102250004D93BD01D9012C912111F4CF18A201C0D9
:10226000198E053008F004E00E8B09A31AA26E0146
:10227000B2E0CB0ED11CC6010E94C809CE010C965B
:102280000E94C809D987C88785E090E0801B910922
:102290009D878C87DB8BCA8B1BA21CA21DA21EA252
:1022A0001FA2A201B401C3010E947E0A9983888300
:1022B000E114F10419F0F701D183C0830FB6F8944B
:1022C0000F928091C9068F5F8093C906809129077C
:1022D00090912A07892BC1F5D0932A07C09329072B
:1022E0008091C906813009F03FC00CEF16E089E209
:1022F000E82E87E0F82EC8010E94BA09075F1F4F39
:10230000E016F106C1F783EF96E00E94BA098AEE63
:1023100096E00E94BA098DED96E00E94BA0984ED1C
:1023200096E00E94BA098AEC96E00E94BA0983EF0F
:1023300096E09093E9068093E8068AEE96E0909303
:10234000E7068093E60610C08091C50681110CC097
:10235000E0912907F0912A0796898E89891720F044
:10236000D0932A07C09329078091C1068F5F80937D
:10237000C1068E899091C606981710F48093C60600
:10238000F9E08F9FC0011124B6018450994F0E943B
:10239000CC090F900FBE8091C506882351F0E091C3
:1023A0002907F0912A0796898E89981710F40E94C0
:1023B000210B81E001C08FEFDF91CF911F910F9131
:1023C000FF90EF90DF90CF90BF90AF909F908F9055
:1023D0007F906F905F904F9008950F931F93CF93CE
:1023E000DF93EC010FB6F8940F92892B21F4C09182
:1023F0002907D0912A078E010E5F1F4FC8010E9446
:10240000250A8C899D89892B21F0CE010C960E948A
:10241000250A8091C1068F5F8093C10680912907AC
:1024200090912A07C817D90759F4B80184ED96E0AE
:102430000E94CC098091D3068F5F8093D3060EC093
:102440008091C90681508093C9068F89988D0E941A
:10245000AB09CE010E94AB090E9448100F900FBE3D
:102460008091C506882349F08091290790912A0719
:10247000C817D90711F40E94210BDF91CF911F914A
:102480000F9108950F931F93CF93DF932091290706
:1024900030912A0782179307B9F10097A9F10FB677
:1024A000F8940F92FC01228533852A5C364051F561
:1024B000FC0124893589F6E02D3D3F0719F1232BD6
:1024C00009F5EC018C010E5F1F4FC8010E94250A1F
:1024D0008E899091C606981710F48093C60629E05D
:1024E000829FC0011124B8018450994F0E94CC09E9
:1024F000E0912907F0912A079E898689981710F0A4
:102500000E94210B0F900FBEDF91CF911F910F9171
:102510000895EF92FF921F93CF93DF93EC018A858A
:102520009B858A5C964099F48C899D8926E08D3D37
:10253000920769F0892B59F48091BC06882349F0F1
:10254000BE01645F7F4F8DED96E00E94CC0910E0E4
:1025500021C0E0912907F0912A0711E09E89868920
:10256000981708F410E07E0182E0E80EF11CC70124
:102570000E94250A8E899091C606981710F48093C0
:10258000C60629E0829FC0011124B7018450994FEB
:102590000E94CC09812FDF91CF911F91FF90EF9086
:1025A0000895EF92FF920F938DEBE82E86E0F82EC0
:1025B00000E020E030E045E550E06AEC70E08FEBB1
:1025C00090E10E94EB10813091F4F8942FEF3FEFEF
:1025D0003093C0062093BF068093C5061092C806AC
:1025E0001092C7060F91FF90EF900C94EA0A0F919A
:1025F000FF90EF900895F8941092C5060C94200B6C
:102600008091BC068F5F8093BC0608950FB6F89446
:102610000F928091C7069091C8060F900FBE089543
:102620008091C7069091C80608958091C9060895C3
:10263000009721F48091290790912A0749960895DF
:10264000CF92DF92EF92FF920F931F93CF93DF937E
:102650008091BC0681118CC00091C7061091C806FC
:102660000F5F1F4F1093C8060093C7060115110591
:10267000B9F48091E8069091E9062091E606309140
:10268000E7063093E9062093E8069093E7068093E7
:10269000E6068091C2068F5F8093C2060E944810B2
:1026A0008091BF069091C006C0E00817190708F492
:1026B0004FC0D9E0E091E806F091E90680818111F0
:1026C00003C08FEF9FEF11C0E091E806F091E9069B
:1026D0000580F681E02DE680F780D70112968D9176
:1026E0009C9113970817190728F49093C0068093BC
:1026F000BF062EC06701B2E0CB0ED11CC6010E94FE
:10270000250AF70184899589892B21F0C7010C9648
:102710000E94250AD70156968C919091C60698176B
:1027200010F48093C606D89FC0011124B6018450CE
:10273000994F0E94CC09E0912907F0912A07D7010F
:1027400056969C918689981708F4B4CFC1E0B2CF11
:10275000E0912907F0912A07E689B9E0EB9FF001A3
:102760001124E450F94F8081823040F0C1E006C06E
:102770008091C4068F5F8093C406C0E08091C30639
:102780008111C1E08C2FDF91CF911F910F91FF90AC
:10279000EF90DF90CF900895EF92FF920F931F93E9
:1027A000CF93DF930FB6F8940F928091BC068150BF
:1027B0008093BC068091BC06882311F080E052C053
:1027C0008091C9068823D1F3C0E0D0E089E0F82EDB
:1027D000EE24E3948091DD06882351F1E091E20636
:1027E000F091E306C681D781CE010C960E94250A9E
:1027F0008E010E5F1F4FC8010E94250A8E8990919D
:10280000C606981710F48093C606F89EC0011124DE
:10281000B8018450994F0E94CC09E0912907F091AA
:102820002A079E8986899817A8F2E092C306D2CF1C
:10283000CD2B11F00E944810C091C406CC2351F05A
:10284000D1E00E9420138111D093C306C150C9F773
:102850001092C4068091C306882309F4AFCF0E946A
:10286000210B81E00F900FBEDF91CF911F910F914F
:10287000FF90EF9008950F931F93CF93DF938C01F8
:10288000EB010E9400134091C7065091C806F80161
:1028900020813181C9018C0F9D1F4217530720F4FD
:1028A0008217930740F403C08217930730F021E0AA
:1028B0004817590718F020E001C021E0F801918382
:1028C0008083222329F060E0841B950B0E94631013
:1028D0000E94CC13811102C00E94210BDF91CF9185
:1028E0001F910F910895CF93DF93EC01892B19F479
:1028F0000E94210B0AC00E94001360E0CE010E94DA
:1029000063100E94CC13882399F3DF91CF9108952F
:102910008091BC06882321F081E08093C30608954E
:102920001092C3068091C60669E0482F50E0649F6C
:102930009001659F300D1124F901E450F94F908109
:10294000911102C08150F1CFA181B28112960D90F8
:10295000BC91A02DB283A1832150394FA217B30798
:1029600031F412962D913C9113973283218399E093
:10297000949FF001959FF00D1124E450F94F0180D0
:10298000F281E02D2681378130932A072093290791
:102990008093C60608950F931F93CF93DF93EC01A6
:1029A0000FB6F8940F92892B21F4C0912907D0918A
:1029B0002A078E010E5F1F4FC8010E94250A8C89CD
:1029C0009D89892B21F0CE010C960E94250AB80121
:1029D0008AEC96E00E94CC098FA1813009F41FA2F5
:1029E0000F900FBE8091C506882339F00FB6F8947A
:1029F0000F920E9448100F900FBE8091290790916E
:102A00002A07C817D907C1F48091C506882319F091
:102A10000E94210B11C09091CA068091C90698139B
:102A200005C010922A071092290706C0DF91CF91A6
:102A30001F910F910C948814DF91CF911F910F91EA
:102A40000895CF93DF93EB016091290770912A07D6
:102A5000645F7F4F0E94ED0961E0CE01DF91CF916D
:102A60000C946310CF93DF93EA01E0912907F09172
:102A70002A077068758764876091290770912A0713
:102A8000645F7F4F0E94CC0961E0CE01DF91CF915E
:102A90000C9463100F931F93CF93DF93DC01159673
:102AA000ED91FC911697C681D7818E01045F1F4F6F
:102AB000C8010E94250A8091BC06811114C00A50E9
:102AC0001109C8010E94250A8E899091C60698179F
:102AD00010F48093C606B9E08B9FC0011124B801A1
:102AE0008450994F03C0B8018DED96E00E94CC0947
:102AF000E0912907F0912A079E898689891720F499
:102B000081E08093C30601C080E0DF91CF911F91E7
:102B10000F9108950F931F93CF93DF937068FC017B
:102B200071836083C681D7810E94250A8E010E5F62
:102B30001F4FC8010E94250A8E899091C6069817DA
:102B400010F48093C606F9E08F9FC0011124B801EC
:102B50008450994F0E94CC09E0912907F0912A07EF
:102B60009E898689891718F481E08093C306DF91D6
:102B7000CF911F910F9108950FB6F8940F92209165
:102B8000C206FC0120832091C7063091C80632831B
:102B900021830F900FBE08952091C206FC0120836F
:102BA0002091C7063091C806328321830895CF93C0
:102BB000DF930FB6F8940F924091C7065091C80664
:102BC000DB012D913C912F3FBFEF3B07D9F0EC018A
:102BD000E981FA81A091C206B881BA1719F04E179F
:102BE0005F0790F44E1B5F0BFB014217530738F44D
:102BF000241B350B318320830E94CC1503C0118226
:102C0000108202C080E001C081E00F900FBEDF9112
:102C1000CF91089581E08093C3060895809129079C
:102C200090912A0708950F931F93CF93DF93FC0190
:102C3000892B09F455C08689A0912907B0912A07EC
:102C400056969C91891708F041C02485358537FD3B
:102C50000CC0A0912907B0912A0756969C9125E0B7
:102C600030E0291B31093587248729E0829FC00184
:102C700011248450994F2285338528173907E9F4A8
:102C80008F01EF012296CE010E94250AE0912907CB
:102C9000F0912A078689F801868B9091C6069817CD
:102CA00010F48093C606F9E08F9FC0011124BE0185
:102CB0008450994F0E94CC0907C0A0912907B09178
:102CC0002A0756968C91868B81E00BC0A09129072C
:102CD000B0912A0781E021A156969C91291708F00E
:102CE00080E0DF91CF911F910F9108950F931F9373
:102CF000CF93DF93FC01892B11F480E02CC082A1DB
:102D0000815082A3268991A12917B9F38111F5CFAA
:102D1000EF018F010E5F1F4FC8010E94250A89A194
:102D20008E8B482F50E025E030E0241B350B3D878B
:102D30002C879091C606981710F48093C60629E058
:102D4000249FC001259F900D1124B8018450994FF4
:102D50000E94CC0981E0DF91CF911F910F910895DE
:102D60000F931F93CF93DF93FC01892BD9F191A18E
:102D7000961708F4962F86898917A1F122A1213090
:102D800089F5968B2485358537FD06C025E030E032
:102D9000291B31093587248729E0829FC00111242E
:102DA0008450994F2285338528173907D9F4EF01CC
:102DB0008F010E5F1F4FC8010E94250A8E899091D6
:102DC000C606981710F48093C60629E0829FC001BA
:102DD0001124B8018450994FDF91CF911F910F9129
:102DE0000C94CC09DF91CF911F910F910895E09140
:102DF0002907F0912A0784859585E0912907F091AC
:102E00002A07A0912907B0912A0756964C9125E0F0
:102E100030E0241B310935872487089580912907E4
:102E200090912A07892B39F0E0912907F0912A0720
:102E300082A18F5F82A38091290790912A0708952C
:102E40000F931F93182FCB010FB6F8940F92E091B8
:102E50002907F0912A0743A154A165A176A1452B2A
:102E6000462B472B69F4E0912907F0912A0721E0CE
:102E700027A3009729F061E00E9463100E94210BB4
:102E80000F900FBE0FB6F8940F92E0912907F091C2
:102E90002A0763A174A185A196A161157105810519
:102EA0009105A9F0E0912907F0912A07112329F053
:102EB00013A214A215A216A20AC08B019C010150F4
:102EC00011092109310903A314A325A336A3E09115
:102ED0002907F0912A0717A20F900FBE1F910F919B
:102EE00008954F925F926F927F928F929F92AF92CE
:102EF000BF92EF92FF920F931F9349015A010FB6B1
:102F0000F8940F92E0912907F0912A0727A1223027
:102F100039F1E0912907F0912A0723A134A145A1B5
:102F200056A12B013C014094509460947094D301BD
:102F3000C20182239323A423B52383A394A3A5A32F
:102F4000B6A3E0912907F0912A0781E087A3E11455
:102F5000F10431F061E0C7010E9463100E94210B6F
:102F60000F900FBE0FB6F8940F920115110569F07E
:102F7000E0912907F0912A0783A194A1A5A1B6A108
:102F8000F80180839183A283B383E0912907F091B4
:102F90002A0787A18230C1F4E0912907F0912A071E
:102FA00043A154A165A176A1D501C4018095909556
:102FB000A095B09584239523A623B72383A394A338
:102FC000A5A3B6A381E001C080E0E0912907F091BC
:102FD0002A0717A20F900FBE1F910F91FF90EF903D
:102FE000BF90AF909F908F907F906F905F904F9029
:102FF00008950F931F93CF93DF93FC010FB6F894BE
:103000000F920115110549F083A194A1A5A1B6A1C4
:10301000E80188839983AA83BB8337A182E087A3D1
:10302000223089F058F4213001F583A194A1A5A1A3
:10303000B6A1482B592B6A2B7B2B13C0233089F068
:10304000243069F012C083A194A1A5A1B6A1019674
:10305000A11DB11D83A394A3A5A3B6A306C03230BE
:1030600049F143A354A365A376A3313009F5EF01D9
:103070008F010E5F1F4FC8010E94250A8E89909113
:10308000C606981710F48093C60629E0829FC001F7
:103090001124B8018450994F0E94CC09E09129076E
:1030A000F0912A079E898689891710F40E94210BC6
:1030B00081E001C080E00F900FBEDF91CF911F91A2
:1030C0000F910895EF92FF920F931F93CF93DF9389
:1030D000FC010115110549F083A194A1A5A1B6A198
:1030E000E80188839983AA83BB8337A182E087A301
:1030F000223089F058F4213001F583A194A1A5A1D3
:10310000B6A1482B592B6A2B7B2B13C0233089F097
:10311000243069F012C083A194A1A5A1B6A10196A3
:10312000A11DB11D83A394A3A5A3B6A306C03230ED
:10313000D9F143A354A365A376A3313011F081E004
:1031400034C0EF018091BC06811115C08F010E5F64
:103150001F4FC8010E94250A8E899091C6069817B4
:1031600010F48093C606E9E08E9FC0011124B801D7
:103170008450994F05C0BF01645F7F4F8DED96E08D
:103180000E94CC09E0912907F0912A079E8986893F
:103190008917A8F6E114F10419F081E0E7018883AA
:1031A00081E08093C30601C080E0DF91CF911F9141
:1031B0000F91FF90EF900895EF92FF920F931F935E
:1031C000CF93DF93FC0127A182E087A383A194A181
:1031D000A5A1B6A10196A11DB11D83A394A3A5A38A
:1031E000B6A32130A1F58B01EF018091BC068111BE
:1031F00016C07F0122E0E20EF11CC7010E94250AE1
:103200008E899091C606981710F48093C606E9E05F
:103210008E9FC0011124B7018450994F05C0BF0192
:10322000645F7F4F8DED96E00E94CC09E091290705
:10323000F0912A079E898689891748F4011511059E
:1032400019F081E0F801808381E08093C306DF916B
:10325000CF911F910F91FF90EF900895009721F467
:103260008091290790912A070FB6F8940F92FC01DC
:1032700027A1223019F417A281E001C080E00F904D
:103280000FBE0895991B79E004C0991F961708F0A6
:10329000961B881F7A95C9F780950895AA1BBB1BBA
:1032A00051E107C0AA1FBB1FA617B70710F0A61B46
:1032B000B70B881F991F5A95A9F780959095BC0167
:1032C000CD01089597FB072E16F4009407D077FDE3
:1032D00009D00E944E1907FC05D03EF490958195C7
:1032E0009F4F0895709561957F4F0895FB01DC0114
:1032F00002C001900D9241505040D8F70895F894C3
:02330000FFCFFD
:103302000A313233413435365E373839762A303C29
:103312003E414D00504D006D696E757465730068D5
:103322006F75727300414C41524D003F3D000000E9
:10333200040A150404040E111F11111B15110000BB
:10334200110E1517110E7365636F6E6473004B5087
:10335200445F636865636B00456E746572207479BF
:1033620070696E67206D6F64650049444C450000CA
:00000001FF
