:100000000C9434000C94C2070C94EB070C94140865
:100010000C9451000C9451000C9451000C94C90F95
:100020000C9451000C9451000C9451000C9451000C
:100030000C9451000C9451000C9451000C945100FC
:100040000C9451000C9451000C9451000C945100EC
:100050000C945100741F741F741FB31F9E1FAD1F9B
:10006000741F741FB31F9E1F11241FBECFE5D8E05D
:10007000DEBFCDBF10E0A0E6B0E0E0EEF0E402C0ED
:1000800005900D92A03FB107D9F727E0A0EFB0E0AF
:1000900001C01D92A838B207E1F70E94340E0C94FB
:1000A0006E200C940000089520E040E050E060E0F5
:1000B00070E080917A0790917B070C94E910CF93C0
:1000C000DF9300D0CDB7DEB70E941917609105010C
:1000D00048E354E0649F9001659F300D1124821B1A
:1000E000930B9A83898382E00E94630A8AE30E94C9
:1000F0001B0A1CE06AE070E080917A0790917B0710
:100100000E947D12882329F180E00E94630A809179
:100110000401612F0E94F21F81E0890F0E94E60A0C
:1001200086E00E94630A80910301811103C081E788
:1001300090E002C084E790E00E94250A20E040E0C1
:1001400050E060E070E080917A0790917B070E9418
:10015000E91060E27DEFCE0101960E944E18809179
:1001600004018F5F8C3031F4909103019F5F917097
:1001700090930301612F0E94F21F90930401BACF64
:10018000CF93DF9300D0CDB7DEB70E9419179A83C3
:10019000898382E00E94630A8AE30E941B0A1CE3AF
:1001A0008091FE0080FF21C09091040180910101A7
:1001B00098131BC09091050180910201981315C0FE
:1001C000909103018091000198130FC088EFE82EF1
:1001D00080E0F82E05E020E030E042E350E069E8FE
:1001E00070E08FEE94E00E94FA146AE070E0809173
:1001F0007A0790917B070E947D128823F1F083E0BB
:100200000E94630A809105010E94E60A89E00E942B
:10021000630A8091FE0080FF02C080E001C080E29E
:100220000E941B0A20E040E050E060E070E0809116
:100230007A0790917B070E94E91068E374E0CE0191
:1002400001960E944E18809105018F5F612F0E94D8
:10025000F21F90930501A4CF80E090E00E94DE1889
:1002600082E00E94AC0B80E00E94B30B82E090E041
:100270000E94861880E00E94AC0BEECF80E090E0F8
:100280000E94DE18C0E08C2F869590E080519F4F31
:100290000E94452090E0C0FBEE24E0F8F12C97018D
:1002A000220F331F220F331F02C0959587952A9581
:1002B000E2F7D82FDF70DE3061F0DF3069F0877051
:1002C0000E94AC0B8D2F8695869586950E94B30B68
:1002D00005C005E010E002C002E010E0C8010E9485
:1002E0008618CF5FCF71CFCF0E94440A80E00E9472
:1002F000630A809104016CE00E94F21F81E0890F83
:100300000E94E60A82E00E94630A8AE30E941B0AB6
:10031000809105016CE30E94F21F892F0E94E60A7A
:1003200086E00E94630A80910301811103C081E786
:1003300090E002C084E790E00E94250A89E00E94D4
:10034000630A8091FE0080FF02C080E001C080E26D
:100350000E941B0A8EE00E94630A809106010C94A1
:10036000E60ACF93DF9300D0CDB7DEB70E9419170E
:100370009A8389831CE36AE070E080917A07909108
:100380007B070E947D12882391F08EE00E94630A11
:10039000809106010E94E60A20E040E050E060E023
:1003A00070E080917A0790917B070E94E91062E1EA
:1003B00070E0CE0101960E944E18809106018F5F79
:1003C000612F0E94F21F90930601D5CF209160000B
:1003D000822F90E0019663E070E00E941220892B4A
:1003E00061F481E0820F0E94630A80E20E941B0A8E
:1003F000809160008F5F80936000809160008F5FCC
:10040000873119F08093600005C080E1809360001F
:100410000E94630A81E00C941B0A20916000822FE5
:1004200090E0019763E070E00E941220892B61F454
:100430008FEF820F0E94630A80E20E941B0A809164
:1004400060008150809360008091600081508E3008
:1004500019F08093600005C086E1809360000E94DF
:10046000630A809160000E94630A81E00C941B0A79
:10047000CF93DF93209160002631D9F4EC0188817D
:100480008F5F8170888386E00E94630A8881811172
:1004900003C081E790E002C084E790E00E94250A53
:1004A000809160000E94630A81E0DF91CF910C94FB
:1004B0001B0ADF91CF910895CF93DF93EC01E62FD4
:1004C000D901809160008131F9F068F4803109F040
:1004D0004AC08881880F8056982F990F990F282F2E
:1004E000290FDA0127C08331E9F08431E1F58C91DD
:1004F0006AE00E94F21F880F982F990F990F890FB9
:1005000080539881890F1DC0DA018C916AE00E94A6
:10051000F21F98819153BAE08B9F900D1124892F7F
:10052000DA010FC08881880F8056982F990F990F94
:10053000282F290F8C916AE00E94F21F920F9C9342
:1005400001C08C9381E090E002C0880F991FEA956A
:10055000E2F72091FE003091FF00822B932B9093C5
:10056000FF008093FE008091600080510E94630A2A
:1005700080916000863119F088810E941B0A809169
:1005800060008F5F0E94630A20916000822F90E0DC
:10059000019663E070E00E941220892B61F481E0F3
:1005A000820F0E94630A80E20E941B0A8091600011
:1005B0008F5F80936000809160008F5F873119F0BA
:1005C0008093600005C080E1809360000E94630A10
:1005D00081E0DF91CF910C941B0ACF93DF93CDB7CD
:1005E000DEB761970FB6F894DEBF0FBECDBF8FEFB9
:1005F000898B80E090E00E94DE18CE0101960E9477
:10060000A508898B8F3FC9F18091F0009091F1008E
:100610000E945116809160000E94630A80E20E944D
:100620001B0A89898E3339F08E3541F08C3391F471
:100630000E940D0222C00E94E6011FC08091FE00B0
:1006400081FD03C083E091E002C080E091E00E9460
:10065000380213C08091FE0081FD06C025E031E024
:1006600044E051E068E005C022E031E041E051E0C3
:1006700069E0CE0141960E945C0286E090E00E9413
:100680008618BBCFEF92FF920F9320E040E050E03E
:1006900060E070E080917A0790917B070E94E910FA
:1006A00080E10E94630A0E947401809160000E94B0
:1006B000630A80E20E941B0A80E1809360008091BF
:1006C000FE009091FF0090FF32C08091FC0090915D
:1006D000FD00009731F00E94FC151092FD00109271
:1006E000FC009CEFE92E90E0F92E02E020E030E0E3
:1006F00046E450E067E770E080EC90E00E94FA1476
:100700008091FA009091FB00009731F00E94FC1557
:100710001092FB001092FA008091FE009091FF0071
:100720009E7F9093FF008093FE00109206018AEF57
:10073000E82E80E0F82E03E020E030E046E450E0D0
:100740006FE770E08FE590E00E94FA140F91FF9040
:10075000EF9008956AE070E080917A0790917B07AE
:100760000E947D12882341F080E1809360000E9406
:10077000630A81E00C941B0A08958091FE00909119
:10078000FF009C012078332780799927892B49F431
:100790000E94AA038091F4009091F5000E945116E6
:1007A0000AC0232B41F40E9442038091F4009091EF
:1007B000F5000E94DE188091FE009091FF0020E17C
:1007C00082279093FF008093FE0008956AE070E016
:1007D00080917A0790917B070E947D128823A9F16E
:1007E00080E1809360000E94630A81E00E941B0AFE
:1007F0008091FE009091FF0082609093FF008093B3
:10080000FE0080E00E94630A80E00E94E60A82E027
:100810000E94630A8AE30E941B0A80E00E94E60AA3
:1008200086E00E94630A80910001811103C081E784
:1008300090E002C084E790E00E94250A87E10E94D0
:10084000630A85E890E00C94250A08958091FE00E3
:100850009091FF0091FF05C081609093FF0080930D
:10086000FE008091FE009091FF009D7F9093FF001D
:100870008093FE000E94440A80E1809360000E9401
:10088000630A81E00E941B0A8091FE009091FF00A4
:100890008D7F9093FF008093FE000E94740120E002
:1008A00040E050E060E070E080917A0790917B0733
:1008B0000C94E91080E090E00E94DE1880917807A7
:1008C000909179070E94D71F8111F4CF8091F00099
:1008D0009091F1000E9451160E9419170AE010E051
:1008E00020E030E0AC0162E08091780790917907D8
:1008F0000E94251E80917E0790917F070E94D71F3E
:1009000081110DC00E94191720E030E0AC0162E0B7
:1009100080917E0790917F070E94251ECBCF0AE031
:1009200010E020E030E040E050E063E080917E079E
:1009300090917F070E94251E8091FE009091FF00FC
:100940009C012071332780799927892B49F40E94D3
:10095000E6038091F4009091F5000E9451160BC0BF
:10096000232B09F0A7CF0E9426048091F4009091D8
:10097000F5000E94DE188091FE009091FF008058E3
:100980009093FF008093FE0095CFCF93DF93D82FF5
:10099000C62F64E170E080917A0790917B070E94F6
:1009A0007D128823C9F00E94440A80E00E94630AF5
:1009B0008FE890E00E94250A81E08C0F0E94E60AF1
:1009C00087E00E94630A6C2F8D2F0E946F0780E1E1
:1009D000DF91CF910C94630ADF91CF910895CF936B
:1009E000DF93CDB7DEB760970FB6F894DEBF0FBECA
:1009F000CDBF8091FE009091FF0088609093FF0032
:100A00008093FE00C12C10E0EE24EA94F12C80913A
:100A10007C0790917D070E94D71F8111F8CF8091AC
:100A2000FE0083FF17C00E941917B7010E94FE1F26
:100A3000082FD82E0E941917682F6F73802F0E94DD
:100A4000C5048091FE009091FF00877F9093FF0086
:100A50008093FE00CE0101960E94A508082F809188
:100A6000FE0080FF51C080ED800F8A3078F4110FB6
:100A7000812F880F880F180F1053100F80E18C0DF5
:100A80000E94630A802F0E941B0AC39483E0C81649
:100A900019F0053409F04FC08091FE009091FF00DD
:100AA0001D1113C08E7F9093FF008093FE000E9463
:100AB000440A83E00E94630A8091F6009091F70057
:100AC0000E94DE1884E990E00CC088609093FF00DB
:100AD0008093FE000E94440A83E00E94630A82EA37
:100AE00090E00E94250A0E9419170AE010E020E019
:100AF00030E0AC0162E080917C0790917D070E941C
:100B0000251EC12C10E017C020E040E050E060E05E
:100B100070E080917A0790917B070E94E9100E9413
:100B200074018091F8009091F9000E94FC151092D8
:100B3000F9001092F80086E090E00E94861867CFD6
:100B40008091F2009091F3000E9498160E94140F79
:100B50000895EF92FF920F931F9381E00E947F11FF
:100B600090937B0780937A070DEB13E020E030E051
:100B700040E062E170E08FEA90E00E94EE1D909309
:100B80007F0780937E0703E510E021E030E040E03E
:100B900066E070E085EB90E00E94EE1D909379078F
:100BA0008093780704E510E022E030E040E066E35F
:100BB00070E08CEB90E00E94EE1D90937D07809397
:100BC0007C0784EFE82E80E0F82E04E020E030E09F
:100BD00045E550E063EC70E08DEE92E00E94FA147F
:100BE00092EFE92E90E0F92E05E020E030E045E5B7
:100BF00050E067EC70E08AE594E00E94FA1420EF80
:100C0000E22E20E0F22E04E020E030E042E350E06B
:100C100060ED70E08CE291E00E94FA1436EFE32E72
:100C200030E0F32E05E020E030E042E350E065EDF7
:100C300070E08EE391E00E94FA141F910F91FF90F3
:100C4000EF9008951ABA17BA14BA11BA08958032FB
:100C500008F06CC0623008F069C0982F97708695D4
:100C6000869586958230A1F1833009F448C08130A1
:100C7000B9F04AB321E030E0613039F401C0220F0D
:100C80009A95EAF7242B2ABB17C0B90102C0660F58
:100C9000771F9A95E2F7CB01809584238ABB0CC01D
:100CA00047B321E030E0611109C001C0220F9A95DD
:100CB000EAF72095242327BB80E00895B90102C0FC
:100CC000660F771F9A95E2F7CB01842B87BBF4CF91
:100CD00044B321E030E0613039F401C0220F9A952D
:100CE000EAF7242B24BBE8CFB90102C0660F771FB7
:100CF0009A95E2F7CB018095842384BBDDCF41B385
:100D000021E030E0613039F401C0220F9A95EAF712
:100D1000242B21BBD1CFB90102C0660F771F9A9552
:100D2000E2F7CB018095842381BBC6CF81E0089593
:100D3000803208F06CC0623008F069C0982F97705C
:100D40008695869586958230A1F1833009F448C056
:100D50008130B9F04BB321E030E0613039F401C0AB
:100D6000220F9A95EAF7242B2BBB17C0B90102C0BA
:100D7000660F771F9A95E2F7CB01809584238BBB92
:100D80000CC048B321E030E0611109C001C0220F5E
:100D90009A95EAF72095242328BB80E00895B901AD
:100DA00002C0660F771F9A95E2F7CB01842B88BBB0
:100DB000F4CF45B321E030E0613039F401C0220FB7
:100DC0009A95EAF7242B25BBE8CFB90102C0660F3C
:100DD000771F9A95E2F7CB018095842385BBDDCF01
:100DE00042B321E030E0613039F401C0220F9A951E
:100DF000EAF7242B22BBD1CFB90102C0660F771FBF
:100E00009A95E2F7CB018095842382BBC6CF81E01F
:100E10000895843078F4823041F0833049F0813095
:100E200011F06ABB03C067BB01C064BB80E00895DA
:100E300061BBFCCF81E00895843078F4823041F0CA
:100E4000833049F0813011F06BBB03C068BB01C037
:100E500065BB80E0089562BBFCCF81E00895FB0193
:100E60008032E0F4282F277086958695869582300B
:100E700041F0833041F0813011F089B305C086B371
:100E800003C083B301C080B390E002C095958795FD
:100E90002A95E2F78170808380E0089581E00895CB
:100EA000FB01843080F4823041F0833041F08130A6
:100EB00011F089B305C086B303C083B301C080B30A
:100EC000808380E0089581E008952AE0629FB00168
:100ED000112460597E4F4AE050E00C944D200F934E
:100EE0001F93CF93DF93182F2AE0629FE001112414
:100EF0008A3048F1843640F46AE00E94F21F192FCC
:100F00009E01280F311D18C00AE064E60E94F21FFE
:100F10009E01280F311DC90180599E4F0E94452016
:100F20000E941B0A812F602F0E94F21F192F0E941E
:100F3000F21F9E01290F311DC90180599E4F0E9449
:100F400045200E941B0ACE01810F911D80599E4FA2
:100F50000E944520DF91CF911F910F910C941B0AA5
:100F60000F931F93CF938C01C0E06C2FC8010E9498
:100F70006507CF5F055F1F4FC034B9F7CF911F9151
:100F80000F9108951F920F920FB60F9211242F9375
:100F90003F934F935F936F937F938F939F93AF9301
:100FA000BF93EF93FF93E0910701F0910801309711
:100FB00009F00995FF91EF91BF91AF919F918F91AA
:100FC0007F916F915F914F913F912F910F900FBE45
:100FD0000F901F9018951F920F920FB60F92112429
:100FE0002F933F934F935F936F937F938F939F9331
:100FF000AF93BF93EF93FF93E0910901F0910A0142
:10100000309709F00995FF91EF91BF91AF919F91B2
:101010008F917F916F915F914F913F912F910F90A1
:101020000FBE0F901F9018951F920F920FB60F9240
:1010300011242F933F934F935F936F937F938F93DD
:101040009F93AF93BF93EF93FF93E0910B01F091C8
:101050000C01309709F00995FF91EF91BF91AF9185
:101060009F918F917F916F915F914F913F912F91C0
:101070000F900FBE0F901F901895E82FF0E0EE0F25
:10108000FF1FE95FFE4F7183608308958FB780680B
:101090008FBF0895813039F018F0823039F008950B
:1010A0008BB7806405C08BB7806802C08BB7806245
:1010B0008BBF0895813039F018F0823039F00895EF
:1010C0008BB78F7B05C08BB78F7702C08BB78F7DB7
:1010D0008BBF08958130D1F018F0823071F10895FE
:1010E000611103C085B78C7F26C0633019F485B7C2
:1010F000836021C0623021F485B78E7F82601BC07F
:10110000613011F585B78D7F816015C0611103C015
:1011100085B7837F10C0633019F485B78C600BC02E
:10112000623021F485B78B7F886005C0613061F43F
:1011300085B7877F846085BF089584B7613011F4D7
:10114000806401C08F7B84BF08956F927F928F92DD
:101150009F92AF92BF92CF92DF92EF92FF920F9346
:101160001F93CF93DF931F92CDB7DEB77C01198217
:1011700000E817E066246A94912C77247394580150
:1011800060E0F80180810E94980684E8C82E87E01C
:10119000D82E812CBE016F5F7F4FF60181916F01C8
:1011A0000E942F072981882D890D90E0F701E80F13
:1011B000F91F213011F4108205C07082FC01EF5933
:1011C000FF4F6080F4E08F0E80E18812E3CF0F5F65
:1011D0001F4F61E0F50180810E9498069394F4E02E
:1011E0009F12CDCF862D0F90DF91CF911F910F9140
:1011F000FF90EF90DF90CF90BF90AF909F908F9037
:101200007F906F9008958130A1F138F0823009F419
:101210005BC0833009F483C008956FE080E00E94D2
:10122000090761E084E00E94980661E085E00E9481
:10123000980661E086E00E94980661E087E00E94DF
:10124000980687E08093840783E08093800786E098
:101250008093850782E08093810785E080938607ED
:1012600081E08093820784E0809387071092830750
:1012700008956FE081E00E94090761E08CE00E9420
:10128000980661E08DE00E94980661E08EE00E9481
:10129000980661E08FE00E9498068FE080938407B3
:1012A0008BE0809380078EE0809385078AE08093AF
:1012B00081078DE08093860789E0809382078CE028
:1012C0008093870788E055C06FE082E00E9409079D
:1012D00061E084E10E94980661E085E10E94980641
:1012E00061E086E10E94980661E087E10E9498062D
:1012F00087E18093840783E18093800786E1809370
:10130000850782E18093810785E18093860781E1EB
:101310008093820784E18093870780E12AC06FE091
:1013200083E00E94090761E08CE10E94980661E079
:101330008DE10E94980661E08EE10E94980661E0CE
:101340008FE10E9498068FE1809384078BE1809360
:1013500080078EE1809385078AE1809381078DE184
:101360008093860789E1809382078CE180938707C9
:1013700088E1809383070895E0E0DC012D91CD01A1
:10138000213029F4F0E0EF59FF4F80810895EF5F9D
:10139000E03199F78FEF0895CF93C82F60E08EE189
:1013A0000E9498066C2F617080E10E949806C1FB34
:1013B000662760F981E10E949806C2FB662760F902
:1013C00082E10E949806C3FB662760F983E10E94D0
:1013D0009806C4FB662760F984E10E949806C5FB65
:1013E000662760F985E10E949806C6FB662760F9CA
:1013F00086E10E9498066C2F661F6627661F87E1AC
:101400000E94980661E08DE10E9498068FEC97E0BB
:101410000197F1F700C0000060E08DE1CF910C94DE
:101420009806CF93C82F60E08FE10E9498068C2F1A
:10143000CF910C94CC09CF93C82F61E08FE10E942B
:1014400098068C2FCF910C94CC09EF92FF920F93BA
:101450001F93CF937C01C0E087010C0F111DF80191
:101460008081882359F0C03119F480EC0E94110A60
:10147000F80180810E941B0ACF5FEECFCF911F91B0
:101480000F91FF90EF90089581E00C94110A0F9353
:101490001F93CF938C01C0E0F801EC0FF11D808108
:1014A000882369F00E941B0A2FEF84E39CE02150FF
:1014B00080409040E1F700C00000CF5FEDCFCF91BA
:1014C0001F910F910895803110F4805801C080550C
:1014D0000C94110A0F931F93CF93DF938C01C0E0FC
:1014E0008C2F0E94630AD0E0F801ED0FF11D80817E
:1014F000882321F00E941B0ADF5FF6CF2FEF89E6D9
:1015000098E1215080409040E1F700C000000E9427
:10151000440ACF5FC53021F7DF91CF911F910F9122
:1015200008950F931F93CF93DF938C01862F880F1D
:10153000880F880F805C0E94110AE801085F1F4F26
:1015400089910E941B0AC017D107D1F780E8DF916B
:10155000CF911F910F910C94110ACF92DF92EF92CD
:10156000FF920F931F93CF93DF93EC0100E080E095
:1015700090E02AE0EAE0F0E0209771F0289F700107
:10158000299FF00C1124CE01BF010E94FE1F8E0D79
:101590009F1DEB010F5FF0CF10E02AE0E22EF12C4F
:1015A000C017D10750F4B7010E94FE1F6B01805D88
:1015B0000E941B0AC6012196F3CFDF91CF911F91A4
:1015C0000F91FF90EF90DF90CF900895CF936AE056
:1015D0000E94F21FC92F805D0E941B0A80E38C0FBE
:1015E000CF910C941B0A805D0C941B0ACF93DF9360
:1015F000CDB7DEB728970FB6F894DEBF0FBECDBFCC
:1016000048E050E060E070E0CE0101960E94352095
:1016100060E0CE0101960E94910A48E050E068E047
:1016200070E0CE0101960E94352061E0CE01019666
:101630000E94910A28960FB6F894DEBF0FBECDBF68
:10164000DF91CF91089561E08FE10E94270661E06C
:101650008EE10E94270661E08DE10E94270661E08D
:1016600080E10E94270661E081E10E94270661E097
:1016700082E10E94270661E083E10E94270661E083
:1016800084E10E94270661E085E10E94270661E06F
:1016900086E10E94270661E087E10E9427062FE786
:1016A00088E391E0215080409040E1F700C00000C5
:1016B0002FEF89EF90E0215080409040E1F700C08B
:1016C000000088E30E94110A25E82A95F1F700003E
:1016D0008CE00E94110A85E88A95F1F7000081E00C
:1016E0000E94110A8FE99FE00197F1F700C0000006
:1016F0000C94F60ACF93DF93EC018A30910510F435
:10170000805D23C08436910540F46AE070E00E9459
:10171000FE1FC82F80E3860F14C064E670E00E94AD
:10172000FE1F80E3860F0E941B0A2AE030E0CE01F4
:10173000B9010E94FE1FC82FCB01B9010E94FE1FF4
:10174000805D0E941B0A80E38C0F0E941B0ADF91C0
:10175000CF91089513BE0895811102C013BE08955C
:10176000886683BF08959AEA899F802D1124805B43
:101770008CBF08958F929F92AF92BF92CF92DF92CB
:10178000EF92FF92CF93DF934B015C01C0E0D0E07A
:10179000750164010C2E04C0F694E794D794C794A5
:1017A0000A94D2F78C2D87700E94AC0BC3FA88275D
:1017B00080F90E94B30B2496C032D10549F7DF911E
:1017C000CF91FF90EF90DF90CF90BF90AF909F9020
:1017D0008F900895CF93DF938BE090E00E94640D8B
:1017E000EC01009731F0FC0111921192CF010E949F
:1017F000A50DCE01DF91CF910895AF92BF92CF9208
:10180000DF92EF92FF920F931F93CF93DF936C01C0
:101810007B01B42EA22E0E941317F601C081D18144
:10182000CE018E219F21A11003C0892B21F43BC042
:10183000E816F906C1F5BB2041F0C70180959095E7
:101840008C239D23F6019183808300E010E00E94A9
:10185000DF17012B09F43DC0811102C00E94140F53
:101860000E94301B91FD1CC00FB6F8940F92F60138
:1018700080819181970128233923A11003C0232B54
:1018800021F40CC0E216F30649F4BB2039F0E094D1
:10189000F094E822F922F601F182E0820F900FBE67
:1018A000EC01DD2716C00115110589F2BB2019F0E6
:1018B00060E071E002C060E070E0A11074606E2929
:1018C0007F29A801C60102960E944519C0E0D0E018
:1018D000BECFCE01DF91CF911F910F91FF90EF907E
:1018E000DF90CF90BF90AF900895FC010FB6F894B1
:1018F0000F9280819181609570956823792371831F
:1019000060830F900FBE0895FC018081918108953E
:10191000CF92DF92EF92FF920F931F93CF93DF93BB
:101920008C01EB017C0185E0E80EF11C0E9413178D
:10193000D8011796ED91FC9118978D919C91119774
:10194000C82BD92BCD93DC93C0E0D0E0D8016D91AA
:101950007C911197EE15FF05E1F0D280C3802081C4
:101960003181C9019927AC014623572332FD03C0B9
:10197000452B21F40BC08417950741F430FF02C0BA
:10198000C82BD92B7260CF010E94B519ED2DFC2D0B
:10199000DDCFC095D0956C237D236D937C930E9401
:1019A000DF17F80180819181DF91CF911F910F9115
:1019B000FF90EF90DF90CF900895AF92BF92CF92BB
:1019C000DF92EF92FF920F931F93CF93DF937C01EF
:1019D000EB018A0169010E941317F701A080B18011
:1019E000BE01C7010E94880CCA29DB29CE018023D1
:1019F00091230817190769F4F70120813181C80183
:101A0000809590958223932391838083C12CD12C40
:101A100010C0C114D10451F0A601B8017560C7010E
:101A200002960E944519C0E0D0E003C0F701C081D2
:101A3000D1810E94DF17CD28F9F0811102C00E94E8
:101A4000140F0E94301B91FD15C00FB6F8940F9231
:101A5000F701808191819801282339230217130708
:101A600039F4A80140955095482359235183408368
:101A70000F900FBEEC01DD27CE01DF91CF911F91BA
:101A80000F91FF90EF90DF90CF90BF90AF900895AF
:101A9000CF93DF93EC010E9413178A81882339F0DA
:101AA00060E072E08F8198850E94B519F6CFCE0173
:101AB0000E94960DDF91CF910C94DF17BA010C9420
:101AC000880CBA010C94750CCF93DF93EC010E9443
:101AD000131780910D0190910E01892B31F482E151
:101AE00091E090930E0180930D0120910F013091B0
:101AF0001001C9018C0F9D1F8B3D45E0940770F4C8
:101B00002817390758F4C0910D01D0910E01C20F6A
:101B1000D31F9093100180930F0102C0C0E0D0E06A
:101B20000E94DF17CE01DF91CF91089508951092A2
:101B3000100110920F01089520910F0130911001B2
:101B40008BED95E0821B930B0895FC010396928325
:101B500081832FEF3FEF34832383968385839087A0
:101B6000878310820895FC01118610860895CF9313
:101B7000DF939C01FB01DC011196CD91DC91129762
:101B8000D383C2838C819D81958384838C819D8145
:101B9000DC0113967C936E9312977D836C8331875F
:101BA0002087F90180818F5F8083DF91CF91089535
:101BB0000F931F93CF93DF938C01FB018081918161
:101BC0008F3F2FEF920721F4E801AF81B8850EC057
:101BD000D801139612962D913C911397E9014881F3
:101BE00059818417950710F0D901F4CF12968D9181
:101BF0009C91139793838283EC01FD83EC83B583DF
:101C0000A4831396FC93EE93129711870087F80133
:101C100080818F5F8083DF91CF911F910F91089515
:101C2000CF93DF93FC01A085B185828193812481CC
:101C30003581EC013D832C83C481D5819B838A83CC
:101C400011968D919C911297E817F90721F412963D
:101C5000DC93CE931197118610868C9181508C93D2
:101C60008C91DF91CF910895EF92FF920F930E9494
:101C7000230B0E94440A0E94740180E00E94030921
:101C80000E94A90560EA75E080E00E943D0860E0DE
:101C90008AE10E94270661E08AE10E94980663E0DB
:101CA00080E00E946A080E94460880E00E944A087C
:101CB00061E08BE00E942706E12CF12C02E020E09D
:101CC00030E04CE350E06AED70E081EB91E00E947F
:101CD000FA140E94E01680E090E00F91FF90EF90E0
:101CE000089531E1FC013083319722E2208331975E
:101CF000A3E3A0833197608331977083319710827B
:101D0000319760E8608331971082319762E0608399
:101D1000319763E06083319764E06083319765E0D9
:101D20006083319766E06083319767E06083319725
:101D300068E06083319769E06083319760E1608398
:101D400031973083319732E13083319733E13083FB
:101D5000319734E13083319735E13083319736E183
:101D60003083319737E13083319738E130833197D1
:101D700039E13083319730E23083319731E230837B
:101D800031972083319723E2208331974083319725
:101D90005083319726E22083319727E220833197C1
:101DA00028E22083319729E22083319720E32083A2
:101DB000319721E32083869708958BE18BBD8FE1D6
:101DC0008ABD8BE08EBD89B7806189BFA0915A071B
:101DD000B0915B07CD91CDBFDD91DEBFFF91EF915B
:101DE000DF91CF91BF91AF919F918F917F916F9133
:101DF0005F914F913F912F911F910F91FF90EF9025
:101E0000DF90CF90BF90AF909F908F907F906F901A
:101E10005F904F903F902F901F900F900FBE0F90AC
:101E2000089581E0089508950F920FB6F8940F92E7
:101E30001F9211242F923F924F925F926F927F9246
:101E40008F929F92AF92BF92CF92DF92EF92FF92CA
:101E50000F931F932F933F934F935F936F937F93B2
:101E60008F939F93AF93BF93CF93DF93EF93FF93A2
:101E7000A0915A07B0915B070DB60D920EB60D9268
:101E80000E949B18A0915A07B0915B07CD91CDBFDE
:101E9000DD91DEBFFF91EF91DF91CF91BF91AF91C7
:101EA0009F918F917F916F915F914F913F912F9172
:101EB0001F910F91FF90EF90DF90CF90BF90AF9068
:101EC0009F908F907F906F905F904F903F902F905A
:101ED0001F900F900FBE0F9008950F920FB6F894B9
:101EE0000F921F9211242F923F924F925F926F9206
:101EF0007F928F929F92AF92BF92CF92DF92EF929A
:101F0000FF920F931F932F933F934F935F936F9382
:101F10007F938F939F93AF93BF93CF93DF93EF9371
:101F2000FF93A0915A07B0915B070DB60D920EB6C4
:101F30000D920E94331781110E949B18A0915A079D
:101F4000B0915B07CD91CDBFDD91DEBFFF91EF91E9
:101F5000DF91CF91BF91AF919F918F917F916F91C1
:101F60005F914F913F912F911F910F91FF90EF90B3
:101F7000DF90CF90BF90AF909F908F907F906F90A9
:101F80005F904F903F902F901F900F900FBE0F903B
:101F900008950E946D0F18950FB6F8940F92FC01EA
:101FA000928D0F900FBE81E0911180E008950F9304
:101FB0001F93CF93DF93EC01042F1A8D4C8D4111A9
:101FC0000BC088819981892BE9F58C819D810E94C4
:101FD000AF1A1D821C8237C050E0011115C08A81E2
:101FE0009B810E942C202C8D8A819B81820F911DC8
:101FF0009B838A832C813D818217930718F1888106
:1020000099819B838A831EC08E819F810E942C2090
:102010008C8D90E09195819591092E813F81280FBB
:10202000391F3F832E83488159812417350730F4A7
:102030002C813D81820F931F9F838E83023011F488
:102040001111115080E01F5F1A8FDF91CF911F9106
:102050000F910895FC01CB01448D4423A1F050E081
:1020600026813781240F351F37832683648175814C
:102070002617370720F02081318137832683668138
:1020800077810C942C200895EF92FF921F93CF93A9
:10209000DF93EC010FB6F8940F921E8D7C0181E165
:1020A000E80EF11C11165CF48989882341F0C70100
:1020B0000E94751981110E94351A1150F3CF8FEFCC
:1020C0008E8F0F900FBE0FB6F8940F921D8D7E016C
:1020D00088E0E80EF11C11165CF48885882341F035
:1020E000C7010E94751981110E94351A1150F3CF52
:1020F0008FEF8D8F0F900FBEDF91CF911F91FF90CB
:10210000EF900895CF93DF93EC010FB6F8940F9200
:10211000488159818B8D7C8D9A01879F200D311DBF
:1021200011243D832C831A8E5B834A8390E00197B0
:10213000789F9001799F300D1124CA01820F931F5F
:102140009F838E838FEF8D8F8E8F61110CC088855A
:10215000882389F0CE0108960E947519882359F0CA
:102160000E94140F08C0CE0108960E94A50DCE0152
:1021700041960E94A50D0F900FBE81E0DF91CF9197
:1021800008950F931F93CF93DF93082F162F662385
:1021900021F0869FC001112402C080E090E04F969C
:1021A0000E94640DEC01009771F0111103C0998336
:1021B000888303C04F96998388830B8F1C8F61E0BF
:1021C000CE010E948210CE01DF91CF911F910F911D
:1021D0000895AF92BF92CF92DF92FF920F931F9319
:1021E000CF93DF9300D000D01F92CDB7DEB78C0124
:1021F0006B015D834C83F22E80E0580198E0A90EBC
:10220000B11C0FB6F8940F92F801228D938D291707
:1022100018F0F2E0FF1214C04F2DB601C8010E9461
:10222000D70FF8019189992321F0C80141960E94A6
:10223000751981110E94140F0F900FBE81E050C0DC
:102240002C813D81232B19F40F900FBE48C08111C2
:1022500004C0CE0101960E94F7190F900FBE0E9494
:1022600013170FB6F8940F92F801858D8F3F09F47C
:10227000158EF801868D8F3F09F4168E0F900FBED4
:10228000BE016C5F7F4FCE0101960E94021A811140
:1022900021C00FB6F8940F92F801928D0F900FBEE7
:1022A000838D981311C06C817D81C5010E94341902
:1022B000C8010E9444100E94DF17882311F081E0BA
:1022C000A0CF0E94140FFBCFC8010E9444100E94AF
:1022D000DF17F5CFC8010E9444100E94DF1780E08D
:1022E0000F900F900F900F900F90DF91CF911F9153
:1022F0000F91FF90DF90CF90BF90AF900895CF9354
:10230000DF93482F60E081E00E94C110EC0100974C
:1023100061F01D821C82198218821E8220E040E03A
:1023200050E060E070E00E94E910CE01DF91CF91B3
:102330000895EF92FF921F93CF93DF93EC019A8D54
:102340008B8D981710F02230E1F47A011E8D422F08
:10235000CE010E94D70F1F3F81F48989882379F02D
:10236000CE0141960E947519882349F0E114F104C9
:1023700031F081E0F701808305C01F5F1E8F81E08F
:1023800001C080E0DF91CF911F91FF90EF90089501
:10239000CF93DF93FC01928D838D9817C0F4868DC7
:1023A0009F5F928F8F3F79F48189882371F0EB01D1
:1023B000CF0141960E947519882339F0209729F0A2
:1023C00081E0888305C08F5F868F81E001C080E057
:1023D000DF91CF910895AF92BF92CF92DF92FF929B
:1023E0000F931F93CF93DF9300D000D01F92CDB7F0
:1023F000DEB78C016B015D834C8380E0580191E175
:10240000A90EB11C0FB6F8940F92F801F28CFF20C0
:10241000A9F0B601C8010E942A10FA94F801F28EC0
:102420008085882339F0C80108960E9475198111AA
:102430000E94140F0F900FBE81E050C02C813D818F
:10244000232B19F40F900FBE48C0811104C0CE0198
:1024500001960E94F7190F900FBE0E9413170FB636
:10246000F8940F92F801858D8F3F09F4158EF801CD
:10247000868D8F3F09F4168E0F900FBEBE016C5FE4
:102480007F4FCE0101960E94021A81111CC0C80123
:102490000E94CC0F882389F06C817D81C5010E9448
:1024A0003419C8010E9444100E94DF17882311F0DC
:1024B00081E0A8CF0E94140FFBCFC8010E944410F6
:1024C0000E94DF17F5CFC8010E9444100E94DF1759
:1024D000C8010E94CC0F882359F380E00F900F9021
:1024E0000F900F900F90DF91CF911F910F91FF9060
:1024F000DF90CF90BF90AF900895CF92DF92FF9280
:102500000F931F93CF93DF9300D000D01F92CDB7CE
:10251000DEB78C017D836C83F12C90E0680181E152
:10252000C80ED11C0FB6F8940F92D8015A968C9110
:102530005A978823E9F081505A968C935A978D9137
:102540009C91892B29F40E94471BF8019583848371
:10255000D80118968C91882339F0C80108960E94FA
:10256000751981110E94140F0F900FBE81E07AC07F
:102570002C813D81232B09F472C0911104C0CE013E
:1025800001960E94F7190F900FBE0E9413170FB605
:10259000F8940F92F801858D8F3F09F4158ED801BC
:1025A0005E968C915E978F3F11F45E961C920F9011
:1025B0000FBEBE016C5F7F4FCE0101960E94021AD2
:1025C00081112BC0C8010E94CC0F882301F1F801B2
:1025D00080819181892B51F40FB6F8940F928481F8
:1025E00095810E944C1AF82E0F900FBE6C817D8150
:1025F000C6010E943419C8010E9444100E94DF17CE
:10260000882311F091E08ECF0E94140FFBCFC801F8
:102610000E9444100E94DF17F5CFC8010E944410A9
:102620000E94DF17C8010E94CC0F882359F3FF20B6
:10263000C1F00FB6F8940F92F8018189882339F020
:102640000688F789E02D808165E0681B01C060E0A5
:10265000D80114968D919C9115970E94E91A0F90BC
:102660000FBE80E00F900F900F900F900F90DF91B2
:10267000CF911F910F91FF90DF90CF900895CF924F
:10268000DF92EF92FF920F931F93CF93DF9300D0CF
:1026900000D01F92CDB7DEB78C017B015D834C83E8
:1026A00080E0680191E1C90ED11C0FB6F8940F9239
:1026B000F801928D9923B9F0C680D780B701C8017F
:1026C0000E942A10F801D782C6828189882339F0B6
:1026D000C80141960E94751981110E94140F0F9034
:1026E0000FBE81E050C02C813D81232B19F40F9047
:1026F0000FBE48C0811104C0CE0101960E94F71997
:102700000F900FBE0E9413170FB6F8940F92F801A6
:10271000858D8F3F09F4158EF801868D8F3F09F462
:10272000168E0F900FBEBE016C5F7F4FCE010196DB
:102730000E94021A81111CC0C8010E94CC0F88237C
:1027400089F06C817D81C6010E943419C8010E9404
:1027500044100E94DF17882311F081E0A6CF0E9469
:10276000140FFBCFC8010E9444100E94DF17F5CF61
:10277000C8010E9444100E94DF17C8010E94CC0FBC
:10278000882359F380E00F900F900F900F900F90D7
:10279000DF91CF911F910F91FF90EF90DF90CF903D
:1027A0000895EF92FF920F931F93CF93DF93FC0155
:1027B000028D0023E9F07A01EC01158D0E942A10A8
:1027C00001500A8F1F3F81F48885882379F0CE015C
:1027D00008960E947519882349F0E114F10431F03C
:1027E00081E0F701808305C01F5F1D8F81E001C07C
:1027F00080E0DF91CF911F910F91FF90EF900895AE
:102800000F931F93CF93DF93FC01228D222349F076
:10281000EC01068117810E942A101F830E8381E03C
:1028200001C080E0DF91CF911F910F9108950FB605
:10283000F8940F92FC01828D0F900FBE08950FB691
:10284000F8940F92FC01228D0F900FBE838D821B96
:102850000895FC01828D08950C94960DFC01928DD3
:1028600081E0911180E00895FC01928D81E0238D3B
:10287000291380E00895CF93DF93EC010FB6F8940D
:102880000F928D8D8F3F09F41D8E8E8D8F3F09F431
:102890001E8E0F900FBE8A8D811104C0CE0141960D
:1028A0000E945D19CE01DF91CF910C944410E0910C
:1028B0001907F0911A078081811103C08FEF9FEFF4
:1028C0000CC0E0911907F0911A070580F681E02D00
:1028D0000680F781E02D828193819093F1068093A9
:1028E000F0060895FF920F931F93CF93DF93EC01AF
:1028F000F62E0091F8061091F90680915A079091F2
:102900005B0702960E94100ECF3F8FEFD80789F425
:10291000FF2079F060915A0770915B076E5F7F4FDF
:102920008BEF96E0DF91CF911F910F91FF900C9468
:10293000B70DC00FD11FE0915A07F0915B07D38309
:10294000C28360915A0770915B07C017D10768F482
:1029500080911707909118076E5F7F4FDF91CF919D
:102960001F910F91FF900C94D80D809119079091B1
:102970001A076E5F7F4F0E94D80D8091F0069091EC
:10298000F106C817D90720F4D093F106C093F006DA
:10299000DF91CF911F910F91FF90089580910407CF
:1029A000882309F10FB6F8940F92E0910A07F0918D
:1029B0000B07C681D781CE0102960E94100E80912E
:1029C000FA0681508093FA06809104078150809323
:1029D00004070F900FBE8F89988D0E94960DCE012F
:1029E0000E94960DDBCF80912D078230B8F20E94B5
:1029F000140FD4CF4F925F926F927F928F929F92DB
:102A0000AF92BF92CF92DF92EF92FF920F931F93FC
:102A1000CF93DF934C016B015A012901CA010E9437
:102A2000640D3C01892B09F4D5C088E290E00E9436
:102A3000640DEC01009789F0788E6F8A21E0A21A6C
:102A4000B1086A0C7B1CC114D104C9F0BC01675EDB
:102A50007F4FF601C601089607C0C3010E94960D7C
:102A6000B9C08E179F0749F09F014191DB014D933B
:102A7000BD01D9012C912111F4CF18A201C0198EEA
:102A8000053008F004E00E8B09A31AA26E01B2E033
:102A9000CB0ED11CC6010E94B30DCE010C960E9434
:102AA000B30DD987C88785E090E0801B91099D8789
:102AB0008C87DB8BCA8B1BA21CA21DA21EA21FA28D
:102AC000A201B401C3010E94710E99838883E114AD
:102AD000F10419F0F701D183C0830FB6F8940F9277
:102AE0008091FA068F5F8093FA0680915A07909141
:102AF0005B07892BC1F5D0935B07C0935A07809180
:102B0000FA06813009F03FC00DE217E08AE5E82EB1
:102B100087E0F82EC8010E94A50D075F1F4FE01641
:102B2000F106C1F784E297E00E94A50D8BE197E0E2
:102B30000E94A50D8EE097E00E94A50D85E097E02C
:102B40000E94A50D8BEF96E00E94A50D84E297E010
:102B500090931A07809319078BE197E090931807D9
:102B60008093170710C08091F60681110CC0E09188
:102B70005A07F0915B0796898E89891720F0D093C8
:102B80005B07C0935A078091F2068F5F8093F2062D
:102B90008E899091F706981710F48093F706F9E064
:102BA0008F9FC0011124B601835D984F0E94B70D1D
:102BB0000F900FBE8091F606882351F0E0915A07DE
:102BC000F0915B0796898E89981710F40E94140F74
:102BD00081E001C08FEFDF91CF911F910F91FF90A6
:102BE000EF90DF90CF90BF90AF909F908F907F90AD
:102BF0006F905F904F9008950F931F93CF93DF9343
:102C0000EC010FB6F8940F92892B21F4C0915A076A
:102C1000D0915B078E010E5F1F4FC8010E94100EFE
:102C20008C899D89892B21F0CE010C960E94100E73
:102C30008091F2068F5F8093F20680915A079091FF
:102C40005B07C817D90759F4B80185E097E00E94DF
:102C5000B70D809104078F5F809304070EC08091A9
:102C6000FA0681508093FA068F89988D0E94960DFE
:102C7000CE010E94960D0E9457140F900FBE8091B6
:102C8000F606882349F080915A0790915B07C81790
:102C9000D90711F40E94140FDF91CF911F910F916A
:102CA00008950F931F93CF93DF9320915A0730918C
:102CB0005B0782179307B9F10097A9F10FB6F89453
:102CC0000F92FC01228533852B5F364051F5FC01C4
:102CD00024893589F7E02E303F0719F1232B09F5B8
:102CE000EC018C010E5F1F4FC8010E94100E8E89EF
:102CF0009091F706981710F48093F70629E0829FC9
:102D0000C0011124B801835D984F0E94B70DE09176
:102D10005A07F0915B079E898689981710F00E94E8
:102D2000140F0F900FBEDF91CF911F910F91089557
:102D3000EF92FF921F93CF93DF93EC018A859B85DF
:102D40008B5F964099F48C899D8927E08E3092079D
:102D500069F0892B59F48091ED06882349F0BE0172
:102D6000645F7F4F8EE097E00E94B70D10E021C0B6
:102D7000E0915A07F0915B0711E09E8986899817C8
:102D800008F410E07E0182E0E80EF11CC7010E9409
:102D9000100E8E899091F706981710F48093F7061D
:102DA00029E0829FC0011124B701835D984F0E94E2
:102DB000B70D812FDF91CF911F91FF90EF90089574
:102DC000EF92FF920F938EEEE82E86E0F82E00E051
:102DD00020E030E045E550E062EE70E08EEC94E1FA
:102DE0000E94FA148130B1F40E94CE1D813091F41A
:102DF000F8942FEF3FEF3093F1062093F006809385
:102E0000F6061092F9061092F8060F91FF90EF90D7
:102E10000C94DD0E0F91FF90EF900895F8941092AE
:102E2000F6060C94130F8091ED068F5F8093ED06EC
:102E300008950FB6F8940F928091F8069091F906D4
:102E40000F900FBE08958091F8069091F9060895AD
:102E50008091FA060895009721F480915A07909185
:102E60005B0749960895CF92DF92EF92FF920F93FE
:102E70001F93CF93DF938091ED0681118CC0009159
:102E8000F8061091F9060F5F1F4F1093F906009393
:102E9000F80601151105B9F48091190790911A07E8
:102EA000209117073091180730931A0720931907BC
:102EB00090931807809317078091F3068F5F809394
:102EC000F3060E9457148091F0069091F106C0E03D
:102ED0000817190708F44FC0D9E0E0911907F091DD
:102EE0001A078081811103C08FEF9FEF11C0E0911D
:102EF0001907F0911A070580F681E02DE680F7802A
:102F0000D70112968D919C9113970817190728F4F1
:102F10009093F1068093F0062EC06701B2E0CB0ECD
:102F2000D11CC6010E94100EF70184899589892B56
:102F300021F0C7010C960E94100ED70156968C9175
:102F40009091F706981710F48093F706D89FC00168
:102F50001124B601835D984F0E94B70DE0915A0786
:102F6000F0915B07D70156969C918689981708F4D3
:102F7000B4CFC1E0B2CFE0915A07F0915B07E68988
:102F8000B9E0EB9FF0011124E35DF84F80818230BE
:102F900040F0C1E006C08091F5068F5F8093F50692
:102FA000C0E08091F4068111C1E08C2FDF91CF91B8
:102FB0001F910F91FF90EF90DF90CF900895EF92C7
:102FC000FF920F931F93CF93DF930FB6F8940F9256
:102FD0008091ED0681508093ED068091ED06882367
:102FE00011F080E052C08091FA068823D1F3C0E04E
:102FF000D0E089E0F82EEE24E39480910E07882338
:1030000051F1E0911307F0911407C681D781CE01E9
:103010000C960E94100E8E010E5F1F4FC8010E9479
:10302000100E8E899091F706981710F48093F7068A
:10303000F89EC0011124B801835D984F0E94B70D1E
:10304000E0915A07F0915B079E8986899817A8F24C
:10305000E092F406D2CFCD2B11F00E945714C0910C
:10306000F506CC2351F0D1E00E9433178111D093A3
:10307000F406C150C9F71092F5068091F406882332
:1030800009F4AFCF0E94140F81E00F900FBEDF91C3
:10309000CF911F910F91FF90EF9008950F931F9381
:1030A000CF93DF938C01EB010E9413174091F80638
:1030B0005091F906F80120813181C9018C0F9D1FC3
:1030C0004217530720F48217930740F403C0821776
:1030D000930730F021E04817590718F020E001C0AD
:1030E00021E0F80191838083222329F060E0841B92
:1030F000950B0E9472140E94DF17811102C00E947A
:10310000140FDF91CF911F910F910895CF93DF930B
:10311000EC01892B19F40E94140F0AC00E941317A6
:1031200060E0CE010E9472140E94DF17882399F399
:10313000DF91CF9108958091ED06882321F081E001
:103140008093F40608951092F4068091F70669E0E2
:10315000482F50E0649F9001659F300D1124F901C4
:10316000E35DF84F9081911102C08150F1CFA181B0
:10317000B28112960D90BC91A02DB283A183205DE7
:10318000384FA217B30731F412962D913C91139743
:103190003283218399E0949FF001959FF00D1124D3
:1031A000E35DF84F0180F281E02D26813781309375
:1031B0005B0720935A078093F70608950F931F9398
:1031C000CF93DF93EC010FB6F8940F92892B21F483
:1031D000C0915A07D0915B078E010E5F1F4FC80147
:1031E0000E94100E8C899D89892B21F0CE010C96AE
:1031F0000E94100EB8018BEF96E00E94B70D8FA1D0
:10320000813009F41FA20F900FBE8091F60688232B
:1032100039F00FB6F8940F920E9457140F900FBE1A
:1032200080915A0790915B07C817D907C1F4809124
:10323000F606882319F00E94140F11C09091FB0626
:103240008091FA06981305C010925B0710925A07F6
:1032500006C0DF91CF911F910F910C949B18DF91C5
:10326000CF911F910F910895CF93DF93EB01609160
:103270005A0770915B07645F7F4F0E94D80D61E031
:10328000CE01DF91CF910C947214CF93DF93EA01BA
:10329000E0915A07F0915B077068758764876091C9
:1032A0005A0770915B07645F7F4F0E94B70D61E022
:1032B000CE01DF91CF910C9472141F93CF93DF93C3
:1032C000EB01142F60915A0770915B07645F7F4F89
:1032D0000E94B70D112311F0CFEFDFEF612FCE0168
:1032E000DF91CF911F910C9472140F931F93CF9382
:1032F000DF93DC011596ED91FC911697C681D7817D
:103300008E01045F1F4FC8010E94100E8091ED06D0
:10331000811114C00A501109C8010E94100E8E8933
:103320009091F706981710F48093F706B9E08B9FF9
:10333000C0011124B801835D984F03C0B8018EE02D
:1033400097E00E94B70DE0915A07F0915B079E89C4
:103350008689891720F481E08093F40601C080E01B
:10336000DF91CF911F910F9108950F931F93CF93EA
:10337000DF937068FC0171836083C681D7810E94EE
:10338000100E8E010E5F1F4FC8010E94100E8E8915
:103390009091F706981710F48093F706F9E08F9F45
:1033A000C0011124B801835D984F0E94B70DE091D0
:1033B0005A07F0915B079E898689891718F481E086
:1033C0008093F406DF91CF911F910F9108950FB66E
:1033D000F8940F922091F306FC0120832091F806C7
:1033E0003091F906328321830F900FBE089520910A
:1033F000F306FC0120832091F8063091F906328310
:1034000021830895CF93DF930FB6F8940F924091E4
:10341000F8065091F906DB012D913C912F3FBFEF4B
:103420003B07D9F0EC01E981FA81A091F306B8815C
:10343000BA1719F04E175F0790F44E1B5F0BFB0194
:103440004217530738F4241B350B318320830E9425
:10345000F71903C01182108202C080E001C081E030
:103460000F900FBEDF91CF91089581E08093F40615
:10347000089580915A0790915B0708958091F60610
:10348000882331F08091ED06882321F080E00895B3
:1034900081E0089582E008950F931F93CF93DF9307
:1034A000FC01892B09F455C08689A0915A07B09177
:1034B0005B0756969C91891708F041C02485358595
:1034C00037FD0CC0A0915A07B0915B0756969C91AE
:1034D00025E030E0291B31093587248729E0829FC8
:1034E000C0011124835D984F228533852817390741
:1034F000E9F48F01EF012296CE010E94100EE091B7
:103500005A07F0915B078689F801868B9091F70640
:10351000981710F48093F706F9E08F9FC0011124EB
:10352000BE01835D984F0E94B70D07C0A0915A0756
:10353000B0915B0756968C91868B81E00BC0A09171
:103540005A07B0915B0781E021A156969C912917FB
:1035500008F080E0DF91CF911F910F9108950F93B4
:103560001F93CF93DF93FC01892B11F480E02CC0D3
:1035700082A1815082A3268991A12917B9F38111D3
:10358000F5CFEF018F010E5F1F4FC8010E94100E93
:1035900089A18E8B482F50E025E030E0241B350BAD
:1035A0003D872C879091F706981710F48093F706C3
:1035B00029E0249FC001259F900D1124B801835D4F
:1035C000984F0E94B70D81E0DF91CF911F910F912D
:1035D00008950F931F93CF93DF93FC01892BD9F1AB
:1035E00091A1961708F4962F86898917A1F122A137
:1035F000213089F5968B2485358537FD06C025E079
:1036000030E0291B31093587248729E0829FC001DA
:103610001124835D984F2285338528173907D9F403
:10362000EF018F010E5F1F4FC8010E94100E8E899F
:103630009091F706981710F48093F70629E0829F7F
:10364000C0011124B801835D984FDF91CF911F9184
:103650000F910C94B70DDF91CF911F910F910895A9
:10366000E0915A07F0915B0784859585E0915A07B0
:10367000F0915B07A0915A07B0915B0756964C9169
:1036800025E030E0241B3109358724870895809197
:103690005A0790915B07892B39F0E0915A07F09116
:1036A0005B0782A18F5F82A380915A0790915B078D
:1036B00008950F931F93182FCB010FB6F8940F9214
:1036C000E0915A07F0915B0743A154A165A176A14F
:1036D000452B462B472B69F4E0915A07F0915B0785
:1036E00021E027A3009729F061E00E9472140E9454
:1036F000140F0F900FBE0FB6F8940F92E0915A0777
:10370000F0915B0763A174A185A196A16115710574
:1037100081059105A9F0E0915A07F0915B0711230B
:1037200029F013A214A215A216A20AC08B019C01B3
:10373000015011092109310903A314A325A336A3BC
:10374000E0915A07F0915B0717A20F900FBE1F91EF
:103750000F9108954F925F926F927F928F929F92F6
:10376000AF92BF92EF92FF920F931F9349015A01BC
:103770000FB6F8940F92E0915A07F0915B0727A1DA
:10378000223039F1E0915A07F0915B0723A134A16F
:1037900045A156A12B013C01409450946094709433
:1037A000D301C20182239323A423B52383A394A32B
:1037B000A5A3B6A3E0915A07F0915B0781E087A328
:1037C000E114F10431F061E0C7010E9472140E941B
:1037D000140F0F900FBE0FB6F8940F92011511053C
:1037E00069F0E0915A07F0915B0783A194A1A5A12C
:1037F000B6A1F80180839183A283B383E0915A0735
:10380000F0915B0787A18230C1F4E0915A07F091F3
:103810005B0743A154A165A176A1D501C4018095A0
:103820009095A095B09584239523A623B72383A3D1
:1038300094A3A5A3B6A381E001C080E0E0915A075C
:10384000F0915B0717A20F900FBE1F910F91FF9091
:10385000EF90BF90AF909F908F907F906F905F9010
:103860004F9008950F931F93CF93DF93FC010FB6F2
:10387000F8940F920115110549F083A194A1A5A117
:10388000B6A1E80188839983AA83BB8337A182E02C
:1038900087A3223089F058F4213001F583A194A147
:1038A000A5A1B6A1482B592B6A2B7B2B13C0233023
:1038B00089F0243069F012C083A194A1A5A1B6A11A
:1038C0000196A11DB11D83A394A3A5A3B6A306C011
:1038D000323049F143A354A365A376A3313009F5EF
:1038E000EF018F010E5F1F4FC8010E94100E8E89DD
:1038F0009091F706981710F48093F70629E0829FBD
:10390000C0011124B801835D984F0E94B70DE0916A
:103910005A07F0915B079E898689891710F40E94E7
:10392000140F81E001C080E00F900FBEDF91CF91B6
:103930001F910F910895EF92FF920F931F93CF93D2
:10394000DF93FC010115110549F083A194A1A5A104
:10395000B6A1E80188839983AA83BB8337A182E05B
:1039600087A3223089F058F4213001F583A194A176
:10397000A5A1B6A1482B592B6A2B7B2B13C0233052
:1039800089F0243069F012C083A194A1A5A1B6A149
:103990000196A11DB11D83A394A3A5A3B6A306C040
:1039A0003230D9F143A354A365A376A3313011F08B
:1039B00081E034C0EF018091ED06811115C08F01C7
:1039C0000E5F1F4FC8010E94100E8E899091F7065E
:1039D000981710F48093F706E9E08E9FC001112438
:1039E000B801835D984F05C0BF01645F7F4F8EE0D3
:1039F00097E00E94B70DE0915A07F0915B079E890E
:103A000086898917A8F6E114F10419F081E0E7012D
:103A1000888381E08093F40601C080E0DF91CF913C
:103A20001F910F91FF90EF900895EF92FF920F93E7
:103A30001F93CF93DF93FC0127A182E087A383A18B
:103A400094A1A5A1B6A10196A11DB11D83A394A324
:103A5000A5A3B6A32130A1F58B01EF018091ED065E
:103A6000811116C07F0122E0E20EF11CC7010E9405
:103A7000100E8E899091F706981710F48093F70630
:103A8000E9E08E9FC0011124B701835D984F05C006
:103A9000BF01645F7F4F8EE097E00E94B70DE09119
:103AA0005A07F0915B079E898689891748F40115AA
:103AB000110519F081E0F801808381E08093F4061C
:103AC000DF91CF911F910F91FF90EF900895009794
:103AD00021F480915A0790915B070FB6F8940F92EA
:103AE000FC0127A1223019F417A281E001C080E077
:103AF0000F900FBE08950FB6F8940F928091600753
:103B000090916107892BE9F48FE697E00E94A50D5B
:103B100086E697E00E94A50D8FE697E090936507F3
:103B20008093640786E697E090936307809362072B
:103B300040E065E088E20E94C110909361078093A5
:103B400060070F900FBE0895FC0173836283918715
:103B500080874617570778F0421B530B848595855D
:103B600048175907C8F4BF016E5F7F4F8091620705
:103B7000909163070DC04217530718F4621773073B
:103B800058F4BF016E5F7F4F809164079091650785
:103B90000E94D80D80E0089581E00895EF92FF9291
:103BA0000F930E947B1D8091600790916107892B84
:103BB00081F08EE5E82E87E0F82E04E020E030E08A
:103BC00045E550E067EE70E085EB9EE10E94FA1457
:103BD00001C080E00F91FF90EF9008958F929F9227
:103BE000AF92BF92CF92DF92FF920F931F93CF932A
:103BF000DF934C015B01F42E690183E190E00E94A8
:103C0000640DEC01892BA1F01A8A0E947B1D998218
:103C10008882BD86AC86DF86CE86198B088BCE0166
:103C200002960E94B30DFF2019F08A8984608A8B66
:103C3000CE01DF91CF911F910F91FF90DF90CF9038
:103C4000BF90AF909F908F9008950F931F93CF9345
:103C5000DF9300D000D01F92CDB7DEB7A0916007F0
:103C6000B0916107109729F1F90169835B834A8359
:103C70009D838C836630A4F40E943E1AE091600715
:103C8000F091610720E0823011F4A80102C040E009
:103C900050E0BE016F5F7F4FCF010E94E9100AC064
:103CA00020E0AF01BE016F5F7F4FCD010E949911EF
:103CB00001C080E00F900F900F900F900F90DF9158
:103CC000CF911F910F910895EF92FF920F931F9341
:103CD000CF93DF93E0916407F0916507808188239B
:103CE00089F10580F681E02DE080F180C681D781E1
:103CF0008E010E5F1F4FC8010E94100EE889F989DE
:103D0000CE0109958A8982FFE5CF8C859D858E0D30
:103D10009F1DE816F90660F49B838A83D987C887BC
:103D2000B80180916407909165070E94D80DD2CFA9
:103D300000E010E020E030E0A70160E0CE010E944A
:103D4000251EC8CF80916207909163079093650705
:103D500080936407F0936307E0936207DF91CF914C
:103D60001F910F91FF90EF900895CF93DF9300D0B4
:103D700000D01F92CDB7DEB7E0916407F0916507E0
:103D8000D080DD2031F00580F681E02DE080F180EB
:103D900002C0E12CF12C0E9413170E9419178C010C
:103DA00080915C0790915D070817190720F40E9425
:103DB000641E81E001C080E010935D0700935C0702
:103DC000811155C0DD20D9F10E151F0508F43EC044
:103DD0000E94DF17E0916407F09165070580F68186
:103DE000E02DC680D780C60102960E94100ED60133
:103DF00052968C91529782FF17C01C966D917C91C0
:103E00001D976E0D7F1D9701A801C6010E94A41D7C
:103E1000882369F000E010E020E030E0A70160E0D6
:103E2000C6010E94251E03C08E7FF601828BD6013B
:103E30005096ED91FC915197C60109951EC0E091F5
:103E40006207F0916307808141E0811140E0B70192
:103E5000601B710B80916007909161070E943B1479
:103E60000E94DF17811109C00E94140F06C00E9432
:103E7000DF1703C0898187FF0EC040E050E0BE011C
:103E80006F5F7F4F80916007909161070E94EB11F7
:103E90008111F0CF71CFEC80FD80F7018285938591
:103EA000892B21F0C70102960E94100E0E9419175B
:103EB0006C0180915C0790915D07C816D90610F4DB
:103EC0000E94641ED0925D07C0925C07E9810E2EAD
:103ED000000CFF0BEA30F10580F6E65DFF4FD701DD
:103EE00052968C910C9426208160F701828B2A8156
:103EF0003B8164857585620F731FA601C7010E940F
:103F0000A41D882309F4B9CFD7015096ED91FC91F7
:103F10005197C7010995F701828982FFAECF4A8187
:103F20005B8184859585480F591F00E010E020E0F3
:103F300030E060E0C7010E94251E9FCF8160F7013D
:103F4000828B6A817B81758764876C0D7D1D9601EC
:103F5000A601C7010E94A41D90CF81FD04C0C70126
:103F60000E94960D8ACF8E7FD70152968C9385CF73
:103F700080915E0790915F070895FC018485958587
:103F80000895FC010FB6F8940F929289662311F000
:103F9000946001C09B7F928B0F900FBE0895FC012F
:103FA000828193810895FC018081918108950FB6EB
:103FB000F8940F92FC0182890F900FBE81700895D2
:103FC0000FB6F8940F920F900FBEFC01868597856F
:103FD00008950FB6F8940F92FC01778766870F90CB
:103FE0000FBE0895991B79E004C0991F961708F039
:103FF000961B881F7A95C9F780950895AA1BBB1B4D
:1040000051E107C0AA1FBB1FA617B70710F0A61BD8
:10401000B70B881F991F5A95A9F780959095BC01F9
:10402000CD01089597FB072E16F4009407D077FD75
:1040300009D00E94FE1F07FC05D03EF490958195A3
:104040009F4F0895709561957F4F0895EE0FFF1F64
:104050000590F491E02D0994FB01DC0102C0019070
:104060000D9241505040D8F70895DC01CB01FC017E
:10407000E199FECF06C0FFBBEEBBE09A31960DB2D0
:104080000D9241505040B8F70895E199FECF9FBB83
:104090008EBBE09A99278DB30895DC01A40FB51F5C
:1040A0004150504048F0CB01840F951F2E910E9443
:1040B0005E2041505040D0F70895262FE199FECF61
:1040C0009FBB8EBBE09A01970DB2021631F02DBB5B
:1040D0000FB6F894E29AE19A0FBE0895F894FFCFD4
:1040E00010313233413435365E3738397645303C1D
:1040F0003E414D00504D006D696E757465730068EA
:104100006F7572730053657420416C61726D004D60
:1041100061703A00476F6F64204D6F726E696E6711
:10412000210057726F6E6720416E7377657200745D
:10413000696D65720074696D6572320074696D65D0
:104140007233004B5044004B50445F49535231008E
:10415000426565700052696E67007365636F6E64D7
:10416000730049444C4500546D722053766300003F
:00000001FF
