:100000000C942A000C9447000C9447000C94470071
:100010000C9447000C9447000C9447000C949B0AE6
:100020000C9447000C9447000C9447000C94470034
:100030000C9447000C9447000C9447000C94470024
:100040000C9447000C9447000C9447000C94470014
:100050000C94470011241FBECFE5D8E0DEBFCDBF12
:1000600010E0A0E6B0E0ECE8F0E302C005900D92ED
:10007000A63CB107D9F727E0A6ECB0E001C01D927D
:10008000AB32B207E1F70E940E090C9444180C94AD
:100090000000CF93DF9300D0CDB7DEB70E94CB1125
:1000A0009A83898382E00E94D2058AE30E948A05AE
:1000B0001CE36AE070E080912107909122070E9482
:1000C0004F0D882391F083E00E94D2058091D000EB
:1000D0000E94B40620E040E050E060E070E08091D3
:1000E0002107909122070E94BB0B6CE271E0CE01C8
:1000F00001960E9400138091D0008F5F612F0E94B3
:1001000007189093D000D5CFCF93DF9300D0CDB711
:10011000DEB70E94CB116091D0004CE251E0649FA9
:100120009001659F300D1124821B930B9A83898364
:1001300082E00E94D2058AE30E948A051CE06AE000
:1001400070E080912107909122070E944F0D882333
:1001500029F180E00E94D2058091CF00612F0E949A
:10016000071881E0890F0E94B40686E00E94D2053C
:100170008091CE00811103C081E790E002C084E746
:1001800090E00E94940520E040E050E060E070E0E4
:1001900080912107909122070E94BB0B60E576E4D5
:1001A000CE0101960E9400138091CF008F5F8C30AA
:1001B00031F49091CE009F5F91709093CE00612FAB
:1001C0000E9407189093CF00BACF80E00E94D2051A
:1001D0008091CF006CE00E94071881E0890F0E9497
:1001E000B40682E00E94D2058AE30E948A058091CB
:1001F000D0006CE30E940718892F0E94B40686E0A5
:100200000E94D2058091CE00811103C081E790E069
:1002100002C084E790E00E9494058EE00E94D2051F
:100220008091D1000C94B406CF93DF9300D0CDB76A
:10023000DEB781E00E94510C909322078093210742
:100240000E94CB119A8389831CE36AE070E080915D
:100250002107909122070E944F0D882391F08EE094
:100260000E94D2058091D1000E94B40620E040E0B7
:1002700050E060E070E080912107909122070E9499
:10028000BB0B65E070E0CE0101960E9400138091E7
:10029000D1008F5F612F0E9407189093D100D5CFB6
:1002A000CF93DF93CDB7DEB763970FB6F894DEBF79
:1002B0000FBECDBF40E061E081E00E94930B9093C0
:1002C000CD008093CC000E94CB119A8B898BCE01FC
:1002D00001960E9414048B8B8F3F61F020E04AE06E
:1002E00050E0BE016D5E7F4F8091CC009091CD00BB
:1002F0000E94BB0B6091600070E0CE0141960E94AD
:100300000013E5CFCF93DF931F92CDB7DEB78FEF0A
:10031000898300E0D12C10E1B12C9AE0C92E4AE08B
:1003200050E0BE016F5F7F4F8091CC009091CD0077
:100330000E94BD0C882399F389818A3209F4C2C0D6
:10034000BB2069F3812F0E94D20580E20E948A05BA
:1003500029812E3341F02E3581F1E12EF12C2C3301
:1003600009F046C012C0812F90E0019663E070E072
:100370000E942718892B09F096C01F5F812F0E94C9
:10038000D20580E20E948A058EC0C701019763E012
:1003900070E00E942718892B39F41150812F0E9498
:1003A000D20580E20E948A0511501E3021F486E1B8
:1003B0000E94D20516E1812F18C0163109F07DC0C8
:1003C0008091CE008F5F81708093CE0086E00E9486
:1003D000D2058091CE00811103C081E790E002C078
:1003E00084E790E00E94940586E10E94D20562C0F5
:1003F0001131F9F078F41031C1F5220F2056922F07
:10040000990F990F290F8091CF006C2D0E9407182A
:10041000290F19C01331D1F0143139F58091D00072
:100420006C2D0E94071820539AE0899F200D1124FB
:1004300019C08091CF006C2D0E94071821539AE0BB
:10044000899F200D11242093CF000EC0220F20562B
:10045000922F990F990F290F8091D0006C2D0E9437
:100460000718290F2093D00001E080EF810F0E9430
:10047000D205163119F089810E948A05AA24A39415
:10048000A10E8A2D0E94D205C701019663E070E09B
:100490000E942718892B39F48A2D0E94D20580E208
:1004A0000E948A051A2D1F5F173121F480E10E94F6
:1004B000D20510E181E00E948A0583E090E00E946D
:1004C00038132DCF8091210790912207D0FC15C0C1
:1004D0006AE070E00E944F0D882309F420CF80E18C
:1004E0000E94D20581E00E948A05D39481E0809326
:1004F000600010E1BB24B39412CF20E040E050E054
:1005000060E070E00E94BB0B80E10E94D2050E9477
:10051000E500C0926000812F0E94D20580E20E9417
:100520008A0585E090E00E943813D394002339F1C6
:100530008091C8009091C900009731F00E94B210DC
:100540001092C9001092C80088ECE82E80E0F82EC6
:1005500002E020E030E046E450E067E770E089E444
:1005600090E00E94B00F8091C6009091C700009764
:1005700031F00E94B2101092C7001092C600E090B5
:10058000C600F090C70002E020E030E046E450E012
:100590006FE770E084E890E00E94B00F00E0B12CBB
:1005A000BECE1ABA17BA14BA11BA0895803208F03A
:1005B0006CC0623008F069C0982F97708695869558
:1005C00086958230A1F1833009F448C08130B9F0BA
:1005D0004AB321E030E0613039F401C0220F9A952E
:1005E000EAF7242B2ABB17C0B90102C0660F771F98
:1005F0009A95E2F7CB01809584238ABB0CC047B360
:1006000021E030E0611109C001C0220F9A95EAF79C
:100610002095242327BB80E00895B90102C0660F0E
:10062000771F9A95E2F7CB01842B87BBF4CF44B3B5
:1006300021E030E0613039F401C0220F9A95EAF7E9
:10064000242B24BBE8CFB90102C0660F771F9A950F
:10065000E2F7CB018095842384BBDDCF41B321E059
:1006600030E0613039F401C0220F9A95EAF7242B6B
:1006700021BBD1CFB90102C0660F771F9A95E2F76F
:10068000CB018095842381BBC6CF81E00895803261
:1006900008F06CC0623008F069C0982F977086959A
:1006A000869586958230A1F1833009F448C0813067
:1006B000B9F04BB321E030E0613039F401C0220FD2
:1006C0009A95EAF7242B2BBB17C0B90102C0660F1D
:1006D000771F9A95E2F7CB01809584238BBB0CC0E2
:1006E00048B321E030E0611109C001C0220F9A95A2
:1006F000EAF72095242328BB80E00895B90102C0C1
:10070000660F771F9A95E2F7CB01842B88BBF4CF55
:1007100045B321E030E0613039F401C0220F9A95F1
:10072000EAF7242B25BBE8CFB90102C0660F771F7B
:100730009A95E2F7CB018095842385BBDDCF42B348
:1007400021E030E0613039F401C0220F9A95EAF7D8
:10075000242B22BBD1CFB90102C0660F771F9A9517
:10076000E2F7CB018095842382BBC6CF81E0089558
:10077000843078F4823041F0833049F0813011F0D8
:100780006ABB03C067BB01C064BB80E0089561BB66
:10079000FCCF81E00895843078F4823041F08330DA
:1007A00049F0813011F06BBB03C068BB01C065BB71
:1007B00080E0089562BBFCCF81E00895FB018032A8
:1007C000E0F4282F2770869586958695823041F033
:1007D000833041F0813011F089B305C086B303C086
:1007E00083B301C080B390E002C0959587952A95A8
:1007F000E2F78170808380E0089581E00895FB0135
:10080000843080F4823041F0833041F0813011F047
:1008100089B305C086B303C083B301C080B38083AE
:1008200080E0089581E008956F927F928F929F9269
:10083000AF92BF92CF92DF92EF92FF920F931F93EE
:10084000CF93DF931F92CDB7DEB77C01198203E20D
:1008500017E066246A94912C77247394580160E021
:10086000F80180810E94470387E2C82E87E0D82ED6
:10087000812CBE016F5F7F4FF60181916F010E9455
:10088000DE032981882D890D90E0F701E80FF91F1B
:10089000213011F4108205C07082FC01EF59FF4F26
:1008A0006080F4E08F0E80E18812E3CF0F5F1F4F6E
:1008B00061E0F50180810E9447039394F4E09F1268
:1008C000CDCF862D0F90DF91CF911F910F91FF908B
:1008D000EF90DF90CF90BF90AF909F908F907F90E0
:1008E0006F9008958130A1F138F0823009F45BC037
:1008F000833009F483C008956FE080E00E94B8035C
:1009000061E084E00E94470361E085E00E944703C4
:1009100061E086E00E94470361E087E00E944703B0
:1009200084E08093270783E08093230785E080930A
:10093000280782E08093240786E08093290781E0DE
:100940008093250787E080932A0710922607089551
:100950006FE081E00E94B80361E08CE00E944703F1
:1009600061E08DE00E94470361E08EE00E94470352
:1009700061E08FE00E9447038CE0809327078BE0C3
:10098000809323078DE0809328078AE080932407D3
:100990008EE08093290789E0809325078FE080937C
:1009A0002A0788E055C06FE082E00E94B80361E04A
:1009B00084E10E94470361E085E10E94470361E012
:1009C00086E10E94470361E087E10E94470384E1DA
:1009D0008093270783E18093230785E1809328078D
:1009E00082E18093240786E18093290781E1809347
:1009F000250787E180932A0780E12AC06FE083E022
:100A00000E94B80361E08CE10E94470361E08DE140
:100A10000E94470361E08EE10E94470361E08FE19D
:100A20000E9447038CE1809327078BE18093230783
:100A30008DE1809328078AE1809324078EE18093DB
:100A4000290789E1809325078FE180932A0788E1B0
:100A5000809326070895E0E0DC012D91CD0121303F
:100A600029F4F0E0EF59FF4F80810895EF5FE03106
:100A700099F78FEF0895CF93C82F60E081E10E942E
:100A800047036C2F617087E00E944703C1FB662714
:100A900060F986E00E944703C2FB662760F985E0A3
:100AA0000E944703C3FB662760F984E00E94470366
:100AB000C4FB662760F983E00E944703C5FB6627F5
:100AC00060F982E00E944703C6FB662760F981E077
:100AD0000E9447036C2F661F6627661F80E00E94F6
:100AE000470361E082E10E9447038FEC97E00197A2
:100AF000F1F700C0000060E082E1CF910C94470361
:100B0000CF93C82F60E080E10E9447038C2FCF91E4
:100B10000C943B05CF93C82F61E080E10E9447030E
:100B20008C2FCF910C943B05EF92FF920F931F9364
:100B3000CF937C01C0E087010C0F111DF80180816B
:100B4000882359F0C03119F480EC0E948005F80127
:100B500080810E948A05CF5FEECFCF911F910F91C8
:100B6000FF90EF90089581E00C9480050F931F9300
:100B7000CF938C01C0E0F801EC0FF11D8081882338
:100B800069F00E948A052FEF84E39CE021508040A9
:100B90009040E1F700C00000CF5FEDCFCF911F91F3
:100BA0000F910895803110F4805801C080550C9445
:100BB00080050F931F93CF93DF938C01C0E08C2FA0
:100BC0000E94D205D0E0F801ED0FF11D808188234D
:100BD00021F00E948A05DF5FF6CF2FEF89E698E1CA
:100BE000215080409040E1F700C000000E94B30512
:100BF000CF5FC53021F7DF91CF911F910F910895FD
:100C00000F931F93CF93DF938C01862F880F880F4C
:100C1000880F805C0E948005E801085F1F4F899162
:100C20000E948A05C017D107D1F780E8DF91CF91E4
:100C30001F910F910C94800561E080E10E94D60223
:100C400061E081E10E94D60261E082E10E94D60269
:100C500061E087E00E94D60261E086E00E94D60251
:100C600061E085E00E94D60261E084E00E94D60245
:100C700061E083E00E94D60261E082E00E94D60239
:100C800061E081E00E94D60261E080E00E94D6022D
:100C90002FE788E391E0215080409040E1F700C0C9
:100CA00000002FEF89EF90E0215080409040E1F765
:100CB00000C0000088E30E94800525E82A95F1F72E
:100CC00000008CE00E94800585E88A95F1F700001D
:100CD00081E00E9480058FE99FE00197F1F700C055
:100CE000000060E085E990E00E94000661E085E890
:100CF00090E00C940006CF92DF92EF92FF920F9358
:100D00001F93CF93DF93EC0100E080E090E02AE0B6
:100D1000EAE0F0E0209771F0289F7001299FF00C25
:100D20001124CE01BF010E9413188E0D9F1DEB01EF
:100D30000F5FF0CF10E02AE0E22EF12CC017D107B0
:100D400050F4B7010E9413186B01805D0E948A0560
:100D5000C6012196F3CFDF91CF911F910F91FF90A4
:100D6000EF90DF90CF900895CF936AE00E9407182C
:100D7000C92F805D0E948A0580E38C0FCF910C946F
:100D80008A05805D0C948A05CF93DF938BE090E019
:100D90000E943E08EC01009731F0FC011192119283
:100DA000CF010E947F08CE01DF91CF910895AF92CD
:100DB000BF92CF92DF92EF92FF920F931F93CF9348
:100DC000DF936C017B01B42EA22E0E94C511F601A7
:100DD000C081D181CE018E219F21A11003C0892B1A
:100DE00021F43BC0E816F906C1F5BB2041F0C7016C
:100DF000809590958C239D23F6019183808300E05C
:100E000010E00E949112012B09F43DC0811102C033
:100E10000E94E6090E94BC1591FD1CC00FB6F89413
:100E20000F92F60180819181970128233923A11027
:100E300003C0232B21F40CC0E216F30649F4BB20B7
:100E400039F0E094F094E822F922F601F182E08290
:100E50000F900FBEEC01DD2716C00115110589F2B8
:100E6000BB2019F060E071E002C060E070E0A1100A
:100E700074606E297F29A801C60102960E94F713AB
:100E8000C0E0D0E0BECFCE01DF91CF911F910F9196
:100E9000FF90EF90DF90CF90BF90AF900895FC014E
:100EA0000FB6F8940F9280819181609570956823B8
:100EB0007923718360830F900FBE0895FC018081B8
:100EC00091810895CF92DF92EF92FF920F931F933B
:100ED000CF93DF938C01EB017C0185E0E80EF11CE0
:100EE0000E94C511D8011796ED91FC9118978D912C
:100EF0009C911197C82BD92BCD93DC93C0E0D0E007
:100F0000D8016D917C911197EE15FF05E1F0D2802B
:100F1000C38020813181C9019927AC014623572321
:100F200032FD03C0452B21F40BC08417950741F413
:100F300030FF02C0C82BD92B7260CF010E944F1422
:100F4000ED2DFC2DDDCFC095D0956C237D236D93C9
:100F50007C930E949112F80180819181DF91CF9161
:100F60001F910F91FF90EF90DF90CF900895AF9277
:100F7000BF92CF92DF92EF92FF920F931F93CF9386
:100F8000DF937C01EB018A0169010E94C511F70121
:100F9000A080B180BE01C7010E946207CA29DB2977
:100FA000CE01802391230817190769F4F7012081E6
:100FB0003181C8018095909582239323918380830A
:100FC000C12CD12C10C0C114D10451F0A601B8011C
:100FD0007560C70102960E94F713C0E0D0E003C01D
:100FE000F701C081D1810E949112CD28F9F08111C1
:100FF00002C00E94E6090E94BC1591FD15C00FB603
:10100000F8940F92F7018081918198012823392368
:101010000217130739F4A801409550954823592326
:10102000518340830F900FBEEC01DD27CE01DF918D
:10103000CF911F910F91FF90EF90DF90CF90BF90D5
:10104000AF900895CF93DF93EC010E94C5118A8180
:10105000882339F060E072E08F8198850E944F14F8
:10106000F6CFCE010E947008DF91CF910C949112BF
:10107000BA010C946207BA010C944F07CF93DF9327
:10108000EC010E94C5118091D2009091D300892B70
:1010900031F487ED90E09093D3008093D2002091BB
:1010A000D4003091D500C9018C0F9D1F8B3D45E0C8
:1010B000940770F42817390758F4C091D200D091E2
:1010C000D300C20FD31F9093D5008093D40002C0E9
:1010D000C0E0D0E00E949112CE01DF91CF9108953F
:1010E00008951092D5001092D40008952091D40054
:1010F0003091D5008BED95E0821B930B0895FC0198
:101100000396928381832FEF3FEF3483238396836B
:1011100085839087878310820895FC01118610864D
:101120000895CF93DF939C01FB01DC011196CD91D3
:10113000DC911297D383C2838C819D8195838483B4
:101140008C819D81DC0113967C936E9312977D8335
:101150006C8331872087F90180818F5F8083DF91E5
:10116000CF9108950F931F93CF93DF938C01FB01D1
:10117000808191818F3F2FEF920721F4E801AF81A9
:10118000B8850EC0D801139612962D913C911397F5
:10119000E901488159818417950710F0D901F4CFEE
:1011A00012968D919C91139793838283EC01FD831A
:1011B000EC83B583A4831396FC93EE931297118767
:1011C0000087F80180818F5F8083DF91CF911F912D
:1011D0000F910895CF93DF93FC01A085B1858281A3
:1011E000938124813581EC013D832C83C481D58199
:1011F0009B838A8311968D919C911297E817F9072A
:1012000021F41296DC93CE931197118610868C915F
:1012100081508C938C91DF91CF910895EF92FF9242
:101220000F930E941C060E94B3050E94E50081E016
:101230000E947204E12CF12C02E020E030E046E450
:1012400050E06DE970E084E191E00E94B00F20E091
:1012500030E046E450E065EA70E080E591E00E940D
:10126000B00F20E030E046E450E06FEA70E082E842
:1012700091E00E94B00F0E94961180E090E00F91E3
:10128000FF90EF90089531E1FC013083319722E225
:1012900020833197A3E3A0833197608331977083D4
:1012A00031971082319760E86083319710823197CF
:1012B00062E06083319763E06083319764E060832C
:1012C000319765E06083319766E06083319767E02E
:1012D0006083319768E06083319769E0608331977C
:1012E00060E1608331973083319732E13083319709
:1012F00033E13083319734E13083319735E1308306
:10130000319736E13083319737E13083319738E1D7
:101310003083319739E13083319730E23083319730
:1013200031E2308331972083319723E22083319754
:10133000408331975083319726E22083319727E20B
:101340002083319728E22083319729E22083319747
:1013500020E32083319721E320838697089581E657
:101360008BBD87EA8ABD8BE08EBD89B7806189BF5E
:10137000A0911F07B0912007CD91CDBFDD91DEBFB9
:10138000FF91EF91DF91CF91BF91AF919F918F919D
:101390007F916F915F914F913F912F911F910F918D
:1013A000FF90EF90DF90CF90BF90AF909F908F9085
:1013B0007F906F905F904F903F902F901F900F9075
:1013C0000FBE0F90089581E0089508950F920FB613
:1013D000F8940F921F9211242F923F924F925F9296
:1013E0006F927F928F929F92AF92BF92CF92DF9235
:1013F000EF92FF920F931F932F933F934F935F931F
:101400006F937F938F939F93AF93BF93CF93DF930C
:10141000EF93FF93A0911F07B09120070DB60D9297
:101420000EB60D920E944D13A0911F07B091200798
:10143000CD91CDBFDD91DEBFFF91EF91DF91CF91D7
:10144000BF91AF919F918F917F916F915F914F91DC
:101450003F912F911F910F91FF90EF90DF90CF90D0
:10146000BF90AF909F908F907F906F905F904F90C4
:101470003F902F901F900F900FBE0F9008950F92E6
:101480000FB6F8940F921F9211242F923F924F9211
:101490005F926F927F928F929F92AF92BF92CF9204
:1014A000DF92EF92FF920F931F932F933F934F93EF
:1014B0005F936F937F938F939F93AF93BF93CF93DC
:1014C000DF93EF93FF93A0911F07B09120070DB614
:1014D0000D920EB60D920E94E51181110E944D13DE
:1014E000A0911F07B0912007CD91CDBFDD91DEBF48
:1014F000FF91EF91DF91CF91BF91AF919F918F912C
:101500007F916F915F914F913F912F911F910F911B
:10151000FF90EF90DF90CF90BF90AF909F908F9013
:101520007F906F905F904F903F902F901F900F9003
:101530000FBE0F9008950E943F0A18950FB6F894B9
:101540000F92FC01928D0F900FBE81E0911180E00F
:1015500008950F931F93CF93DF93EC01042F1A8DFF
:101560004C8D41110BC088819981892BE9F58C81C3
:101570009D810E943B151D821C8237C050E00111E5
:1015800015C08A819B810E943B182C8D8A819B818A
:10159000820F911D9B838A832C813D818217930743
:1015A00018F1888199819B838A831EC08E819F81D7
:1015B0000E943B188C8D90E09195819591092E8128
:1015C0003F81280F391F3F832E834881598124177B
:1015D000350730F42C813D81820F931F9F838E83CA
:1015E000023011F41111115080E01F5F1A8FDF914A
:1015F000CF911F910F910895FC01CB01448D44239D
:10160000A1F050E026813781240F351F37832683D0
:10161000648175812617370720F020813181378357
:101620002683668177810C943B180895EF92FF9290
:101630001F93CF93DF93EC010FB6F8940F921E8D9A
:101640007C0181E1E80EF11C11165CF48989882384
:1016500041F0C7010E940F1481110E94CF14115054
:10166000F3CF8FEF8E8F0F900FBE0FB6F8940F92BF
:101670001D8D7E0188E0E80EF11C11165CF4888552
:10168000882341F0C7010E940F1481110E94CF14DA
:101690001150F3CF8FEF8D8F0F900FBEDF91CF9151
:1016A0001F91FF90EF900895CF93DF93EC010FB659
:1016B000F8940F92488159818B8D7C8D9A01879F78
:1016C000200D311D11243D832C831A8E5B834A83A8
:1016D00090E00197789F9001799F300D1124CA0105
:1016E000820F931F9F838E838FEF8D8F8E8F61115B
:1016F0000CC08885882389F0CE0108960E940F14BB
:10170000882359F00E94E60908C0CE0108960E947D
:101710007F08CE0141960E947F080F900FBE81E0A6
:10172000DF91CF9108950F931F93CF93DF93082FED
:10173000162F662321F0869FC001112402C080E08D
:1017400090E04F960E943E08EC01009771F0111155
:1017500003C09983888303C04F96998388830B8F36
:101760001C8F61E0CE010E94540BCE01DF91CF911E
:101770001F910F910895AF92BF92CF92DF92FF9287
:101780000F931F93CF93DF9300D000D01F92CDB75C
:10179000DEB78C016B015D834C83F22E80E0580133
:1017A00098E0A90EB11C0FB6F8940F92F801228DA3
:1017B000938D291718F0F2E0FF1214C04F2DB601D7
:1017C000C8010E94A90AF8019189992321F0C80152
:1017D00041960E940F1481110E94E6090F900FBEDE
:1017E00081E050C02C813D81232B19F40F900FBE56
:1017F00048C0811104C0CE0101960E9491140F903F
:101800000FBE0E94C5110FB6F8940F92F801858D96
:101810008F3F09F4158EF801868D8F3F09F4168EDF
:101820000F900FBEBE016C5F7F4FCE0101960E94EC
:101830009C14811121C00FB6F8940F92F801928D7B
:101840000F900FBE838D981311C06C817D81C501EF
:101850000E94E613C8010E94160B0E949112882371
:1018600011F081E0A0CF0E94E609FBCFC8010E94E1
:10187000160B0E949112F5CFC8010E94160B0E9410
:10188000911280E00F900F900F900F900F90DF91CA
:10189000CF911F910F91FF90DF90CF90BF90AF90AD
:1018A0000895CF93DF93482F60E081E00E94930B6F
:1018B000EC01009761F01D821C82198218821E8241
:1018C00020E040E050E060E070E00E94BB0BCE0101
:1018D000DF91CF910895EF92FF921F93CF93DF9303
:1018E000EC019A8D8B8D981710F02230E1F47A017B
:1018F0001E8D422FCE010E94A90A1F3F81F48989C3
:10190000882379F0CE0141960E940F14882349F074
:10191000E114F10431F081E0F701808305C01F5F1D
:101920001E8F81E001C080E0DF91CF911F91FF9079
:10193000EF900895CF93DF93FC01928D838D9817DC
:10194000C0F4868D9F5F928F8F3F79F481898823C1
:1019500071F0EB01CF0141960E940F14882339F0FA
:10196000209729F081E0888305C08F5F868F81E012
:1019700001C080E0DF91CF910895AF92BF92CF92E6
:10198000DF92FF920F931F93CF93DF9300D000D08D
:101990001F92CDB7DEB78C016B015D834C8380E075
:1019A000580191E1A90EB11C0FB6F8940F92F801FD
:1019B000F28CFF20A9F0B601C8010E94FC0AFA943B
:1019C000F801F28E8085882339F0C80108960E94BC
:1019D0000F1481110E94E6090F900FBE81E050C0E4
:1019E0002C813D81232B19F40F900FBE48C081112B
:1019F00004C0CE0101960E9491140F900FBE0E9468
:101A0000C5110FB6F8940F92F801858D8F3F09F438
:101A1000158EF801868D8F3F09F4168E0F900FBE3C
:101A2000BE016C5F7F4FCE0101960E949C14811114
:101A30001CC0C8010E949E0A882389F06C817D81A8
:101A4000C5010E94E613C8010E94160B0E94911264
:101A5000882311F081E0A8CF0E94E609FBCFC801DE
:101A60000E94160B0E949112F5CFC8010E94160B1E
:101A70000E949112C8010E949E0A882359F380E0B7
:101A80000F900F900F900F900F90DF91CF911F91BB
:101A90000F91FF90DF90CF90BF90AF900895CF92BD
:101AA000DF92FF920F931F93CF93DF9300D000D06C
:101AB0001F92CDB7DEB78C017D836C83F12C90E053
:101AC000680181E1C80ED11C0FB6F8940F92D801BD
:101AD0005A968C915A978823E9F081505A968C93A4
:101AE0005A978D919C91892B29F40E94D315F80166
:101AF00095838483D80118968C91882339F0C80186
:101B000008960E940F1481110E94E6090F900FBEE3
:101B100081E07AC02C813D81232B09F472C09111A0
:101B200004C0CE0101960E9491140F900FBE0E9436
:101B3000C5110FB6F8940F92F801858D8F3F09F407
:101B4000158ED8015E968C915E978F3F11F45E964C
:101B50001C920F900FBEBE016C5F7F4FCE010196AD
:101B60000E949C1481112BC0C8010E949E0A8823E8
:101B700001F1F80180819181892B51F40FB6F8941D
:101B80000F92848195810E94D814F82E0F900FBE79
:101B90006C817D81C6010E94E613C8010E94160B6C
:101BA0000E949112882311F091E08ECF0E94E609E5
:101BB000FBCFC8010E94160B0E949112F5CFC801FD
:101BC0000E94160B0E949112C8010E949E0A88234F
:101BD00059F3FF20C1F00FB6F8940F92F8018189F4
:101BE000882339F00688F789E02D808165E0681B3D
:101BF00001C060E0D80114968D919C9115970E94C8
:101C000075150F900FBE80E00F900F900F900F9002
:101C10000F90DF91CF911F910F91FF90DF90CF90A8
:101C20000895CF92DF92EF92FF920F931F93CF937D
:101C3000DF9300D000D01F92CDB7DEB78C017B01BF
:101C40005D834C8380E0680191E1C90ED11C0FB621
:101C5000F8940F92F801928D9923B9F0C680D7803D
:101C6000B701C8010E94FC0AF801D782C6828189A7
:101C7000882339F0C80141960E940F1481110E94F7
:101C8000E6090F900FBE81E050C02C813D81232BCF
:101C900019F40F900FBE48C0811104C0CE01019607
:101CA0000E9491140F900FBE0E94C5110FB6F894B8
:101CB0000F92F801858D8F3F09F4158EF801868DFE
:101CC0008F3F09F4168E0F900FBEBE016C5F7F4FE1
:101CD000CE0101960E949C1481111CC0C8010E9473
:101CE0009E0A882389F06C817D81C6010E94E613DB
:101CF000C8010E94160B0E949112882311F081E006
:101D0000A6CF0E94E609FBCFC8010E94160B0E94D5
:101D10009112F5CFC8010E94160B0E949112C801C2
:101D20000E949E0A882359F380E00F900F900F9035
:101D30000F900F90DF91CF911F910F91FF90EF9037
:101D4000DF90CF900895EF92FF920F931F93CF9360
:101D5000DF93FC01028D0023E9F07A01EC01158D7F
:101D60000E94FC0A01500A8F1F3F81F48885882356
:101D700079F0CE0108960E940F14882349F0E114EF
:101D8000F10431F081E0F701808305C01F5F1D8FF2
:101D900081E001C080E0DF91CF911F910F91FF9012
:101DA000EF9008950F931F93CF93DF93FC01228D43
:101DB000222349F0EC01068117810E94FC0A1F834F
:101DC0000E8381E001C080E0DF91CF911F910F91E0
:101DD00008950FB6F8940F92FC01828D0F900FBEFC
:101DE00008950FB6F8940F92FC01228D0F900FBE4C
:101DF000838D821B0895FC01828D08950C947008D8
:101E0000FC01928D81E0911180E00895FC01928D9A
:101E100081E0238D291380E00895E091DE06F091A2
:101E2000DF068081811103C08FEF9FEF0CC0E0912E
:101E3000DE06F091DF060580F681E02D0680F78151
:101E4000E02D828193819093B6068093B506089524
:101E5000FF920F931F93CF93DF93EC01F62E009127
:101E6000BD061091BE0680911F0790912007029633
:101E70000E94EA08CF3F8FEFD80789F4FF2079F05E
:101E800060911F07709120076E5F7F4F80EC96E096
:101E9000DF91CF911F910F91FF900C949108C00F8B
:101EA000D11FE0911F07F0912007D383C283609177
:101EB0001F0770912007C017D10768F48091DC06D6
:101EC0009091DD066E5F7F4FDF91CF911F910F9153
:101ED000FF900C94B2088091DE069091DF066E5F51
:101EE0007F4F0E94B2088091B5069091B606C81740
:101EF000D90720F4D093B606C093B506DF91CF91F1
:101F00001F910F91FF9008958091C906882309F1D0
:101F10000FB6F8940F92E091CF06F091D006C681EB
:101F2000D781CE0102960E94EA088091BF068150B7
:101F30008093BF068091C90681508093C9060F9097
:101F40000FBE8F89988D0E947008CE010E94700884
:101F5000DBCF8091F2068230B8F20E94E609D4CF3E
:101F60004F925F926F927F928F929F92AF92BF92A9
:101F7000CF92DF92EF92FF920F931F93CF93DF9355
:101F80004C016B015A012901CA010E943E083C0123
:101F9000892B09F4D5C088E290E00E943E08EC014C
:101FA000009789F0788E6F8A21E0A21AB1086A0C36
:101FB0007B1CC114D104C9F0BC01675E7F4FF601E0
:101FC000C601089607C0C3010E947008B9C08E17E9
:101FD0009F0749F09F014191DB014D93BD01D9015C
:101FE0002C912111F4CF18A201C0198E053008F0F0
:101FF00004E00E8B09A31AA26E01B2E0CB0ED11C35
:10200000C6010E948D08CE010C960E948D08D987CA
:10201000C88785E090E0801B91099D878C87DB8BCA
:10202000CA8B1BA21CA21DA21EA21FA2A201B40148
:10203000C3010E94430999838883E114F10419F0D4
:10204000F701D183C0830FB6F8940F928091BF0639
:102050008F5F8093BF0680911F0790912007892B87
:10206000C1F5D0932007C0931F078091BF06813030
:1020700009F03FC002EF16E08FE1E82E87E0F82E6E
:10208000C8010E947F08075F1F4FE016F106C1F7E5
:1020900089EE96E00E947F0880EE96E00E947F081D
:1020A00083ED96E00E947F088AEC96E00E947F080C
:1020B00080EC96E00E947F0889EE96E09093DF0620
:1020C0008093DE0680EE96E09093DD068093DC063A
:1020D00010C08091BB0681110CC0E0911F07F091E8
:1020E000200796898E89891720F0D0932007C09306
:1020F0001F078091B7068F5F8093B7068E899091F6
:10210000BC06981710F48093BC06F9E08F9FC001BD
:102110001124B6018E50994F0E9491080F900FBE66
:102120008091BB06882351F0E0911F07F0912007B2
:1021300096898E89981710F40E94E60981E001C003
:102140008FEFDF91CF911F910F91FF90EF90DF9074
:10215000CF90BF90AF909F908F907F906F905F9047
:102160004F9008950F931F93CF93DF93EC010FB619
:10217000F8940F92892B21F4C0911F07D09120076A
:102180008E010E5F1F4FC8010E94EA088C899D894D
:10219000892B21F0CE010C960E94EA088091B706A7
:1021A0008F5F8093B70680911F0790912007C81713
:1021B000D90759F4B8018AEC96E00E949108809101
:1021C000C9068F5F8093C9060EC08091BF068150FB
:1021D0008093BF068F89988D0E947008CE010E945F
:1021E00070080E940D0F0F900FBE8091BB068823D0
:1021F00049F080911F0790912007C817D90711F463
:102200000E94E609DF91CF911F910F9108950F93DE
:102210001F93CF93DF9320911F07309120078217E0
:102220009307B9F10097A9F10FB6F8940F92FC014A
:1022300022853385205C364051F5FC01248935899F
:10224000F6E0233D3F0719F1232B09F5EC018C0142
:102250000E5F1F4FC8010E94EA088E899091BC064C
:10226000981710F48093BC0629E0829FC0011124C6
:10227000B8018E50994F0E949108E0911F07F0918C
:1022800020079E898689981710F00E94E6090F9012
:102290000FBEDF91CF911F910F910895EF92FF92A2
:1022A0001F93CF93DF93EC018A859B85805C9640DA
:1022B00099F48C899D8926E0833D920769F0892BEA
:1022C00059F48091B206882349F0BE01645F7F4FC4
:1022D00083ED96E00E94910810E021C0E0911F0775
:1022E000F091200711E09E898689981708F410E084
:1022F0007E0182E0E80EF11CC7010E94EA088E8987
:102300009091BC06981710F48093BC0629E0829F38
:10231000C0011124B7018E50994F0E949108812F5E
:10232000DF91CF911F91FF90EF900895EF92FF9270
:102330000F9383EBE82E86E0F82E00E020E030E0FB
:1023400045E550E061EC70E084E89FE00E94B00F4A
:10235000813091F4F8942FEF3FEF3093B60620933D
:10236000B5068093BB061092BE061092BD060F9173
:10237000FF90EF900C94AF090F91FF90EF900895AC
:10238000F8941092BB060C94E5098091B2068F5F19
:102390008093B20608950FB6F8940F928091BD060F
:1023A0009091BE060F900FBE08958091BD0690914A
:1023B000BE0608958091BF060895009721F480918C
:1023C0001F079091200749960895CF92DF92EF92D0
:1023D000FF920F931F93CF93DF938091B2068111E9
:1023E0008CC00091BD061091BE060F5F1F4F109369
:1023F000BE060093BD0601151105B9F48091DE06F5
:102400009091DF062091DC063091DD063093DF06E7
:102410002093DE069093DD068093DC068091B8065B
:102420008F5F8093B8060E940D0F8091B506909142
:10243000B606C0E00817190708F44FC0D9E0E091CC
:10244000DE06F091DF068081811103C08FEF9FEFE0
:1024500011C0E091DE06F091DF060580F681E02DE7
:10246000E680F780D70112968D919C9113970817FB
:10247000190728F49093B6068093B5062EC067011D
:10248000B2E0CB0ED11CC6010E94EA08F701848994
:102490009589892B21F0C7010C960E94EA08D70183
:1024A00056968C919091BC06981710F48093BC06B8
:1024B000D89FC0011124B6018E50994F0E949108F7
:1024C000E0911F07F0912007D70156969C918689CD
:1024D000981708F4B4CFC1E0B2CFE0911F07F09194
:1024E0002007E689B9E0EB9FF0011124EE50F94F87
:1024F0008081823040F0C1E006C08091BA068F5FD3
:102500008093BA06C0E08091B9068111C1E08C2F9A
:10251000DF91CF911F910F91FF90EF90DF90CF90BF
:102520000895EF92FF920F931F93CF93DF930FB60F
:10253000F8940F928091B20681508093B2068091F8
:10254000B206882311F080E052C08091BF06882334
:10255000D1F3C0E0D0E089E0F82EEE24E39480913E
:10256000D306882351F1E091D806F091D906C681AF
:10257000D781CE010C960E94EA088E010E5F1F4F94
:10258000C8010E94EA088E899091BC06981710F441
:102590008093BC06F89EC0011124B8018E50994F5B
:1025A0000E949108E0911F07F09120079E8986897B
:1025B0009817A8F2E092B906D2CFCD2B11F00E9465
:1025C0000D0FC091BA06CC2351F0D1E00E94E51165
:1025D0008111D093B906C150C9F71092BA06809103
:1025E000B906882309F4AFCF0E94E60981E00F9075
:1025F0000FBEDF91CF911F910F91FF90EF90089543
:102600000F931F93CF93DF938C01EB010E94C511B1
:102610004091BD065091BE06F80120813181C9016B
:102620008C0F9D1F4217530720F48217930740F425
:1026300003C08217930730F021E04817590718F0BC
:1026400020E001C021E0F80191838083222329F05A
:1026500060E0841B950B0E94280F0E94911281114B
:1026600002C00E94E609DF91CF911F910F9108955A
:10267000CF93DF93EC01892B19F40E94E6090AC07D
:102680000E94C51160E0CE010E94280F0E949112A5
:10269000882399F3DF91CF9108958091B206882322
:1026A00021F081E08093B90608951092B9068091D7
:1026B000BC0669E0482F50E0649F9001659F300D93
:1026C0001124F901EE50F94F9081911102C081500F
:1026D000F1CFA181B28112960D90BC91A02DB28351
:1026E000A1832B50394FA217B30731F412962D91C5
:1026F0003C9113973283218399E0949FF001959F39
:10270000F00D1124EE50F94F0180F281E02D268169
:1027100037813093200720931F078093BC060895CC
:102720000F931F93CF93DF93EC010FB6F8940F92A2
:10273000892B21F4C0911F07D09120078E010E5FD5
:102740001F4FC8010E94EA088C899D89892B21F0BE
:10275000CE010C960E94EA08B80180EC96E00E9437
:1027600091088FA1813009F41FA20F900FBE8091B4
:10277000BB06882339F00FB6F8940F920E940D0F14
:102780000F900FBE80911F0790912007C817D9079F
:10279000C1F48091BB06882319F00E94E60911C09C
:1027A0009091C0068091BF06981305C01092200733
:1027B00010921F0706C0DF91CF911F910F910C94CB
:1027C0004D13DF91CF911F910F910895CF93DF9318
:1027D000EB0160911F0770912007645F7F4F0E949B
:1027E000B20861E0CE01DF91CF910C94280FCF9316
:1027F000DF93EA01E0911F07F09120077068758769
:10280000648760911F0770912007645F7F4F0E946B
:10281000910861E0CE01DF91CF910C94280F0F93C6
:102820001F93CF93DF93DC011596ED91FC911697E2
:10283000C681D7818E01045F1F4FC8010E94EA083C
:102840008091B206811114C00A501109C8010E947A
:10285000EA088E899091BC06981710F48093BC0604
:10286000B9E08B9FC0011124B8018E50994F03C06D
:10287000B80183ED96E00E949108E0911F07F09166
:1028800020079E898689891720F481E08093B90604
:1028900001C080E0DF91CF911F910F9108950F93B8
:1028A0001F93CF93DF937068FC0171836083C681AF
:1028B000D7810E94EA088E010E5F1F4FC8010E9457
:1028C000EA088E899091BC06981710F48093BC0694
:1028D000F9E08F9FC0011124B8018E50994F0E94DA
:1028E0009108E0911F07F09120079E89868989173A
:1028F00018F481E08093B906DF91CF911F910F9179
:1029000008950FB6F8940F922091B806FC01208329
:102910002091BD063091BE06328321830F900FBEF9
:1029200008952091B806FC0120832091BD063091C6
:10293000BE06328321830895CF93DF930FB6F894B8
:102940000F924091BD065091BE06DB012D913C9146
:102950002F3FBFEF3B07D9F0EC01E981FA81A0914D
:10296000B806B881BA1719F04E175F0790F44E1BDE
:102970005F0BFB014217530738F4241B350B3183DF
:1029800020830E94911403C01182108202C080E053
:1029900001C081E00F900FBEDF91CF91089581E0DB
:1029A0008093B906089580911F079091200708959C
:1029B0000F931F93CF93DF93FC01892B09F455C02C
:1029C0008689A0911F07B091200756969C91891780
:1029D00008F041C02485358537FD0CC0A0911F0744
:1029E000B091200756969C9125E030E0291B3109D3
:1029F0003587248729E0829FC00111248E50994F8A
:102A00002285338528173907E9F48F01EF012296D3
:102A1000CE010E94EA08E0911F07F0912007868905
:102A2000F801868B9091BC06981710F48093BC0631
:102A3000F9E08F9FC0011124BE018E50994F0E9472
:102A4000910807C0A0911F07B091200756968C915E
:102A5000868B81E00BC0A0911F07B091200781E019
:102A600021A156969C91291708F080E0DF91CF9123
:102A70001F910F9108950F931F93CF93DF93FC0144
:102A8000892B11F480E02CC082A1815082A3268979
:102A900091A12917B9F38111F5CFEF018F010E5FD5
:102AA0001F4FC8010E94EA0889A18E8B482F50E071
:102AB00025E030E0241B350B3D872C879091BC0628
:102AC000981710F48093BC0629E0249FC001259F2D
:102AD000900D1124B8018E50994F0E94910881E009
:102AE000DF91CF911F910F9108950F931F93CF9373
:102AF000DF93FC01892BD9F191A1961708F4962F49
:102B000086898917A1F122A1213089F5968B248528
:102B1000358537FD06C025E030E0291B31093587B2
:102B2000248729E0829FC00111248E50994F22856D
:102B3000338528173907D9F4EF018F010E5F1F4F36
:102B4000C8010E94EA088E899091BC06981710F47B
:102B50008093BC0629E0829FC0011124B8018E50E9
:102B6000994FDF91CF911F910F910C949108DF91B4
:102B7000CF911F910F910895E0911F07F0912007C9
:102B800084859585E0911F07F0912007A0911F078C
:102B9000B091200756964C9125E030E0241B310976
:102BA00035872487089580911F0790912007892BEE
:102BB00039F0E0911F07F091200782A18F5F82A377
:102BC00080911F079091200708950F931F93182F4E
:102BD000CB010FB6F8940F92E0911F07F0912007F8
:102BE00043A154A165A176A1452B462B472B69F43F
:102BF000E0911F07F091200721E027A3009729F01B
:102C000061E00E94280F0E94E6090F900FBE0FB6E8
:102C1000F8940F92E0911F07F091200763A174A12F
:102C200085A196A16115710581059105A9F0E09135
:102C30001F07F0912007112329F013A214A215A257
:102C400016A20AC08B019C0101501109210931090A
:102C500003A314A325A336A3E0911F07F091200737
:102C600017A20F900FBE1F910F9108954F925F9280
:102C70006F927F928F929F92AF92BF92EF92FF924C
:102C80000F931F9349015A010FB6F8940F92E091E8
:102C90001F07F091200727A1223039F1E0911F078B
:102CA000F091200723A134A145A156A12B013C019D
:102CB0004094509460947094D301C2018223932372
:102CC000A423B52383A394A3A5A3B6A3E0911F07D0
:102CD000F091200781E087A3E114F10431F061E075
:102CE000C7010E94280F0E94E6090F900FBE0FB681
:102CF000F8940F920115110569F0E0911F07F0910A
:102D0000200783A194A1A5A1B6A1F8018083918396
:102D1000A283B383E0911F07F091200787A182303F
:102D2000C1F4E0911F07F091200743A154A165A1D0
:102D300076A1D501C40180959095A095B095842386
:102D40009523A623B72383A394A3A5A3B6A381E0C9
:102D500001C080E0E0911F07F091200717A20F90BB
:102D60000FBE1F910F91FF90EF90BF90AF909F907B
:102D70008F907F906F905F904F9008950F931F9367
:102D8000CF93DF93FC010FB6F8940F920115110554
:102D900049F083A194A1A5A1B6A1E80188839983F4
:102DA000AA83BB8337A182E087A3223089F058F43D
:102DB000213001F583A194A1A5A1B6A1482B592BDF
:102DC0006A2B7B2B13C0233089F0243069F012C0AA
:102DD00083A194A1A5A1B6A10196A11DB11D83A3B4
:102DE00094A3A5A3B6A306C0323049F143A354A3CC
:102DF00065A376A3313009F5EF018F010E5F1F4FF8
:102E0000C8010E94EA088E899091BC06981710F4B8
:102E10008093BC0629E0829FC0011124B8018E5026
:102E2000994F0E949108E0911F07F09120079E8919
:102E30008689891710F40E94E60981E001C080E0CC
:102E40000F900FBEDF91CF911F910F910895EF92D8
:102E5000FF920F931F93CF93DF93FC010115110590
:102E600049F083A194A1A5A1B6A1E8018883998323
:102E7000AA83BB8337A182E087A3223089F058F46C
:102E8000213001F583A194A1A5A1B6A1482B592B0E
:102E90006A2B7B2B13C0233089F0243069F012C0D9
:102EA00083A194A1A5A1B6A10196A11DB11D83A3E3
:102EB00094A3A5A3B6A306C03230D9F143A354A36B
:102EC00065A376A3313011F081E034C0EF01809129
:102ED000B206811115C08F010E5F1F4FC8010E94FD
:102EE000EA088E899091BC06981710F48093BC066E
:102EF000E9E08E9FC0011124B8018E50994F05C0A2
:102F0000BF01645F7F4F83ED96E00E949108E091DE
:102F10001F07F09120079E8986898917A8F6E1147A
:102F2000F10419F081E0E701888381E08093B9061C
:102F300001C080E0DF91CF911F910F91FF90EF9042
:102F40000895EF92FF920F931F93CF93DF93FC01AD
:102F500027A182E087A383A194A1A5A1B6A1019690
:102F6000A11DB11D83A394A3A5A3B6A32130A1F5F0
:102F70008B01EF018091B206811116C07F0122E022
:102F8000E20EF11CC7010E94EA088E899091BC06EE
:102F9000981710F48093BC06E9E08E9FC0011124BD
:102FA000B7018E50994F05C0BF01645F7F4F83ED1D
:102FB00096E00E949108E0911F07F09120079E89FA
:102FC0008689891748F40115110519F081E0F80187
:102FD000808381E08093B906DF91CF911F910F919B
:102FE000FF90EF900895009721F480911F07909132
:102FF00020070FB6F8940F92FC0127A1223019F494
:1030000017A281E001C080E00F900FBE0895991BC8
:1030100079E004C0991F961708F0961B881F7A95CF
:10302000C9F780950895AA1BBB1B51E107C0AA1FD1
:10303000BB1FA617B70710F0A61BB70B881F991F59
:103040005A95A9F780959095BC01CD01089597FBFD
:10305000072E16F4009407D077FD09D00E941318AC
:1030600007FC05D03EF4909581959F4F089570958B
:1030700061957F4F0895FB01DC0102C001900D9224
:0C30800041505040D8F70895F894FFCF5D
:10308C000A313233413435365E373839762A303CA2
:10309C003E414D00504D006D696E7574657300684E
:1030AC006F757273000000040A150404040E111FDE
:1030BC0011111B15110000110E1517110E736563FC
:1030CC006F6E6473004B50445F636865636B0045BF
:1030DC006E74657220747970696E67206D6F6465AB
:0630EC000049444C4500C0
:00000001FF
