:100000000C9434000C94D0070C94F9070C9422083B
:100010000C9451000C9451000C9451000C94091054
:100020000C9451000C9451000C9451000C9451000C
:100030000C9451000C9451000C9451000C945100FC
:100040000C9451000C9451000C9451000C945100EC
:100050000C945100B41FB41FB41FF31FDE1FED1F1B
:10006000B41FB41FF31FDE1F11241FBECFE5D8E05D
:10007000DEBFCDBF10E0A0E6B0E0E0E6F1E402C0F4
:1000800005900D92A83EB107D9F727E0A8EEB0E0A1
:1000900001C01D92A038B207E1F70E94880E0C94AF
:1000A000AE200C940000089520E040E050E060E0B5
:1000B00070E080917207909173070C942911CF938F
:1000C000DF9300D0CDB7DEB70E9459176091FD00D5
:1000D00048E354E0649F9001659F300D1124821B1A
:1000E000930B9A83898382E00E94B60A8AE30E9476
:1000F0006E0A1CE06AE070E08091720790917307CD
:100100000E94BD12882329F180E00E94B60A8091E6
:10011000FC00612F0E94322081E0890F0E94390B80
:1001200086E00E94B60A8091FB00811103C081E73E
:1001300090E002C084E790E00E94780A20E040E06E
:1001400050E060E070E080917207909173070E9428
:10015000291160E27DEFCE0101960E948E188091F8
:10016000FC008F5F8C3031F49091FB009F5F9170A9
:100170009093FB00612F0E9432209093FC00BACF35
:10018000CF93DF9300D0CDB7DEB70E9459179A8383
:10019000898382E00E94B60A8AE30E946E0A1CE309
:1001A0008091F60080FF21C09091FC008091F900C1
:1001B00098131BC09091FD008091FA00981315C010
:1001C0009091FB008091F80098130FC080EFE82E0B
:1001D00080E0F82E05E020E030E042E350E069E8FE
:1001E00070E082EF94E00E943A156AE070E080913E
:1001F0007207909173070E94BD128823F1F083E08B
:100200000E94B60A8091FD000E94390B89E00E948D
:10021000B60A8091F60080FF02C080E001C080E253
:100220000E946E0A20E040E050E060E070E08091C3
:100230007207909173070E94291168E374E0CE0160
:1002400001960E948E188091FD008F5F612F0E94A1
:1002500032209093FD00A4CF80E090E00E941E1910
:1002600081E00E94000C81E00E94070C82E090E097
:100270000E94C61880E00E94000CEECF80E090E063
:100280000E941E19C0E08C2F869590E080519F4FF0
:100290000E94852090E0C0FBEE24E0F8F12C97014D
:1002A000220F331F220F331F02C0959587952A9581
:1002B000E2F7D82FDF70DE3061F0DF3069F0877051
:1002C0000E94000C8D2F8695869586950E94070CBE
:1002D00005C005E010E002C002E010E0C8010E9485
:1002E000C618CF5FCF71CFCF0E94970A80E00E94DF
:1002F000B60A8091FC006CE00E94322081E0890FF8
:100300000E94390B82E00E94B60A8AE30E946E0ABC
:100310008091FD006CE30E943220892F0E94390BEE
:1003200086E00E94B60A8091FB00811103C081E73C
:1003300090E002C084E790E00E94780A89E00E9481
:10034000B60A8091F60080FF02C080E001C080E222
:100350000C946E0ACF93DF9300D0CDB7DEB70E9426
:1003600059179A8389831CE36AE070E080917207D1
:10037000909173070E94BD12882391F08EE00E9435
:10038000B60A8091FE000E94390B20E040E050E068
:1003900060E070E080917207909173070E942911CC
:1003A00062E170E0CE0101960E948E188091FE00FD
:1003B0008F5F612F0E9432209093FE00D5CF209155
:1003C0006000822F90E0019663E070E00E9452206E
:1003D000892B61F481E0820F0E94B60A80E20E94BC
:1003E0006E0A809160008F5F809360008091600052
:1003F0008F5F873119F08093600005C080E18093A2
:1004000060000E94B60A81E00C946E0A20916000A0
:10041000822F90E0019763E070E00E945220892BC8
:1004200061F48FEF820F0E94B60A80E20E946E0A8A
:1004300080916000815080936000809160008150C5
:100440008E3019F08093600005C086E180936000D3
:100450000E94B60A809160000E94B60A81E00C9466
:100460006E0ACF93DF93209160002631D9F4EC011E
:1004700088818F5F8170888386E00E94B60A8881B8
:10048000811103C081E790E002C084E790E00E9400
:10049000780A809160000E94B60A81E0DF91CF91D6
:1004A0000C946E0ADF91CF910895CF93DF93EC0106
:1004B000E62FD901809160008131F9F068F4803134
:1004C00009F04AC08881880F8056982F990F990F9C
:1004D000282F290FDA0127C08331E9F08431E1F5B3
:1004E0008C916AE00E943220880F982F990F990F03
:1004F000890F80539881890F1DC0DA018C916AE0C1
:100500000E94322098819153BAE08B9F900D112464
:10051000892FDA010FC08881880F8056982F990F94
:10052000990F282F290F8C916AE00E943220920F98
:100530009C9301C08C9381E090E002C0880F991FCA
:10054000EA95E2F72091F6003091F700822B932B89
:100550009093F7008093F6008091600080510E9494
:10056000B60A80916000863119F088810E946E0A77
:10057000809160008F5F0E94B60A20916000822FF8
:1005800090E0019663E070E00E945220892B61F4B4
:1005900081E0820F0E94B60A80E20E946E0A80917A
:1005A00060008F5F80936000809160008F5F873173
:1005B00019F08093600005C080E1809360000E9484
:1005C000B60A81E0DF91CF910C946E0ACF93DF934E
:1005D000CDB7DEB761970FB6F894DEBF0FBECDBFC3
:1005E0008FEF898B80E090E00E941E19CE0101966A
:1005F0000E94B308898B8F3FC9F18091E8009091E8
:10060000E9000E949116809160000E94B60A80E283
:100610000E946E0A89898E3339F08E3541F08C3311
:1006200091F40E94060222C00E94DF011FC0809147
:10063000F60081FD03C08BEF90E002C088EF90E0F0
:100640000E94310213C08091F60081FD06C02DEF9B
:1006500030E04CEF50E068E005C02AEF30E049EFB1
:1006600050E069E0CE0141960E94550284E090E09E
:100670000E94C618BBCFEF92FF920F9320E040E09C
:1006800050E060E070E080917207909173070E94E3
:10069000291180E10E94B60A0E94740180916000D5
:1006A0000E94B60A80E20E946E0A80E18093600098
:1006B0008091F6009091F70090FF32C08091F40095
:1006C0009091F500009731F00E943C161092F500D1
:1006D0001092F40094EFE92E90E0F92E02E020E071
:1006E00030E046E450E067E770E080EC90E00E9484
:1006F0003A158091F2009091F300009731F00E943A
:100700003C161092F3001092F2008091F600909146
:10071000F7009E7F9093F7008093F6001092FE0002
:1007200082EFE82E80E0F82E03E020E030E046E49F
:1007300050E06FE770E08FE590E00E943A150F916E
:10074000FF90EF9008956AE070E0809172079091B9
:1007500073070E94BD12882341F080E180936000FE
:100760000E94B60A81E00C946E0A08958091F6000A
:100770009091F7009C012078332780799927892B65
:1007800049F40E94A3038091EC009091ED000E9437
:1007900091160AC0232B41F40E943B038091EC0088
:1007A0009091ED000E941E198091F6009091F70043
:1007B00020E182279093F7008093F60008956AE085
:1007C00070E080917207909173070E94BD12882398
:1007D000A9F180E1809360000E94B60A81E00E9446
:1007E0006E0A8091F6009091F70082609093F70076
:1007F0008093F60080E00E94B60A80E00E94390BE8
:1008000082E00E94B60A8AE30E946E0A80E00E949B
:10081000390B86E00E94B60A8091F800811103C06E
:1008200081E790E002C084E790E00E94780A87E1C7
:100830000E94B60A85E890E00C94780A08958091A9
:10084000F6009091F70091FF05C081609093F7004A
:100850008093F6008091F6009091F7009D7F909331
:10086000F7008093F6000E94970A80E18093600071
:100870000E94B60A81E00E946E0A8091F600909173
:10088000F7008D7F9093F7008093F6000E9474012B
:1008900020E040E050E060E070E0809172079091CD
:1008A00073070C94291180E090E00E941E1980913A
:1008B000F0009091F100892B21F08091F60080FDED
:1008C000F2CF80917007909171070E9417208111DB
:1008D000EACF8091E8009091E9000E9491160E9471
:1008E00059170AE010E020E030E0AC0162E08091AE
:1008F0007007909171070E94651E80917607909114
:1009000077070E94172081110DC00E94591720E01F
:1009100030E0AC0162E080917607909177070E9409
:10092000651EC1CF0AE010E020E030E040E050E07A
:1009300063E080917607909177070E94651E809111
:10094000F6009091F7009C01207133278079992758
:10095000892B49F40E94DF038091EC009091ED0017
:100960000E9491160BC0232B09F09DCF0E941F04FB
:100970008091EC009091ED000E941E198091F6008C
:100980009091F70080589093F7008093F6008BCFFA
:10099000CF93DF93D82FC62F64E170E08091720768
:1009A000909173070E94BD128823C9F00E94970A94
:1009B00080E00E94B60A8FE890E00E94780A81E009
:1009C0008C0F0E94390B87E00E94B60A6C2F8D2F86
:1009D0000E947D0780E1DF91CF910C94B60ADF91F0
:1009E000CF910895CF93DF93CDB7DEB760970FB661
:1009F000F894DEBF0FBECDBF8091EE009091EF0066
:100A00000E9491168091F6009091F7008860909373
:100A1000F7008093F600C12C10E0EE24EA94F12C4C
:100A200080917407909175070E9417208111F8CF6B
:100A30008091F60083FF17C00E945917B7010E94EA
:100A40003E20082FD82E0E945917682F6F73802FD1
:100A50000E94C8048091F6009091F700877F9093E0
:100A6000F7008093F600CE0101960E94B308082F8C
:100A70008091F60080FF56C080ED800F8A3078F4B8
:100A8000110F812F880F880F180F1053100F80E15E
:100A90008C0D0E94B60A802F0E946E0AC39483E0D8
:100AA000C81619F0053409F054C08091F6009091F1
:100AB000F7001D1118C08E7F9093F7008093F60009
:100AC0000E94970A80E00E94B60A84E990E00E94A2
:100AD000780A82E00E946E0A8091EE009091EF0009
:100AE0000E941E190EC088609093F7008093F60054
:100AF0000E94970A80E00E94B60A83EA90E00E9472
:100B0000780A0E9459170AE010E020E030E0AC01BA
:100B100062E080917407909175070E94651EC12C58
:100B200010E017C020E040E050E060E070E080910D
:100B30007207909173070E9429110E94740180919D
:100B4000F0009091F1000E943C161092F10010927A
:100B5000F00084E090E00E94C61862CF8091EA0025
:100B60009091EB000E94D8160E94540F0895EF92C6
:100B7000FF920F931F9381E00E94BF119093730720
:100B80008093720706EB13E020E030E040E069E07C
:100B900070E080EB90E00E942E1E90937707809388
:100BA000760703E510E021E030E040E066E070E029
:100BB00086EB90E00E942E1E909371078093700741
:100BC00004E510E022E030E040E066E370E08DEB09
:100BD00090E00E942E1E90937507809374078CEE10
:100BE000E82E80E0F82E04E020E030E046E450E01B
:100BF00064EC70E086EE92E00E943A159AEEE92EDF
:100C000090E0F92E05E020E030E040E550E068ECAF
:100C100070E083E594E00E943A1528EEE22E20E091
:100C2000F22E04E020E030E042E350E061ED70E0BD
:100C30008CE291E00E943A153EEEE32E30E0F32E76
:100C400005E020E030E042E350E066ED70E08EE346
:100C500091E00E943A151F910F91FF90EF90089537
:100C60001ABA17BA14BA11BA0895803208F06CC0D3
:100C7000623008F069C0982F9770869586958695A2
:100C80008230A1F1833009F448C08130B9F04AB311
:100C900021E030E0613039F401C0220F9A95EAF783
:100CA000242B2ABB17C0B90102C0660F771F9A9583
:100CB000E2F7CB01809584238ABB0CC047B321E0C7
:100CC00030E0611109C001C0220F9A95EAF7209522
:100CD000242327BB80E00895B90102C0660F771F67
:100CE0009A95E2F7CB01842B87BBF4CF44B321E084
:100CF00030E0613039F401C0220F9A95EAF7242BD5
:100D000024BBE8CFB90102C0660F771F9A95E2F7BE
:100D1000CB018095842384BBDDCF41B321E030E05B
:100D2000613039F401C0220F9A95EAF7242B21BBD8
:100D3000D1CFB90102C0660F771F9A95E2F7CB01B8
:100D40008095842381BBC6CF81E00895803208F06E
:100D50006CC0623008F069C0982F977086958695B0
:100D600086958230A1F1833009F448C08130B9F012
:100D70004BB321E030E0613039F401C0220F9A9585
:100D8000EAF7242B2BBB17C0B90102C0660F771FEF
:100D90009A95E2F7CB01809584238BBB0CC048B3B6
:100DA00021E030E0611109C001C0220F9A95EAF7F5
:100DB0002095242328BB80E00895B90102C0660F66
:100DC000771F9A95E2F7CB01842B88BBF4CF45B30C
:100DD00021E030E0613039F401C0220F9A95EAF742
:100DE000242B25BBE8CFB90102C0660F771F9A9567
:100DF000E2F7CB018095842385BBDDCF42B321E0B0
:100E000030E0613039F401C0220F9A95EAF7242BC3
:100E100022BBD1CFB90102C0660F771F9A95E2F7C6
:100E2000CB018095842382BBC6CF81E008958430B6
:100E300078F4823041F0833049F0813011F06ABBA0
:100E400003C067BB01C064BB80E0089561BBFCCFF9
:100E500081E00895843078F4823041F0833049F0A5
:100E6000813011F06BBB03C068BB01C065BB80E083
:100E7000089562BBFCCF81E00895FB018032E0F46D
:100E8000282F2770869586958695823041F083308D
:100E900041F0813011F089B305C086B303C083B33C
:100EA00001C080B390E002C0959587952A95E2F73E
:100EB0008170808380E0089581E00895FB01843093
:100EC00080F4823041F0833041F0813011F089B3F9
:100ED00005C086B303C083B301C080B3808380E0C4
:100EE000089581E008952AE0629FB00111246059BD
:100EF0007E4F4AE050E00C948D200F931F93CF93C8
:100F0000DF93182F2AE0629FE00111248A3048F114
:100F1000843640F46AE00E943220192F9E01280F87
:100F2000311D18C00AE064E60E9432209E01280F9D
:100F3000311DC90180599E4F0E9485200E946E0A72
:100F4000812F602F0E943220192F0E9432209E0193
:100F5000290F311DC90180599E4F0E9485200E9492
:100F60006E0ACE01810F911D80599E4F0E948520EF
:100F7000DF91CF911F910F910C946E0A0F931F93E5
:100F8000CF938C01C0E06C2FC8010E947307CF5F24
:100F9000055F1F4FC034B9F7CF911F910F9108958E
:100FA0001F920F920FB60F9211242F933F934F93DE
:100FB0005F936F937F938F939F93AF93BF93EF93C1
:100FC000FF93E091FF00F0910001309709F009953F
:100FD000FF91EF91BF91AF919F918F917F916F9111
:100FE0005F914F913F912F910F900FBE0F901F90E7
:100FF00018951F920F920FB60F9211242F933F93C3
:101000004F935F936F937F938F939F93AF93BF9310
:10101000EF93FF93E0910101F0910201309709F005
:101020000995FF91EF91BF91AF919F918F917F9122
:101030006F915F914F913F912F910F900FBE0F9045
:101040001F9018951F920F920FB60F9211242F9395
:101050003F934F935F936F937F938F939F93AF9340
:10106000BF93EF93FF93E0910301F0910401309758
:1010700009F00995FF91EF91BF91AF919F918F91E9
:101080007F916F915F914F913F912F910F900FBE84
:101090000F901F901895E82FF0E0EE0FFF1FE15022
:1010A000FF4F7183608308958FB780688FBF089565
:1010B000813039F018F0823039F008958BB78064B0
:1010C00005C08BB7806802C08BB780628BBF089564
:1010D000813039F018F0823039F008958BB78F7B6A
:1010E00005C08BB78F7702C08BB78F7D8BBF0895FC
:1010F0008130D1F018F0823071F10895611103C090
:1011000085B78C7F26C0633019F485B7836021C012
:10111000623021F485B78E7F82601BC0613011F58B
:1011200085B78D7F816015C0611103C085B7837F4E
:1011300010C0633019F485B78C600BC0623021F4A5
:1011400085B78B7F886005C0613061F485B7877F84
:10115000846085BF089584B7613011F4806401C054
:101160008F7B84BF08956F927F928F929F92AF92F0
:10117000BF92CF92DF92EF92FF920F931F93CF9384
:10118000DF931F92CDB7DEB77C01198208E717E025
:1011900066246A94912C77247394580160E0F801D6
:1011A00080810E94A6068CE7C82E87E0D82E812C6D
:1011B000BE016F5F7F4FF60181916F010E943D0775
:1011C0002981882D890D90E0F701E80FF91F213062
:1011D00011F4108205C07082FC01EF59FF4F60804E
:1011E000F4E08F0E80E18812E3CF0F5F1F4F61E0C4
:1011F000F50180810E94A6069394F4E09F12CDCF62
:10120000862D0F90DF91CF911F910F91FF90EF905E
:10121000DF90CF90BF90AF909F908F907F906F9016
:10122000089560E08FE00E94350660E08EE00E9445
:10123000350660E08DE00E94350660E08CE00E949B
:10124000350661E08AE00E94350661E089E00E948F
:10125000350661E088E00E94350661E089E10E9480
:10126000350661E08FE00E94A60661E08EE00E94F4
:10127000A60661E08DE00E94A60661E08CE00E9477
:10128000A606ECE7F7E08FE080838EE081838DE0B7
:1012900082838CE08383E8E7F7E08AE0808389E05B
:1012A000818388E0828389E1838308958130A1F17D
:1012B00038F0823009F45BC0833009F483C00895AC
:1012C0006FE080E00E94170761E084E00E94A606BC
:1012D00061E085E00E94A60661E086E00E94A60625
:1012E00061E087E00E94A60687E080937C0783E0A8
:1012F0008093780786E080937D0782E0809379076A
:1013000085E080937E0781E080937A0784E0809374
:101310007F0710927B0708956FE081E00E94170716
:1013200061E08CE00E94A60661E08DE00E94A606C6
:1013300061E08EE00E94A60661E08FE00E94A606B2
:101340008FE080937C078BE0809378078EE080931A
:101350007D078AE0809379078DE080937E0789E09E
:1013600080937A078CE080937F0788E055C06FE018
:1013700082E00E94170761E089E10E94A60661E011
:1013800085E10E94A60661E086E10E94A60661E072
:1013900087E10E94A60687E180937C0788E080931E
:1013A000780786E180937D0787E08093790785E160
:1013B00080937E0786E080937A0784E180937F079D
:1013C00085E02AC06FE083E00E94170761E08CE1AE
:1013D0000E94A60661E08DE10E94A60661E08EE112
:1013E0000E94A60661E08FE10E94A6068FE180932D
:1013F0007C078BE1809378078EE180937D078AE1FB
:10140000809379078DE180937E0789E180937A0745
:101410008CE180937F0788E180937B070895E0E06B
:10142000DC012D91CD01213029F4F0E0EF59FF4F7F
:1014300080810895EF5FE03199F78FEF0895CF93A2
:10144000C82F60E086E00E94A6066C2F617080E1E4
:101450000E94A606C1FB662760F981E10E94A606EC
:10146000C2FB662760F982E10E94A606C3FB6627DD
:1014700060F983E10E94A606C4FB662760F984E157
:101480000E94A606C5FB662760F985E10E94A606B4
:10149000C6FB662760F986E10E94A6066C2F661FD0
:1014A0006627661F87E10E94A60661E087E00E942A
:1014B000A6068FEC97E00197F1F700C0000060E00E
:1014C00087E0CF910C94A606CF93C82F60E085E00B
:1014D0000E94A6068C2FCF910C941F0ACF93C82F81
:1014E00061E085E00E94A6068C2FCF910C941F0A24
:1014F000EF92FF920F931F93CF937C01C0E087017F
:101500000C0F111DF8018081882359F0C03119F4A6
:1015100080EC0E94640AF80180810E946E0ACF5F0D
:10152000EECFCF911F910F91FF90EF90089581E042
:101530000C94640A0F931F93CF938C01C0E0F801C1
:10154000EC0FF11D8081882369F00E946E0A2FEF55
:1015500084E39CE0215080409040E1F700C000000F
:10156000CF5FEDCFCF911F910F910895803110F48F
:10157000805801C080550C94640A0F931F93CF9339
:10158000DF938C01C0E08C2F0E94B60AD0E0F801F6
:10159000ED0FF11D8081882321F00E946E0ADF5F2C
:1015A000F6CF2FEF89E698E1215080409040E1F797
:1015B00000C000000E94970ACF5FC53021F7DF917D
:1015C000CF911F910F9108950F931F93CF93DF93A6
:1015D0008C01862F880F880F880F805C0E94640A18
:1015E000E801085F1F4F89910E946E0AC017D1075A
:1015F000D1F780E8DF91CF911F910F910C94640A8D
:10160000CF92DF92EF92FF920F931F93CF93DF93CE
:10161000EC0100E080E090E02AE0EAE0F0E02097D2
:1016200071F0289F7001299FF00C1124CE01BF0199
:101630000E943E208E0D9F1DEB010F5FF0CF10E04A
:101640002AE0E22EF12CC017D10750F4B7010E9416
:101650003E206B01805D0E946E0AC6012196F3CF89
:10166000DF91CF911F910F91FF90EF90DF90CF907E
:101670000895CF936AE00E943220C92F805D0E94B6
:101680006E0A80E38C0FCF910C946E0A805D0C94EF
:101690006E0AEF92FF921F93CF93DF93CDB7DEB721
:1016A00028970FB6F894DEBF0FBECDBF10E0E12C37
:1016B000F12C48E050E0B701CE0101960E94752060
:1016C000612FCE0101960E94E40A88E0E80EF11C29
:1016D0001F5F133071F728960FB6F894DEBF0FBE68
:1016E000CDBFDF91CF911F91FF90EF90089561E002
:1016F00085E00E94350661E086E00E94350661E0E3
:1017000087E00E94350661E080E10E94350661E0D5
:1017100081E10E94350661E082E10E94350661E0C8
:1017200083E10E94350661E084E10E94350661E0B4
:1017300085E10E94350661E086E10E94350661E0A0
:1017400087E10E9435062FE788E391E02150804031
:101750009040E1F700C000002FEF89EF90E02150AA
:1017600080409040E1F700C0000088E30E94640AD6
:1017700025E82A95F1F700008CE00E94640A85E8CC
:101780008A95F1F7000081E00E94640A8FE99FE0EA
:101790000197F1F700C000000C94490BCF93DF9341
:1017A000EC018A30910510F4805D23C084369105E8
:1017B00040F46AE070E00E943E20C82F80E3860F6C
:1017C00014C064E670E00E943E2080E3860F0E9411
:1017D0006E0A2AE030E0CE01B9010E943E20C82FF7
:1017E000CB01B9010E943E20805D0E946E0A80E319
:1017F0008C0F0E946E0ADF91CF91089513BE089559
:10180000811102C013BE0895886683BF08959AEAC5
:10181000899F802D1124805B8CBF08958F929F92A9
:10182000AF92BF92CF92DF92EF92FF92CF93DF936E
:101830004B015C01C0E0D0E0750164010C2E04C0D6
:10184000F694E794D794C7940A94D2F78C2D8770B6
:101850000E94000CC3FA882780F90E94070C249686
:10186000C032D10549F7DF91CF91FF90EF90DF9023
:10187000CF90BF90AF909F908F900895CF93DF93BC
:101880008BE090E00E94B80DEC01009731F0FC0174
:1018900011921192CF010E94F90DCE01DF91CF91EB
:1018A0000895AF92BF92CF92DF92EF92FF920F9383
:1018B0001F93CF93DF936C017B01B42EA22E0E9465
:1018C0005317F601C081D181CE018E219F21A11035
:1018D00003C0892B21F43BC0E816F906C1F5BB20F3
:1018E00041F0C701809590958C239D23F60191834B
:1018F000808300E010E00E941F18012B09F43DC016
:10190000811102C00E94540F0E94701B91FD1CC0E7
:101910000FB6F8940F92F6018081918197012823E8
:101920003923A11003C0232B21F40CC0E216F306C7
:1019300049F4BB2039F0E094F094E822F922F60152
:10194000F182E0820F900FBEEC01DD2716C0011579
:10195000110589F2BB2019F060E071E002C060E07F
:1019600070E0A11074606E297F29A801C60102965B
:101970000E948519C0E0D0E0BECFCE01DF91CF91AB
:101980001F910F91FF90EF90DF90CF90BF90AF909D
:101990000895FC010FB6F8940F92808191816095B3
:1019A000709568237923718360830F900FBE08952B
:1019B000FC01808191810895CF92DF92EF92FF9296
:1019C0000F931F93CF93DF938C01EB017C0185E094
:1019D000E80EF11C0E945317D8011796ED91FC9167
:1019E00018978D919C911197C82BD92BCD93DC938F
:1019F000C0E0D0E0D8016D917C911197EE15FF0504
:101A0000E1F0D280C38020813181C9019927AC01E6
:101A10004623572332FD03C0452B21F40BC0841706
:101A2000950741F430FF02C0C82BD92B7260CF015B
:101A30000E94F519ED2DFC2DDDCFC095D0956C23BE
:101A40007D236D937C930E941F18F8018081918102
:101A5000DF91CF911F910F91FF90EF90DF90CF908A
:101A60000895AF92BF92CF92DF92EF92FF920F93C1
:101A70001F93CF93DF937C01EB018A0169010E94E0
:101A80005317F701A080B180BE01C7010E94DC0C92
:101A9000CA29DB29CE01802391230817190769F48D
:101AA000F70120813181C80180959095822393238D
:101AB00091838083C12CD12C10C0C114D10451F06A
:101AC000A601B8017560C70102960E948519C0E0A1
:101AD000D0E003C0F701C081D1810E941F18CD283A
:101AE000F9F0811102C00E94540F0E94701B91FDF9
:101AF00015C00FB6F8940F92F7018081918198017B
:101B0000282339230217130739F4A801409550956B
:101B100048235923518340830F900FBEEC01DD27EA
:101B2000CE01DF91CF911F910F91FF90EF90DF9049
:101B3000CF90BF90AF900895CF93DF93EC010E94B8
:101B400053178A81882339F060E072E08F8198858D
:101B50000E94F519F6CFCE010E94EA0DDF91CF91D8
:101B60000C941F18BA010C94DC0CBA010C94C90C2B
:101B7000CF93DF93EC010E94531780910501909160
:101B80000601892B31F48AE091E09093060180935D
:101B900005012091070130910801C9018C0F9D1F9B
:101BA0008B3D45E0940770F42817390758F4C0912D
:101BB0000501D0910601C20FD31F909308018093B5
:101BC000070102C0C0E0D0E00E941F18CE01DF91E3
:101BD000CF91089508951092080110920701089579
:101BE00020910701309108018BED95E0821B930B4A
:101BF0000895FC010396928381832FEF3FEF348396
:101C00002383968385839087878310820895FC01C0
:101C1000118610860895CF93DF939C01FB01DC01B0
:101C20001196CD91DC911297D383C2838C819D81D3
:101C3000958384838C819D81DC0113967C936E93C4
:101C400012977D836C8331872087F90180818F5FB4
:101C50008083DF91CF9108950F931F93CF93DF93EC
:101C60008C01FB01808191818F3F2FEF920721F43E
:101C7000E801AF81B8850EC0D801139612962D9158
:101C80003C911397E901488159818417950710F019
:101C9000D901F4CF12968D919C91139793838283EF
:101CA000EC01FD83EC83B583A4831396FC93EE9340
:101CB000129711870087F80180818F5F8083DF9101
:101CC000CF911F910F910895CF93DF93FC01A085D1
:101CD000B1858281938124813581EC013D832C8300
:101CE000C481D5819B838A8311968D919C91129793
:101CF000E817F90721F41296DC93CE931197118619
:101D000010868C9181508C938C91DF91CF910895A6
:101D10000E94770B0E94970A0E9474010E94110989
:101D20000E94B7056EEA75E080E00E944B0860E013
:101D30008AE10E94350661E08AE10E94A60663E01E
:101D400080E00E9478080E94540880E00E945808B1
:101D500061E08BE00E9435060E94201780E090E051
:101D6000089531E1FC013083319722E220833197DD
:101D7000A3E3A083319760833197708331971082FA
:101D8000319760E8608331971082319762E0608319
:101D9000319763E06083319764E06083319765E059
:101DA0006083319766E06083319767E060833197A5
:101DB00068E06083319769E06083319760E1608318
:101DC00031973083319732E13083319733E130837B
:101DD000319734E13083319735E13083319736E103
:101DE0003083319737E13083319738E13083319751
:101DF00039E13083319730E23083319731E23083FB
:101E000031972083319723E22083319740833197A4
:101E10005083319726E22083319727E22083319740
:101E200028E22083319729E22083319720E3208321
:101E3000319721E32083869708958BE18BBD8FE155
:101E40008ABD8BE08EBD89B7806189BFA0915207A2
:101E5000B0915307CD91CDBFDD91DEBFFF91EF91E2
:101E6000DF91CF91BF91AF919F918F917F916F91B2
:101E70005F914F913F912F911F910F91FF90EF90A4
:101E8000DF90CF90BF90AF909F908F907F906F909A
:101E90005F904F903F902F901F900F900FBE0F902C
:101EA000089581E0089508950F920FB6F8940F9267
:101EB0001F9211242F923F924F925F926F927F92C6
:101EC0008F929F92AF92BF92CF92DF92EF92FF924A
:101ED0000F931F932F933F934F935F936F937F9332
:101EE0008F939F93AF93BF93CF93DF93EF93FF9322
:101EF000A0915207B09153070DB60D920EB60D92F8
:101F00000E94DB18A0915207B0915307CD91CDBF2D
:101F1000DD91DEBFFF91EF91DF91CF91BF91AF9146
:101F20009F918F917F916F915F914F913F912F91F1
:101F30001F910F91FF90EF90DF90CF90BF90AF90E7
:101F40009F908F907F906F905F904F903F902F90D9
:101F50001F900F900FBE0F9008950F920FB6F89438
:101F60000F921F9211242F923F924F925F926F9285
:101F70007F928F929F92AF92BF92CF92DF92EF9219
:101F8000FF920F931F932F933F934F935F936F9302
:101F90007F938F939F93AF93BF93CF93DF93EF93F1
:101FA000FF93A0915207B09153070DB60D920EB654
:101FB0000D920E94731781110E94DB18A0915207A5
:101FC000B0915307CD91CDBFDD91DEBFFF91EF9171
:101FD000DF91CF91BF91AF919F918F917F916F9141
:101FE0005F914F913F912F911F910F91FF90EF9033
:101FF000DF90CF90BF90AF909F908F907F906F9029
:102000005F904F903F902F901F900F900FBE0F90BA
:1020100008950E94AD0F18950FB6F8940F92FC0129
:10202000928D0F900FBE81E0911180E008950F9383
:102030001F93CF93DF93EC01042F1A8D4C8D411128
:102040000BC088819981892BE9F58C819D810E9443
:10205000EF1A1D821C8237C050E0011115C08A8121
:102060009B810E946C202C8D8A819B81820F911D07
:102070009B838A832C813D818217930718F1888185
:1020800099819B838A831EC08E819F810E946C20D0
:102090008C8D90E09195819591092E813F81280F3B
:1020A000391F3F832E83488159812417350730F427
:1020B0002C813D81820F931F9F838E83023011F408
:1020C0001111115080E01F5F1A8FDF91CF911F9186
:1020D0000F910895FC01CB01448D4423A1F050E001
:1020E00026813781240F351F3783268364817581CC
:1020F0002617370720F020813181378326836681B8
:1021000077810C946C200895EF92FF921F93CF93E8
:10211000DF93EC010FB6F8940F921E8D7C0181E1E4
:10212000E80EF11C11165CF48989882341F0C7017F
:102130000E94B51981110E94751A1150F3CF8FEFCB
:102140008E8F0F900FBE0FB6F8940F921D8D7E01EB
:1021500088E0E80EF11C11165CF48885882341F0B4
:10216000C7010E94B51981110E94751A1150F3CF51
:102170008FEF8D8F0F900FBEDF91CF911F91FF904A
:10218000EF900895CF93DF93EC010FB6F8940F9280
:10219000488159818B8D7C8D9A01879F200D311D3F
:1021A00011243D832C831A8E5B834A8390E0019730
:1021B000789F9001799F300D1124CA01820F931FDF
:1021C0009F838E838FEF8D8F8E8F61110CC08885DA
:1021D000882389F0CE0108960E94B519882359F00A
:1021E0000E94540F08C0CE0108960E94F90DCE013E
:1021F00041960E94F90D0F900FBE81E0DF91CF91C3
:1022000008950F931F93CF93DF93082F162F662304
:1022100021F0869FC001112402C080E090E04F961B
:102220000E94B80DEC01009771F0111103C0998361
:10223000888303C04F96998388830B8F1C8F61E03E
:10224000CE010E94C210CE01DF91CF911F910F915C
:102250000895AF92BF92CF92DF92FF920F931F9398
:10226000CF93DF9300D000D01F92CDB7DEB78C01A3
:102270006B015D834C83F22E80E0580198E0A90E3B
:10228000B11C0FB6F8940F92F801228D938D291787
:1022900018F0F2E0FF1214C04F2DB601C8010E94E1
:1022A0001710F8019189992321F0C80141960E94E5
:1022B000B51981110E94540F0F900FBE81E050C0DC
:1022C0002C813D81232B19F40F900FBE48C0811142
:1022D00004C0CE0101960E94371A0F900FBE0E94D3
:1022E00053170FB6F8940F92F801858D8F3F09F4BC
:1022F000158EF801868D8F3F09F4168E0F900FBE54
:10230000BE016C5F7F4FCE0101960E94421A81117F
:1023100021C00FB6F8940F92F801928D0F900FBE66
:10232000838D981311C06C817D81C5010E94741941
:10233000C8010E9484100E941F18882311F081E0B8
:10234000A0CF0E94540FFBCFC8010E9484100E94AE
:102350001F18F5CFC8010E9484100E941F1880E04A
:102360000F900F900F900F900F90DF91CF911F91D2
:102370000F91FF90DF90CF90BF90AF900895CF93D3
:10238000DF93482F60E081E00E940111EC0100978B
:1023900061F01D821C82198218821E8220E040E0BA
:1023A00050E060E070E00E942911CE01DF91CF91F2
:1023B0000895EF92FF921F93CF93DF93EC019A8DD4
:1023C0008B8D981710F02230E1F47A011E8D422F88
:1023D000CE010E9417101F3F81F48989882379F06C
:1023E000CE0141960E94B519882349F0E114F10409
:1023F00031F081E0F701808305C01F5F1E8F81E00F
:1024000001C080E0DF91CF911F91FF90EF90089580
:10241000CF93DF93FC01928D838D9817C0F4868D46
:102420009F5F928F8F3F79F48189882371F0EB0150
:10243000CF0141960E94B519882339F0209729F0E1
:1024400081E0888305C08F5F868F81E001C080E0D6
:10245000DF91CF910895AF92BF92CF92DF92FF921A
:102460000F931F93CF93DF9300D000D01F92CDB76F
:10247000DEB78C016B015D834C8380E0580191E1F4
:10248000A90EB11C0FB6F8940F92F801F28CFF2040
:10249000A9F0B601C8010E946A10FA94F801F28E00
:1024A0008085882339F0C80108960E94B5198111EA
:1024B0000E94540F0F900FBE81E050C02C813D81CF
:1024C000232B19F40F900FBE48C0811104C0CE0118
:1024D00001960E94371A0F900FBE0E9453170FB635
:1024E000F8940F92F801858D8F3F09F4158EF8014D
:1024F000868D8F3F09F4168E0F900FBEBE016C5F64
:102500007F4FCE0101960E94421A81111CC0C80162
:102510000E940C10882389F06C817D81C5010E9486
:102520007419C8010E9484100E941F18882311F09A
:1025300081E0A8CF0E94540FFBCFC8010E948410F5
:102540000E941F18F5CFC8010E9484100E941F1816
:10255000C8010E940C10882359F380E00F900F905F
:102560000F900F900F90DF91CF911F910F91FF90DF
:10257000DF90CF90BF90AF900895CF92DF92FF92FF
:102580000F931F93CF93DF9300D000D01F92CDB74E
:10259000DEB78C017D836C83F12C90E0680181E1D2
:1025A000C80ED11C0FB6F8940F92D8015A968C9190
:1025B0005A978823E9F081505A968C935A978D91B7
:1025C0009C91892B29F40E94871BF80195838483B1
:1025D000D80118968C91882339F0C80108960E947A
:1025E000B51981110E94540F0F900FBE81E07AC07F
:1025F0002C813D81232B09F472C0911104C0CE01BE
:1026000001960E94371A0F900FBE0E9453170FB603
:10261000F8940F92F801858D8F3F09F4158ED8013B
:102620005E968C915E978F3F11F45E961C920F9090
:102630000FBEBE016C5F7F4FCE0101960E94421A11
:1026400081112BC0C8010E940C10882301F1F801F0
:1026500080819181892B51F40FB6F8940F92848177
:1026600095810E948C1AF82E0F900FBE6C817D818F
:10267000C6010E947419C8010E9484100E941F188C
:10268000882311F091E08ECF0E94540FFBCFC80138
:102690000E9484100E941F18F5CFC8010E94841068
:1026A0000E941F18C8010E940C10882359F3FF20B4
:1026B000C1F00FB6F8940F92F8018189882339F0A0
:1026C0000688F789E02D808165E0681B01C060E025
:1026D000D80114968D919C9115970E94291B0F90FB
:1026E0000FBE80E00F900F900F900F900F90DF9132
:1026F000CF911F910F91FF90DF90CF900895CF92CF
:10270000DF92EF92FF920F931F93CF93DF9300D04E
:1027100000D01F92CDB7DEB78C017B015D834C8367
:1027200080E0680191E1C90ED11C0FB6F8940F92B8
:10273000F801928D9923B9F0C680D780B701C801FE
:102740000E946A10F801D782C6828189882339F0F5
:10275000C80141960E94B51981110E94540F0F9033
:102760000FBE81E050C02C813D81232B19F40F90C6
:102770000FBE48C0811104C0CE0101960E94371AD5
:102780000F900FBE0E9453170FB6F8940F92F801E6
:10279000858D8F3F09F4158EF801868D8F3F09F4E2
:1027A000168E0F900FBEBE016C5F7F4FCE0101965B
:1027B0000E94421A81111CC0C8010E940C1088237B
:1027C00089F06C817D81C6010E947419C8010E9444
:1027D00084100E941F18882311F081E0A6CF0E9468
:1027E000540FFBCFC8010E9484100E941F18F5CF20
:1027F000C8010E9484100E941F18C8010E940C107A
:10280000882359F380E00F900F900F900F900F9056
:10281000DF91CF911F910F91FF90EF90DF90CF90BC
:102820000895EF92FF920F931F93CF93DF93FC01D4
:10283000028D0023E9F07A01EC01158D0E946A10E7
:1028400001500A8F1F3F81F48885882379F0CE01DB
:1028500008960E94B519882349F0E114F10431F07B
:1028600081E0F701808305C01F5F1D8F81E001C0FB
:1028700080E0DF91CF911F910F91FF90EF9008952D
:102880000F931F93CF93DF93FC01228D222349F0F6
:10289000EC01068117810E946A101F830E8381E07C
:1028A00001C080E0DF91CF911F910F9108950FB685
:1028B000F8940F92FC01828D0F900FBE08950FB611
:1028C000F8940F92FC01228D0F900FBE838D821B16
:1028D0000895FC01828D08950C94EA0DFC01928DFF
:1028E00081E0911180E00895FC01928D81E0238DBB
:1028F000291380E00895CF93DF93EC010FB6F8948D
:102900000F928D8D8F3F09F41D8E8E8D8F3F09F4B0
:102910001E8E0F900FBE8A8D811104C0CE0141968C
:102920000E949D19CE01DF91CF910C948410E0910B
:102930001107F09112078081811103C08FEF9FEF83
:102940000CC0E0911107F09112070580F681E02D8F
:102950000680F781E02D828193819093E906809330
:10296000E8060895FF920F931F93CF93DF93EC0136
:10297000F62E0091F0061091F10680915207909189
:10298000530702960E94640ECF3F8FEFD80789F459
:10299000FF2079F060915207709153076E5F7F4F6F
:1029A00083EF96E0DF91CF911F910F91FF900C94F0
:1029B0000B0EC00FD11FE0915207F0915307D38344
:1029C000C2836091520770915307C017D10768F412
:1029D00080910F07909110076E5F7F4FDF91CF912D
:1029E0001F910F91FF900C942C0E809111079091E4
:1029F00012076E5F7F4F0E942C0E8091E806909127
:102A0000E906C817D90720F4D093E906C093E80671
:102A1000DF91CF911F910F91FF9008958091FC0657
:102A2000882309F10FB6F8940F92E0910207F09114
:102A30000307C681D781CE0102960E94640E809161
:102A4000F20681508093F2068091FC0681508093BB
:102A5000FC060F900FBE8F89988D0E94EA0DCE0163
:102A60000E94EA0DDBCF809125078230B8F20E94E8
:102A7000540FD4CF4F925F926F927F928F929F921A
:102A8000AF92BF92CF92DF92EF92FF920F931F937C
:102A9000CF93DF934C016B015A012901CA010E94B7
:102AA000B80D3C01892B09F4D5C088E290E00E9462
:102AB000B80DEC01009789F0788E6F8A21E0A21A98
:102AC000B1086A0C7B1CC114D104C9F0BC01675E5B
:102AD0007F4FF601C601089607C0C3010E94EA0DA8
:102AE000B9C08E179F0749F09F014191DB014D93BB
:102AF000BD01D9012C912111F4CF18A201C0198E6A
:102B0000053008F004E00E8B09A31AA26E01B2E0B2
:102B1000CB0ED11CC6010E94070ECE010C960E945E
:102B2000070ED987C88785E090E0801B91099D87B3
:102B30008C87DB8BCA8B1BA21CA21DA21EA21FA20C
:102B4000A201B401C3010E94B10E99838883E114EC
:102B5000F10419F0F701D183C0830FB6F8940F92F6
:102B60008091F2068F5F8093F206809152079091D8
:102B70005307892BC1F5D0935307C0935207809117
:102B8000F206813009F03FC005E217E082E5E82E49
:102B900087E0F82EC8010E94F90D075F1F4FE0166D
:102BA000F106C1F78CE197E00E94F90D83E197E00F
:102BB0000E94F90D86E097E00E94F90D8DEF96E0F6
:102BC0000E94F90D83EF96E00E94F90D8CE197E0E9
:102BD000909312078093110783E197E09093100779
:102BE00080930F0710C08091EE0681110CC0E09118
:102BF0005207F091530796898E89891720F0D09358
:102C00005307C09352078091EA068F5F8093EA06CC
:102C10008E899091EF06981710F48093EF06F9E0F3
:102C20008F9FC0011124B6018B5D984F0E940B0E3F
:102C30000F900FBE8091EE06882351F0E09152076D
:102C4000F091530796898E89981710F40E94540FBB
:102C500081E001C08FEFDF91CF911F910F91FF9025
:102C6000EF90DF90CF90BF90AF909F908F907F902C
:102C70006F905F904F9008950F931F93CF93DF93C2
:102C8000EC010FB6F8940F92892B21F4C0915207F2
:102C9000D09153078E010E5F1F4FC8010E94640E32
:102CA0008C899D89892B21F0CE010C960E94640E9F
:102CB0008091EA068F5F8093EA0680915207909197
:102CC0005307C817D90759F4B8018DEF96E00E9451
:102CD0000B0E8091FC068F5F8093FC060EC08091E6
:102CE000F20681508093F2068F89988D0E94EA0D3A
:102CF000CE010E94EA0D0E9497140F900FBE8091A2
:102D0000EE06882349F08091520790915307C81727
:102D1000D90711F40E94540FDF91CF911F910F91A9
:102D200008950F931F93CF93DF9320915207309113
:102D3000530782179307B9F10097A9F10FB6F894DA
:102D40000F92FC0122853385235F364051F5FC014B
:102D500024893589F7E026303F0719F1232B09F53F
:102D6000EC018C010E5F1F4FC8010E94640E8E891A
:102D70009091EF06981710F48093EF0629E0829F58
:102D8000C0011124B8018B5D984F0E940B0EE09199
:102D90005207F09153079E898689981710F00E9478
:102DA000540F0F900FBEDF91CF911F910F91089597
:102DB000EF92FF921F93CF93DF93EC018A859B855F
:102DC000835F964099F48C899D8927E0863092072D
:102DD00069F0892B59F48091E506882349F0BE01FA
:102DE000645F7F4F86E097E00E940B0E10E021C0E9
:102DF000E0915207F091530711E09E898689981758
:102E000008F410E07E0182E0E80EF11CC7010E9488
:102E1000640E8E899091EF06981710F48093EF0658
:102E200029E0829FC0011124B7018B5D984F0E9459
:102E30000B0E812FDF91CF911F91FF90EF9008959E
:102E4000EF92FF920F9386EEE82E86E0F82E00E0D8
:102E500020E030E045E550E06BED70E08EE095E17C
:102E60000E943A158130B1F40E940E1E813091F417
:102E7000F8942FEF3FEF3093E9062093E806809314
:102E8000EE061092F1061092F0060F91FF90EF906F
:102E90000C941D0F0F91FF90EF900895F8941092ED
:102EA000EE060C94530F8091E5068F5F8093E50644
:102EB00008950FB6F8940F928091F0069091F10664
:102EC0000F900FBE08958091F0069091F10608953D
:102ED0008091F2060895009721F480915207909115
:102EE000530749960895CF92DF92EF92FF920F9386
:102EF0001F93CF93DF938091E50681118CC00091E1
:102F0000F0061091F1060F5F1F4F1093F10600932A
:102F1000F00601151105B9F480911107909112077F
:102F200020910F073091100730931207209311075B
:102F30009093100780930F078091EB068F5F80932B
:102F4000EB060E9497148091E8069091E906C0E094
:102F50000817190708F44FC0D9E0E0911107F09164
:102F600012078081811103C08FEF9FEF11C0E091A4
:102F70001107F09112070580F681E02DE680F780B9
:102F8000D70112968D919C9113970817190728F471
:102F90009093E9068093E8062EC06701B2E0CB0E5D
:102FA000D11CC6010E94640EF70184899589892B82
:102FB00021F0C7010C960E94640ED70156968C91A1
:102FC0009091EF06981710F48093EF06D89FC001F8
:102FD0001124B6018B5D984F0E940B0EE0915207B1
:102FE000F0915307D70156969C918689981708F45B
:102FF000B4CFC1E0B2CFE0915207F0915307E68918
:10300000B9E0EB9FF0011124EB5DF84F8081823035
:1030100040F0C1E006C08091ED068F5F8093ED0621
:10302000C0E08091EC068111C1E08C2FDF91CF913F
:103030001F910F91FF90EF90DF90CF900895EF9246
:10304000FF920F931F93CF93DF930FB6F8940F92D5
:103050008091E50681508093E5068091E5068823FE
:1030600011F080E052C08091F2068823D1F3C0E0D5
:10307000D0E089E0F82EEE24E394809106078823BF
:1030800051F1E0910B07F0910C07C681D781CE0179
:103090000C960E94640E8E010E5F1F4FC8010E94A5
:1030A000640E8E899091EF06981710F48093EF06C6
:1030B000F89EC0011124B8018B5D984F0E940B0E41
:1030C000E0915207F09153079E8986899817A8F2DC
:1030D000E092EC06D2CFCD2B11F00E949714C09154
:1030E000ED06CC2351F0D1E00E9473178111D093EB
:1030F000EC06C150C9F71092ED068091EC068823CA
:1031000009F4AFCF0E94540F81E00F900FBEDF9102
:10311000CF911F910F91FF90EF9008950F931F9300
:10312000CF93DF938C01EB010E9453174091F0067F
:103130005091F106F80120813181C9018C0F9D1F4A
:103140004217530720F48217930740F403C08217F5
:10315000930730F021E04817590718F020E001C02C
:1031600021E0F80191838083222329F060E0841B11
:10317000950B0E94B2140E941F18811102C00E9478
:10318000540FDF91CF911F910F910895CF93DF934B
:10319000EC01892B19F40E94540F0AC00E945317A6
:1031A00060E0CE010E94B2140E941F18882399F398
:1031B000DF91CF9108958091E506882321F081E089
:1031C0008093EC0608951092EC068091EF0669E07A
:1031D000482F50E0649F9001659F300D1124F90144
:1031E000EB5DF84F9081911102C08150F1CFA18128
:1031F000B28112960D90BC91A02DB283A183285D5F
:10320000384FA217B30731F412962D913C911397C2
:103210003283218399E0949FF001959FF00D112452
:10322000EB5DF84F0180F281E02D268137813093EC
:103230005307209352078093EF0608950F931F932F
:10324000CF93DF93EC010FB6F8940F92892B21F402
:10325000C0915207D09153078E010E5F1F4FC801D6
:103260000E94640E8C899D89892B21F0CE010C96D9
:103270000E94640EB80183EF96E00E940B0E8FA1AE
:10328000813009F41FA20F900FBE8091EE068823B3
:1032900039F00FB6F8940F920E9497140F900FBE5A
:1032A0008091520790915307C817D907C1F48091B4
:1032B000EE06882319F00E94540F11C09091F30676
:1032C0008091F206981305C010925307109252078E
:1032D00006C0DF91CF911F910F910C94DB18DF9105
:1032E000CF911F910F910895CF93DF93EB016091E0
:1032F000520770915307645F7F4F0E942C0E61E06C
:10330000CE01DF91CF910C94B214CF93DF93EA01F9
:10331000E0915207F0915307706875876487609158
:10332000520770915307645F7F4F0E940B0E61E05C
:10333000CE01DF91CF910C94B2141F93CF93DF9302
:10334000EB01142F6091520770915307645F7F4F18
:103350000E940B0E112311F0CFEFDFEF612FCE0192
:10336000DF91CF911F910C94B2140F931F93CF93C1
:10337000DF93DC011596ED91FC911697C681D781FC
:103380008E01045F1F4FC8010E94640E8091E50604
:10339000811114C00A501109C8010E94640E8E895F
:1033A0009091EF06981710F48093EF06B9E08B9F89
:1033B000C0011124B8018B5D984F03C0B80186E0AD
:1033C00097E00E940B0EE0915207F09153079E89FF
:1033D0008689891720F481E08093EC0601C080E0A3
:1033E000DF91CF911F910F9108950F931F93CF936A
:1033F000DF937068FC0171836083C681D7810E946E
:10340000640E8E010E5F1F4FC8010E94640E8E89EC
:103410009091EF06981710F48093EF06F9E08F9FD4
:10342000C0011124B8018B5D984F0E940B0EE091F2
:103430005207F09153079E898689891718F481E015
:103440008093EC06DF91CF911F910F9108950FB6F5
:10345000F8940F922091EB06FC0120832091F00656
:103460003091F106328321830F900FBE0895209191
:10347000EB06FC0120832091F0063091F1063283A7
:1034800021830895CF93DF930FB6F8940F92409164
:10349000F0065091F106DB012D913C912F3FBFEFDB
:1034A0003B07D9F0EC01E981FA81A091EB06B881E4
:1034B000BA1719F04E175F0790F44E1B5F0BFB0114
:1034C0004217530738F4241B350B318320830E94A5
:1034D000371A03C01182108202C080E001C081E06F
:1034E0000F900FBEDF91CF91089581E08093EC069D
:1034F0000895809152079091530708958091EE06A8
:10350000882331F08091E506882321F080E008953A
:1035100081E0089582E008950F931F93CF93DF9386
:10352000FC01892B09F455C08689A0915207B091FE
:10353000530756969C91891708F041C0248535851C
:1035400037FD0CC0A0915207B091530756969C913D
:1035500025E030E0291B31093587248729E0829F47
:10356000C00111248B5D984F2285338528173907B8
:10357000E9F48F01EF012296CE010E94640EE091E2
:103580005207F09153078689F801868B9091EF06D8
:10359000981710F48093EF06F9E08F9FC001112473
:1035A000BE018B5D984F0E940B0E07C0A091520781
:1035B000B091530756968C91868B81E00BC0A091F9
:1035C0005207B091530781E021A156969C9129178B
:1035D00008F080E0DF91CF911F910F9108950F9334
:1035E0001F93CF93DF93FC01892B11F480E02CC053
:1035F00082A1815082A3268991A12917B9F3811153
:10360000F5CFEF018F010E5F1F4FC8010E94640EBE
:1036100089A18E8B482F50E025E030E0241B350B2C
:103620003D872C879091EF06981710F48093EF0652
:1036300029E0249FC001259F900D1124B8018B5DC6
:10364000984F0E940B0E81E0DF91CF911F910F9157
:1036500008950F931F93CF93DF93FC01892BD9F12A
:1036600091A1961708F4962F86898917A1F122A1B6
:10367000213089F5968B2485358537FD06C025E0F8
:1036800030E0291B31093587248729E0829FC0015A
:1036900011248B5D984F2285338528173907D9F47B
:1036A000EF018F010E5F1F4FC8010E94640E8E89CB
:1036B0009091EF06981710F48093EF0629E0829F0F
:1036C000C0011124B8018B5D984FDF91CF911F91FC
:1036D0000F910C940B0EDF91CF911F910F910895D4
:1036E000E0915207F091530784859585E091520748
:1036F000F0915307A0915207B091530756964C9101
:1037000025E030E0241B3109358724870895809116
:10371000520790915307892B39F0E0915207F091AD
:10372000530782A18F5F82A3809152079091530724
:1037300008950F931F93182FCB010FB6F8940F9293
:10374000E0915207F091530743A154A165A176A1DE
:10375000452B462B472B69F4E0915207F091530714
:1037600021E027A3009729F061E00E94B2140E9493
:10377000540F0F900FBE0FB6F8940F92E0915207BE
:10378000F091530763A174A185A196A161157105FC
:1037900081059105A9F0E0915207F091530711239B
:1037A00029F013A214A215A216A20AC08B019C0133
:1037B000015011092109310903A314A325A336A33C
:1037C000E0915207F091530717A20F900FBE1F917F
:1037D0000F9108954F925F926F927F928F929F9276
:1037E000AF92BF92EF92FF920F931F9349015A013C
:1037F0000FB6F8940F92E0915207F091530727A16A
:10380000223039F1E0915207F091530723A134A1FE
:1038100045A156A12B013C014094509460947094B2
:10382000D301C20182239323A423B52383A394A3AA
:10383000A5A3B6A3E0915207F091530781E087A3B7
:10384000E114F10431F061E0C7010E94B2140E945A
:10385000540F0F900FBE0FB6F8940F92011511057B
:1038600069F0E0915207F091530783A194A1A5A1BB
:10387000B6A1F80180839183A283B383E0915207BC
:10388000F091530787A18230C1F4E0915207F09183
:10389000530743A154A165A176A1D501C401809528
:1038A0009095A095B09584239523A623B72383A351
:1038B00094A3A5A3B6A381E001C080E0E0915207E4
:1038C000F091530717A20F900FBE1F910F91FF9019
:1038D000EF90BF90AF909F908F907F906F905F9090
:1038E0004F9008950F931F93CF93DF93FC010FB672
:1038F000F8940F920115110549F083A194A1A5A197
:10390000B6A1E80188839983AA83BB8337A182E0AB
:1039100087A3223089F058F4213001F583A194A1C6
:10392000A5A1B6A1482B592B6A2B7B2B13C02330A2
:1039300089F0243069F012C083A194A1A5A1B6A199
:103940000196A11DB11D83A394A3A5A3B6A306C090
:10395000323049F143A354A365A376A3313009F56E
:10396000EF018F010E5F1F4FC8010E94640E8E8908
:103970009091EF06981710F48093EF0629E0829F4C
:10398000C0011124B8018B5D984F0E940B0EE0918D
:103990005207F09153079E898689891710F40E9477
:1039A000540F81E001C080E00F900FBEDF91CF91F6
:1039B0001F910F910895EF92FF920F931F93CF9352
:1039C000DF93FC010115110549F083A194A1A5A184
:1039D000B6A1E80188839983AA83BB8337A182E0DB
:1039E00087A3223089F058F4213001F583A194A1F6
:1039F000A5A1B6A1482B592B6A2B7B2B13C02330D2
:103A000089F0243069F012C083A194A1A5A1B6A1C8
:103A10000196A11DB11D83A394A3A5A3B6A306C0BF
:103A20003230D9F143A354A365A376A3313011F00A
:103A300081E034C0EF018091E506811115C08F014E
:103A40000E5F1F4FC8010E94640E8E899091EF0691
:103A5000981710F48093EF06E9E08E9FC0011124BF
:103A6000B8018B5D984F05C0BF01645F7F4F86E052
:103A700097E00E940B0EE0915207F09153079E8948
:103A800086898917A8F6E114F10419F081E0E701AD
:103A9000888381E08093EC0601C080E0DF91CF91C4
:103AA0001F910F91FF90EF900895EF92FF920F9367
:103AB0001F93CF93DF93FC0127A182E087A383A10B
:103AC00094A1A5A1B6A10196A11DB11D83A394A3A4
:103AD000A5A3B6A32130A1F58B01EF018091E506E6
:103AE000811116C07F0122E0E20EF11CC7010E9485
:103AF000640E8E899091EF06981710F48093EF066C
:103B0000E9E08E9FC0011124B7018B5D984F05C07D
:103B1000BF01645F7F4F86E097E00E940B0EE0914B
:103B20005207F09153079E898689891748F4011539
:103B3000110519F081E0F801808381E08093EC06A3
:103B4000DF91CF911F910F91FF90EF900895009713
:103B500021F480915207909153070FB6F8940F9279
:103B6000FC0127A1223019F417A281E001C080E0F6
:103B70000F900FBE08950FB6F8940F9280915807DA
:103B800090915907892BE9F487E697E00E94F90D97
:103B90008EE597E00E94F90D87E697E090935D0728
:103BA00080935C078EE597E090935B0780935A07BC
:103BB00040E065E088E20E940111909359078093EC
:103BC00058070F900FBE0895FC017383628391879D
:103BD00080874617570778F0421B530B84859585DD
:103BE00048175907C8F4BF016E5F7F4F80915A078D
:103BF00090915B070DC04217530718F462177307C3
:103C000058F4BF016E5F7F4F80915C0790915D0714
:103C10000E942C0E80E0089581E00895EF92FF92BB
:103C20000F930E94BB1D8091580790915907892BD3
:103C300081F086E5E82E87E0F82E04E020E030E011
:103C400045E550E060EE70E085EF9EE10E943A1598
:103C500001C080E00F91FF90EF9008958F929F92A6
:103C6000AF92BF92CF92DF92FF920F931F93CF93A9
:103C7000DF934C015B01F42E690183E190E00E9427
:103C8000B80DEC01892BA1F01A8A0E94BB1D998204
:103C90008882BD86AC86DF86CE86198B088BCE01E6
:103CA00002960E94070EFF2019F08A8984608A8B91
:103CB000CE01DF91CF911F910F91FF90DF90CF90B8
:103CC000BF90AF909F908F9008950F931F93CF93C5
:103CD000DF9300D000D01F92CDB7DEB7A091580778
:103CE000B0915907109729F1F90169835B834A83E1
:103CF0009D838C836630A4F40E947E1AE09158075D
:103D0000F091590720E0823011F4A80102C040E090
:103D100050E0BE016F5F7F4FCF010E9429110AC0A2
:103D200020E0AF01BE016F5F7F4FCD010E94D9112E
:103D300001C080E00F900F900F900F900F90DF91D7
:103D4000CF911F910F910895EF92FF920F931F93C0
:103D5000CF93DF93E0915C07F0915D07808188232A
:103D600089F10580F681E02DE080F180C681D78160
:103D70008E010E5F1F4FC8010E94640EE889F98909
:103D8000CE0109958A8982FFE5CF8C859D858E0DB0
:103D90009F1DE816F90660F49B838A83D987C8873C
:103DA000B80180915C0790915D070E942C0ED2CFE4
:103DB00000E010E020E030E0A70160E0CE010E94CA
:103DC000651EC8CF80915A0790915B0790935D075D
:103DD00080935C07F0935B07E0935A07DF91CF91E4
:103DE0001F910F91FF90EF900895CF93DF9300D034
:103DF00000D01F92CDB7DEB7E0915C07F0915D0770
:103E0000D080DD2031F00580F681E02DE080F1806A
:103E100002C0E12CF12C0E9453170E9459178C010B
:103E200080915407909155070817190720F40E94B4
:103E3000A41E81E001C080E0109355070093540751
:103E4000811155C0DD20D9F10E151F0508F43EC0C3
:103E50000E941F18E0915C07F0915D070580F681D4
:103E6000E02DC680D780C60102960E94640ED6015E
:103E700052968C91529782FF17C01C966D917C913F
:103E80001D976E0D7F1D9701A801C6010E94E41DBC
:103E9000882369F000E010E020E030E0A70160E056
:103EA000C6010E94651E03C08E7FF601828BD6017B
:103EB0005096ED91FC915197C60109951EC0E09175
:103EC0005A07F0915B07808141E0811140E0B70122
:103ED000601B710B80915807909159070E947B14C9
:103EE0000E941F18811109C00E94540F06C00E9431
:103EF0001F1803C0898187FF0EC040E050E0BE015B
:103F00006F5F7F4F80915807909159070E942B1245
:103F10008111F0CF71CFEC80FD80F7018285938510
:103F2000892B21F0C70102960E94640E0E94591746
:103F30006C018091540790915507C816D90610F46A
:103F40000E94A41ED0925507C0925407E9810E2EFC
:103F5000000CFF0BEA30F10580F6E65DFF4FD7015C
:103F600052968C910C9466208160F701828B2A8195
:103F70003B8164857585620F731FA601C7010E948E
:103F8000E41D882309F4B9CFD7015096ED91FC9137
:103F90005197C7010995F701828982FFAECF4A8107
:103FA0005B8184859585480F591F00E010E020E073
:103FB00030E060E0C7010E94651E9FCF8160F7017D
:103FC000828B6A817B81758764876C0D7D1D96016C
:103FD000A601C7010E94E41D90CF81FD04C0C70166
:103FE0000E94EA0D8ACF8E7FD70152968C9385CF9F
:103FF00080915607909157070895FC018485958517
:104000000895FC010FB6F8940F929289662311F07F
:10401000946001C09B7F928B0F900FBE0895FC01AE
:10402000828193810895FC018081918108950FB66A
:10403000F8940F92FC0182890F900FBE8170089551
:104040000FB6F8940F920F900FBEFC0186859785EE
:1040500008950FB6F8940F92FC01778766870F904A
:104060000FBE0895991B79E004C0991F961708F0B8
:10407000961B881F7A95C9F780950895AA1BBB1BCC
:1040800051E107C0AA1FBB1FA617B70710F0A61B58
:10409000B70B881F991F5A95A9F780959095BC0179
:1040A000CD01089597FB072E16F4009407D077FDF5
:1040B00009D00E943E2007FC05D03EF490958195E2
:1040C0009F4F0895709561957F4F0895EE0FFF1FE4
:1040D0000590F491E02D0994FB01DC0102C00190F0
:1040E0000D9241505040D8F70895DC01CB01FC01FE
:1040F000E199FECF06C0FFBBEEBBE09A31960DB250
:104100000D9241505040B8F70895E199FECF9FBB02
:104110008EBBE09A99278DB30895DC01A40FB51FDB
:104120004150504048F0CB01840F951F2E910E94C2
:104130009E2041505040D0F70895262FE199FECFA0
:104140009FBB8EBBE09A01970DB2021631F02DBBDA
:104150000FB6F894E29AE19A0FBE0895F894FFCF53
:1041600010313233413435365E3738397645303C9C
:104170003E414D00504D006D696E75746573006869
:104180006F7572730053657420416C61726D004DE0
:1041900061703A00476F6F64204D6F726E696E6791
:1041A00021200057726F6E6720416E737765720031
:1041B00074696D65720074696D6572320074696D41
:1041C000657233004B5044004B50445F49535231A9
:1041D00000426565700052696E670049444C4500B5
:0841E000546D72205376630058
:00000001FF
