:100000000C942A000C9447000C9447000C94470071
:100010000C9447000C9447000C9447000C94540A2D
:100020000C9447000C9447000C9447000C94470034
:100030000C9447000C9447000C9447000C94470024
:100040000C9447000C9447000C9447000C94470014
:100050000C94470011241FBECFE5D8E0DEBFCDBF12
:1000600010E0A0E6B0E0EEEFFFE202C005900D92D6
:10007000A83AB107D9F727E0A8EAB0E001C01D927D
:10008000A630B207E1F70E94BA080C94FD170C9451
:10009000000080E00E94BF058091AA000E946006D7
:1000A00082E00E94BF058AE30E9421058091AB0097
:1000B0000E94600685E00E94BF058AE30E94210538
:1000C0008091AC000C946006CF93DF9300D0CDB745
:1000D000DEB781E00E940A0C9093FD068093FC0637
:1000E0000E9484119A83898385E00E94BF058AE378
:1000F0000E9421051CE36AE070E08091FC0690916B
:10010000FD060E94080D882391F086E00E94BF053D
:100110008091AC000E94600620E040E050E060E08A
:1001200070E08091FC069091FD060E94740B65E0E2
:1001300070E0CE0101960E94B9128091AC008F5FF1
:10014000612F0E94C0179093AC00D5CFCF93DF935F
:1001500000D0CDB7DEB70E9484119A83898382E0F4
:100160000E94BF058AE30E9421051CE36AE070E05B
:100170008091FC069091FD060E94080D882391F065
:1001800083E00E94BF058091AB000E94600620E0E2
:1001900040E050E060E070E08091FC069091FD0648
:1001A0000E94740B6CE271E0CE0101960E94B912BC
:1001B0008091AB008F5F612F0E94C0179093AB00BE
:1001C000D5CFCF93DF9300D0CDB7DEB70E94841197
:1001D0009A83898382E00E94BF058AE30E942105F9
:1001E0000CE018E16AE070E08091FC069091FD0659
:1001F0000E94080D8823B9F080E00E94BF0580911D
:10020000AA00602F0E94C01781E0890F0E9460063B
:1002100020E040E050E060E070E08091FC069091CA
:10022000FD060E94740B60E576E4CE0101960E9403
:10023000B9128091AA008F5F612F0E94C01790931E
:10024000AA00D0CFCF93DF93CDB7DEB763970FB6B9
:10025000F894DEBF0FBECDBF40E061E081E00E94B8
:100260004C0B9093A9008093A8000E9484119A8B54
:10027000898BCE0101960E94AB038B8B8F3F61F07F
:1002800020E04AE050E0BE016D5E7F4F8091A80003
:100290009091A9000E94740B6091600070E0CE0103
:1002A00041960E94B912E5CFCF93DF931F92CDB74D
:1002B000DEB78FEF8983D12C10E1B12C0AE0AA249C
:1002C000A3944AE050E0BE016F5F7F4F8091A80089
:1002D0009091A9000E94760C882399F389818A3233
:1002E00009F4C1C0BB2069F3812F0E94BF0580E2E1
:1002F0000E9421052981E12EF12C2C33B1F0CC2470
:10030000C394C10E2E3359F5C701019663E070E026
:100310000E94E017892B09F097C01C2D8C2D0E949C
:10032000BF0580E20E9421058FC0C701019763E0ED
:1003300070E00E94E017892B39F41150812F0E9440
:10034000BF0580E20E94210511501E3021F487E193
:100350000E94BF0517E1812F0E94BF057CC01331A9
:1003600091F180F4103101F1113109F054C0809104
:10037000AA00602F0E94C01720539AE0899F200D89
:1003800011241EC0163171F11731C9F1143109F071
:1003900042C08091AB00602F0E94C01720539AE0AA
:1003A000899F200D11241BC0220F2056922F990FD8
:1003B000990F290F8091AA00602F0E94C017290F62
:1003C0002093AA0028C0220F2056922F990F990F30
:1003D000290F8091AB00602F0E94C017290F209336
:1003E000AB0019C0220F2056922F990F990F290F99
:1003F0008091AC00602F0E94C017290F0AC0809125
:10040000AC00602F0E94C01720539AE0899F200DF6
:1004100011242093AC0080EF810F0E94BF058981D9
:100420000E9421058C2D0E94BF05C701019663E043
:1004300070E00E94E017892B39F48C2D0E94BF05D3
:1004400080E20E9421051C2D1F5F193121F480E1FB
:100450000E94BF0510E18EE50E94210583E090E037
:100460000E94F1122ECF8091FC069091FD06D0FCE7
:1004700014C06AE070E00E94080D882309F421CFBF
:1004800080E10E94BF058EE50E942105D394A092D1
:10049000600010E1BB24B39414CF20E040E050E0B2
:1004A00060E070E00E94740B80E10E94BF050E9432
:1004B000490000936000812F0E94BF0580E20E94E6
:1004C000210585E090E00E94F112D394B12CF9CE81
:1004D0001ABA17BA14BA11BA0895803208F06CC06B
:1004E000623008F069C0982F97708695869586953A
:1004F0008230A1F1833009F448C08130B9F04AB3A9
:1005000021E030E0613039F401C0220F9A95EAF71A
:10051000242B2ABB17C0B90102C0660F771F9A951A
:10052000E2F7CB01809584238ABB0CC047B321E05E
:1005300030E0611109C001C0220F9A95EAF72095B9
:10054000242327BB80E00895B90102C0660F771FFE
:100550009A95E2F7CB01842B87BBF4CF44B321E01B
:1005600030E0613039F401C0220F9A95EAF7242B6C
:1005700024BBE8CFB90102C0660F771F9A95E2F756
:10058000CB018095842384BBDDCF41B321E030E0F3
:10059000613039F401C0220F9A95EAF7242B21BB70
:1005A000D1CFB90102C0660F771F9A95E2F7CB0150
:1005B0008095842381BBC6CF81E00895803208F006
:1005C0006CC0623008F069C0982F97708695869548
:1005D00086958230A1F1833009F448C08130B9F0AA
:1005E0004BB321E030E0613039F401C0220F9A951D
:1005F000EAF7242B2BBB17C0B90102C0660F771F87
:100600009A95E2F7CB01809584238BBB0CC048B34D
:1006100021E030E0611109C001C0220F9A95EAF78C
:100620002095242328BB80E00895B90102C0660FFD
:10063000771F9A95E2F7CB01842B88BBF4CF45B3A3
:1006400021E030E0613039F401C0220F9A95EAF7D9
:10065000242B25BBE8CFB90102C0660F771F9A95FE
:10066000E2F7CB018095842385BBDDCF42B321E047
:1006700030E0613039F401C0220F9A95EAF7242B5B
:1006800022BBD1CFB90102C0660F771F9A95E2F75E
:10069000CB018095842382BBC6CF81E0089584304E
:1006A00078F4823041F0833049F0813011F06ABB38
:1006B00003C067BB01C064BB80E0089561BBFCCF91
:1006C00081E00895843078F4823041F0833049F03D
:1006D000813011F06BBB03C068BB01C065BB80E01B
:1006E000089562BBFCCF81E00895FB018032E0F405
:1006F000282F2770869586958695823041F0833025
:1007000041F0813011F089B305C086B303C083B3D3
:1007100001C080B390E002C0959587952A95E2F7D5
:100720008170808380E0089581E00895FB0184302A
:1007300080F4823041F0833041F0813011F089B390
:1007400005C086B303C083B301C080B3808380E05B
:10075000089581E008956F927F928F929F92AF9259
:10076000BF92CF92DF92EF92FF920F931F93CF939E
:10077000DF931F92CDB7DEB77C0119820EEF16E032
:1007800066246A94912C77247394580160E0F801F0
:1007900080810E94DE0282E0C82E87E0D82E812C64
:1007A000BE016F5F7F4FF60181916F010E9475035B
:1007B0002981882D890D90E0F701E80FF91F21307C
:1007C00011F4108205C07082FC01EF59FF4F608068
:1007D000F4E08F0E80E18812E3CF0F5F1F4F61E0DE
:1007E000F50180810E94DE029394F4E09F12CDCF48
:1007F000862D0F90DF91CF911F910F91FF90EF9079
:10080000DF90CF90BF90AF909F908F907F906F9030
:1008100008958130A1F138F0823009F45BC0833053
:1008200009F483C008956FE080E00E944F0361E007
:1008300084E00E94DE0261E085E00E94DE0261E069
:1008400086E00E94DE0261E087E00E94DE0284E032
:100850008093020783E08093FE0685E08093030780
:1008600082E08093FF0686E08093040781E0809316
:10087000000787E0809305071092010708956FE055
:1008800081E00E944F0361E08CE00E94DE0261E0A3
:100890008DE00E94DE0261E08EE00E94DE0261E0F7
:1008A0008FE00E94DE028CE0809302078BE0809351
:1008B000FE068DE0809303078AE08093FF068EE0BA
:1008C0008093040789E0809300078FE080930507F9
:1008D00088E055C06FE082E00E944F0361E084E150
:1008E0000E94DE0261E085E10E94DE0261E086E1B5
:1008F0000E94DE0261E087E10E94DE0284E18093D3
:10090000020783E18093FE0685E18093030782E17D
:100910008093FF0686E18093040781E180930007BE
:1009200087E18093050780E12AC06FE083E00E94A1
:100930004F0361E08CE10E94DE0261E08DE10E94E4
:10094000DE0261E08EE10E94DE0261E08FE10E9442
:10095000DE028CE1809302078BE18093FE068DE13D
:10096000809303078AE18093FF068EE1809304075A
:1009700089E1809300078FE18093050788E18093E8
:1009800001070895E0E0DC012D91CD01213029F42B
:10099000F0E0EF59FF4F80810895EF5FE03199F764
:1009A0008FEF0895CF93C82F60E081E10E94DE02AF
:1009B0006C2F617087E00E94DE02C1FB662760F940
:1009C00086E00E94DE02C2FB662760F985E00E9495
:1009D000DE02C3FB662760F984E00E94DE02C4FBEE
:1009E000662760F983E00E94DE02C5FB662760F996
:1009F00082E00E94DE02C6FB662760F981E00E9469
:100A0000DE026C2F661F6627661F80E00E94DE02F2
:100A100061E082E10E94DE028FEC97E00197F1F73E
:100A200000C0000060E082E1CF910C94DE02CF9321
:100A3000C82F60E080E10E94DE028C2FCF910C94E1
:100A4000D204CF93C82F61E080E10E94DE028C2F98
:100A5000CF910C94D20461E080E10E946D0261E0CC
:100A600081E10E946D0261E082E10E946D0261E01D
:100A700087E00E946D0261E086E00E946D0261E005
:100A800085E00E946D0261E084E00E946D0261E0F9
:100A900083E00E946D0261E082E00E946D0261E0ED
:100AA00081E00E946D0261E080E00E946D022FE70C
:100AB00088E391E0215080409040E1F700C00000C1
:100AC0002FEF89EF90E0215080409040E1F700C087
:100AD000000088E30E94170525E82A95F1F7000039
:100AE0008CE00E94170585E88A95F1F7000081E007
:100AF0000E9417058FE99FE00197F1F700C0000001
:100B00000895EF92FF920F931F93CF937C01C0E063
:100B100087010C0F111DF8018081882359F0C03125
:100B200019F480EC0E941705F80180810E942105CC
:100B3000CF5FEECFCF911F910F91FF90EF9008956F
:100B400081E00C9417050F931F93CF938C01C0E0A5
:100B5000F801EC0FF11D8081882369F00E942105C6
:100B60002FEF84E39CE0215080409040E1F700C0EB
:100B70000000CF5FEDCFCF911F910F91089580318D
:100B800010F4805801C080550C9417050F931F93E3
:100B9000CF93DF938C01C0E08C2F0E94BF05D0E083
:100BA000F801ED0FF11D8081882321F00E942105BD
:100BB000DF5FF6CF2FEF89E698E12150804090402B
:100BC000E1F700C000000E94A005CF5FC53021F70B
:100BD000DF91CF911F910F9108958F92AF92BF92A5
:100BE000CF92DF92EF92FF920F931F93CF93DF93F9
:100BF000CDB7DEB7B82ED62EF42E122F882D0E9438
:100C000017058B2D0E9421058D2D0E9421058F2D0A
:100C10000E942105812F0E942105802F0E9421051D
:100C20008E2D0E9421058C2D0E9421058A2D0E9467
:100C3000210580E8DF91CF911F910F91FF90EF90F8
:100C4000DF90CF90BF90AF908F900C941705CF920C
:100C5000DF92EF92FF920F931F93CF93DF93EC01FC
:100C600000E080E090E02AE0EAE0F0E0209771F018
:100C7000289F7001299FF00C1124CE01BF010E9412
:100C8000CC178E0D9F1DEB010F5FF0CF10E02AE017
:100C9000E22EF12CC017D10750F4B7010E94CC17F7
:100CA0006B01805D0E942105C6012196F3CFDF9183
:100CB000CF911F910F91FF90EF90DF90CF9008950B
:100CC000CF936AE00E94C017C92F805D0E94210562
:100CD00080E38C0FCF910C942105805D0C9421054D
:100CE000CF93DF938BE090E00E94EA07EC0100973E
:100CF00031F0FC0111921192CF010E942B08CE011C
:100D0000DF91CF910895AF92BF92CF92DF92EF9291
:100D1000FF920F931F93CF93DF936C017B01B42E4F
:100D2000A22E0E947E11F601C081D181CE018E21BA
:100D30009F21A11003C0892B21F43BC0E816F906BE
:100D4000C1F5BB2041F0C701809590958C239D2370
:100D5000F6019183808300E010E00E944A12012B8B
:100D600009F43DC0811102C00E949F090E947515BF
:100D700091FD1CC00FB6F8940F92F601808191810D
:100D8000970128233923A11003C0232B21F40CC081
:100D9000E216F30649F4BB2039F0E094F094E8221F
:100DA000F922F601F182E0820F900FBEEC01DD27FF
:100DB00016C00115110589F2BB2019F060E071E041
:100DC00002C060E070E0A11074606E297F29A80164
:100DD000C60102960E94B013C0E0D0E0BECFCE01A3
:100DE000DF91CF911F910F91FF90EF90DF90CF9007
:100DF000BF90AF900895FC010FB6F8940F928081D8
:100E000091816095709568237923718360830F9039
:100E10000FBE0895FC01808191810895CF92DF92E9
:100E2000EF92FF920F931F93CF93DF938C01EB010F
:100E30007C0185E0E80EF11C0E947E11D801179616
:100E4000ED91FC9118978D919C911197C82BD92BFE
:100E5000CD93DC93C0E0D0E0D8016D917C911197E7
:100E6000EE15FF05E1F0D280C38020813181C901F8
:100E70009927AC014623572332FD03C0452B21F4AB
:100E80000BC08417950741F430FF02C0C82BD92B43
:100E90007260CF010E940814ED2DFC2DDDCFC095AE
:100EA000D0956C237D236D937C930E944A12F801A8
:100EB00080819181DF91CF911F910F91FF90EF90F1
:100EC000DF90CF900895AF92BF92CF92DF92EF92D2
:100ED000FF920F931F93CF93DF937C01EB018A0165
:100EE00069010E947E11F701A080B180BE01C70197
:100EF0000E940E07CA29DB29CE01802391230817FF
:100F0000190769F4F70120813181C8018095909516
:100F10008223932391838083C12CD12C10C0C114D0
:100F2000D10451F0A601B8017560C70102960E9474
:100F3000B013C0E0D0E003C0F701C081D1810E94AE
:100F40004A12CD28F9F0811102C00E949F090E9427
:100F5000751591FD15C00FB6F8940F92F7018081B9
:100F600091819801282339230217130739F4A80126
:100F70004095509548235923518340830F900FBECD
:100F8000EC01DD27CE01DF91CF911F910F91FF90F2
:100F9000EF90DF90CF90BF90AF900895CF93DF9305
:100FA000EC010E947E118A81882339F060E072E0B2
:100FB0008F8198850E940814F6CFCE010E941C08EC
:100FC000DF91CF910C944A12BA010C940E07BA012A
:100FD0000C94FB06CF93DF93EC010E947E1180916D
:100FE000AD009091AE00892B31F482EB90E09093AC
:100FF000AE008093AD002091AF003091B000C901E8
:101000008C0F9D1F8B3D45E0940770F4281739071E
:1010100058F4C091AD00D091AE00C20FD31F909391
:10102000B0008093AF0002C0C0E0D0E00E944A123E
:10103000CE01DF91CF91089508951092B0001092E3
:10104000AF0008952091AF003091B0008BED95E096
:10105000821B930B0895FC010396928381832FEFEB
:101060003FEF348323839683858390878783108221
:101070000895FC01118610860895CF93DF939C019B
:10108000FB01DC011196CD91DC911297D383C283D1
:101090008C819D81958384838C819D81DC01139655
:1010A0007C936E9312977D836C8331872087F9013F
:1010B00080818F5F8083DF91CF9108950F931F937D
:1010C000CF93DF938C01FB01808191818F3F2FEFC4
:1010D000920721F4E801AF81B8850EC0D8011396BC
:1010E00012962D913C911397E901488159818417FB
:1010F000950710F0D901F4CF12968D919C9113971A
:1011000093838283EC01FD83EC83B583A4831396E0
:10111000FC93EE93129711870087F80180818F5F0F
:101120008083DF91CF911F910F910895CF93DF932B
:10113000FC01A085B1858281938124813581EC01F8
:101140003D832C83C481D5819B838A8311968D91A5
:101150009C911297E817F90721F41296DC93CE932D
:101160001197118610868C9181508C938C91DF9110
:10117000CF9108950E942B050E94A0050E9449006E
:1011800081E00E940904E12CF12C01E020E030E034
:1011900048EC50E061E770E084E690E00E94690F5F
:1011A00020E030E048EC50E069E770E086EA90E04B
:1011B0000E94690F20E030E048EC50E061E870E008
:1011C00081EE90E00E94690F02E020E030E048EC00
:1011D00050E067E870E082E291E00E94690F20E051
:1011E00030E04CE251E061E970E084E591E00E947A
:1011F000690F0E944F11FFCF31E1FC01308331971D
:1012000022E220833197A3E3A08331976083319753
:10121000708331971082319760E860833197108234
:10122000319762E06083319763E06083319764E0D7
:101230006083319765E06083319766E06083319722
:1012400067E06083319768E06083319769E060838D
:10125000319760E1608331973083319732E1308399
:10126000319733E13083319734E13083319735E181
:101270003083319736E13083319737E130833197CE
:1012800038E13083319739E13083319730E2308370
:10129000319731E2308331972083319723E22083E5
:1012A0003197408331975083319726E220833197DD
:1012B00027E22083319728E22083319729E2208397
:1012C000319720E32083319721E320838697089587
:1012D00081E68BBD87EA8ABD8BE08EBD89B78061D0
:1012E00089BFA091FA06B091FB06CD91CDBFDD91EB
:1012F000DEBFFF91EF91DF91CF91BF91AF919F91B1
:101300008F917F916F915F914F913F912F911F919D
:101310000F91FF90EF90DF90CF90BF90AF909F9094
:101320008F907F906F905F904F903F902F901F9085
:101330000F900FBE0F90089581E0089508950F92C9
:101340000FB6F8940F921F9211242F923F924F9252
:101350005F926F927F928F929F92AF92BF92CF9245
:10136000DF92EF92FF920F931F932F933F934F9330
:101370005F936F937F938F939F93AF93BF93CF931D
:10138000DF93EF93FF93A091FA06B091FB060DB6A1
:101390000D920EB60D920E940613A091FA06B0911E
:1013A000FB06CD91CDBFDD91DEBFFF91EF91DF91C7
:1013B000CF91BF91AF919F918F917F916F915F91ED
:1013C0004F913F912F911F910F91FF90EF90DF90E0
:1013D000CF90BF90AF909F908F907F906F905F90D5
:1013E0004F903F902F901F900F900FBE0F90089539
:1013F0000F920FB6F8940F921F9211242F923F92E2
:101400004F925F926F927F928F929F92AF92BF9214
:10141000CF92DF92EF92FF920F931F932F933F9300
:101420004F935F936F937F938F939F93AF93BF93EC
:10143000CF93DF93EF93FF93A091FA06B091FB0651
:101440000DB60D920EB60D920E949E1181110E9452
:101450000613A091FA06B091FB06CD91CDBFDD91A8
:10146000DEBFFF91EF91DF91CF91BF91AF919F913F
:101470008F917F916F915F914F913F912F911F912C
:101480000F91FF90EF90DF90CF90BF90AF909F9023
:101490008F907F906F905F904F903F902F901F9014
:1014A0000F900FBE0F9008950E94F80918950FB67F
:1014B000F8940F92FC01928D0F900FBE81E0911174
:1014C00080E008950F931F93CF93DF93EC01042FD7
:1014D0001A8D4C8D41110BC088819981892BE9F5BA
:1014E0008C819D810E94F4141D821C8237C050E0C3
:1014F000011115C08A819B810E94F4172C8D8A816D
:101500009B81820F911D9B838A832C813D81821751
:10151000930718F1888199819B838A831EC08E81ED
:101520009F810E94F4178C8D90E09195819591098F
:101530002E813F81280F391F3F832E834881598197
:101540002417350730F42C813D81820F931F9F8330
:101550008E83023011F41111115080E01F5F1A8F39
:10156000DF91CF911F910F910895FC01CB01448D24
:101570004423A1F050E026813781240F351F3783A3
:101580002683648175812617370720F020813181F9
:1015900037832683668177810C94F4170895EF9240
:1015A000FF921F93CF93DF93EC010FB6F8940F9245
:1015B0001E8D7C0181E1E80EF11C11165CF4898915
:1015C000882341F0C7010E94C81381110E9488142A
:1015D0001150F3CF8FEF8E8F0F900FBE0FB6F89490
:1015E0000F921D8D7E0188E0E80EF11C11165CF44F
:1015F0008885882341F0C7010E94C81381110E9489
:1016000088141150F3CF8FEF8D8F0F900FBEDF91A5
:10161000CF911F91FF90EF900895CF93DF93EC014E
:101620000FB6F8940F92488159818B8D7C8D9A0169
:10163000879F200D311D11243D832C831A8E5B83DF
:101640004A8390E00197789F9001799F300D112493
:10165000CA01820F931F9F838E838FEF8D8F8E8F92
:1016600061110CC08885882389F0CE0108960E94FC
:10167000C813882359F00E949F0908C0CE0108961C
:101680000E942B08CE0141960E942B080F900FBE9E
:1016900081E0DF91CF9108950F931F93CF93DF9354
:1016A000082F162F662321F0869FC001112402C047
:1016B00080E090E04F960E94EA07EC01009771F0FD
:1016C000111103C09983888303C04F96998388833F
:1016D0000B8F1C8F61E0CE010E940D0BCE01DF91BC
:1016E000CF911F910F910895AF92BF92CF92DF9249
:1016F000FF920F931F93CF93DF9300D000D01F92E0
:10170000CDB7DEB78C016B015D834C83F22E80E098
:10171000580198E0A90EB11C0FB6F8940F92F80189
:10172000228D938D291718F0F2E0FF1214C04F2D6F
:10173000B601C8010E94620AF8019189992321F03B
:10174000C80141960E94C81381110E949F090F9001
:101750000FBE81E050C02C813D81232B19F40F90E6
:101760000FBE48C0811104C0CE0101960E944A14E8
:101770000F900FBE0E947E110FB6F8940F92F801E1
:10178000858D8F3F09F4158EF801868D8F3F09F402
:10179000168E0F900FBEBE016C5F7F4FCE0101967B
:1017A0000E945514811121C00FB6F8940F92F801D0
:1017B000928D0F900FBE838D981311C06C817D8127
:1017C000C5010E949F13C8010E94CF0A0E944A12BD
:1017D000882311F081E0A0CF0E949F09FBCFC801B0
:1017E0000E94CF0A0E944A12F5CFC8010E94CF0A78
:1017F0000E944A1280E00F900F900F900F900F9070
:10180000DF91CF911F910F91FF90DF90CF90BF900C
:10181000AF900895CF93DF93482F60E081E00E945E
:101820004C0BEC01009761F01D821C82198218821A
:101830001E8220E040E050E060E070E00E94740B07
:10184000CE01DF91CF910895EF92FF921F93CF9336
:10185000DF93EC019A8D8B8D981710F02230E1F414
:101860007A011E8D422FCE010E94620A1F3F81F431
:101870008989882379F0CE0141960E94C813882374
:1018800049F0E114F10431F081E0F701808305C0F3
:101890001F5F1E8F81E001C080E0DF91CF911F911B
:1018A000FF90EF900895CF93DF93FC01928D838D8D
:1018B0009817C0F4868D9F5F928F8F3F79F481894E
:1018C000882371F0EB01CF0141960E94C813882351
:1018D00039F0209729F081E0888305C08F5F868FDB
:1018E00081E001C080E0DF91CF910895AF92BF9277
:1018F000CF92DF92FF920F931F93CF93DF9300D08D
:1019000000D01F92CDB7DEB78C016B015D834C8395
:1019100080E0580191E1A90EB11C0FB6F8940F9226
:10192000F801F28CFF20A9F0B601C8010E94B50AA7
:10193000FA94F801F28E8085882339F0C801089660
:101940000E94C81381110E949F090F900FBE81E071
:1019500050C02C813D81232B19F40F900FBE48C03D
:10196000811104C0CE0101960E944A140F900FBE4F
:101970000E947E110FB6F8940F92F801858D8F3F6B
:1019800009F4158EF801868D8F3F09F4168E0F909D
:101990000FBEBE016C5F7F4FCE0101960E945514B1
:1019A00081111CC0C8010E94570A882389F06C81EC
:1019B0007D81C5010E949F13C8010E94CF0A0E9429
:1019C0004A12882311F081E0A8CF0E949F09FBCF23
:1019D000C8010E94CF0A0E944A12F5CFC8010E9496
:1019E000CF0A0E944A12C8010E94570A882359F35D
:1019F00080E00F900F900F900F900F90DF91CF919C
:101A00001F910F91FF90DF90CF90BF90AF900895FE
:101A1000CF92DF92FF920F931F93CF93DF9300D06B
:101A200000D01F92CDB7DEB78C017D836C83F12C83
:101A300090E0680181E1C80ED11C0FB6F8940F92B6
:101A4000D8015A968C915A978823E9F081505A967A
:101A50008C935A978D919C91892B29F40E948C1517
:101A6000F80195838483D80118968C91882339F0E6
:101A7000C80108960E94C81381110E949F090F9007
:101A80000FBE81E07AC02C813D81232B09F472C006
:101A9000911104C0CE0101960E944A140F900FBE0E
:101AA0000E947E110FB6F8940F92F801858D8F3F3A
:101AB00009F4158ED8015E968C915E978F3F11F4D4
:101AC0005E961C920F900FBEBE016C5F7F4FCE01E1
:101AD00001960E94551481112BC0C8010E94570A1B
:101AE000882301F1F80180819181892B51F40FB68F
:101AF000F8940F92848195810E949114F82E0F9092
:101B00000FBE6C817D81C6010E949F13C8010E9497
:101B1000CF0A0E944A12882311F091E08ECF0E94D2
:101B20009F09FBCFC8010E94CF0A0E944A12F5CF3D
:101B3000C8010E94CF0A0E944A12C8010E94570A97
:101B4000882359F3FF20C1F00FB6F8940F92F801E3
:101B50008189882339F00688F789E02D808165E046
:101B6000681B01C060E0D80114968D919C91159777
:101B70000E942E150F900FBE80E00F900F900F90D7
:101B80000F900F90DF91CF911F910F91FF90DF90F9
:101B9000CF900895CF92DF92EF92FF920F931F9311
:101BA000CF93DF9300D000D01F92CDB7DEB78C016A
:101BB0007B015D834C8380E0680191E1C90ED11CFB
:101BC0000FB6F8940F92F801928D9923B9F0C68060
:101BD000D780B701C8010E94B50AF801D782C68232
:101BE0008189882339F0C80141960E94C813811168
:101BF0000E949F090F900FBE81E050C02C813D8153
:101C0000232B19F40F900FBE48C0811104C0CE01E0
:101C100001960E944A140F900FBE0E947E110FB6CB
:101C2000F8940F92F801858D8F3F09F4158EF80115
:101C3000868D8F3F09F4168E0F900FBEBE016C5F2C
:101C40007F4FCE0101960E94551481111CC0C8011E
:101C50000E94570A882389F06C817D81C6010E9409
:101C60009F13C8010E94CF0A0E944A12882311F0D4
:101C700081E0A6CF0E949F09FBCFC8010E94CF0A36
:101C80000E944A12F5CFC8010E94CF0A0E944A1250
:101C9000C8010E94570A882359F380E00F900F90E3
:101CA0000F900F900F90DF91CF911F910F91FF90A8
:101CB000EF90DF90CF900895EF92FF920F931F93D4
:101CC000CF93DF93FC01028D0023E9F07A01EC0150
:101CD000158D0E94B50A01500A8F1F3F81F4888537
:101CE000882379F0CE0108960E94C813882349F012
:101CF000E114F10431F081E0F701808305C01F5F3A
:101D00001D8F81E001C080E0DF91CF911F910F9185
:101D1000FF90EF9008950F931F93CF93DF93FC01F3
:101D2000228D222349F0EC01068117810E94B50A19
:101D30001F830E8381E001C080E0DF91CF911F916E
:101D40000F9108950FB6F8940F92FC01828D0F90B9
:101D50000FBE08950FB6F8940F92FC01228D0F90DC
:101D60000FBE838D821B0895FC01828D08950C9413
:101D70001C08FC01928D81E0911180E00895FC0126
:101D8000928D81E0238D291380E00895E091B906BA
:101D9000F091BA068081811103C08FEF9FEF0CC0D4
:101DA000E091B906F091BA060580F681E02D068033
:101DB000F781E02D82819381909391068093900624
:101DC0000895FF920F931F93CF93DF93EC01F62EAC
:101DD00000919806109199068091FA069091FB0661
:101DE00002960E949608CF3F8FEFD80789F4FF2014
:101DF00079F06091FA067091FB066E5F7F4F8BE978
:101E000096E0DF91CF911F910F91FF900C943D08C8
:101E1000C00FD11FE091FA06F091FB06D383C28375
:101E20006091FA067091FB06C017D10768F48091A3
:101E3000B7069091B8066E5F7F4FDF91CF911F91EB
:101E40000F91FF900C945E088091B9069091BA06AC
:101E50006E5F7F4F0E945E08809190069091910680
:101E6000C817D90720F4D0939106C0939006DF914C
:101E7000CF911F910F91FF9008958091A406882320
:101E800009F10FB6F8940F92E091AA06F091AB0613
:101E9000C681D781CE0102960E94960880919A064B
:101EA000815080939A068091A40681508093A40665
:101EB0000F900FBE8F89988D0E941C08CE010E9442
:101EC0001C08DBCF8091CD068230B8F20E949F09BA
:101ED000D4CF4F925F926F927F928F929F92AF92E8
:101EE000BF92CF92DF92EF92FF920F931F93CF9307
:101EF000DF934C016B015A012901CA010E94EA07D4
:101F00003C01892B09F4D5C088E290E00E94EA07E1
:101F1000EC01009789F0788E6F8A21E0A21AB1084F
:101F20006A0C7B1CC114D104C9F0BC01675E7F4FF1
:101F3000F601C601089607C0C3010E941C08B9C07B
:101F40008E179F0749F09F014191DB014D93BD0121
:101F5000D9012C912111F4CF18A201C0198E05309E
:101F600008F004E00E8B09A31AA26E01B2E0CB0EBA
:101F7000D11CC6010E943908CE010C960E94390876
:101F8000D987C88785E090E0801B91099D878C8761
:101F9000DB8BCA8B1BA21CA21DA21EA21FA2A20128
:101FA000B401C3010E94FC0899838883E114F10401
:101FB00019F0F701D183C0830FB6F8940F92809186
:101FC0009A068F5F80939A068091FA069091FB069D
:101FD000892BC1F5D093FB06C093FA0680919A062F
:101FE000813009F03FC00DEC16E08AEFE82E86E064
:101FF000F82EC8010E942B08075F1F4FE016F1065C
:10200000C1F784EC96E00E942B088BEB96E00E94CF
:102010002B088EEA96E00E942B0885EA96E00E9443
:102020002B088BE996E00E942B0884EC96E09093B5
:10203000BA068093B9068BEB96E09093B80680932E
:10204000B70610C08091960681110CC0E091FA0687
:10205000F091FB0696898E89891720F0D093FB06B4
:10206000C093FA06809192068F5F809392068E89C4
:1020700090919706981710F480939706F9E08F9F38
:10208000C0011124B6018353994F0E943D080F905F
:102090000FBE80919606882351F0E091FA06F091E8
:1020A000FB0696898E89981710F40E949F0981E09B
:1020B00001C08FEFDF91CF911F910F91FF90EF90B3
:1020C000DF90CF90BF90AF909F908F907F906F9058
:1020D0005F904F9008950F931F93CF93DF93EC0180
:1020E0000FB6F8940F92892B21F4C091FA06D09183
:1020F000FB068E010E5F1F4FC8010E9496088C8957
:102100009D89892B21F0CE010C960E949608809122
:1021100092068F5F809392068091FA069091FB065B
:10212000C817D90759F4B80185EA96E00E943D081E
:102130008091A4068F5F8093A4060EC080919A06BA
:10214000815080939A068F89988D0E941C08CE0139
:102150000E941C080E94C60E0F900FBE809196062A
:10216000882349F08091FA069091FB06C817D90799
:1021700011F40E949F09DF91CF911F910F91089553
:102180000F931F93CF93DF932091FA063091FB06B4
:1021900082179307B9F10097A9F10FB6F8940F923F
:1021A000FC01228533852B59364051F5FC012489E9
:1021B0003589F6E02E3A3F0719F1232B09F5EC019A
:1021C0008C010E5F1F4FC8010E9496088E89909166
:1021D0009706981710F48093970629E0829FC00114
:1021E0001124B8018353994F0E943D08E091FA06EB
:1021F000F091FB069E898689981710F00E949F092E
:102200000F900FBEDF91CF911F910F910895EF9224
:10221000FF921F93CF93DF93EC018A859B858B59A7
:10222000964099F48C899D8926E08E3A920769F050
:10223000892B59F480918D06882349F0BE01645F93
:102240007F4F8EEA96E00E943D0810E021C0E091A9
:10225000FA06F091FB0611E09E898689981708F42A
:1022600010E07E0182E0E80EF11CC7010E94960892
:102270008E8990919706981710F48093970629E01D
:10228000829FC0011124B7018353994F0E943D08DA
:10229000812FDF91CF911F91FF90EF900895EF92E2
:1022A000FF920F938EE8E82E86E0F82E00E020E003
:1022B00030E045E550E063EA70E08DE39FE00E9486
:1022C000690F813091F4F8942FEF3FEF309391062E
:1022D0002093900680939606109299061092980685
:1022E0000F91FF90EF900C9468090F91FF90EF9081
:1022F0000895F894109296060C949E0980918D068C
:102300008F5F80938D0608950FB6F8940F92809199
:102310009806909199060F900FBE089580919806A7
:1023200090919906089580919A060895009721F456
:102330008091FA069091FB0649960895CF92DF921C
:10234000EF92FF920F931F93CF93DF9380918D06AF
:1023500081118CC000919806109199060F5F1F4F54
:10236000109399060093980601151105B9F4809110
:10237000B9069091BA062091B7063091B80630930D
:10238000BA062093B9069093B8068093B706809159
:1023900093068F5F809393060E94C60E80919006ED
:1023A00090919106C0E00817190708F44FC0D9E0D2
:1023B000E091B906F091BA068081811103C08FEFD8
:1023C0009FEF11C0E091B906F091BA060580F68141
:1023D000E02DE680F780D70112968D919C9113979E
:1023E0000817190728F490939106809390062EC041
:1023F0006701B2E0CB0ED11CC6010E949608F7011E
:1024000084899589892B21F0C7010C960E94960832
:10241000D70156968C9190919706981710F4809357
:102420009706D89FC0011124B6018353994F0E948B
:102430003D08E091FA06F091FB06D70156969C9173
:102440008689981708F4B4CFC1E0B2CFE091FA06BC
:10245000F091FB06E689B9E0EB9FF0011124E3530C
:10246000F94F8081823040F0C1E006C0809195062E
:102470008F5F80939506C0E0809194068111C1E042
:102480008C2FDF91CF911F910F91FF90EF90DF90F4
:10249000CF900895EF92FF920F931F93CF93DF9306
:1024A0000FB6F8940F9280918D06815080938D061F
:1024B00080918D06882311F080E052C080919A06A9
:1024C0008823D1F3C0E0D0E089E0F82EEE24E39435
:1024D0008091AE06882351F1E091B306F091B406E5
:1024E000C681D781CE010C960E9496088E010E5FA0
:1024F0001F4FC8010E9496088E89909197069817E1
:1025000010F480939706F89EC0011124B8018353FC
:10251000994F0E943D08E091FA06F091FB069E89D2
:1025200086899817A8F2E0929406D2CFCD2B11F0AD
:102530000E94C60EC0919506CC2351F0D1E00E94B6
:102540009E118111D0939406C150C9F7109295063F
:1025500080919406882309F4AFCF0E949F0981E0FF
:102560000F900FBEDF91CF911F910F91FF90EF90D1
:1025700008950F931F93CF93DF938C01EB010E947B
:102580007E114091980650919906F8012081318181
:10259000C9018C0F9D1F4217530720F48217930720
:1025A00040F403C08217930730F021E04817590721
:1025B00018F020E001C021E0F801918380832223FC
:1025C00029F060E0841B950B0E94E10E0E944A12E4
:1025D000811102C00E949F09DF91CF911F910F913D
:1025E0000895CF93DF93EC01892B19F40E949F0982
:1025F0000AC00E947E1160E0CE010E94E10E0E949E
:102600004A12882399F3DF91CF91089580918D0626
:10261000882321F081E08093940608951092940617
:102620008091970669E0482F50E0649F9001659F74
:10263000300D1124F901E353F94F9081911102C03B
:102640008150F1CFA181B28112960D90BC91A02D45
:10265000B283A1832053394FA217B30731F41296E6
:102660002D913C9113973283218399E0949FF0013F
:10267000959FF00D1124E353F94F0180F281E02D75
:10268000268137813093FB062093FA0680939706C4
:1026900008950F931F93CF93DF93EC010FB6F89437
:1026A0000F92892B21F4C091FA06D091FB068E017E
:1026B0000E5F1F4FC8010E9496088C899D89892B47
:1026C00021F0CE010C960E949608B8018BE996E0A5
:1026D0000E943D088FA1813009F41FA20F900FBE08
:1026E00080919606882339F00FB6F8940F920E94D5
:1026F000C60E0F900FBE8091FA069091FB06C81788
:10270000D907C1F480919606882319F00E949F0989
:1027100011C090919B0680919A06981305C0109263
:10272000FB061092FA0606C0DF91CF911F910F9120
:102730000C940613DF91CF911F910F910895CF93C1
:10274000DF93EB016091FA067091FB06645F7F4FA7
:102750000E945E0861E0CE01DF91CF910C94E10E02
:10276000CF93DF93EA01E091FA06F091FB067068DF
:10277000758764876091FA067091FB06645F7F4FEE
:102780000E943D0861E0CE01DF91CF910C94E10EF3
:102790000F931F93CF93DF93DC011596ED91FC917E
:1027A0001697C681D7818E01045F1F4FC8010E9412
:1027B000960880918D06811114C00A501109C80134
:1027C0000E9496088E8990919706981710F480932E
:1027D0009706B9E08B9FC0011124B8018353994F2C
:1027E00003C0B8018EEA96E00E943D08E091FA0627
:1027F000F091FB069E898689891720F481E08093F9
:10280000940601C080E0DF91CF911F910F91089550
:102810000F931F93CF93DF937068FC0171836083E4
:10282000C681D7810E9496088E010E5F1F4FC80196
:102830000E9496088E8990919706981710F48093BD
:102840009706F9E08F9FC0011124B8018353994F77
:102850000E943D08E091FA06F091FB069E89868968
:10286000891718F481E080939406DF91CF911F912E
:102870000F9108950FB6F8940F9220919306FC01E2
:1028800020832091980630919906328321830F90FE
:102890000FBE089520919306FC0120832091980695
:1028A00030919906328321830895CF93DF930FB639
:1028B000F8940F924091980650919906DB012D9162
:1028C0003C912F3FBFEF3B07D9F0EC01E981FA8142
:1028D000A0919306B881BA1719F04E175F0790F4CC
:1028E0004E1B5F0BFB014217530738F4241B350BBB
:1028F000318320830E944A1403C01182108202C0D7
:1029000080E001C081E00F900FBEDF91CF9108956C
:1029100081E08093940608958091FA069091FB06D9
:1029200008950F931F93CF93DF93FC01892B09F434
:1029300055C08689A091FA06B091FB0656969C91E7
:10294000891708F041C02485358537FD0CC0A0915A
:10295000FA06B091FB0656969C9125E030E0291BC3
:1029600031093587248729E0829FC00111248353D0
:10297000994F2285338528173907E9F48F01EF0134
:102980002296CE010E949608E091FA06F091FB068D
:102990008689F801868B90919706981710F480939A
:1029A0009706F9E08F9FC0011124BE018353994F10
:1029B0000E943D0807C0A091FA06B091FB0656960A
:1029C0008C91868B81E00BC0A091FA06B091FB063A
:1029D00081E021A156969C91291708F080E0DF91B3
:1029E000CF911F910F9108950F931F93CF93DF9372
:1029F000FC01892B11F480E02CC082A1815082A3BC
:102A0000268991A12917B9F38111F5CFEF018F0123
:102A10000E5F1F4FC8010E94960889A18E8B482F18
:102A200050E025E030E0241B350B3D872C8790914A
:102A30009706981710F48093970629E0249FC00109
:102A4000259F900D1124B8018353994F0E943D0892
:102A500081E0DF91CF911F910F9108950F931F9304
:102A6000CF93DF93FC01892BD9F191A1961708F43C
:102A7000962F86898917A1F122A1213089F5968B9D
:102A80002485358537FD06C025E030E0291B310956
:102A90003587248729E0829FC00111248353994FF1
:102AA0002285338528173907D9F4EF018F010E5F8E
:102AB0001F4FC8010E9496088E899091970698171B
:102AC00010F48093970629E0829FC0011124B80179
:102AD0008353994FDF91CF911F910F910C943D0833
:102AE000DF91CF911F910F910895E091FA06F09137
:102AF000FB0684859585E091FA06F091FB06A0918E
:102B0000FA06B091FB0656964C9125E030E0241B66
:102B100031093587248708958091FA069091FB0644
:102B2000892B39F0E091FA06F091FB0682A18F5FC4
:102B300082A38091FA069091FB0608950F931F934C
:102B4000182FCB010FB6F8940F92E091FA06F0918E
:102B5000FB0643A154A165A176A1452B462B472B2B
:102B600069F4E091FA06F091FB0621E027A30097B3
:102B700029F061E00E94E10E0E949F090F900FBEB4
:102B80000FB6F8940F92E091FA06F091FB0663A15C
:102B900074A185A196A16115710581059105A9F022
:102BA000E091FA06F091FB06112329F013A214A27A
:102BB00015A216A20AC08B019C010150110921091E
:102BC000310903A314A325A336A3E091FA06F091DB
:102BD000FB0617A20F900FBE1F910F9108954F9201
:102BE0005F926F927F928F929F92AF92BF92EF927D
:102BF000FF920F931F9349015A010FB6F8940F9259
:102C0000E091FA06F091FB0627A1223039F1E0911C
:102C1000FA06F091FB0623A134A145A156A12B0190
:102C20003C014094509460947094D301C20182237B
:102C30009323A423B52383A394A3A5A3B6A3E091D0
:102C4000FA06F091FB0681E087A3E114F10431F06C
:102C500061E0C7010E94E10E0E949F090F900FBE24
:102C60000FB6F8940F920115110569F0E091FA067C
:102C7000F091FB0683A194A1A5A1B6A1F8018083E0
:102C80009183A283B383E091FA06F091FB0687A1BA
:102C90008230C1F4E091FA06F091FB0643A154A101
:102CA00065A176A1D501C40180959095A095B095B8
:102CB00084239523A623B72383A394A3A5A3B6A314
:102CC00081E001C080E0E091FA06F091FB0617A2D6
:102CD0000F900FBE1F910F91FF90EF90BF90AF909C
:102CE0009F908F907F906F905F904F9008950F937B
:102CF0001F93CF93DF93FC010FB6F8940F92011549
:102D0000110549F083A194A1A5A1B6A1E80188838A
:102D10009983AA83BB8337A182E087A3223089F0FD
:102D200058F4213001F583A194A1A5A1B6A1482BA7
:102D3000592B6A2B7B2B13C0233089F0243069F088
:102D400012C083A194A1A5A1B6A10196A11DB11D98
:102D500083A394A3A5A3B6A306C0323049F143A32D
:102D600054A365A376A3313009F5EF018F010E5FFF
:102D70001F4FC8010E9496088E8990919706981758
:102D800010F48093970629E0829FC0011124B801B6
:102D90008353994F0E943D08E091FA06F091FB069B
:102DA0009E898689891710F40E949F0981E001C0DD
:102DB00080E00F900FBEDF91CF911F910F9108958A
:102DC000EF92FF920F931F93CF93DF93FC010115B6
:102DD000110549F083A194A1A5A1B6A1E8018883BA
:102DE0009983AA83BB8337A182E087A3223089F02D
:102DF00058F4213001F583A194A1A5A1B6A1482BD7
:102E0000592B6A2B7B2B13C0233089F0243069F0B7
:102E100012C083A194A1A5A1B6A10196A11DB11DC7
:102E200083A394A3A5A3B6A306C03230D9F143A3CC
:102E300054A365A376A3313011F081E034C0EF01D3
:102E400080918D06811115C08F010E5F1F4FC80143
:102E50000E9496088E8990919706981710F4809397
:102E60009706E9E08E9FC0011124B8018353994F62
:102E700005C0BF01645F7F4F8EEA96E00E943D0867
:102E8000E091FA06F091FB069E8986898917A8F6DB
:102E9000E114F10419F081E0E701888381E0809377
:102EA000940601C080E0DF91CF911F910F91FF90B8
:102EB000EF900895EF92FF920F931F93CF93DF93BC
:102EC000FC0127A182E087A383A194A1A5A1B6A1BB
:102ED0000196A11DB11D83A394A3A5A3B6A3213080
:102EE000A1F58B01EF0180918D06811116C07F0144
:102EF00022E0E20EF11CC7010E9496088E89909193
:102F00009706981710F480939706E9E08E9FC0010A
:102F10001124B7018353994F05C0BF01645F7F4FF0
:102F20008EEA96E00E943D08E091FA06F091FB06D9
:102F30009E898689891748F40115110519F081E0E9
:102F4000F801808381E080939406DF91CF911F91F7
:102F50000F91FF90EF900895009721F48091FA0669
:102F60009091FB060FB6F8940F92FC0127A1223036
:102F700019F417A281E001C080E00F900FBE089500
:102F8000991B79E004C0991F961708F0961B881FBB
:102F90007A95C9F780950895AA1BBB1B51E107C01C
:102FA000AA1FBB1FA617B70710F0A61BB70B881FD9
:102FB000991F5A95A9F780959095BC01CD01089568
:102FC00097FB072E16F4009407D077FD09D00E94D6
:102FD000CC1707FC05D03EF4909581959F4F08953E
:102FE000709561957F4F0895FB01DC0102C001904F
:0E2FF0000D9241505040D8F70895F894FFCF4D
:102FFE000A3132334134353642373839432A303C80
:10300E003E7365636F6E6473006D696E7574657380
:10301E0000686F757273004B50445F636865636B35
:10302E0000456E74657220747970696E67206D6FDD
:08303E0064650049444C4500A3
:00000001FF
