:100000000C942A000C9447000C9447000C94470071
:100010000C9447000C9447000C9447000C94630A1E
:100020000C9447000C9447000C9447000C94470034
:100030000C9447000C9447000C9447000C94470024
:100040000C9447000C9447000C9447000C94470014
:100050000C94470011241FBECFE5D8E0DEBFCDBF12
:1000600010E0A0E6B0E0ECE1F0E302C005900D92F4
:10007000A63CB107D9F727E0A6ECB0E001C01D927D
:10008000A532B207E1F70E94C9080C940C180C9431
:10009000000080E00E948D058091C9006CE00E9404
:1000A000CF1781E0890F0E946F0682E00E948D05C4
:1000B0008AE30E9445058091CA006CE30E94CF1735
:1000C000892F0E946F0686E00E948D058091C800EE
:1000D000811103C081E790E002C084E790E00E94B4
:1000E0004F058EE00E948D058091CB000C946F0629
:1000F000CF93DF9300D0CDB7DEB781E00E94190C1B
:1001000090931C0780931B070E9493119A83898305
:100110001CE36AE070E080911B0790911C070E942D
:10012000170D882391F08EE00E948D058091CB0001
:100130000E946F0620E040E050E060E070E08091B7
:100140001B0790911C070E94830B65E070E0CE01B5
:1001500001960E94C8128091CB008F5F612F0E9490
:10016000CF179093CB00D5CFCF93DF9300D0CDB7EF
:10017000DEB70E9493119A83898382E00E948D05E5
:100180008AE30E9445051CE36AE070E080911B074A
:1001900090911C070E94170D882391F083E00E9424
:1001A0008D058091CA000E946F0620E040E050E07B
:1001B00060E070E080911B0790911C070E94830B08
:1001C0006CE271E0CE0101960E94C8128091CA00D3
:1001D0008F5F612F0E94CF179093CA00D5CFCF9326
:1001E000DF9300D0CDB7DEB70E9493119A83898345
:1001F00082E00E948D058AE30E9445051CE06AE0CA
:1002000070E080911B0790911C070E94170D8823B6
:1002100029F180E00E948D058091C900612F0E9424
:10022000CF1781E0890F0E946F0686E00E948D053E
:100230008091C800811103C081E790E002C084E78B
:1002400090E00E944F0520E040E050E060E070E068
:1002500080911B0790911C070E94830B60E576E458
:10026000CE0101960E94C8128091C9008F5F8C3028
:1002700031F49091C8009F5F91709093C800612FF6
:100280000E94CF179093C900BACFCF93DF93CDB719
:10029000DEB763970FB6F894DEBF0FBECDBF40E068
:1002A00061E081E00E945B0B9093C7008093C600E1
:1002B0000E9493119A8B898BCE0101960E94CF03E5
:1002C0008B8B8F3F61F020E04AE050E0BE016D5E15
:1002D0007F4F8091C6009091C7000E94830B609170
:1002E000600070E0CE0141960E94C812E5CFCF9326
:1002F000DF931F92CDB7DEB78FEF898300E010E167
:10030000C12C8AE0D82E4AE050E0BE016F5F7F4FDB
:100310008091C6009091C7000E94850C882399F3B4
:1003200089818A3209F4C2C0CC2069F3812F0E94EE
:100330008D0580E20E94450529812E3341F02E353E
:1003400099F1E12EF12C2C3309F049C015C0812F11
:1003500090E0019663E070E00E94EF17892B39F47A
:100360001F5F812F0E948D0580E20E9445051F5F5F
:10037000173109F093C08EC0C701019763E070E0A8
:100380000E94EF17892B39F41150812F0E948D059F
:1003900080E20E94450511501E3021F486E10E9442
:1003A0008D0516E1812F18C0163109F07AC08091B1
:1003B000C8008F5F81708093C80086E00E948D0521
:1003C0008091C800811103C081E790E002C084E7FA
:1003D00090E00E944F0586E10E948D055FC01131BB
:1003E000F9F078F41031B9F5220F2056922F990FB9
:1003F000990F290F8091C9006D2D0E94CF17290FE9
:1004000019C01331D1F0143131F58091CA006D2D2E
:100410000E94CF1720539AE0899F200D112419C004
:100420008091C9006D2D0E94CF1721539AE0899FBA
:10043000200D11242093C9000EC0220F2056922FA8
:10044000990F990F290F8091CA006D2D0E94CF1727
:10045000290F2093CA0080EF810F0E948D058981AA
:100460000E944505BB24B394B10E8B2D0E948D05CF
:10047000C701019663E070E00E94EF17892B39F401
:100480008B2D0E948D0580E20E9445051B2D1F5F6C
:10049000193121F480E10E948D0510E181E00E9474
:1004A000450583E090E00E9400132DCF80911B074B
:1004B00090911C0700FD15C06AE070E00E94170DC6
:1004C000882309F420CF80E10E948D0581E00E94FD
:1004D00045050F5F81E08093600010E1CC24C39458
:1004E00012CF20E040E050E060E070E00E94830B1B
:1004F00080E10E948D050E944900D0926000812F0A
:100500000E948D0580E20E94450585E090E00E94F2
:1005100000130F5FC12CF7CE1ABA17BA14BA11BA6A
:100520000895803208F06CC0623008F069C0982FDE
:1005300097708695869586958230A1F1833009F46F
:1005400048C08130B9F04AB321E030E0613039F47D
:1005500001C0220F9A95EAF7242B2ABB17C0B901D4
:1005600002C0660F771F9A95E2F7CB01809584232E
:100570008ABB0CC047B321E030E0611109C001C063
:10058000220F9A95EAF72095242327BB80E008954F
:10059000B90102C0660F771F9A95E2F7CB01842B51
:1005A00087BBF4CF44B321E030E0613039F401C0BF
:1005B000220F9A95EAF7242B24BBE8CFB90102C099
:1005C000660F771F9A95E2F7CB018095842384BB51
:1005D000DDCF41B321E030E0613039F401C0220FBA
:1005E0009A95EAF7242B21BBD1CFB90102C0660F3F
:1005F000771F9A95E2F7CB018095842381BBC6CF04
:1006000081E00895803208F06CC0623008F069C063
:10061000982F97708695869586958230A1F18330C4
:1006200009F448C08130B9F04BB321E030E06130CB
:1006300039F401C0220F9A95EAF7242B2BBB17C07F
:10064000B90102C0660F771F9A95E2F7CB0180953A
:1006500084238BBB0CC048B321E030E0611109C09A
:1006600001C0220F9A95EAF72095242328BB80E049
:100670000895B90102C0660F771F9A95E2F7CB0182
:10068000842B88BBF4CF45B321E030E0613039F4EE
:1006900001C0220F9A95EAF7242B25BBE8CFB901B8
:1006A00002C0660F771F9A95E2F7CB0180958423ED
:1006B00085BBDDCF42B321E030E0613039F401C0C9
:1006C000220F9A95EAF7242B22BBD1CFB90102C0A1
:1006D000660F771F9A95E2F7CB018095842382BB42
:1006E000C6CF81E00895843078F4823041F08330C1
:1006F00049F0813011F06ABB03C067BB01C064BB25
:1007000080E0089561BBFCCF81E00895843078F4E7
:10071000823041F0833049F0813011F06BBB03C06F
:1007200068BB01C065BB80E0089562BBFCCF81E07F
:100730000895FB018032E0F4282F27708695869576
:100740008695823041F0833041F0813011F089B3D9
:1007500005C086B303C083B301C080B390E002C07C
:10076000959587952A95E2F78170808380E00895BA
:1007700081E00895FB01843080F4823041F08330C1
:1007800041F0813011F089B305C086B303C083B353
:1007900001C080B3808380E0089581E008956F9266
:1007A0007F928F929F92AF92BF92CF92DF92EF9201
:1007B000FF920F931F93CF93DF931F92CDB7DEB7B6
:1007C0007C0119820DE117E066246A94912C77244C
:1007D0007394580160E0F80180810E94020381E275
:1007E000C82E87E0D82E812CBE016F5F7F4FF601A7
:1007F00081916F010E9499032981882D890D90E0D4
:10080000F701E80FF91F213011F4108205C0708242
:10081000FC01EF59FF4F6080F4E08F0E80E18812F9
:10082000E3CF0F5F1F4F61E0F50180810E9402035B
:100830009394F4E09F12CDCF862D0F90DF91CF914E
:100840001F910F91FF90EF90DF90CF90BF90AF90EE
:100850009F908F907F906F9008958130A1F138F034
:10086000823009F45BC0833009F483C008956FE0DF
:1008700080E00E94730361E084E00E94020361E073
:1008800085E00E94020361E086E00E94020361E0CD
:1008900087E00E94020384E08093210783E0809335
:1008A0001D0785E08093220782E080931E0786E083
:1008B0008093230781E080931F0787E080932407BC
:1008C0001092200708956FE081E00E94730361E0B9
:1008D0008CE00E94020361E08DE00E94020361E06F
:1008E0008EE00E94020361E08FE00E9402038CE030
:1008F000809321078BE080931D078DE08093220772
:100900008AE080931E078EE08093230789E080931E
:100910001F078FE08093240788E055C06FE082E0D6
:100920000E94730361E084E10E94020361E085E1BB
:100930000E94020361E086E10E94020361E087E118
:100940000E94020384E18093210783E180931D07C5
:1009500085E18093220782E180931E0786E18093E0
:10096000230781E180931F0787E18093240780E1BB
:100970002AC06FE083E00E94730361E08CE10E9473
:10098000020361E08DE10E94020361E08EE10E94BA
:10099000020361E08FE10E9402038CE18093210752
:1009A0008BE180931D078DE1809322078AE180937C
:1009B0001E078EE18093230789E180931F078FE153
:1009C0008093240788E1809320070895E0E0DC010C
:1009D0002D91CD01213029F4F0E0EF59FF4F8081B6
:1009E0000895EF5FE03199F78FEF0895CF93C82F07
:1009F00060E081E10E9402036C2F617087E00E9439
:100A00000203C1FB662760F986E00E940203C2FB75
:100A1000662760F985E00E940203C3FB662760F940
:100A200084E00E940203C4FB662760F983E00E9411
:100A30000203C5FB662760F982E00E940203C6FB41
:100A4000662760F981E00E9402036C2F661F66270B
:100A5000661F80E00E94020361E082E10E940203BF
:100A60008FEC97E00197F1F700C0000060E082E1B1
:100A7000CF910C940203CF93C82F60E080E10E94D5
:100A800002038C2FCF910C94F604CF93C82F61E012
:100A900080E10E9402038C2FCF910C94F604EF9218
:100AA000FF920F931F93CF937C01C0E087010C0F3F
:100AB000111DF8018081882359F0C03119F480ECB0
:100AC0000E943B05F80180810E944505CF5FEECF73
:100AD000CF911F910F91FF90EF90089581E00C94BA
:100AE0003B050F931F93CF938C01C0E0F801EC0FEF
:100AF000F11D8081882369F00E9445052FEF84E372
:100B00009CE0215080409040E1F700C00000CF5FA2
:100B1000EDCFCF911F910F910895803110F480583F
:100B200001C080550C943B050F931F93CF93DF9327
:100B30008C01C0E08C2F0E948D05D0E0F801ED0FF4
:100B4000F11D8081882321F00E944505DF5FF6CFEB
:100B50002FEF89E698E1215080409040E1F700C0F6
:100B600000000E946E05CF5FC53021F7DF91CF9165
:100B70001F910F9108950F931F93CF93DF938C01D3
:100B8000862F880F880F880F805C0E943B05E80144
:100B9000085F1F4F89910E944505C017D107D1F703
:100BA00080E8DF91CF911F910F910C943B0561E09C
:100BB00080E10E94910261E081E10E94910261E086
:100BC00082E10E94910261E087E00E94910261E06F
:100BD00086E00E94910261E085E00E94910261E05E
:100BE00084E00E94910261E083E00E94910261E052
:100BF00082E00E94910261E081E00E94910261E046
:100C000080E00E9491022FE788E391E0215080402C
:100C10009040E1F700C000002FEF89EF90E02150F5
:100C200080409040E1F700C0000088E30E943B054F
:100C300025E82A95F1F700008CE00E943B0585E845
:100C40008A95F1F7000081E00E943B058FE99FE063
:100C50000197F1F700C0000060E087E890E00E9493
:100C6000BB0561E087E790E00C94BB05CF92DF9273
:100C7000EF92FF920F931F93CF93DF93EC0100E06D
:100C800080E090E02AE0EAE0F0E0209771F0289F11
:100C90007001299FF00C1124CE01BF010E94DB17C7
:100CA0008E0D9F1DEB010F5FF0CF10E02AE0E22ECA
:100CB000F12CC017D10750F4B7010E94DB176B016C
:100CC000805D0E944505C6012196F3CFDF91CF914B
:100CD0001F910F91FF90EF90DF90CF900895CF93E9
:100CE0006AE00E94CF17C92F805D0E94450580E30E
:100CF0008C0FCF910C944505805D0C944505CF93E6
:100D0000DF938BE090E00E94F907EC01009731F04F
:100D1000FC0111921192CF010E943A08CE01DF919D
:100D2000CF910895AF92BF92CF92DF92EF92FF9250
:100D30000F931F93CF93DF936C017B01B42EA22EF0
:100D40000E948D11F601C081D181CE018E219F219B
:100D5000A11003C0892B21F43BC0E816F906C1F5A8
:100D6000BB2041F0C701809590958C239D23F6010F
:100D70009183808300E010E00E945912012B09F456
:100D80003DC0811102C00E94AE090E94841591FDF0
:100D90001CC00FB6F8940F92F601808191819701E3
:100DA00028233923A11003C0232B21F40CC0E21601
:100DB000F30649F4BB2039F0E094F094E822F922DC
:100DC000F601F182E0820F900FBEEC01DD2716C024
:100DD0000115110589F2BB2019F060E071E002C035
:100DE00060E070E0A11074606E297F29A801C6013F
:100DF00002960E94BF13C0E0D0E0BECFCE01DF91CB
:100E0000CF911F910F91FF90EF90DF90CF90BF9007
:100E1000AF900895FC010FB6F8940F9280819181F4
:100E20006095709568237923718360830F900FBE5E
:100E30000895FC01808191810895CF92DF92EF9215
:100E4000FF920F931F93CF93DF938C01EB017C01F3
:100E500085E0E80EF11C0E948D11D8011796ED91E6
:100E6000FC9118978D919C911197C82BD92BCD93FC
:100E7000DC93C0E0D0E0D8016D917C911197EE1524
:100E8000FF05E1F0D280C38020813181C90199271B
:100E9000AC014623572332FD03C0452B21F40BC080
:100EA0008417950741F430FF02C0C82BD92B72601C
:100EB000CF010E941714ED2DFC2DDDCFC095D095EC
:100EC0006C237D236D937C930E945912F8018081DD
:100ED0009181DF91CF911F910F91FF90EF90DF9063
:100EE000CF900895AF92BF92CF92DF92EF92FF9290
:100EF0000F931F93CF93DF937C01EB018A0169016C
:100F00000E948D11F701A080B180BE01C7010E942F
:100F10001D07CA29DB29CE01802391230817190751
:100F200069F4F70120813181C80180959095822371
:100F3000932391838083C12CD12C10C0C114D10480
:100F400051F0A601B8017560C70102960E94BF1357
:100F5000C0E0D0E003C0F701C081D1810E945912E6
:100F6000CD28F9F0811102C00E94AE090E948415BB
:100F700091FD15C00FB6F8940F92F7018081918111
:100F80009801282339230217130739F4A801409543
:100F9000509548235923518340830F900FBEEC0195
:100FA000DD27CE01DF91CF911F910F91FF90EF9040
:100FB000DF90CF90BF90AF900895CF93DF93EC0177
:100FC0000E948D118A81882339F060E072E08F8160
:100FD00098850E941714F6CFCE010E942B08DF914E
:100FE000CF910C945912BA010C941D07BA010C94BC
:100FF0000A07CF93DF93EC010E948D118091CC0002
:101000009091CD00892B31F481ED90E09093CD004B
:101010008093CC002091CE003091CF00C9018C0F7D
:101020009D1F8B3D45E0940770F42817390758F44D
:10103000C091CC00D091CD00C20FD31F9093CF00B0
:101040008093CE0002C0C0E0D0E00E945912CE01D1
:10105000DF91CF91089508951092CF001092CE00A5
:1010600008952091CE003091CF008BED95E0821B4A
:10107000930B0895FC010396928381832FEF3FEF3A
:101080003483238396838583908787831082089592
:10109000FC01118610860895CF93DF939C01FB011C
:1010A000DC011196CD91DC911297D383C2838C81A0
:1010B0009D81958384838C819D81DC0113967C9333
:1010C0006E9312977D836C8331872087F90180812D
:1010D0008F5F8083DF91CF9108950F931F93CF93FC
:1010E000DF938C01FB01808191818F3F2FEF92076D
:1010F00021F4E801AF81B8850EC0D801139612968D
:101100002D913C911397E9014881598184179507E6
:1011100010F0D901F4CF12968D919C91139793837F
:101120008283EC01FD83EC83B583A4831396FC9347
:10113000EE93129711870087F80180818F5F80837B
:10114000DF91CF911F910F910895CF93DF93FC0111
:10115000A085B1858281938124813581EC013D8315
:101160002C83C481D5819B838A8311968D919C9118
:101170001297E817F90721F41296DC93CE93119792
:10118000118610868C9181508C938C91DF91CF9138
:1011900008950E94D7050E946E050E94490081E0D3
:1011A0000E942D04E12CF12C01E020E030E046E427
:1011B00050E06FE870E088E790E00E94780F20E050
:1011C00030E046E450E067E970E084EB90E00E9494
:1011D000780F20E030E046E450E06FE970E08FEEF9
:1011E00090E00E94780F02E020E030E042E350E01F
:1011F00065EA70E085E491E00E94780F20E030E03D
:1012000042E350E06FEA70E087E791E00E94780FD8
:101210000E945E11FFCF31E1FC013083319722E261
:1012200020833197A3E3A083319760833197708344
:1012300031971082319760E860833197108231973F
:1012400062E06083319763E06083319764E060839C
:10125000319765E06083319766E06083319767E09E
:101260006083319768E06083319769E060833197EC
:1012700060E1608331973083319732E13083319779
:1012800033E13083319734E13083319735E1308376
:10129000319736E13083319737E13083319738E148
:1012A0003083319739E13083319730E230833197A1
:1012B00031E2308331972083319723E220833197C5
:1012C000408331975083319726E22083319727E27C
:1012D0002083319728E22083319729E220833197B8
:1012E00020E32083319721E320838697089581E6C8
:1012F0008BBD87EA8ABD8BE08EBD89B7806189BFCF
:10130000A0911907B0911A07CD91CDBFDD91DEBF35
:10131000FF91EF91DF91CF91BF91AF919F918F910D
:101320007F916F915F914F913F912F911F910F91FD
:10133000FF90EF90DF90CF90BF90AF909F908F90F5
:101340007F906F905F904F903F902F901F900F90E5
:101350000FBE0F90089581E0089508950F920FB683
:10136000F8940F921F9211242F923F924F925F9206
:101370006F927F928F929F92AF92BF92CF92DF92A5
:10138000EF92FF920F931F932F933F934F935F938F
:101390006F937F938F939F93AF93BF93CF93DF937D
:1013A000EF93FF93A0911907B0911A070DB60D9214
:1013B0000EB60D920E941513A0911907B0911A074D
:1013C000CD91CDBFDD91DEBFFF91EF91DF91CF9148
:1013D000BF91AF919F918F917F916F915F914F914D
:1013E0003F912F911F910F91FF90EF90DF90CF9041
:1013F000BF90AF909F908F907F906F905F904F9035
:101400003F902F901F900F900FBE0F9008950F9256
:101410000FB6F8940F921F9211242F923F924F9281
:101420005F926F927F928F929F92AF92BF92CF9274
:10143000DF92EF92FF920F931F932F933F934F935F
:101440005F936F937F938F939F93AF93BF93CF934C
:10145000DF93EF93FF93A0911907B0911A070DB690
:101460000D920EB60D920E94AD1181110E941513BE
:10147000A0911907B0911A07CD91CDBFDD91DEBFC4
:10148000FF91EF91DF91CF91BF91AF919F918F919C
:101490007F916F915F914F913F912F911F910F918C
:1014A000FF90EF90DF90CF90BF90AF909F908F9084
:1014B0007F906F905F904F903F902F901F900F9074
:1014C0000FBE0F9008950E94070A18950FB6F89462
:1014D0000F92FC01928D0F900FBE81E0911180E080
:1014E00008950F931F93CF93DF93EC01042F1A8D70
:1014F0004C8D41110BC088819981892BE9F58C8134
:101500009D810E9403151D821C8237C050E001118D
:1015100015C08A819B810E9403182C8D8A819B8132
:10152000820F911D9B838A832C813D8182179307B3
:1015300018F1888199819B838A831EC08E819F8147
:101540000E9403188C8D90E09195819591092E81D0
:101550003F81280F391F3F832E83488159812417EB
:10156000350730F42C813D81820F931F9F838E833A
:10157000023011F41111115080E01F5F1A8FDF91BA
:10158000CF911F910F910895FC01CB01448D44230D
:10159000A1F050E026813781240F351F3783268341
:1015A000648175812617370720F0208131813783C8
:1015B0002683668177810C9403180895EF92FF9239
:1015C0001F93CF93DF93EC010FB6F8940F921E8D0B
:1015D0007C0181E1E80EF11C11165CF489898823F5
:1015E00041F0C7010E94D71381110E949714115036
:1015F000F3CF8FEF8E8F0F900FBE0FB6F8940F9230
:101600001D8D7E0188E0E80EF11C11165CF48885C2
:10161000882341F0C7010E94D71381110E949714BB
:101620001150F3CF8FEF8D8F0F900FBEDF91CF91C1
:101630001F91FF90EF900895CF93DF93EC010FB6C9
:10164000F8940F92488159818B8D7C8D9A01879FE8
:10165000200D311D11243D832C831A8E5B834A8318
:1016600090E00197789F9001799F300D1124CA0175
:10167000820F931F9F838E838FEF8D8F8E8F6111CB
:101680000CC08885882389F0CE0108960E94D71364
:10169000882359F00E94AE0908C0CE0108960E9426
:1016A0003A08CE0141960E943A080F900FBE81E0A1
:1016B000DF91CF9108950F931F93CF93DF93082F5E
:1016C000162F662321F0869FC001112402C080E0FE
:1016D00090E04F960E94F907EC01009771F011110C
:1016E00003C09983888303C04F96998388830B8FA7
:1016F0001C8F61E0CE010E941C0BCE01DF91CF91C7
:101700001F910F910895AF92BF92CF92DF92FF92F7
:101710000F931F93CF93DF9300D000D01F92CDB7CC
:10172000DEB78C016B015D834C83F22E80E05801A3
:1017300098E0A90EB11C0FB6F8940F92F801228D13
:10174000938D291718F0F2E0FF1214C04F2DB60147
:10175000C8010E94710AF8019189992321F0C801FA
:1017600041960E94D71381110E94AE090F900FBEBF
:1017700081E050C02C813D81232B19F40F900FBEC6
:1017800048C0811104C0CE0101960E9459140F90E7
:101790000FBE0E948D110FB6F8940F92F801858D3F
:1017A0008F3F09F4158EF801868D8F3F09F4168E50
:1017B0000F900FBEBE016C5F7F4FCE0101960E945D
:1017C0006414811121C00FB6F8940F92F801928D24
:1017D0000F900FBE838D981311C06C817D81C50160
:1017E0000E94AE13C8010E94DE0A0E94591288238B
:1017F00011F081E0A0CF0E94AE09FBCFC8010E948A
:10180000DE0A0E945912F5CFC8010E94DE0A0E942A
:10181000591280E00F900F900F900F900F90DF9172
:10182000CF911F910F91FF90DF90CF90BF90AF901D
:101830000895CF93DF93482F60E081E00E945B0B17
:10184000EC01009761F01D821C82198218821E82B1
:1018500020E040E050E060E070E00E94830BCE01A9
:10186000DF91CF910895EF92FF921F93CF93DF9373
:10187000EC019A8D8B8D981710F02230E1F47A01EB
:101880001E8D422FCE010E94710A1F3F81F489896B
:10189000882379F0CE0141960E94D713882349F01E
:1018A000E114F10431F081E0F701808305C01F5F8E
:1018B0001E8F81E001C080E0DF91CF911F91FF90EA
:1018C000EF900895CF93DF93FC01928D838D98174D
:1018D000C0F4868D9F5F928F8F3F79F48189882332
:1018E00071F0EB01CF0141960E94D713882339F0A4
:1018F000209729F081E0888305C08F5F868F81E083
:1019000001C080E0DF91CF910895AF92BF92CF9256
:10191000DF92FF920F931F93CF93DF9300D000D0FD
:101920001F92CDB7DEB78C016B015D834C8380E0E5
:10193000580191E1A90EB11C0FB6F8940F92F8016D
:10194000F28CFF20A9F0B601C8010E94C40AFA94E3
:10195000F801F28E8085882339F0C80108960E942C
:10196000D71381110E94AE090F900FBE81E050C0C5
:101970002C813D81232B19F40F900FBE48C081119B
:1019800004C0CE0101960E9459140F900FBE0E9410
:101990008D110FB6F8940F92F801858D8F3F09F4E1
:1019A000158EF801868D8F3F09F4168E0F900FBEAD
:1019B000BE016C5F7F4FCE0101960E9464148111BD
:1019C0001CC0C8010E94660A882389F06C817D8151
:1019D000C5010E94AE13C8010E94DE0A0E9459127E
:1019E000882311F081E0A8CF0E94AE09FBCFC80187
:1019F0000E94DE0A0E945912F5CFC8010E94DE0A39
:101A00000E945912C8010E94660A882359F380E097
:101A10000F900F900F900F900F90DF91CF911F912B
:101A20000F91FF90DF90CF90BF90AF900895CF922D
:101A3000DF92FF920F931F93CF93DF9300D000D0DC
:101A40001F92CDB7DEB78C017D836C83F12C90E0C3
:101A5000680181E1C80ED11C0FB6F8940F92D8012D
:101A60005A968C915A978823E9F081505A968C9314
:101A70005A978D919C91892B29F40E949B15F8010E
:101A800095838483D80118968C91882339F0C801F6
:101A900008960E94D71381110E94AE090F900FBEC5
:101AA00081E07AC02C813D81232B09F472C0911111
:101AB00004C0CE0101960E9459140F900FBE0E94DF
:101AC0008D110FB6F8940F92F801858D8F3F09F4B0
:101AD000158ED8015E968C915E978F3F11F45E96BD
:101AE0001C920F900FBEBE016C5F7F4FCE0101961E
:101AF0000E94641481112BC0C8010E94660A8823C9
:101B000001F1F80180819181892B51F40FB6F8948D
:101B10000F92848195810E94A014F82E0F900FBE21
:101B20006C817D81C6010E94AE13C8010E94DE0A4D
:101B30000E945912882311F091E08ECF0E94AE09C5
:101B4000FBCFC8010E94DE0A0E945912F5CFC801DE
:101B50000E94DE0A0E945912C8010E94660A882368
:101B600059F3FF20C1F00FB6F8940F92F801818964
:101B7000882339F00688F789E02D808165E0681BAD
:101B800001C060E0D80114968D919C9115970E9438
:101B90003D150F900FBE80E00F900F900F900F90AB
:101BA0000F90DF91CF911F910F91FF90DF90CF9019
:101BB0000895CF92DF92EF92FF920F931F93CF93EE
:101BC000DF9300D000D01F92CDB7DEB78C017B0130
:101BD0005D834C8380E0680191E1C90ED11C0FB692
:101BE000F8940F92F801928D9923B9F0C680D780AE
:101BF000B701C8010E94C40AF801D782C682818950
:101C0000882339F0C80141960E94D71381110E94A0
:101C1000AE090F900FBE81E050C02C813D81232B77
:101C200019F40F900FBE48C0811104C0CE01019677
:101C30000E9459140F900FBE0E948D110FB6F89498
:101C40000F92F801858D8F3F09F4158EF801868D6E
:101C50008F3F09F4168E0F900FBEBE016C5F7F4F51
:101C6000CE0101960E94641481111CC0C8010E941B
:101C7000660A882389F06C817D81C6010E94AE13BB
:101C8000C8010E94DE0A0E945912882311F081E0E7
:101C9000A6CF0E94AE09FBCFC8010E94DE0A0E94B7
:101CA0005912F5CFC8010E94DE0A0E945912C801DC
:101CB0000E94660A882359F380E00F900F900F90DE
:101CC0000F900F90DF91CF911F910F91FF90EF90A8
:101CD000DF90CF900895EF92FF920F931F93CF93D1
:101CE000DF93FC01028D0023E9F07A01EC01158DF0
:101CF0000E94C40A01500A8F1F3F81F488858823FF
:101D000079F0CE0108960E94D713882349F0E11498
:101D1000F10431F081E0F701808305C01F5F1D8F62
:101D200081E001C080E0DF91CF911F910F91FF9082
:101D3000EF9008950F931F93CF93DF93FC01228DB3
:101D4000222349F0EC01068117810E94C40A1F83F7
:101D50000E8381E001C080E0DF91CF911F910F9150
:101D600008950FB6F8940F92FC01828D0F900FBE6C
:101D700008950FB6F8940F92FC01228D0F900FBEBC
:101D8000838D821B0895FC01828D08950C942B088D
:101D9000FC01928D81E0911180E00895FC01928D0B
:101DA00081E0238D291380E00895E091D806F09119
:101DB000D9068081811103C08FEF9FEF0CC0E091A5
:101DC000D806F091D9060580F681E02D0680F781CE
:101DD000E02D828193819093B0068093AF060895A1
:101DE000FF920F931F93CF93DF93EC01F62E009198
:101DF000B7061091B8068091190790911A070296BC
:101E00000E94A508CF3F8FEFD80789F4FF2079F013
:101E10006091190770911A076E5F7F4F8AEB96E009
:101E2000DF91CF911F910F91FF900C944C08C00F40
:101E3000D11FE0911907F0911A07D383C2836091F3
:101E4000190770911A07C017D10768F48091D60658
:101E50009091D7066E5F7F4FDF91CF911F910F91C9
:101E6000FF900C946D088091D8069091D9066E5F12
:101E70007F4F0E946D088091AF069091B006C81701
:101E8000D90720F4D093B006C093AF06DF91CF916D
:101E90001F910F91FF9008958091C306882309F147
:101EA0000FB6F8940F92E091C906F091CA06C68168
:101EB000D781CE0102960E94A5088091B906815073
:101EC0008093B9068091C30681508093C3060F901A
:101ED0000FBE8F89988D0E942B08CE010E942B087F
:101EE000DBCF8091EC068230B8F20E94AE09D4CFED
:101EF0004F925F926F927F928F929F92AF92BF921A
:101F0000CF92DF92EF92FF920F931F93CF93DF93C5
:101F10004C016B015A012901CA010E94F9073C01D9
:101F2000892B09F4D5C088E290E00E94F907EC0102
:101F3000009789F0788E6F8A21E0A21AB1086A0CA6
:101F40007B1CC114D104C9F0BC01675E7F4FF60150
:101F5000C601089607C0C3010E942B08B9C08E179E
:101F60009F0749F09F014191DB014D93BD01D901CC
:101F70002C912111F4CF18A201C0198E053008F060
:101F800004E00E8B09A31AA26E01B2E0CB0ED11CA5
:101F9000C6010E944808CE010C960E944808D987C5
:101FA000C88785E090E0801B91099D878C87DB8B3B
:101FB000CA8B1BA21CA21DA21EA21FA2A201B401B9
:101FC000C3010E940B0999838883E114F10419F07D
:101FD000F701D183C0830FB6F8940F928091B906B0
:101FE0008F5F8093B9068091190790911A07892B0A
:101FF000C1F5D0931A07C09319078091B9068130B3
:1020000009F03FC00CEE16E089E1E82E87E0F82EDB
:10201000C8010E943A08075F1F4FE016F106C1F79A
:1020200083EE96E00E943A088AED96E00E943A0814
:102030008DEC96E00E943A0884EC96E00E943A0803
:102040008AEB96E00E943A0883EE96E09093D906D8
:102050008093D8068AED96E09093D7068093D606B3
:1020600010C08091B50681110CC0E0911907F09164
:102070001A0796898E89891720F0D0931A07C09382
:1020800019078091B1068F5F8093B1068E89909178
:10209000B606981710F48093B606F9E08F9FC0013A
:1020A0001124B6018451994F0E944C080F900FBE25
:1020B0008091B506882351F0E0911907F0911A0735
:1020C00096898E89981710F40E94AE0981E001C0AC
:1020D0008FEFDF91CF911F910F91FF90EF90DF90E5
:1020E000CF90BF90AF909F908F907F906F905F90B8
:1020F0004F9008950F931F93CF93DF93EC010FB68A
:10210000F8940F92892B21F4C0911907D0911A07E6
:102110008E010E5F1F4FC8010E94A5088C899D8902
:10212000892B21F0CE010C960E94A5088091B10662
:102130008F5F8093B1068091190790911A07C81795
:10214000D90759F4B80184EC96E00E944C088091BC
:10215000C3068F5F8093C3060EC08091B90681507D
:102160008093B9068F89988D0E942B08CE010E941A
:102170002B080E94D50E0F900FBE8091B5068823C4
:1021800049F08091190790911A07C817D90711F4DF
:102190000E94AE09DF91CF911F910F9108950F9387
:1021A0001F93CF93DF932091190730911A0782175D
:1021B0009307B9F10097A9F10FB6F8940F92FC01BB
:1021C000228533852A5B364051F5FC012489358907
:1021D000F6E02D3C3F0719F1232B09F5EC018C01AA
:1021E0000E5F1F4FC8010E94A5088E899091B60608
:1021F000981710F48093B60629E0829FC00111243D
:10220000B8018451994F0E944C08E0911907F09150
:102210001A079E898689981710F00E94AE090F90C0
:102220000FBEDF91CF911F910F910895EF92FF9212
:102230001F93CF93DF93EC018A859B858A5B964041
:1022400099F48C899D8926E08D3C920769F0892B51
:1022500059F48091AC06882349F0BE01645F7F4F3A
:102260008DEC96E00E944C0810E021C0E091190727
:10227000F0911A0711E09E898689981708F410E0FA
:102280007E0182E0E80EF11CC7010E94A5088E893C
:102290009091B606981710F48093B60629E0829FB5
:1022A000C0011124B7018451994F0E944C08812F1D
:1022B000DF91CF911F91FF90EF900895EF92FF92E1
:1022C0000F938DEAE82E86E0F82E00E020E030E063
:1022D00045E550E061EC70E08CE49FE00E94780FEF
:1022E000813091F4F8942FEF3FEF3093B0062093B4
:1022F000AF068093B5061092B8061092B7060F91FC
:10230000FF90EF900C9477090F91FF90EF90089554
:10231000F8941092B5060C94AD098091AC068F5FCD
:102320008093AC0608950FB6F8940F928091B7068B
:102330009091B8060F900FBE08958091B7069091C6
:10234000B80608958091B9060895009721F4809108
:10235000190790911A0749960895CF92DF92EF924C
:10236000FF920F931F93CF93DF938091AC0681115F
:102370008CC00091B7061091B8060F5F1F4F1093E5
:10238000B8060093B70601151105B9F48091D80677
:102390009091D9062091D6063091D7063093D90670
:1023A0002093D8069093D7068093D6068091B206E4
:1023B0008F5F8093B2060E94D50E8091AF069091F8
:1023C000B006C0E00817190708F44FC0D9E0E09143
:1023D000D806F091D9068081811103C08FEF9FEF5D
:1023E00011C0E091D806F091D9060580F681E02D64
:1023F000E680F780D70112968D919C91139708176C
:10240000190728F49093B0068093AF062EC0670199
:10241000B2E0CB0ED11CC6010E94A508F701848949
:102420009589892B21F0C7010C960E94A508D70138
:1024300056968C919091B606981710F48093B60634
:10244000D89FC0011124B6018451994F0E944C08B5
:10245000E0911907F0911A07D70156969C91868949
:10246000981708F4B4CFC1E0B2CFE0911907F0910A
:102470001A07E689B9E0EB9FF0011124E451F94F06
:102480008081823040F0C1E006C08091B4068F5F49
:102490008093B406C0E08091B3068111C1E08C2F17
:1024A000DF91CF911F910F91FF90EF90DF90CF9030
:1024B0000895EF92FF920F931F93CF93DF930FB680
:1024C000F8940F928091AC0681508093AC06809175
:1024D000AC06882311F080E052C08091B9068823B1
:1024E000D1F3C0E0D0E089E0F82EEE24E3948091AF
:1024F000CD06882351F1E091D206F091D306C68132
:10250000D781CE010C960E94A5088E010E5F1F4F49
:10251000C8010E94A5088E899091B606981710F4FC
:102520008093B606F89EC0011124B8018451994FDA
:102530000E944C08E0911907F0911A079E8986893C
:102540009817A8F2E092B306D2CFCD2B11F00E94DB
:10255000D50EC091B406CC2351F0D1E00E94AD114C
:102560008111D093B306C150C9F71092B40680917F
:10257000B306882309F4AFCF0E94AE0981E00F9023
:102580000FBEDF91CF911F910F91FF90EF900895B3
:102590000F931F93CF93DF938C01EB010E948D115A
:1025A0004091B7065091B806F80120813181C901E8
:1025B0008C0F9D1F4217530720F48217930740F496
:1025C00003C08217930730F021E04817590718F02D
:1025D00020E001C021E0F80191838083222329F0CB
:1025E00060E0841B950B0E94F00E0E94591281112D
:1025F00002C00E94AE09DF91CF911F910F91089503
:10260000CF93DF93EC01892B19F40E94AE090AC025
:102610000E948D1160E0CE010E94F00E0E945912BE
:10262000882399F3DF91CF9108958091AC06882398
:1026300021F081E08093B30608951092B306809153
:10264000B60669E0482F50E0649F9001659F300D09
:102650001124F901E451F94F9081911102C0815088
:10266000F1CFA181B28112960D90BC91A02DB283C1
:10267000A1832151394FA217B30731F412962D913E
:102680003C9113973283218399E0949FF001959FA9
:10269000F00D1124E451F94F0180F281E02D2681E3
:1026A000378130931A07209319078093B60608954F
:1026B0000F931F93CF93DF93EC010FB6F8940F9213
:1026C000892B21F4C0911907D0911A078E010E5F52
:1026D0001F4FC8010E94A5088C899D89892B21F074
:1026E000CE010C960E94A508B8018AEB96E00E94E4
:1026F0004C088FA1813009F41FA20F900FBE80916A
:10270000B506882339F00FB6F8940F920E94D50EC3
:102710000F900FBE8091190790911A07C817D9071B
:10272000C1F48091B506882319F00E94AE0911C04A
:102730009091BA068091B906981305C010921A07B5
:102740001092190706C0DF91CF911F910F910C9441
:102750001513DF91CF911F910F910895CF93DF93C0
:10276000EB016091190770911A07645F7F4F0E9417
:102770006D0861E0CE01DF91CF910C94F00ECF9304
:10278000DF93EA01E0911907F0911A0770687587E5
:1027900064876091190770911A07645F7F4F0E94E8
:1027A0004C0861E0CE01DF91CF910C94F00E0F93B5
:1027B0001F93CF93DF93DC011596ED91FC91169753
:1027C000C681D7818E01045F1F4FC8010E94A508F2
:1027D0008091AC06811114C00A501109C8010E94F1
:1027E000A5088E899091B606981710F48093B606C6
:1027F000B9E08B9FC0011124B8018451994F03C0E7
:10280000B8018DEC96E00E944C08E0911907F09118
:102810001A079E898689891720F481E08093B30680
:1028200001C080E0DF91CF911F910F9108950F9328
:102830001F93CF93DF937068FC0171836083C6811F
:10284000D7810E94A5088E010E5F1F4FC8010E940C
:10285000A5088E899091B606981710F48093B60655
:10286000F9E08F9FC0011124B8018451994F0E9453
:102870004C08E0911907F0911A079E8986898917FB
:1028800018F481E08093B306DF91CF911F910F91EF
:1028900008950FB6F8940F922091B206FC012083A0
:1028A0002091B7063091B806328321830F900FBE76
:1028B00008952091B206FC0120832091B706309143
:1028C000B806328321830895CF93DF930FB6F8942F
:1028D0000F924091B7065091B806DB012D913C91C3
:1028E0002F3FBFEF3B07D9F0EC01E981FA81A091BE
:1028F000B206B881BA1719F04E175F0790F44E1B55
:102900005F0BFB014217530738F4241B350B31834F
:1029100020830E94591403C01182108202C080E0FB
:1029200001C081E00F900FBEDF91CF91089581E04B
:102930008093B30608958091190790911A0708951E
:102940000F931F93CF93DF93FC01892B09F455C09C
:102950008689A0911907B0911A0756969C918917FC
:1029600008F041C02485358537FD0CC0A0911907BA
:10297000B0911A0756969C9125E030E0291B310949
:102980003587248729E0829FC00111248451994F03
:102990002285338528173907E9F48F01EF01229644
:1029A000CE010E94A508E0911907F0911A078689C7
:1029B000F801868B9091B606981710F48093B606AE
:1029C000F9E08F9FC0011124BE018451994F0E94EC
:1029D0004C0807C0A0911907B0911A0756968C9120
:1029E000868B81E00BC0A0911907B0911A0781E096
:1029F00021A156969C91291708F080E0DF91CF9194
:102A00001F910F9108950F931F93CF93DF93FC01B4
:102A1000892B11F480E02CC082A1815082A32689E9
:102A200091A12917B9F38111F5CFEF018F010E5F45
:102A30001F4FC8010E94A50889A18E8B482F50E026
:102A400025E030E0241B350B3D872C879091B6069E
:102A5000981710F48093B60629E0249FC001259FA3
:102A6000900D1124B8018451994F0E944C0881E0C7
:102A7000DF91CF911F910F9108950F931F93CF93E3
:102A8000DF93FC01892BD9F191A1961708F4962FB9
:102A900086898917A1F122A1213089F5968B248599
:102AA000358537FD06C025E030E0291B3109358723
:102AB000248729E0829FC00111248451994F2285E7
:102AC000338528173907D9F4EF018F010E5F1F4FA7
:102AD000C8010E94A5088E899091B606981710F437
:102AE0008093B60629E0829FC0011124B801845169
:102AF000994FDF91CF911F910F910C944C08DF916A
:102B0000CF911F910F910895E0911907F0911A0745
:102B100084859585E0911907F0911A07A09119070E
:102B2000B0911A0756964C9125E030E0241B3109EC
:102B30003587248708958091190790911A07892B6A
:102B400039F0E0911907F0911A0782A18F5F82A3F3
:102B50008091190790911A0708950F931F93182FCA
:102B6000CB010FB6F8940F92E0911907F0911A0774
:102B700043A154A165A176A1452B462B472B69F4AF
:102B8000E0911907F0911A0721E027A3009729F097
:102B900061E00E94F00E0E94AE090F900FBE0FB6CA
:102BA000F8940F92E0911907F0911A0763A174A1AC
:102BB00085A196A16115710581059105A9F0E091A6
:102BC0001907F0911A07112329F013A214A215A2D4
:102BD00016A20AC08B019C0101501109210931097B
:102BE00003A314A325A336A3E0911907F0911A07B4
:102BF00017A20F900FBE1F910F9108954F925F92F1
:102C00006F927F928F929F92AF92BF92EF92FF92BC
:102C10000F931F9349015A010FB6F8940F92E09158
:102C20001907F0911A0727A1223039F1E09119070D
:102C3000F0911A0723A134A145A156A12B013C0113
:102C40004094509460947094D301C20182239323E2
:102C5000A423B52383A394A3A5A3B6A3E091190746
:102C6000F0911A0781E087A3E114F10431F061E0EB
:102C7000C7010E94F00E0E94AE090F900FBE0FB662
:102C8000F8940F920115110569F0E0911907F09180
:102C90001A0783A194A1A5A1B6A1F801808391830D
:102CA000A283B383E0911907F0911A0787A18230BC
:102CB000C1F4E0911907F0911A0743A154A165A14D
:102CC00076A1D501C40180959095A095B0958423F7
:102CD0009523A623B72383A394A3A5A3B6A381E03A
:102CE00001C080E0E0911907F0911A0717A20F9038
:102CF0000FBE1F910F91FF90EF90BF90AF909F90EC
:102D00008F907F906F905F904F9008950F931F93D7
:102D1000CF93DF93FC010FB6F8940F9201151105C4
:102D200049F083A194A1A5A1B6A1E8018883998364
:102D3000AA83BB8337A182E087A3223089F058F4AD
:102D4000213001F583A194A1A5A1B6A1482B592B4F
:102D50006A2B7B2B13C0233089F0243069F012C01A
:102D600083A194A1A5A1B6A10196A11DB11D83A324
:102D700094A3A5A3B6A306C0323049F143A354A33C
:102D800065A376A3313009F5EF018F010E5F1F4F68
:102D9000C8010E94A5088E899091B606981710F474
:102DA0008093B60629E0829FC0011124B8018451A6
:102DB000994F0E944C08E0911907F0911A079E89DB
:102DC0008689891710F40E94AE0981E001C080E075
:102DD0000F900FBEDF91CF911F910F910895EF9249
:102DE000FF920F931F93CF93DF93FC010115110501
:102DF00049F083A194A1A5A1B6A1E8018883998394
:102E0000AA83BB8337A182E087A3223089F058F4DC
:102E1000213001F583A194A1A5A1B6A1482B592B7E
:102E20006A2B7B2B13C0233089F0243069F012C049
:102E300083A194A1A5A1B6A10196A11DB11D83A353
:102E400094A3A5A3B6A306C03230D9F143A354A3DB
:102E500065A376A3313011F081E034C0EF01809199
:102E6000AC06811115C08F010E5F1F4FC8010E9473
:102E7000A5088E899091B606981710F48093B6062F
:102E8000E9E08E9FC0011124B8018451994F05C01B
:102E9000BF01645F7F4F8DEC96E00E944C08E0918B
:102EA0001907F0911A079E8986898917A8F6E114F7
:102EB000F10419F081E0E701888381E08093B30693
:102EC00001C080E0DF91CF911F910F91FF90EF90B3
:102ED0000895EF92FF920F931F93CF93DF93FC011E
:102EE00027A182E087A383A194A1A5A1B6A1019601
:102EF000A11DB11D83A394A3A5A3B6A32130A1F561
:102F00008B01EF018091AC06811116C07F0122E098
:102F1000E20EF11CC7010E94A5088E899091B606A9
:102F2000981710F48093B606E9E08E9FC001112433
:102F3000B7018451994F05C0BF01645F7F4F8DEC8D
:102F400096E00E944C08E0911907F0911A079E89BB
:102F50008689891748F40115110519F081E0F801F7
:102F6000808381E08093B306DF91CF911F910F9111
:102F7000FF90EF900895009721F4809119079091A8
:102F80001A070FB6F8940F92FC0127A1223019F40A
:102F900017A281E001C080E00F900FBE0895991B39
:102FA00079E004C0991F961708F0961B881F7A9540
:102FB000C9F780950895AA1BBB1B51E107C0AA1F42
:102FC000BB1FA617B70710F0A61BB70B881F991FCA
:102FD0005A95A9F780959095BC01CD01089597FB6E
:102FE000072E16F4009407D077FD09D00E94DB1756
:102FF00007FC05D03EF4909581959F4F08957095FC
:1030000061957F4F0895FB01DC0102C001900D9294
:0C30100041505040D8F70895F894FFCFCD
:10301C000A313233413435365E373839762A303C12
:10302C003E414D00504D000000040A150404040EEE
:10303C00111F11111B15110000110E1517110E7314
:10304C0065636F6E6473006D696E7574657300688B
:10305C006F757273004B50445F636865636B00451A
:10306C006E74657220747970696E67206D6F64651B
:06307C000049444C450030
:00000001FF
