:100000000C942A000C94D2050C94FB050C94240645
:100010000C9447000C9447000C9447000C944E0D30
:100020000C9447000C9447000C9447000C94470034
:100030000C9447000C9447000C9447000C94470024
:100040000C9447000C9447000C9447000C94470014
:100050000C94470011241FBECFE5D8E0DEBFCDBF12
:1000600010E0A0E6B0E0E2EFF5E302C005900D92EB
:10007000A63DB107D9F727E0A6EDB0E001C01D927B
:10008000A834B207E1F70E94AF0B0C94F71A0C9456
:100090000000CF93DF9300D0CDB7DEB70E947E146F
:1000A0006091E5004CE251E0649F9001659F300D46
:1000B0001124821B930B9A83898382E00E94730828
:1000C0008AE30E942B081CE06AE070E080913E0702
:1000D00090913F070E940210882329F180E00E943E
:1000E00073088091E400612F0E94BA1A81E0890FA1
:1000F0000E94550986E00E9473088091E3008111F7
:1001000003C081E790E002C084E790E00E943508D8
:1001100020E040E050E060E070E080913E07909188
:100120003F070E946E0E60E576E4CE0101960E94C4
:10013000B3158091E4008F5F8C3031F49091E3002F
:100140009F5F91709093E300612F0E94BA1A909381
:10015000E400BACFCF93DF9300D0CDB7DEB70E94D3
:100160007E149A83898382E00E9473088AE30E9446
:100170002B081CE38091DF0080FF21C09091E400F8
:100180008091E10098131BC09091E5008091E200FE
:10019000981315C09091E3008091E00098130FC070
:1001A00088EDE82E80E0F82E04E020E030E042E325
:1001B00050E06BE770E08FEE93E00E9463126AE01C
:1001C00070E080913E0790913F070E9402108823C3
:1001D000F1F083E00E9473088091E5000E945509C8
:1001E00089E00E9473088091DF0080FF02C080E0F8
:1001F00001C080E20E942B0820E040E050E060E077
:1002000070E080913E0790913F070E946E0E6CE275
:1002100071E0CE0101960E94B3158091E5008F5FD9
:10022000612F0E94BA1A9093E500A4CF0E9454084F
:1002300080E00E9473088091E4006CE00E94BA1A8A
:1002400081E0890F0E94550982E00E9473088AE3C9
:100250000E942B088091E5006CE30E94BA1A892F56
:100260000E94550986E00E9473088091E300811185
:1002700003C081E790E002C084E790E00E94350867
:1002800089E00E9473088091DF0080FF02C080E057
:1002900001C080E20E942B088EE00E9473088091CA
:1002A000E6000C945509CF93DF9300D0CDB7DEB7AD
:1002B0000E947E149A8389831CE36AE070E0809137
:1002C0003E0790913F070E940210882391F08EE034
:1002D0000E9473088091E6000E94550920E040E0EA
:1002E00050E060E070E080913E0790913F070E94EF
:1002F0006E0E65E070E0CE0101960E94B31580910C
:10030000E6008F5F612F0E94BA1A9093E600D5CF66
:10031000CF93DF93EC012881822F90E0019663E078
:1003200070E00E94DA1A892B51F481E0820F0E945A
:10033000730880E20E942B0888818F5F8883888100
:100340008F5F873111F0888304C080E188830E9429
:10035000730881E0DF91CF910C942B08CF93DF934A
:10036000EC012881822F90E0019763E070E00E9409
:10037000DA1A892B51F48FEF820F0E94730880E202
:100380000E942B08888181508883888181508E301B
:1003900011F0888304C086E188830E9473088881F5
:1003A0000E94730881E0DF91CF910C942B080F938A
:1003B0001F93CF93DF93FC0120812631F1F4EB01F1
:1003C0008C0198819F5F9170988386E00E947308EA
:1003D0008881811103C081E790E002C084E790E04A
:1003E0000E943508F80180810E94730881E0DF9146
:1003F000CF911F910F910C942B08DF91CF911F91FA
:100400000F9108958091DF0081FD2FC080E10E944F
:10041000730881E00E942B088091DF008260809346
:10042000DF0080E00E94730880E00E94550982E0AE
:100430000E9473088AE30E942B0880E00E945509FD
:1004400086E00E9473088091E000811103C081E77B
:1004500090E002C084E790E00E94350887E10E94A6
:10046000730887E790E00C9435080E945408809147
:10047000DF008D7F8093DF000C941601CF92DF9216
:10048000EF92FF920F931F93CF93DF937C016B0149
:10049000EA01D9018881813149F198F4803109F06C
:1004A00045C0F7018081880F8056982F990F990FCA
:1004B000282F290F8C916AE00E94BA1A920F9C9300
:1004C00032C0833101F1843189F5F80180816AE01D
:1004D0000E94BA1A880F982F990F990F890F80538D
:1004E000F7019081890FF80180831DC08C916AE02B
:1004F0000E94BA1AF70190819153FAE08F9F900DF4
:1005000011249C9310C0F7018081880F8056982F8A
:10051000990F990F282F290FF80180816AE00E9416
:10052000BA1A920F908381E0F6018083888180510E
:100530000E9473088881863121F0F70180810E9432
:100540002B0888818F5F0E9473082881822F90E09A
:10055000019663E070E00E94DA1A892B51F481E081
:10056000820F0E94730880E20E942B0888818F5FAF
:10057000888388818F5F873111F0888304C080E190
:1005800088830E94730881E0DF91CF911F910F91C2
:10059000FF90EF90DF90CF900C942B08CF93DF93D8
:1005A000CDB7DEB762970FB6F894DEBF0FBECDBFF2
:1005B0008FEF8A8B198ACE0101960E94B5068A8B2D
:1005C0008F3F09F454C0809160000E94730880E25C
:1005D0000E942B088A898E3369F038F48C3301F538
:1005E00080E690E00E94AE0142C08134B1F08E35C9
:1005F00031F016C080E690E00E94880138C08091FA
:10060000DF0081FD03C063EE70E002C060EE70E0C9
:1006100080E690E00E94D7012AC00E94020227C013
:100620008091DF0081FD0DC005EE10E024EE30E08A
:1006300040E650E06EED70E0CE0142960E943E0230
:1006400016C002EE10E021EE30E040E650E0BE01C0
:100650006F5E7F4FCE0142960E943E0289898130B3
:1006600029F48091DF0081608093DF00198A81E0A6
:1006700090E00E94EB159FCFEF92FF920F931F9394
:10068000CF93DF93EC018B0120E040E050E060E08D
:1006900070E080913E0790913F070E946E0E80E1CE
:1006A0000E9473080E941601F80180810E9473085D
:1006B00080E20E942B088881882351F18091DC0020
:1006C0009091DD00009731F00E9465131092DD00DB
:1006D0001092DC009CEDE92E90E0F92E02E020E083
:1006E00030E04BE450E061E870E08AEA90E00E947C
:1006F00063128091DA009091DB00009731F00E9444
:1007000065131092DB001092DA0018821092E60056
:100710008AEDE82E80E0F82E03E020E030E046E4A9
:1007200050E069E870E089E490E00E946312DF9194
:10073000CF911F910F91FF90EF900895CF93DF938A
:10074000EC016AE070E080913E0790913F070E94C3
:100750000210882349F080E188830E94730881E0B9
:10076000DF91CF910C942B08DF91CF9108950E94D7
:10077000540880E00E9473088091E1006CE00E94C0
:10078000BA1A81E0890F0E94550982E00E9473081D
:100790008AE30E942B088091E2006CE30E94BA1A5F
:1007A000892F0E94550986E00E9473088091E3001A
:1007B000811103C081E790E002C084E790E00E94CD
:1007C000350885E10E9473088091DF0082FF03C035
:1007D0008FE890E002C086E990E00C9435086AE06A
:1007E00070E080913E0790913F070E94021088239D
:1007F00039F00E94B7038091DF0088608093DF00AA
:10080000C4E08091DF008C278093DF0080FF05C06B
:1008100083FF1BC00E94B70318C00E94160120E08E
:1008200040E050E060E070E080913E0790913F072B
:100830000E946E0E8091DF00877F8093DF008091A1
:10084000D8009091D9000E94651385E090E00E9445
:10085000EB15D7CF60E070E080913C0790913D07A9
:100860000C944D0F81E00E94040F90933F078093FA
:100870003E0743E060E081E00E94460E90933D0712
:1008800080933C07009739F020E040E050E060E0C2
:1008900070E00C946E0E0895C0E16FE077E28091F5
:1008A0003C0790913D070E9402108823B1F380918C
:1008B000DF008C278093DF0084FD1EC061E087E1AC
:1008C0000E94050580E690E00E949E038091D6007C
:1008D0009091D700892B09F786EDE82E80E0F82E5D
:1008E00005E020E030E040E550E06DE970E08EEC9E
:1008F00092E00E946312D1CF60E087E10E9405057B
:100900008091D6009091D700009711F00E94651356
:1009100060E670E08EED90E00E943C03BECF1ABA14
:1009200017BA14BA11BA0895803208F06CC0623058
:1009300008F069C0982F97708695869586958230C5
:10094000A1F1833009F448C08130B9F04AB321E005
:1009500030E0613039F401C0220F9A95EAF7242B78
:100960002ABB17C0B90102C0660F771F9A95E2F73C
:10097000CB01809584238ABB0CC047B321E030E0D3
:10098000611109C001C0220F9A95EAF7209524232E
:1009900027BB80E00895B90102C0660F771F9A95C2
:1009A000E2F7CB01842B87BBF4CF44B321E030E0E6
:1009B000613039F401C0220F9A95EAF7242B24BB49
:1009C000E8CFB90102C0660F771F9A95E2F7CB0115
:1009D0008095842384BBDDCF41B321E030E06130DA
:1009E00039F401C0220F9A95EAF7242B21BBD1CF0D
:1009F000B90102C0660F771F9A95E2F7CB01809587
:100A0000842381BBC6CF81E00895803208F06CC09A
:100A1000623008F069C0982F977086958695869504
:100A20008230A1F1833009F448C08130B9F04BB372
:100A300021E030E0613039F401C0220F9A95EAF7E5
:100A4000242B2BBB17C0B90102C0660F771F9A95E4
:100A5000E2F7CB01809584238BBB0CC048B321E027
:100A600030E0611109C001C0220F9A95EAF7209584
:100A7000242328BB80E00895B90102C0660F771FC8
:100A80009A95E2F7CB01842B88BBF4CF45B321E0E4
:100A900030E0613039F401C0220F9A95EAF7242B37
:100AA00025BBE8CFB90102C0660F771F9A95E2F720
:100AB000CB018095842385BBDDCF42B321E030E0BC
:100AC000613039F401C0220F9A95EAF7242B22BB3A
:100AD000D1CFB90102C0660F771F9A95E2F7CB011B
:100AE0008095842382BBC6CF81E00895843078F45A
:100AF000823041F0833049F0813011F06ABB03C08D
:100B000067BB01C064BB80E0089561BBFCCF81E09E
:100B10000895843078F4823041F0833049F0813098
:100B200011F06BBB03C068BB01C065BB80E00895DA
:100B300062BBFCCF81E00895FB018032E0F4282FF6
:100B40002770869586958695823041F0833041F0F6
:100B5000813011F089B305C086B303C083B301C0EF
:100B600080B390E002C0959587952A95E2F7817051
:100B7000808380E0089581E00895FB01843080F453
:100B8000823041F0833041F0813011F089B305C0EB
:100B900086B303C083B301C080B3808380E008952F
:100BA00081E008951F920F920FB60F9211242F9398
:100BB0003F934F935F936F937F938F939F93AF93E5
:100BC000BF93EF93FF93E091E700F091E800309737
:100BD00009F00995FF91EF91BF91AF919F918F918E
:100BE0007F916F915F914F913F912F910F900FBE29
:100BF0000F901F9018951F920F920FB60F9211240D
:100C00002F933F934F935F936F937F938F939F9314
:100C1000AF93BF93EF93FF93E091E900F091EA0067
:100C2000309709F00995FF91EF91BF91AF919F9196
:100C30008F917F916F915F914F913F912F910F9085
:100C40000FBE0F901F9018951F920F920FB60F9224
:100C500011242F933F934F935F936F937F938F93C1
:100C60009F93AF93BF93EF93FF93E091EB00F091CD
:100C7000EC00309709F00995FF91EF91BF91AF918A
:100C80009F918F917F916F915F914F913F912F91A4
:100C90000F900FBE0F901F901895E82FF0E0EE0F09
:100CA000FF1FE951FF4F7183608308958FB78068FC
:100CB0008FBF0895813039F018F0823039F00895EF
:100CC0008BB7806405C08BB7806802C08BB7806229
:100CD0008BBF0895813039F018F0823039F00895D3
:100CE0008BB78F7B05C08BB78F7702C08BB78F7D9B
:100CF0008BBF08958130D1F018F0823071F10895E2
:100D0000611103C085B78C7F26C0633019F485B7A5
:100D1000836021C0623021F485B78E7F82601BC062
:100D2000613011F585B78D7F816015C0611103C0F9
:100D300085B7837F10C0633019F485B78C600BC012
:100D4000623021F485B78B7F886005C0613061F423
:100D500085B7877F846085BF089584B7613011F4BB
:100D6000806401C08F7B84BF08956F927F928F92C1
:100D70009F92AF92BF92CF92DF92EF92FF920F932A
:100D80001F93CF93DF931F92CDB7DEB77C011982FB
:100D900000E417E066246A94912C77247394580138
:100DA00060E0F80180810E94050584E4C82E87E098
:100DB000D82E812CBE016F5F7F4FF60181916F01AC
:100DC0000E949C052981882D890D90E0F701E80F8C
:100DD000F91F213011F4108205C07082FC01EF5917
:100DE000FF4F6080F4E08F0E80E18812E3CF0F5F49
:100DF0001F4F61E0F50180810E9405059394F4E0A6
:100E00009F12CDCF862D0F90DF91CF911F910F9123
:100E1000FF90EF90DF90CF90BF90AF909F908F901A
:100E20007F906F9008958130A1F138F0823009F4FD
:100E30005BC0833009F483C008956FE080E00E94B6
:100E4000760561E084E00E94050561E085E00E948E
:100E5000050561E086E00E94050561E087E00E94EB
:100E6000050587E08093440783E08093400786E090
:100E70008093450782E08093410785E08093460791
:100E800081E08093420784E08093470710924307F4
:100E900008956FE081E00E94760561E08CE00E9499
:100EA000050561E08DE00E94050561E08EE00E948D
:100EB000050561E08FE00E9405058FE080934407FF
:100EC0008BE0809340078EE0809345078AE0809313
:100ED00041078DE08093460789E0809342078CE0CC
:100EE0008093470788E055C06FE082E00E94760556
:100EF00061E084E10E94050561E085E10E9405054D
:100F000061E086E10E94050561E087E10E94050538
:100F100087E18093440783E18093400786E18093D3
:100F2000450782E18093410785E18093460781E18F
:100F30008093420784E18093470780E12AC06FE0F5
:100F400083E00E94760561E08CE10E94050561E086
:100F50008DE10E94050561E08EE10E94050561E0DA
:100F60008FE10E9405058FE1809344078BE1809318
:100F700040078EE1809345078AE1809341078DE128
:100F80008093460789E1809342078CE1809347076D
:100F900088E1809343070895E0E0DC012D91CD01C5
:100FA000213029F4F0E0EF59FF4F80810895EF5F81
:100FB000E03199F78FEF0895CF93C82F60E081E17A
:100FC0000E9405056C2F617087E00E940505C1FB3A
:100FD000662760F986E00E940505C2FB662760F976
:100FE00085E00E940505C3FB662760F984E00E9446
:100FF0000505C4FB662760F983E00E940505C5FB73
:10100000662760F982E00E940505C6FB662760F945
:1010100081E00E9405056C2F661F6627661F80E031
:101020000E94050561E082E10E9405058FEC97E0D2
:101030000197F1F700C0000060E082E1CF910C94CD
:101040000505CF93C82F60E080E10E9405058C2F35
:10105000CF910C94DC07CF93C82F61E080E10E9410
:1010600005058C2FCF910C94DC07EF92FF920F9324
:101070001F93CF937C01C0E087010C0F111DF80175
:101080008081882359F0C03119F480EC0E94210836
:10109000F80180810E942B08CF5FEECFCF911F9186
:1010A0000F91FF90EF90089581E00C9421080F9329
:1010B0001F93CF938C01C0E0F801EC0FF11D8081EC
:1010C000882369F00E942B082FEF84E39CE02150D5
:1010D00080409040E1F700C00000CF5FEDCFCF919E
:1010E0001F910F910895803110F4805801C08055F0
:1010F0000C9421080F931F93CF93DF938C01C0E0D2
:101100008C2F0E947308D0E0F801ED0FF11D808153
:10111000882321F00E942B08DF5FF6CF2FEF89E6AE
:1011200098E1215080409040E1F700C000000E940B
:101130005408CF5FC53021F7DF91CF911F910F91F8
:1011400008950F931F93CF93DF938C01862F880F01
:10115000880F880F805C0E942108E801085F1F4FFC
:1011600089910E942B08C017D107D1F780E8DF9141
:10117000CF911F910F910C94210861E080E10E94B2
:10118000940461E081E10E94940461E082E10E94A4
:10119000940461E087E00E94940461E086E00E948C
:1011A000940461E085E00E94940461E084E00E9480
:1011B000940461E083E00E94940461E082E00E9474
:1011C000940461E081E00E94940461E080E00E9468
:1011D00094042FE788E391E0215080409040E1F7AC
:1011E00000C000002FEF89EF90E021508040904038
:1011F000E1F700C0000088E30E94210825E82A9555
:10120000F1F700008CE00E94210885E88A95F1F74B
:10121000000081E00E9421088FE99FE00197F1F72B
:1012200000C0000060E081EB90E00E94A10861E056
:1012300081EA90E00C94A108CF92DF92EF92FF92A6
:101240000F931F93CF93DF93EC0100E080E090E0D9
:101250002AE0EAE0F0E0209771F0289F7001299FD2
:10126000F00C1124CE01BF010E94C61A8E0D9F1DE5
:10127000EB010F5FF0CF10E02AE0E22EF12CC01757
:10128000D10750F4B7010E94C61A6B01805D0E941D
:101290002B08C6012196F3CFDF91CF911F910F91BB
:1012A000FF90EF90DF90CF900895CF936AE00E9477
:1012B000BA1AC92F805D0E942B0880E38C0FCF9152
:1012C0000C942B08805D0C942B08CF93DF938BE05C
:1012D00090E00E94DF0AEC01009731F0FC011192CE
:1012E0001192CF010E94200BCE01DF91CF91089582
:1012F000AF92BF92CF92DF92EF92FF920F931F9324
:10130000CF93DF936C017B01B42EA22E0E94781440
:10131000F601C081D181CE018E219F21A11003C091
:10132000892B21F43BC0E816F906C1F5BB2041F03A
:10133000C701809590958C239D23F601918380832E
:1013400000E010E00E944415012B09F43DC081111A
:1013500002C00E94990C0E946F1891FD1CC00FB62C
:10136000F8940F92F6018081918197012823392307
:10137000A11003C0232B21F40CC0E216F30649F49C
:10138000BB2039F0E094F094E822F922F601F182D2
:10139000E0820F900FBEEC01DD2716C0011511058C
:1013A00089F2BB2019F060E071E002C060E070E0FB
:1013B000A11074606E297F29A801C60102960E94BF
:1013C000AA16C0E0D0E0BECFCE01DF91CF911F9131
:1013D0000F91FF90EF90DF90CF90BF90AF90089566
:1013E000FC010FB6F8940F92808191816095709501
:1013F00068237923718360830F900FBE0895FC01E9
:10140000808191810895CF92DF92EF92FF920F93A6
:101410001F93CF93DF938C01EB017C0185E0E80EF5
:10142000F11C0E947814D8011796ED91FC91189741
:101430008D919C911197C82BD92BCD93DC93C0E053
:10144000D0E0D8016D917C911197EE15FF05E1F088
:10145000D280C38020813181C9019927AC01462304
:10146000572332FD03C0452B21F40BC08417950789
:1014700041F430FF02C0C82BD92B7260CF010E940B
:101480000217ED2DFC2DDDCFC095D0956C237D236B
:101490006D937C930E944415F80180819181DF91C6
:1014A000CF911F910F91FF90EF90DF90CF90089513
:1014B000AF92BF92CF92DF92EF92FF920F931F9362
:1014C000CF93DF937C01EB018A0169010E947814BC
:1014D000F701A080B180BE01C7010E94030ACA299A
:1014E000DB29CE01802391230817190769F4F7013E
:1014F00020813181C8018095909582239323918327
:101500008083C12CD12C10C0C114D10451F0A6018C
:10151000B8017560C70102960E94AA16C0E0D0E02B
:1015200003C0F701C081D1810E944415CD28F9F094
:10153000811102C00E94990C0E946F1891FD15C084
:101540000FB6F8940F92F7018081918198012823BA
:1015500039230217130739F4A80140955095482301
:101560005923518340830F900FBEEC01DD27CE013C
:10157000DF91CF911F910F91FF90EF90DF90CF906F
:10158000BF90AF900895CF93DF93EC010E94781441
:101590008A81882339F060E072E08F8198850E940B
:1015A0000217F6CFCE010E94110BDF91CF910C9460
:1015B0004415BA010C94030ABA010C94F009CF93B4
:1015C000DF93EC010E9478148091ED009091EE0081
:1015D000892B31F482EF90E09093EE008093ED0040
:1015E0002091EF003091F000C9018C0F9D1F8B3DC1
:1015F00045E0940770F42817390758F4C091ED00BE
:10160000D091EE00C20FD31F9093F0008093EF00B3
:1016100002C0C0E0D0E00E944415CE01DF91CF911E
:10162000089508951092F0001092EF00089520910F
:10163000EF003091F0008BED95E0821B930B089545
:10164000FC010396928381832FEF3FEF3483238342
:10165000968385839087878310820895FC01118685
:1016600010860895CF93DF939C01FB01DC01119656
:10167000CD91DC911297D383C2838C819D81958318
:1016800084838C819D81DC0113967C936E931297E9
:101690007D836C8331872087F90180818F5F808310
:1016A000DF91CF9108950F931F93CF93DF938C0118
:1016B000FB01808191818F3F2FEF920721F4E80198
:1016C000AF81B8850EC0D801139612962D913C912A
:1016D0001397E901488159818417950710F0D901C2
:1016E000F4CF12968D919C91139793838283EC0192
:1016F000FD83EC83B583A4831396FC93EE9312973A
:1017000011870087F80180818F5F8083DF91CF91FF
:101710001F910F910895CF93DF93FC01A085B185B0
:101720008281938124813581EC013D832C83C481A6
:10173000D5819B838A8311968D919C911297E8178E
:10174000F90721F41296DC93CE9311971186108637
:101750008C9181508C938C91DF91CF910895EF9271
:10176000FF920F930E94BD080E9454080E94160128
:1017700081E00E9413070E9432046AE274E080E074
:101780000E944D0660E08AE10E94940461E08AE1D3
:101790000E94050561E087E10E94940463E080E017
:1017A0000E947A060E94560680E00E945A06E12CAA
:1017B000F12C02E020E030E046E450E069EB70E01C
:1017C00083E591E00E94631220E030E042E350E0C4
:1017D00061EC70E08CE494E00E9463120E94491472
:1017E00080E090E00F91FF90EF90089531E1FC01CF
:1017F0003083319722E220833197A3E3A08331978E
:1018000060833197708331971082319760E86083ED
:1018100031971082319762E06083319763E0608393
:10182000319764E06083319765E06083319766E0CB
:101830006083319767E06083319768E06083319718
:1018400069E06083319760E160833197308331973D
:1018500032E13083319733E13083319734E13083A3
:10186000319735E13083319736E13083319737E175
:101870003083319738E13083319739E130833197C4
:1018800030E23083319731E23083319720833197D2
:1018900023E220833197408331975083319726E2AA
:1018A0002083319727E22083319728E220833197E4
:1018B00029E22083319720E32083319721E320839D
:1018C0008697089581E68BBD87EA8ABD8BE08EBD41
:1018D00089B7806189BFA0913A07B0913B07CD914C
:1018E000CDBFDD91DEBFFF91EF91DF91CF91BF9131
:1018F000AF919F918F917F916F915F914F913F91A8
:101900002F911F910F91FF90EF90DF90CF90BF909C
:10191000AF909F908F907F906F905F904F903F908F
:101920002F901F900F900FBE0F90089581E00895A3
:1019300008950F920FB6F8940F921F9211242F92D0
:101940003F924F925F926F927F928F929F92AF924F
:10195000BF92CF92DF92EF92FF920F931F932F933C
:101960003F934F935F936F937F938F939F93AF9327
:10197000BF93CF93DF93EF93FF93A0913A07B0917A
:101980003B070DB60D920EB60D920E940016A09167
:101990003A07B0913B07CD91CDBFDD91DEBFFF91FE
:1019A000EF91DF91CF91BF91AF919F918F917F91F7
:1019B0006F915F914F913F912F911F910F91FF90E8
:1019C000EF90DF90CF90BF90AF909F908F907F90DF
:1019D0006F905F904F903F902F901F900F900FBE91
:1019E0000F9008950F920FB6F8940F921F92112442
:1019F0002F923F924F925F926F927F928F929F921F
:101A0000AF92BF92CF92DF92EF92FF920F931F930C
:101A10002F933F934F935F936F937F938F939F93F6
:101A2000AF93BF93CF93DF93EF93FF93A0913A07C8
:101A3000B0913B070DB60D920EB60D920E94981410
:101A400081110E940016A0913A07B0913B07CD91F9
:101A5000CDBFDD91DEBFFF91EF91DF91CF91BF91BF
:101A6000AF919F918F917F916F915F914F913F9136
:101A70002F911F910F91FF90EF90DF90CF90BF902B
:101A8000AF909F908F907F906F905F904F903F901E
:101A90002F901F900F900FBE0F9008950E94F20C90
:101AA00018950FB6F8940F92FC01928D0F900FBE0F
:101AB00081E0911180E008950F931F93CF93DF93FE
:101AC000EC01042F1A8D4C8D41110BC08881998136
:101AD000892BE9F58C819D810E94EE171D821C8265
:101AE00037C050E0011115C08A819B810E94EE1A17
:101AF0002C8D8A819B81820F911D9B838A832C81EF
:101B00003D818217930718F1888199819B838A838D
:101B10001EC08E819F810E94EE1A8C8D90E091955F
:101B2000819591092E813F81280F391F3F832E8394
:101B3000488159812417350730F42C813D81820F6B
:101B4000931F9F838E83023011F41111115080E096
:101B50001F5F1A8FDF91CF911F910F910895FC01A4
:101B6000CB01448D4423A1F050E026813781240F1E
:101B7000351F37832683648175812617370720F048
:101B80002081318137832683668177810C94EE1A18
:101B90000895EF92FF921F93CF93DF93EC010FB65E
:101BA000F8940F921E8D7C0181E1E80EF11C111654
:101BB0005CF48989882341F0C7010E94C216811113
:101BC0000E9482171150F3CF8FEF8E8F0F900FBEB0
:101BD0000FB6F8940F921D8D7E0188E0E80EF11C7F
:101BE00011165CF48885882341F0C7010E94C21653
:101BF00081110E9482171150F3CF8FEF8D8F0F90BC
:101C00000FBEDF91CF911F91FF90EF900895CF937A
:101C1000DF93EC010FB6F8940F92488159818B8DB8
:101C20007C8D9A01879F200D311D11243D832C83CB
:101C30001A8E5B834A8390E00197789F9001799F89
:101C4000300D1124CA01820F931F9F838E838FEF63
:101C50008D8F8E8F61110CC08885882389F0CE010D
:101C600008960E94C216882359F00E94990C08C059
:101C7000CE0108960E94200BCE0141960E94200BB7
:101C80000F900FBE81E0DF91CF9108950F931F93C6
:101C9000CF93DF93082F162F662321F0869FC00174
:101CA000112402C080E090E04F960E94DF0AEC0110
:101CB000009771F0111103C09983888303C04F9678
:101CC000998388830B8F1C8F61E0CE010E94070EE1
:101CD000CE01DF91CF911F910F910895AF92BF92E6
:101CE000CF92DF92FF920F931F93CF93DF9300D099
:101CF00000D01F92CDB7DEB78C016B015D834C83A2
:101D0000F22E80E0580198E0A90EB11C0FB6F894AD
:101D10000F92F801228D938D291718F0F2E0FF122F
:101D200014C04F2DB601C8010E945C0DF8019189C5
:101D3000992321F0C80141960E94C21681110E9488
:101D4000990C0F900FBE81E050C02C813D81232B58
:101D500019F40F900FBE48C0811104C0CE01019646
:101D60000E9444170F900FBE0E9478140FB6F8948B
:101D70000F92F801858D8F3F09F4158EF801868D3D
:101D80008F3F09F4168E0F900FBEBE016C5F7F4F20
:101D9000CE0101960E944F17811121C00FB6F89411
:101DA0000F92F801928D0F900FBE838D981311C082
:101DB0006C817D81C5010E949916C8010E94C90DE0
:101DC0000E944415882311F081E0A0CF0E94990C55
:101DD000FBCFC8010E94C90D0E944415F5CFC80170
:101DE0000E94C90D0E94441580E00F900F900F9043
:101DF0000F900F90DF91CF911F910F91FF90DF9087
:101E0000CF90BF90AF900895CF93DF93482F60E0BD
:101E100081E00E94460EEC01009761F01D821C8259
:101E2000198218821E8220E040E050E060E070E0FD
:101E30000E946E0ECE01DF91CF910895EF92FF9236
:101E40001F93CF93DF93EC019A8D8B8D981710F031
:101E50002230E1F47A011E8D422FCE010E945C0DEA
:101E60001F3F81F48989882379F0CE0141960E9431
:101E7000C216882349F0E114F10431F081E0F70142
:101E8000808305C01F5F1E8F81E001C080E0DF916D
:101E9000CF911F91FF90EF900895CF93DF93FC01B6
:101EA000928D838D9817C0F4868D9F5F928F8F3FA0
:101EB00079F48189882371F0EB01CF0141960E946A
:101EC000C216882339F0209729F081E0888305C065
:101ED0008F5F868F81E001C080E0DF91CF91089510
:101EE000AF92BF92CF92DF92FF920F931F93CF9347
:101EF000DF9300D000D01F92CDB7DEB78C016B010D
:101F00005D834C8380E0580191E1A90EB11C0FB6AE
:101F1000F8940F92F801F28CFF20A9F0B601C801E5
:101F20000E94AF0DFA94F801F28E8085882339F073
:101F3000C80108960E94C21681110E94990C0F9048
:101F40000FBE81E050C02C813D81232B19F40F90EE
:101F50000FBE48C0811104C0CE0101960E944417F3
:101F60000F900FBE0E9478140FB6F8940F92F801EC
:101F7000858D8F3F09F4158EF801868D8F3F09F40A
:101F8000168E0F900FBEBE016C5F7F4FCE01019683
:101F90000E944F1781111CC0C8010E94510D882357
:101FA00089F06C817D81C5010E949916C8010E944B
:101FB000C90D0E944415882311F081E0A8CF0E942A
:101FC000990CFBCFC8010E94C90D0E944415F5CFA2
:101FD000C8010E94C90D0E944415C8010E94510DFC
:101FE000882359F380E00F900F900F900F900F907F
:101FF000DF91CF911F910F91FF90DF90CF90BF9015
:10200000AF900895CF92DF92FF920F931F93CF93DB
:10201000DF9300D000D01F92CDB7DEB78C017D8357
:102020006C83F12C90E0680181E1C80ED11C0FB6E1
:10203000F8940F92D8015A968C915A978823E9F018
:1020400081505A968C935A978D919C91892B29F4A3
:102050000E948618F80195838483D80118968C9184
:10206000882339F0C80108960E94C21681110E9487
:10207000990C0F900FBE81E07AC02C813D81232BFB
:1020800009F472C0911104C0CE0101960E94441758
:102090000F900FBE0E9478140FB6F8940F92F801BB
:1020A000858D8F3F09F4158ED8015E968C915E97D1
:1020B0008F3F11F45E961C920F900FBEBE016C5FB5
:1020C0007F4FCE0101960E944F1781112BC0C8018E
:1020D0000E94510D882301F1F80180819181892BA3
:1020E00051F40FB6F8940F92848195810E948B175A
:1020F000F82E0F900FBE6C817D81C6010E9499164B
:10210000C8010E94C90D0E944415882311F091E076
:102110008ECF0E94990CFBCFC8010E94C90D0E946E
:102120004415F5CFC8010E94C90D0E944415C8018D
:102130000E94510D882359F3FF20C1F00FB6F89487
:102140000F92F8018189882339F00688F789E02DFC
:10215000808165E0681B01C060E0D80114968D9114
:102160009C9115970E9428180F900FBE80E00F9049
:102170000F900F900F900F90DF91CF911F910F91C3
:10218000FF90DF90CF900895CF92DF92EF92FF9271
:102190000F931F93CF93DF9300D000D01F92CDB742
:1021A000DEB78C017B015D834C8380E0680191E1A7
:1021B000C90ED11C0FB6F8940F92F801928D992395
:1021C000B9F0C680D780B701C8010E94AF0DF801F1
:1021D000D782C6828189882339F0C80141960E943E
:1021E000C21681110E94990C0F900FBE81E050C061
:1021F0002C813D81232B19F40F900FBE48C0811113
:1022000004C0CE0101960E9444170F900FBE0E9499
:1022100078140FB6F8940F92F801858D8F3F09F46A
:10222000158EF801868D8F3F09F4168E0F900FBE24
:10223000BE016C5F7F4FCE0101960E944F17811146
:102240001CC0C8010E94510D882389F06C817D81DA
:10225000C6010E949916C8010E94C90D0E9444152A
:10226000882311F081E0A6CF0E94990CFBCFC80112
:102270000E94C90D0E944415F5CFC8010E94C90DE6
:102280000E944415C8010E94510D882359F380E033
:102290000F900F900F900F900F90DF91CF911F91A3
:1022A0000F91FF90EF90DF90CF900895EF92FF9203
:1022B0000F931F93CF93DF93FC01028D0023E9F06E
:1022C0007A01EC01158D0E94AF0D01500A8F1F3F5E
:1022D00081F48885882379F0CE0108960E94C21681
:1022E000882349F0E114F10431F081E0F7018083A3
:1022F00005C01F5F1D8F81E001C080E0DF91CF919D
:102300001F910F91FF90EF9008950F931F93CF931C
:10231000DF93FC01228D222349F0EC010681178115
:102320000E94AF0D1F830E8381E001C080E0DF912A
:10233000CF911F910F9108950FB6F8940F92FC0161
:10234000828D0F900FBE08950FB6F8940F92FC0186
:10235000228D0F900FBE838D821B0895FC01828D0C
:1023600008950C94110BFC01928D81E0911180E095
:102370000895FC01928D81E0238D291380E008955A
:10238000E091F906F091FA068081811103C08FEF88
:102390009FEF0CC0E091F906F091FA060580F681F6
:1023A000E02D0680F781E02D828193819093D10604
:1023B0008093D0060895FF920F931F93CF93DF93DE
:1023C000EC01F62E0091D8061091D90680913A07BB
:1023D00090913B0702960E948B0BCF3F8FEFD8075F
:1023E00089F4FF2079F060913A0770913B076E5FA6
:1023F0007F4F8BED96E0DF91CF911F910F91FF9072
:102400000C94320BC00FD11FE0913A07F0913B07BB
:10241000D383C28360913A0770913B07C017D107FD
:1024200068F48091F7069091F8066E5F7F4FDF9118
:10243000CF911F910F91FF900C94530B8091F9064F
:102440009091FA066E5F7F4F0E94530B8091D006E9
:102450009091D106C817D90720F4D093D106C09324
:10246000D006DF91CF911F910F91FF900895809139
:10247000E406882309F10FB6F8940F92E091EA067A
:10248000F091EB06C681D781CE0102960E948B0B9C
:102490008091DA0681508093DA068091E4068150BB
:1024A0008093E4060F900FBE8F89988D0E94110BC8
:1024B000CE010E94110BDBCF80910D078230B8F264
:1024C0000E94990CD4CF4F925F926F927F928F921D
:1024D0009F92AF92BF92CF92DF92EF92FF920F93B3
:1024E0001F93CF93DF934C016B015A012901CA015D
:1024F0000E94DF0A3C01892B09F4D5C088E290E0F4
:102500000E94DF0AEC01009789F0788E6F8A21E043
:10251000A21AB1086A0C7B1CC114D104C9F0BC0119
:10252000675E7F4FF601C601089607C0C3010E948F
:10253000110BB9C08E179F0749F09F014191DB0134
:102540004D93BD01D9012C912111F4CF18A201C0E6
:10255000198E053008F004E00E8B09A31AA26E0153
:10256000B2E0CB0ED11CC6010E942E0BCE010C9600
:102570000E942E0BD987C88785E090E0801B9109C7
:102580009D878C87DB8BCA8B1BA21CA21DA21EA25F
:102590001FA2A201B401C3010E94F60B9983888394
:1025A000E114F10419F0F701D183C0830FB6F89458
:1025B0000F928091DA068F5F8093DA0680913A0756
:1025C00090913B07892BC1F5D0933B07C0933A0705
:1025D0008091DA06813009F03FC00DE017E08AE310
:1025E000E82E87E0F82EC8010E94200B075F1F4FDE
:1025F000E016F106C1F784E097E00E94200B8BEF14
:1026000096E00E94200B8EEE96E00E94200B85EE55
:1026100096E00E94200B8BED96E00E94200B84E058
:1026200097E09093FA068093F9068BEF96E09093EB
:10263000F8068093F70610C08091D60681110CC071
:10264000E0913A07F0913B0796898E89891720F02F
:10265000D0933B07C0933A078091D2068F5F809357
:10266000D2068E899091D706981710F48093D706DA
:10267000F9E08F9FC0011124B601835F984F0E943B
:10268000320B0F900FBE8091D606882351F0E09157
:102690003A07F0913B0796898E89981710F40E94AB
:1026A000990C81E001C08FEFDF91CF911F910F91C5
:1026B000FF90EF90DF90CF90BF90AF909F908F9062
:1026C0007F906F905F904F9008950F931F93CF93DB
:1026D000DF93EC010FB6F8940F92892B21F4C0918F
:1026E0003A07D0913B078E010E5F1F4FC8010E9431
:1026F0008B0B8C899D89892B21F0CE010C960E9431
:102700008B0B8091D2068F5F8093D20680913A071F
:1027100090913B07C817D90759F4B80185EE96E0A8
:102720000E94320B8091E4068F5F8093E4060EC016
:102730008091DA0681508093DA068F89988D0E9405
:10274000110BCE010E94110B0E94C0110F900FBE01
:102750008091D606882349F080913A0790913B07F3
:10276000C817D90711F40E94990CDF91CF911F91DE
:102770000F9108950F931F93CF93DF9320913A0702
:1027800030913B0782179307B9F10097A9F10FB673
:10279000F8940F92FC01228533852B5D364051F56C
:1027A000FC0124893589F6E02E3E3F0719F1232BE1
:1027B00009F5EC018C010E5F1F4FC8010E948B0BC5
:1027C0008E899091D706981710F48093D70629E048
:1027D000829FC0011124B801835F984F0E94320B81
:1027E000E0913A07F0913B079E898689981710F08F
:1027F0000E94990C0F900FBEDF91CF911F910F9106
:102800000895EF92FF921F93CF93DF93EC018A8597
:102810009B858B5D964099F48C899D8926E08E3E40
:10282000920769F0892B59F48091CD06882349F0ED
:10283000BE01645F7F4F8EEE96E00E94320B10E087
:1028400021C0E0913A07F0913B0711E09E8986890B
:10285000981708F410E07E0182E0E80EF11CC70131
:102860000E948B0B8E899091D706981710F4809355
:10287000D70629E0829FC0011124B701835F984FDA
:102880000E94320B812FDF91CF911F91FF90EF902B
:102890000895EF92FF920F938EECE82E86E0F82ECB
:1028A00000E020E030E045E550E060ED70E087E3D7
:1028B00092E10E946312813091F4F8942FEF3FEF80
:1028C0003093D1062093D0068093D6061092D90675
:1028D0001092D8060F91FF90EF900C94620C0F911C
:1028E000FF90EF900895F8941092D6060C94980CEF
:1028F0008091CD068F5F8093CD0608950FB6F89432
:102900000F928091D8069091D9060F900FBE08952E
:102910008091D8069091D90608958091DA0608959D
:10292000009721F480913A0790913B0749960895CA
:10293000CF92DF92EF92FF920F931F93CF93DF938B
:102940008091CD0681118CC00091D8061091D906D6
:102950000F5F1F4F1093D9060093D806011511057C
:10296000B9F48091F9069091FA062091F70630911A
:10297000F8063093FA062093F9069093F8068093B0
:10298000F7068091D3068F5F8093D3060E94C01113
:102990008091D0069091D106C0E00817190708F47D
:1029A0004FC0D9E0E091F906F091FA0680818111DB
:1029B00003C08FEF9FEF11C0E091F906F091FA0686
:1029C0000580F681E02DE680F780D70112968D9183
:1029D0009C9113970817190728F49093D1068093B8
:1029E000D0062EC06701B2E0CB0ED11CC6010E94FA
:1029F0008B0BF70184899589892B21F0C7010C96EF
:102A00000E948B0BD70156968C919091D706981700
:102A100010F48093D706D89FC0011124B601835FBC
:102A2000984F0E94320BE0913A07F0913B07D70193
:102A300056969C918689981708F4B4CFC1E0B2CF1E
:102A4000E0913A07F0913B07E689B9E0EB9FF0018E
:102A50001124E35FF84F8081823040F0C1E006C06E
:102A60008091D5068F5F8093D506C0E08091D40613
:102A70008111C1E08C2FDF91CF911F910F91FF90B9
:102A8000EF90DF90CF900895EF92FF920F931F93F6
:102A9000CF93DF930FB6F8940F928091CD068150BB
:102AA0008093CD068091CD06882311F080E052C03E
:102AB0008091DA068823D1F3C0E0D0E089E0F82ED7
:102AC000EE24E3948091EE06882351F1E091F30621
:102AD000F091F406C681D781CE010C960E948B0B33
:102AE0008E010E5F1F4FC8010E948B0B8E89909143
:102AF000D706981710F48093D706F89EC0011124CA
:102B0000B801835F984F0E94320BE0913A07F09131
:102B10003B079E8986899817A8F2E092D406D2CF07
:102B2000CD2B11F00E94C011C091D506CC2351F0DD
:102B3000D1E00E9498148111D093D406C150C9F7F6
:102B40001092D5068091D406882309F4AFCF0E9455
:102B5000990C81E00F900FBEDF91CF911F910F91E3
:102B6000FF90EF9008950F931F93CF93DF938C0105
:102B7000EB010E9478144091D8065091D906F801D3
:102B800020813181C9018C0F9D1F4217530720F40A
:102B90008217930740F403C08217930730F021E0B7
:102BA0004817590718F020E001C021E0F80191838F
:102BB0008083222329F060E0841B950B0E94DB11A7
:102BC0000E944415811102C00E94990CDF91CF919F
:102BD0001F910F910895CF93DF93EC01892B19F486
:102BE0000E94990C0AC00E94781460E0CE010E94F5
:102BF000DB110E944415882399F3DF91CF9108954A
:102C00008091CD06882321F081E08093D406089539
:102C10001092D4068091D70669E0482F50E0649F57
:102C20009001659F300D1124F901E35FF84F908109
:102C3000911102C08150F1CFA181B28112960D9005
:102C4000BC91A02DB283A183205F384FA217B30798
:102C500031F412962D913C9113973283218399E0A0
:102C6000949FF001959FF00D1124E35FF84F0180D0
:102C7000F281E02D2681378130933B0720933A077C
:102C80008093D70608950F931F93CF93DF93EC01A2
:102C90000FB6F8940F92892B21F4C0913A07D09186
:102CA0003B078E010E5F1F4FC8010E948B0B8C8962
:102CB0009D89892B21F0CE010C960E948B0BB801C7
:102CC0008BED96E00E94320B8FA1813009F41FA298
:102CD0000F900FBE8091D606882339F00FB6F89476
:102CE0000F920E94C0110F900FBE80913A079091F1
:102CF0003B07C817D907C1F48091D606882319F07D
:102D00000E94990C11C09091DB068091DA0698130D
:102D100005C010923B0710923A0706C0DF91CF9191
:102D20001F910F910C940016DF91CF911F910F917D
:102D30000895CF93DF93EB0160913A0770913B07C1
:102D4000645F7F4F0E94530B61E0CE01DF91CF9112
:102D50000C94DB11CF93DF93EA01E0913A07F091F5
:102D60003B0770687587648760913A0770913B07ED
:102D7000645F7F4F0E94320B61E0CE01DF91CF9103
:102D80000C94DB110F931F93CF93DF93DC01159607
:102D9000ED91FC911697C681D7818E01045F1F4F7C
:102DA000C8010E948B0B8091CD06811114C00A507E
:102DB0001109C8010E948B0B8E899091D706981734
:102DC00010F48093D706B9E08B9FC0011124B8019D
:102DD000835F984F03C0B8018EEE96E00E94320BDD
:102DE000E0913A07F0913B079E898689891720F484
:102DF00081E08093D40601C080E0DF91CF911F91E4
:102E00000F9108950F931F93CF93DF937068FC0188
:102E100071836083C681D7810E948B0B8E010E5F08
:102E20001F4FC8010E948B0B8E899091D70698176F
:102E300010F48093D706F9E08F9FC0011124B801E8
:102E4000835F984F0E94320BE0913A07F0913B0765
:102E50009E898689891718F481E08093D406DF91D2
:102E6000CF911F910F9108950FB6F8940F92209172
:102E7000D306FC0120832091D8063091D9063283F5
:102E800021830F900FBE08952091D306FC0120836B
:102E90002091D8063091D906328321830895CF93AB
:102EA000DF930FB6F8940F924091D8065091D9064F
:102EB000DB012D913C912F3FBFEF3B07D9F0EC0197
:102EC000E981FA81A091D306B881BA1719F04E179B
:102ED0005F0790F44E1B5F0BFB014217530738F45A
:102EE000241B350B318320830E94441703C01182B9
:102EF000108202C080E001C081E00F900FBEDF9120
:102F0000CF91089581E08093D406089580913A0787
:102F100090913B0708950F931F93CF93DF93FC018C
:102F2000892B09F455C08689A0913A07B0913B07D7
:102F300056969C91891708F041C02485358537FD48
:102F40000CC0A0913A07B0913B0756969C9125E0A2
:102F500030E0291B31093587248729E0829FC00191
:102F60001124835F984F2285338528173907E9F4A8
:102F70008F01EF012296CE010E948B0BE0913A0760
:102F8000F0913B078689F801868B9091D7069817B8
:102F900010F48093D706F9E08F9FC0011124BE0181
:102FA000835F984F0E94320B07C0A0913A07B091FF
:102FB0003B0756968C91868B81E00BC0A0913A0717
:102FC000B0913B0781E021A156969C91291708F00A
:102FD00080E0DF91CF911F910F9108950F931F9380
:102FE000CF93DF93FC01892B11F480E02CC082A1E8
:102FF000815082A3268991A12917B9F38111F5CFB8
:10300000EF018F010E5F1F4FC8010E948B0B89A13A
:103010008E8B482F50E025E030E0241B350B3D8798
:103020002C879091D706981710F48093D70629E043
:10303000249FC001259F900D1124B801835F984FF4
:103040000E94320B81E0DF91CF911F910F91089583
:103050000F931F93CF93DF93FC01892BD9F191A19B
:10306000961708F4962F86898917A1F122A121309D
:1030700089F5968B2485358537FD06C025E030E03F
:10308000291B31093587248729E0829FC00111243B
:10309000835F984F2285338528173907D9F4EF01CC
:1030A0008F010E5F1F4FC8010E948B0B8E8990917C
:1030B000D706981710F48093D70629E0829FC001A5
:1030C0001124B801835F984FDF91CF911F910F9129
:1030D0000C94320BDF91CF911F910F910895E091E5
:1030E0003A07F0913B0784859585E0913A07F09186
:1030F0003B07A0913A07B0913B0756964C9125E0CB
:1031000030E0241B310935872487089580913A07E0
:1031100090913B07892B39F0E0913A07F0913B07FA
:1031200082A18F5F82A380913A0790913B07089517
:103130000F931F93182FCB010FB6F8940F92E091C5
:103140003A07F0913B0743A154A165A176A1452B15
:10315000462B472B69F4E0913A07F0913B0721E0B9
:1031600027A3009729F061E00E94DB110E94990CCF
:103170000F900FBE0FB6F8940F92E0913A07F091BE
:103180003B0763A174A185A196A161157105810515
:103190009105A9F0E0913A07F0913B07112329F03E
:1031A00013A214A215A216A20AC08B019C01015001
:1031B00011092109310903A314A325A336A3E09122
:1031C0003A07F0913B0717A20F900FBE1F910F9186
:1031D00008954F925F926F927F928F929F92AF92DB
:1031E000BF92EF92FF920F931F9349015A010FB6BE
:1031F000F8940F92E0913A07F0913B0727A1223013
:1032000039F1E0913A07F0913B0723A134A145A1A0
:1032100056A12B013C014094509460947094D301CA
:10322000C20182239323A423B52383A394A3A5A33C
:10323000B6A3E0913A07F0913B0781E087A3E11440
:10324000F10431F061E0C7010E94DB110E94990C8A
:103250000F900FBE0FB6F8940F920115110569F08B
:10326000E0913A07F0913B0783A194A1A5A1B6A1F3
:10327000F80180839183A283B383E0913A07F091B0
:103280003B0787A18230C1F4E0913A07F0913B07F8
:1032900043A154A165A176A1D501C4018095909563
:1032A000A095B09584239523A623B72383A394A345
:1032B000A5A3B6A381E001C080E0E0913A07F091B8
:1032C0003B0717A20F900FBE1F910F91FF90EF9039
:1032D000BF90AF909F908F907F906F905F904F9036
:1032E00008950F931F93CF93DF93FC010FB6F894CB
:1032F0000F920115110549F083A194A1A5A1B6A1D2
:10330000E80188839983AA83BB8337A182E087A3DE
:10331000223089F058F4213001F583A194A1A5A1B0
:10332000B6A1482B592B6A2B7B2B13C0233089F075
:10333000243069F012C083A194A1A5A1B6A1019681
:10334000A11DB11D83A394A3A5A3B6A306C03230CB
:1033500049F143A354A365A376A3313009F5EF01E6
:103360008F010E5F1F4FC8010E948B0B8E899091B9
:10337000D706981710F48093D70629E0829FC001E2
:103380001124B801835F984F0E94320BE0913A07F5
:10339000F0913B079E898689891710F40E94990C49
:1033A00081E001C080E00F900FBEDF91CF911F91AF
:1033B0000F910895EF92FF920F931F93CF93DF9396
:1033C000FC010115110549F083A194A1A5A1B6A1A5
:1033D000E80188839983AA83BB8337A182E087A30E
:1033E000223089F058F4213001F583A194A1A5A1E0
:1033F000B6A1482B592B6A2B7B2B13C0233089F0A5
:10340000243069F012C083A194A1A5A1B6A10196B0
:10341000A11DB11D83A394A3A5A3B6A306C03230FA
:10342000D9F143A354A365A376A3313011F081E011
:1034300034C0EF018091CD06811115C08F010E5F60
:103440001F4FC8010E948B0B8E899091D706981749
:1034500010F48093D706E9E08E9FC0011124B801D3
:10346000835F984F05C0BF01645F7F4F8EEE96E08B
:103470000E94320BE0913A07F0913B079E898689C2
:103480008917A8F6E114F10419F081E0E7018883B7
:1034900081E08093D40601C080E0DF91CF911F913D
:1034A0000F91FF90EF900895EF92FF920F931F936B
:1034B000CF93DF93FC0127A182E087A383A194A18E
:1034C000A5A1B6A10196A11DB11D83A394A3A5A397
:1034D000B6A32130A1F58B01EF018091CD068111BA
:1034E00016C07F0122E0E20EF11CC7010E948B0B87
:1034F0008E899091D706981710F48093D706E9E04B
:103500008E9FC0011124B701835F984F05C0BF0192
:10351000645F7F4F8EEE96E00E94320BE0913A0797
:10352000F0913B079E898689891748F4011511059A
:1035300019F081E0F801808381E08093D406DF9167
:10354000CF911F910F91FF90EF900895009721F474
:1035500080913A0790913B070FB6F8940F92FC01C7
:1035600027A1223019F417A281E001C080E00F905A
:103570000FBE0895991B79E004C0991F961708F0B3
:10358000961B881F7A95C9F780950895AA1BBB1BC7
:1035900051E107C0AA1FBB1FA617B70710F0A61B53
:1035A000B70B881F991F5A95A9F780959095BC0174
:1035B000CD01089597FB072E16F4009407D077FDF0
:1035C00009D00E94C61A07FC05D03EF4909581955B
:1035D0009F4F0895709561957F4F0895FB01DC0121
:1035E00002C001900D9241505040D8F70895F894D0
:0235F000FFCF0B
:1035F20010313233413435365E373839762A303C31
:103602003E414D00504D0053657420416C61726D16
:10361200006D696E7574657300686F757273004131
:103622004C41524D2100202020202020004B5044AC
:10363200000000040A150404040E111F11111B15C9
:103642001100110E1517110E117365636F6E6473FD
:10365200004B50445F427574746F6E5F4953520061
:0636620049444C45000044
:00000001FF
