:100000000C942A000C9447000C9447000C94470071
:100010000C9447000C9447000C9447000C948F0CF0
:100020000C9447000C9447000C9447000C94470034
:100030000C9447000C9447000C9447000C94470024
:100040000C9447000C9447000C9447000C94470014
:100050000C94470011241FBECFE5D8E0DEBFCDBF12
:1000600010E0A0E6B0E0E4E7F4E302C005900D92F2
:10007000AE3DB107D9F727E0AEEDB0E001C01D926B
:10008000A934B207E1F70E94020B0C94381A0C94C1
:100090000000CF93DF9300D0CDB7DEB70E94BF132F
:1000A0006091EE004CE251E0649F9001659F300D3D
:1000B0001124821B930B9A83898382E00E94C607D6
:1000C0008AE30E947E071CE06AE070E080913F07AF
:1000D000909140070E94430F882329F180E00E94FD
:1000E000C6078091ED00612F0E94FB1981E0890F06
:1000F0000E94A80886E00E94C6078091EC0081114A
:1001000003C081E790E002C084E790E00E94880786
:1001100020E040E050E060E070E080913F07909187
:1001200040070E94AF0D60E576E4CE0101960E9483
:10013000F4148091ED008F5F8C3031F49091EC00DD
:100140009F5F91709093EC00612F0E94FB19909338
:10015000ED00BACFCF93DF9300D0CDB7DEB70E94CA
:10016000BF139A83898382E00E94C6078AE30E94B4
:100170007E071CE38091E80080FF21C09091ED0094
:100180008091EA0098131BC09091EE008091EB00E3
:10019000981315C09091EC008091E90098130FC05E
:1001A0008EEDE82E80E0F82E04E020E030E042E31F
:1001B00050E06BE770E083EE93E00E94A4116AE0E8
:1001C00070E080913F07909140070E94430F882381
:1001D000F1F083E00E94C6078091EE000E94A8081B
:1001E00089E00E94C6078091E80080FF02C080E09D
:1001F00001C080E20E947E0720E040E050E060E025
:1002000070E080913F07909140070E94AF0D6CE233
:1002100071E0CE0101960E94F4148091EE008F5F90
:10022000612F0E94FB199093EE00A4CF0E94A707B4
:1002300080E00E94C6078091ED006CE00E94FB19EF
:1002400081E0890F0E94A80882E00E94C6078AE325
:100250000E947E078091EE006CE30E94FB19892FBB
:100260000E94A80886E00E94C6078091EC008111D8
:1002700003C081E790E002C084E790E00E94880715
:1002800089E00E94C6078091E80080FF02C080E0FC
:1002900001C080E20E947E078EE00E94C607809126
:1002A000EF000C94A808CF93DF9300D0CDB7DEB752
:1002B00081E00E94450E9093400780933F070E9483
:1002C000BF139A8389831CE36AE070E080913F0743
:1002D000909140070E94430F882391F08EE00E9486
:1002E000C6078091EF000E94A80820E040E050E09F
:1002F00060E070E080913F07909140070E94AF0D51
:1003000065E070E0CE0101960E94F4148091EF0048
:100310008F5F612F0E94FB199093EF00D5CFCF9391
:10032000DF93CDB7DEB763970FB6F894DEBF0FBE8D
:10033000CDBF40E061E081E00E94870D9093E7002F
:100340008093E6000E94BF139A8B898BCE010196A1
:100350000E9408068B8B8F3F61F020E04AE050E05E
:10036000BE016D5E7F4F8091E6009091E7000E9494
:10037000AF0D6091600070E0CE0141960E94F414D0
:10038000E5CFCF93DF93EC012881822F90E0019697
:1003900063E070E00E941B1A892B51F481E0820F08
:1003A0000E94C60780E20E947E0788818F5F888353
:1003B00088818F5F873111F0888304C080E1888352
:1003C0000E94C60781E0DF91CF910C947E07CF9306
:1003D000DF93EC012881822F90E0019763E070E0C9
:1003E0000E941B1A892B51F48FEF820F0E94C607BF
:1003F00080E20E947E0788818150888388818150B5
:100400008E3011F0888304C086E188830E94C6077D
:1004100088810E94C60781E0DF91CF910C947E070E
:100420000F931F93CF93DF93FC0120812631F1F4CA
:10043000EB018C0198819F5F9170988386E00E9408
:10044000C6078881811103C081E790E002C084E77C
:1004500090E00E948807F80180810E94C60781E031
:10046000DF91CF911F910F910C947E07DF91CF9177
:100470001F910F9108958091E80081FD2FC080E1C8
:100480000E94C60781E00E947E078091E80082609A
:100490008093E80080E00E94C60780E00E94A808E0
:1004A00082E00E94C6078AE30E947E0780E00E94E5
:1004B000A80886E00E94C6078091E900811103C068
:1004C00081E790E002C084E790E00E94880787E11E
:1004D0000E94C60787E790E00C9488070E94A70750
:1004E0008091E8008D7F8093E8000C941601CF92F4
:1004F000DF92EF92FF920F931F93CF93DF937C01D4
:100500006B01EA01D9018881813149F198F4803188
:1005100009F045C0F7018081880F8056982F990F08
:10052000990F282F290F8C916AE00E94FB19920FD6
:100530009C9332C0833101F1843189F5F8018081C7
:100540006AE00E94FB19880F982F990F990F890F65
:100550008053F7019081890FF80180831DC08C9131
:100560006AE00E94FB19F70190819153FAE08F9F96
:10057000900D11249C9310C0F7018081880F805644
:10058000982F990F990F282F290FF80180816AE081
:100590000E94FB19920F908381E0F601808388818D
:1005A00080510E94C6078881863121F0F701808141
:1005B0000E947E0788818F5F0E94C6072881822F54
:1005C00090E0019663E070E00E941B1A892B51F4C1
:1005D00081E0820F0E94C60780E20E947E07888128
:1005E0008F5F888388818F5F873111F0888304C093
:1005F00080E188830E94C60781E0DF91CF911F913F
:100600000F91FF90EF90DF90CF900C947E07CF92E8
:10061000DF92EF92FF920F931F93CF93DF938C01A2
:100620006B01EA01790120E040E050E060E070E019
:1006300080913F07909140070E94AF0D80E10E949A
:10064000C607F60110820E9416018AE080936000BE
:10065000F70180810E94C60780E20E947E0785E044
:1006600090E00E942C15F80180818F5F8083888143
:10067000882351F18091E2009091E300009731F0DE
:100680000E94A6121092E3001092E20082EEE82E81
:1006900080E0F82E02E020E030E04BE450E061E83A
:1006A00070E08AEA90E00E94A4118091E0009091AD
:1006B000E100009731F00E94A6121092E100109222
:1006C000E00018821092EF00E090E000F090E1006E
:1006D00003E020E030E046E450E069E870E089E4BF
:1006E00090E00E94A411DF91CF911F910F91FF9094
:1006F000EF90DF90CF900895CF92DF92EF92FF922C
:100700000F931F93CF938C016B017A016AE070E025
:1007100080913F07909140070E94430F882399F0F2
:1007200080E1F7018083C1E0F601C083F701808199
:100730000E94C60781E00E947E07F80180818F5FDA
:100740008083C0936000CF911F910F91FF90EF9035
:10075000DF90CF9008950E94A70780E00E94C6070F
:100760008091EA006CE00E94FB1981E0890F0E94F1
:10077000A80882E00E94C6078AE30E947E07809153
:10078000EB006CE30E94FB19892F0E94A80886E009
:100790000E94C6078091EC00811103C081E790E0C0
:1007A00002C084E790E00E94880785E10E94C607A6
:1007B0008091E80082FF03C08FE890E002C086E9E4
:1007C00090E00C9488076AE070E080913F07909178
:1007D00040070E94430F882339F00E94AB038091A9
:1007E000E80088608093E800C4E08091E8008C27EE
:1007F0008093E80080FF05C083FF1BC00E94AB030D
:1008000018C00E94160120E040E050E060E070E077
:1008100080913F07909140070E94AF0D8091E800C2
:10082000877F8093E8008091DE009091DF000E9436
:10083000A61285E090E00E942C15D7CFCF93DF93CE
:1008400000D000D000D0CDB7DEB78FEF8E831D82F1
:1008500080E18C831B821A8219824AE050E0BE013B
:100860006A5F7F4F8091E6009091E7000E94B10E91
:10087000882399F38E818A3209F461C0863709F49E
:100880007AC08D81882349F38C810E94C60780E25B
:100890000E947E078E818E3369F038F48C3301F527
:1008A000CE0104960E94E70145C08134B1F08E3537
:1008B00031F016C0CE0104960E94C1013BC0809168
:1008C000E80081FD03C06CEE70E002C069EE70E0EC
:1008D000CE0104960E9410022DC00E943B022AC045
:1008E0008091E80081FD0FC00EEE10E02DEE30E0AB
:1008F000AE014C5F5F4FBE016E5F7F4FCE0106962B
:100900000E94770217C00BEE10E02AEE30E0AE0135
:100910004C5F5F4FBE016F5F7F4FCE0106960E9416
:1009200077028981813029F48091E8008160809389
:10093000E800198283E090E00E942C158ECF8B8115
:1009400080FD0BC0AE014C5F5F4FBE016B5F7F4F00
:10095000CE0103960E947C0380CF9E012C5F3F4F07
:10096000AE014E5F5F4FBE016B5F7F4FCE010396BE
:100970000E94070372CF8091E80080FF6ECF109233
:10098000E9008E7F8093E80068CF1ABA17BA14BACC
:1009900011BA0895803208F06CC0623008F069C066
:1009A000982F97708695869586958230A1F1833031
:1009B00009F448C08130B9F04AB321E030E0613039
:1009C00039F401C0220F9A95EAF7242B2ABB17C0ED
:1009D000B90102C0660F771F9A95E2F7CB018095A7
:1009E00084238ABB0CC047B321E030E0611109C009
:1009F00001C0220F9A95EAF72095242327BB80E0B7
:100A00000895B90102C0660F771F9A95E2F7CB01EE
:100A1000842B87BBF4CF44B321E030E0613039F45C
:100A200001C0220F9A95EAF7242B24BBE8CFB90125
:100A300002C0660F771F9A95E2F7CB018095842359
:100A400084BBDDCF41B321E030E0613039F401C037
:100A5000220F9A95EAF7242B21BBD1CFB90102C00E
:100A6000660F771F9A95E2F7CB018095842381BBAF
:100A7000C6CF81E00895803208F06CC0623008F083
:100A800069C0982F97708695869586958230A1F1DA
:100A9000833009F448C08130B9F04BB321E030E035
:100AA000613039F401C0220F9A95EAF7242B2BBB51
:100AB00017C0B90102C0660F771F9A95E2F7CB0104
:100AC000809584238BBB0CC048B321E030E06111DA
:100AD00009C001C0220F9A95EAF72095242328BB6C
:100AE00080E00895B90102C0660F771F9A95E2F77A
:100AF000CB01842B88BBF4CF45B321E030E06130DB
:100B000039F401C0220F9A95EAF7242B25BBE8CFD0
:100B1000B90102C0660F771F9A95E2F7CB01809565
:100B2000842385BBDDCF42B321E030E0613039F46E
:100B300001C0220F9A95EAF7242B22BBD1CFB9012D
:100B400002C0660F771F9A95E2F7CB018095842348
:100B500082BBC6CF81E00895843078F4823041F0C2
:100B6000833049F0813011F06ABB03C067BB01C01C
:100B700064BB80E0089561BBFCCF81E008958430C0
:100B800078F4823041F0833049F0813011F06BBB52
:100B900003C068BB01C065BB80E0089562BBFCCFA9
:100BA00081E00895FB018032E0F4282F27708695BC
:100BB00086958695823041F0833041F0813011F086
:100BC00089B305C086B303C083B301C080B390E08E
:100BD00002C0959587952A95E2F78170808380E021
:100BE000089581E00895FB01843080F4823041F063
:100BF000833041F0813011F089B305C086B303C062
:100C000083B301C080B3808380E0089581E00895BC
:100C10006F927F928F929F92AF92BF92CF92DF920C
:100C2000EF92FF920F931F93CF93DF931F92CDB755
:100C3000DEB77C01198201E417E066246A94912CE6
:100C400077247394580160E0F80180810E943B058D
:100C500085E4C82E87E0D82E812CBE016F5F7F4FC0
:100C6000F60181916F010E94D2052981882D890D9D
:100C700090E0F701E80FF91F213011F4108205C050
:100C80007082FC01EF59FF4F6080F4E08F0E80E12D
:100C90008812E3CF0F5F1F4F61E0F50180810E9452
:100CA0003B059394F4E09F12CDCF862D0F90DF91FA
:100CB000CF911F910F91FF90EF90DF90CF90BF9059
:100CC000AF909F908F907F906F9008958130A1F1A9
:100CD00038F0823009F45BC0833009F483C0089592
:100CE0006FE080E00E94AC0561E084E00E943B057B
:100CF00061E085E00E943B0561E086E00E943B05E3
:100D000061E087E00E943B0584E08093450783E033
:100D10008093410785E08093460782E080934207F5
:100D200086E08093470781E08093430787E08093C4
:100D300048071092440708956FE081E00E94AC05D7
:100D400061E08CE00E943B0561E08DE00E943B0584
:100D500061E08EE00E943B0561E08FE00E943B0570
:100D60008CE0809345078BE0809341078DE0809372
:100D700046078AE0809342078EE08093470789E028
:100D8000809343078FE08093480788E055C06FE069
:100D900082E00E94AC0561E084E10E943B0561E0D5
:100DA00085E10E943B0561E086E10E943B0561E030
:100DB00087E10E943B0584E18093450783E18093AE
:100DC000410785E18093460782E18093420786E1EF
:100DD0008093470781E18093430787E18093480729
:100DE00080E12AC06FE083E00E94AC0561E08CE105
:100DF0000E943B0561E08DE10E943B0561E08EE1D0
:100E00000E943B0561E08FE10E943B058CE18093ED
:100E100045078BE1809341078DE1809346078AE186
:100E2000809342078EE18093470789E180934307CF
:100E30008FE18093480788E1809344070895E0E0BC
:100E4000DC012D91CD01213029F4F0E0EF59FF4F65
:100E500080810895EF5FE03199F78FEF0895CF9388
:100E6000C82F60E081E10E943B056C2F617087E034
:100E70000E943B05C1FB662760F986E00E943B05A6
:100E8000C2FB662760F985E00E943B05C3FB66272D
:100E900060F984E00E943B05C4FB662760F983E0AB
:100EA0000E943B05C5FB662760F982E00E943B0576
:100EB000C6FB662760F981E00E943B056C2F661F28
:100EC0006627661F80E00E943B0561E082E10E9488
:100ED0003B058FEC97E00197F1F700C0000060E060
:100EE00082E1CF910C943B05CF93C82F60E080E165
:100EF0000E943B058C2FCF910C942F07CF93C82FC6
:100F000061E080E10E943B058C2FCF910C942F076C
:100F1000EF92FF920F931F93CF937C01C0E0870164
:100F20000C0F111DF8018081882359F0C03119F48C
:100F300080EC0E947407F80180810E947E07CF5FD9
:100F4000EECFCF911F910F91FF90EF90089581E028
:100F50000C9474070F931F93CF938C01C0E0F8019A
:100F6000EC0FF11D8081882369F00E947E072FEF2E
:100F700084E39CE0215080409040E1F700C00000F5
:100F8000CF5FEDCFCF911F910F910895803110F475
:100F9000805801C080550C9474070F931F93CF9312
:100FA000DF938C01C0E08C2F0E94C607D0E0F801CF
:100FB000ED0FF11D8081882321F00E947E07DF5F05
:100FC000F6CF2FEF89E698E1215080409040E1F77D
:100FD00000C000000E94A707CF5FC53021F7DF9156
:100FE000CF911F910F9108950F931F93CF93DF938C
:100FF0008C01862F880F880F880F805C0E947407F1
:10100000E801085F1F4F89910E947E07C017D10732
:10101000D1F780E8DF91CF911F910F910C94740765
:1010200061E080E10E94CA0461E081E10E94CA049B
:1010300061E082E10E94CA0461E087E00E94CA0484
:1010400061E086E00E94CA0461E085E00E94CA0473
:1010500061E084E00E94CA0461E083E00E94CA0467
:1010600061E082E00E94CA0461E081E00E94CA045B
:1010700061E080E00E94CA042FE788E391E02150FC
:1010800080409040E1F700C000002FEF89EF90E032
:10109000215080409040E1F700C0000088E30E94AA
:1010A000740725E82A95F1F700008CE00E94740788
:1010B00085E88A95F1F7000081E00E9474078FE9C6
:1010C0009FE00197F1F700C0000060E08DEA90E03A
:1010D0000E94F40761E08DE990E00C94F407CF9250
:1010E000DF92EF92FF920F931F93CF93DF93EC0168
:1010F00000E080E090E02AE0EAE0F0E0209771F084
:10110000289F7001299FF00C1124CE01BF010E947D
:10111000071A8E0D9F1DEB010F5FF0CF10E02AE044
:10112000E22EF12CC017D10750F4B7010E94071A24
:101130006B01805D0E947E07C6012196F3CFDF918F
:10114000CF911F910F91FF90EF90DF90CF90089576
:10115000CF936AE00E94FB19C92F805D0E947E0731
:1011600080E38C0FCF910C947E07805D0C947E07FA
:10117000CF93DF938BE090E00E94320AEC0100975E
:1011800031F0FC0111921192CF010E94730ACE013D
:10119000DF91CF910895AF92BF92CF92DF92EF92FD
:1011A000FF920F931F93CF93DF936C017B01B42EBB
:1011B000A22E0E94B913F601C081D181CE018E21E9
:1011C0009F21A11003C0892B21F43BC0E816F9062A
:1011D000C1F5BB2041F0C701809590958C239D23DC
:1011E000F6019183808300E010E00E948514012BBA
:1011F00009F43DC0811102C00E94DA0B0E94B017B1
:1012000091FD1CC00FB6F8940F92F6018081918178
:10121000970128233923A11003C0232B21F40CC0EC
:10122000E216F30649F4BB2039F0E094F094E8228A
:10123000F922F601F182E0820F900FBEEC01DD276A
:1012400016C00115110589F2BB2019F060E071E0AC
:1012500002C060E070E0A11074606E297F29A801CF
:10126000C60102960E94EB15C0E0D0E0BECFCE01D1
:10127000DF91CF911F910F91FF90EF90DF90CF9072
:10128000BF90AF900895FC010FB6F8940F92808143
:1012900091816095709568237923718360830F90A5
:1012A0000FBE0895FC01808191810895CF92DF9255
:1012B000EF92FF920F931F93CF93DF938C01EB017B
:1012C0007C0185E0E80EF11C0E94B913D801179645
:1012D000ED91FC9118978D919C911197C82BD92B6A
:1012E000CD93DC93C0E0D0E0D8016D917C91119753
:1012F000EE15FF05E1F0D280C38020813181C90164
:101300009927AC014623572332FD03C0452B21F416
:101310000BC08417950741F430FF02C0C82BD92BAE
:101320007260CF010E944316ED2DFC2DDDCFC095DC
:10133000D0956C237D236D937C930E948514F801D6
:1013400080819181DF91CF911F910F91FF90EF905C
:10135000DF90CF900895AF92BF92CF92DF92EF923D
:10136000FF920F931F93CF93DF937C01EB018A01D0
:1013700069010E94B913F701A080B180BE01C701C5
:101380000E945609CA29DB29CE0180239123081720
:10139000190769F4F70120813181C8018095909582
:1013A0008223932391838083C12CD12C10C0C1143C
:1013B000D10451F0A601B8017560C70102960E94E0
:1013C000EB15C0E0D0E003C0F701C081D1810E94DD
:1013D0008514CD28F9F0811102C00E94DA0B0E9419
:1013E000B01791FD15C00FB6F8940F92F7018081E8
:1013F00091819801282339230217130739F4A80192
:101400004095509548235923518340830F900FBE38
:10141000EC01DD27CE01DF91CF911F910F91FF905D
:10142000EF90DF90CF90BF90AF900895CF93DF9370
:10143000EC010E94B9138A81882339F060E072E0E0
:101440008F8198850E944316F6CFCE010E94640AD0
:10145000DF91CF910C948514BA010C945609BA010E
:101460000C944309CF93DF93EC010E94B913809150
:10147000F0009091F100892B31F485EF90E090938A
:10148000F1008093F0002091F2003091F300C90147
:101490008C0F9D1F8B3D45E0940770F4281739078A
:1014A00058F4C091F000D091F100C20FD31F909377
:1014B000F3008093F20002C0C0E0D0E00E948514E7
:1014C000CE01DF91CF91089508951092F30010920C
:1014D000F20008952091F2003091F3008BED95E039
:1014E000821B930B0895FC010396928381832FEF57
:1014F0003FEF34832383968385839087878310828D
:101500000895FC01118610860895CF93DF939C0106
:10151000FB01DC011196CD91DC911297D383C2833C
:101520008C819D81958384838C819D81DC011396C0
:101530007C936E9312977D836C8331872087F901AA
:1015400080818F5F8083DF91CF9108950F931F93E8
:10155000CF93DF938C01FB01808191818F3F2FEF2F
:10156000920721F4E801AF81B8850EC0D801139627
:1015700012962D913C911397E90148815981841766
:10158000950710F0D901F4CF12968D919C91139785
:1015900093838283EC01FD83EC83B583A48313964C
:1015A000FC93EE93129711870087F80180818F5F7B
:1015B0008083DF91CF911F910F910895CF93DF9397
:1015C000FC01A085B1858281938124813581EC0164
:1015D0003D832C83C481D5819B838A8311968D9111
:1015E0009C911297E817F90721F41296DC93CE9399
:1015F0001197118610868C9181508C938C91DF917C
:10160000CF910895EF92FF920F930E9410080E94CD
:10161000A7070E94160181E00E946606E12CF12CCA
:1016200002E020E030E046E450E065EB70E083E566
:1016300091E00E94A41120E030E04CE350E06DEB1B
:1016400070E08FE891E00E94A41120E030E04CE3CC
:1016500050E067EC70E08EE194E00E94A4110E94DB
:101660008A1380E090E00F91FF90EF90089531E1B0
:10167000FC013083319722E220833197A3E3A083DA
:10168000319760833197708331971082319760E88A
:10169000608331971082319762E06083319763E015
:1016A0006083319764E06083319765E060833197B0
:1016B00066E06083319767E06083319768E060831C
:1016C000319769E06083319760E1608331973083BF
:1016D000319732E13083319733E13083319734E110
:1016E0003083319735E13083319736E1308331975C
:1016F00037E13083319738E13083319739E13083F6
:10170000319730E23083319731E230833197208353
:10171000319723E22083319740833197508331976B
:1017200026E22083319727E22083319728E2208325
:10173000319729E22083319720E32083319721E3F9
:1017400020838697089581E68BBD87EA8ABD8BE06A
:101750008EBD89B7806189BFA0913D07B0913E07DA
:10176000CD91CDBFDD91DEBFFF91EF91DF91CF91A4
:10177000BF91AF919F918F917F916F915F914F91A9
:101780003F912F911F910F91FF90EF90DF90CF909D
:10179000BF90AF909F908F907F906F905F904F9091
:1017A0003F902F901F900F900FBE0F90089581E0F3
:1017B000089508950F920FB6F8940F921F92112476
:1017C0002F923F924F925F926F927F928F929F9251
:1017D000AF92BF92CF92DF92EF92FF920F931F933F
:1017E0002F933F934F935F936F937F938F939F9329
:1017F000AF93BF93CF93DF93EF93FF93A0913D07F8
:10180000B0913E070DB60D920EB60D920E94411595
:10181000A0913D07B0913E07CD91CDBFDD91DEBFD8
:10182000FF91EF91DF91CF91BF91AF919F918F91F8
:101830007F916F915F914F913F912F911F910F91E8
:10184000FF90EF90DF90CF90BF90AF909F908F90E0
:101850007F906F905F904F903F902F901F900F90D0
:101860000FBE0F9008950F920FB6F8940F921F922B
:1018700011242F923F924F925F926F927F928F929C
:101880009F92AF92BF92CF92DF92EF92FF920F930F
:101890001F932F933F934F935F936F937F938F93F8
:1018A0009F93AF93BF93CF93DF93EF93FF93A09159
:1018B0003D07B0913E070DB60D920EB60D920E94F7
:1018C000D91381110E944115A0913D07B0913E07A7
:1018D000CD91CDBFDD91DEBFFF91EF91DF91CF9133
:1018E000BF91AF919F918F917F916F915F914F9138
:1018F0003F912F911F910F91FF90EF90DF90CF902C
:10190000BF90AF909F908F907F906F905F904F901F
:101910003F902F901F900F900FBE0F9008950E9440
:10192000330C18950FB6F8940F92FC01928D0F901E
:101930000FBE81E0911180E008950F931F93CF9324
:10194000DF93EC01042F1A8D4C8D41110BC088815F
:101950009981892BE9F58C819D810E942F171D8229
:101960001C8237C050E0011115C08A819B810E9402
:101970002F1A2C8D8A819B81820F911D9B838A83D4
:101980002C813D818217930718F1888199819B836F
:101990008A831EC08E819F810E942F1A8C8D90E0B9
:1019A0009195819591092E813F81280F391F3F83A1
:1019B0002E83488159812417350730F42C813D81CD
:1019C000820F931F9F838E83023011F411111150E7
:1019D00080E01F5F1A8FDF91CF911F910F910895C3
:1019E000FC01CB01448D4423A1F050E026813781D6
:1019F000240F351F378326836481758126173707A7
:101A000020F02081318137832683668177810C9491
:101A10002F1A0895EF92FF921F93CF93DF93EC015B
:101A20000FB6F8940F921E8D7C0181E1E80EF11C37
:101A300011165CF48989882341F0C7010E940316BE
:101A400081110E94C3161150F3CF8FEF8E8F0F902C
:101A50000FBE0FB6F8940F921D8D7E0188E0E80E40
:101A6000F11C11165CF48885882341F0C7010E949F
:101A7000031681110E94C3161150F3CF8FEF8D8F83
:101A80000F900FBEDF91CF911F91FF90EF900895BF
:101A9000CF93DF93EC010FB6F8940F9248815981F0
:101AA0008B8D7C8D9A01879F200D311D11243D83E4
:101AB0002C831A8E5B834A8390E00197789F900174
:101AC000799F300D1124CA01820F931F9F838E834B
:101AD0008FEF8D8F8E8F61110CC08885882389F0E0
:101AE000CE0108960E940316882359F00E94DA0B53
:101AF00008C0CE0108960E94730ACE0141960E944A
:101B0000730A0F900FBE81E0DF91CF9108950F937C
:101B10001F93CF93DF93082F162F662321F0869F04
:101B2000C001112402C080E090E04F960E94320A6A
:101B3000EC01009771F0111103C09983888303C0F1
:101B40004F96998388830B8F1C8F61E0CE010E9492
:101B5000480DCE01DF91CF911F910F910895AF9263
:101B6000BF92CF92DF92FF920F931F93CF93DF9399
:101B700000D000D01F92CDB7DEB78C016B015D8322
:101B80004C83F22E80E0580198E0A90EB11C0FB6EC
:101B9000F8940F92F801228D938D291718F0F2E036
:101BA000FF1214C04F2DB601C8010E949D0CF80110
:101BB0009189992321F0C80141960E940316811151
:101BC0000E94DA0B0F900FBE81E050C02C813D8146
:101BD000232B19F40F900FBE48C0811104C0CE0111
:101BE00001960E9485160F900FBE0E94B9130FB682
:101BF000F8940F92F801858D8F3F09F4158EF80146
:101C0000868D8F3F09F4168E0F900FBEBE016C5F5C
:101C10007F4FCE0101960E949016811121C00FB610
:101C2000F8940F92F801928D0F900FBE838D981348
:101C300011C06C817D81C5010E94DA15C8010E9426
:101C40000A0D0E948514882311F081E0A0CF0E9424
:101C5000DA0BFBCFC8010E940A0D0E948514F5CF54
:101C6000C8010E940A0D0E94851480E00F900F9019
:101C70000F900F900F90DF91CF911F910F91FF90D8
:101C8000DF90CF90BF90AF900895CF93DF93482F10
:101C900060E081E00E94870DEC01009761F01D82F9
:101CA0001C82198218821E8220E040E050E060E031
:101CB00070E00E94AF0DCE01DF91CF910895EF92B9
:101CC000FF921F93CF93DF93EC019A8D8B8D981722
:101CD00010F02230E1F47A011E8D422FCE010E94D5
:101CE0009D0C1F3F81F48989882379F0CE014196AC
:101CF0000E940316882349F0E114F10431F081E0D9
:101D0000F701808305C01F5F1E8F81E001C080E066
:101D1000DF91CF911F91FF90EF900895CF93DF93C4
:101D2000FC01928D838D9817C0F4868D9F5F928FF2
:101D30008F3F79F48189882371F0EB01CF014196BF
:101D40000E940316882339F0209729F081E08883C8
:101D500005C08F5F868F81E001C080E0DF91CF9169
:101D60000895AF92BF92CF92DF92FF920F931F938D
:101D7000CF93DF9300D000D01F92CDB7DEB78C0198
:101D80006B015D834C8380E0580191E1A90EB11C89
:101D90000FB6F8940F92F801F28CFF20A9F0B6016B
:101DA000C8010E94F00CFA94F801F28E8085882315
:101DB00039F0C80108960E94031681110E94DA0BBF
:101DC0000F900FBE81E050C02C813D81232B19F470
:101DD0000F900FBE48C0811104C0CE0101960E9431
:101DE00085160F900FBE0E94B9130FB6F8940F928C
:101DF000F801858D8F3F09F4158EF801868D8F3F90
:101E000009F4168E0F900FBEBE016C5F7F4FCE019E
:101E100001960E94901681111CC0C8010E94920C6C
:101E2000882389F06C817D81C5010E94DA15C80183
:101E30000E940A0D0E948514882311F081E0A8CF2A
:101E40000E94DA0BFBCFC8010E940A0D0E94851484
:101E5000F5CFC8010E940A0D0E948514C8010E9496
:101E6000920C882359F380E00F900F900F900F9001
:101E70000F90DF91CF911F910F91FF90DF90CF9046
:101E8000BF90AF900895CF92DF92FF920F931F9370
:101E9000CF93DF9300D000D01F92CDB7DEB78C0177
:101EA0007D836C83F12C90E0680181E1C80ED11C28
:101EB0000FB6F8940F92D8015A968C915A978823AE
:101EC000E9F081505A968C935A978D919C91892B69
:101ED00029F40E94C717F80195838483D8011896C6
:101EE0008C91882339F0C80108960E94031681114D
:101EF0000E94DA0B0F900FBE81E07AC02C813D81E9
:101F0000232B09F472C0911104C0CE0101960E94E6
:101F100085160F900FBE0E94B9130FB6F8940F925A
:101F2000F801858D8F3F09F4158ED8015E968C914E
:101F30005E978F3F11F45E961C920F900FBEBE010C
:101F40006C5F7F4FCE0101960E94901681112BC0CD
:101F5000C8010E94920C882301F1F80180819181CF
:101F6000892B51F40FB6F8940F92848195810E94C9
:101F7000CC16F82E0F900FBE6C817D81C6010E9499
:101F8000DA15C8010E940A0D0E948514882311F0F9
:101F900091E08ECF0E94DA0BFBCFC8010E940A0DA0
:101FA0000E948514F5CFC8010E940A0D0E94851475
:101FB000C8010E94920C882359F3FF20C1F00FB68C
:101FC000F8940F92F8018189882339F00688F789FF
:101FD000E02D808165E0681B01C060E0D8011496A7
:101FE0008D919C9115970E9469170F900FBE80E00C
:101FF0000F900F900F900F900F90DF91CF911F9146
:102000000F91FF90DF90CF900895CF92DF92EF92E3
:10201000FF920F931F93CF93DF9300D000D01F92B6
:10202000CDB7DEB78C017B015D834C8380E0680116
:1020300091E1C90ED11C0FB6F8940F92F801928D60
:102040009923B9F0C680D780B701C8010E94F00C6F
:10205000F801D782C6828189882339F0C801419668
:102060000E94031681110E94DA0B0F900FBE81E0CF
:1020700050C02C813D81232B19F40F900FBE48C016
:10208000811104C0CE0101960E9485160F900FBEEB
:102090000E94B9130FB6F8940F92F801858D8F3F07
:1020A00009F4158EF801868D8F3F09F4168E0F9076
:1020B0000FBEBE016C5F7F4FCE0101960E9490164D
:1020C00081111CC0C8010E94920C882389F06C8188
:1020D0007D81C6010E94DA15C8010E940A0D0E9486
:1020E0008514882311F081E0A6CF0E94DA0BFBCF84
:1020F000C8010E940A0D0E948514F5CFC8010E94F4
:102100000A0D0E948514C8010E94920C882359F37D
:1021100080E00F900F900F900F900F90DF91CF9174
:102120001F910F91FF90EF90DF90CF900895EF9265
:10213000FF920F931F93CF93DF93FC01028D002337
:10214000E9F07A01EC01158D0E94F00C01500A8F24
:102150001F3F81F48885882379F0CE0108960E947C
:102160000316882349F0E114F10431F081E0F7010E
:10217000808305C01F5F1D8F81E001C080E0DF917B
:10218000CF911F910F91FF90EF9008950F931F93A0
:10219000CF93DF93FC01228D222349F0EC010681CD
:1021A00017810E94F00C1F830E8381E001C080E044
:1021B000DF91CF911F910F9108950FB6F8940F9270
:1021C000FC01828D0F900FBE08950FB6F8940F9208
:1021D000FC01228D0F900FBE838D821B0895FC01A0
:1021E000828D08950C94640AFC01928D81E0911116
:1021F00080E00895FC01928D81E0238D291380E019
:102200000895E091FC06F091FD068081811103C0E4
:102210008FEF9FEF0CC0E091FC06F091FD0605806A
:10222000F681E02D0680F781E02D828193819093E5
:10223000D4068093D3060895FF920F931F93CF93F4
:10224000DF93EC01F62E0091DB061091DC06809105
:102250003D0790913E0702960E94DE0ACF3F8FEF26
:10226000D80789F4FF2079F060913D0770913E070F
:102270006E5F7F4F8EED96E0DF91CF911F910F91B2
:10228000FF900C94850AC00FD11FE0913D07F0919B
:102290003E07D383C28360913D0770913E07C0170C
:1022A000D10768F48091FA069091FB066E5F7F4F2C
:1022B000DF91CF911F910F91FF900C94A60A80910E
:1022C000FC069091FD066E5F7F4F0E94A60A8091EA
:1022D000D3069091D406C817D90720F4D093D4061A
:1022E000C093D306DF91CF911F910F91FF90089576
:1022F0008091E706882309F10FB6F8940F92E091D8
:10230000ED06F091EE06C681D781CE0102960E94BD
:10231000DE0A8091DD0681508093DD068091E7061C
:1023200081508093E7060F900FBE8F89988D0E9491
:10233000640ACE010E94640ADBCF809110078230CC
:10234000B8F20E94DA0BD4CF4F925F926F927F92D5
:102350008F929F92AF92BF92CF92DF92EF92FF92B5
:102360000F931F93CF93DF934C016B015A01290107
:10237000CA010E94320A3C01892B09F4D5C088E2C7
:1023800090E00E94320AEC01009789F0788E6F8A03
:1023900021E0A21AB1086A0C7B1CC114D104C9F057
:1023A000BC01675E7F4FF601C601089607C0C301F6
:1023B0000E94640AB9C08E179F0749F09F0141919E
:1023C000DB014D93BD01D9012C912111F4CF18A24D
:1023D00001C0198E053008F004E00E8B09A31AA283
:1023E0006E01B2E0CB0ED11CC6010E94810ACE0163
:1023F0000C960E94810AD987C88785E090E0801BEF
:1024000091099D878C87DB8BCA8B1BA21CA21DA206
:102410001EA21FA2A201B401C3010E94370B99831F
:102420008883E114F10419F0F701D183C0830FB65A
:10243000F8940F928091DD068F5F8093DD06809186
:102440003D0790913E07892BC1F5D0933E07C0937D
:102450003D078091DD06813009F03FC000E117E0C3
:102460008DE3E82E87E0F82EC8010E94730A075F0B
:102470001F4FE016F106C1F787E097E00E94730A4C
:102480008EEF96E00E94730A81EF96E00E94730A35
:1024900088EE96E00E94730A8EED96E00E94730A21
:1024A00087E097E09093FD068093FC068EEF96E020
:1024B0009093FB068093FA0610C08091D906811193
:1024C0000CC0E0913D07F0913E0796898E898917EF
:1024D00020F0D0933E07C0933D078091D5068F5FD3
:1024E0008093D5068E899091DA06981710F4809320
:1024F000DA06F9E08F9FC0011124B601805F984F82
:102500000E94850A0F900FBE8091D906882351F052
:10251000E0913D07F0913E0796898E89981710F457
:102520000E94DA0B81E001C08FEFDF91CF911F9104
:102530000F91FF90EF90DF90CF90BF90AF909F9062
:102540008F907F906F905F904F9008950F931F939F
:10255000CF93DF93EC010FB6F8940F92892B21F4FF
:10256000C0913D07D0913E078E010E5F1F4FC801FD
:102570000E94DE0A8C899D89892B21F0CE010C9660
:102580000E94DE0A8091D5068F5F8093D5068091E8
:102590003D0790913E07C817D90759F4B80188EE56
:1025A00096E00E94850A8091E7068F5F8093E70698
:1025B0000EC08091DD0681508093DD068F89988D55
:1025C0000E94640ACE010E94640A0E9401110F90C9
:1025D0000FBE8091D906882349F080913D079091E4
:1025E0003E07C817D90711F40E94DA0BDF91CF918B
:1025F0001F910F9108950F931F93CF93DF93209115
:102600003D0730913E0782179307B9F10097A9F172
:102610000FB6F8940F92FC01228533852E5D36406B
:1026200051F5FC0124893589F6E0213F3F0719F176
:10263000232B09F5EC018C010E5F1F4FC8010E948E
:10264000DE0A8E899091DA06981710F48093DA06E4
:1026500029E0829FC0011124B801805F984F0E9439
:10266000850AE0913D07F0913E079E89868998177B
:1026700010F00E94DA0B0F900FBEDF91CF911F91E7
:102680000F910895EF92FF921F93CF93DF93EC0188
:102690008A859B858E5D964099F48C899D8926E07C
:1026A000813F920769F0892B59F48091D0068823E5
:1026B00049F0BE01645F7F4F81EF96E00E94850A7A
:1026C00010E021C0E0913D07F0913E0711E09E89A6
:1026D0008689981708F410E07E0182E0E80EF11C6C
:1026E000C7010E94DE0A8E899091DA06981710F4CD
:1026F0008093DA0629E0829FC0011124B701805F30
:10270000984F0E94850A812FDF91CF911F91FF90F2
:10271000EF900895EF92FF920F9381EDE82E86E0FF
:10272000F82E00E020E030E045E550E069ED70E093
:1027300088E791E10E94A411813091F4F8942FEF81
:102740003FEF3093D4062093D3068093D90610929E
:10275000DC061092DB060F91FF90EF900C94A30B18
:102760000F91FF90EF900895F8941092D9060C9471
:10277000D90B8091D0068F5F8093D00608950FB655
:10278000F8940F928091DB069091DC060F900FBEBB
:1027900008958091DB069091DC0608958091DD0616
:1027A0000895009721F480913D0790913E07499646
:1027B0000895CF92DF92EF92FF920F931F93CF93E2
:1027C000DF938091D00681118CC00091DB061091BF
:1027D000DC060F5F1F4F1093DC060093DB0601152C
:1027E0001105B9F48091FC069091FD062091FA063E
:1027F0003091FB063093FD062093FC069093FB0678
:102800008093FA068091D6068F5F8093D6060E9449
:1028100001118091D3069091D406C0E008171907E2
:1028200008F44FC0D9E0E091FC06F091FD068081EC
:10283000811103C08FEF9FEF11C0E091FC06F09172
:10284000FD060580F681E02DE680F780D70112961F
:102850008D919C9113970817190728F49093D4062B
:102860008093D3062EC06701B2E0CB0ED11CC60107
:102870000E94DE0AF70184899589892B21F0C7011E
:102880000C960E94DE0AD70156968C919091DA063A
:10289000981710F48093DA06D89FC0011124B6016E
:1028A000805F984F0E94850AE0913D07F0913E07B6
:1028B000D70156969C918689981708F4B4CFC1E049
:1028C000B2CFE0913D07F0913E07E689B9E0EB9F7A
:1028D000F0011124E05FF84F8081823040F0C1E0C8
:1028E00006C08091D8068F5F8093D806C0E08091A3
:1028F000D7068111C1E08C2FDF91CF911F910F91ED
:10290000FF90EF90DF90CF900895EF92FF920F939A
:102910001F93CF93DF930FB6F8940F928091D00658
:1029200081508093D0068091D006882311F080E0FA
:1029300052C08091DD068823D1F3C0E0D0E089E069
:10294000F82EEE24E3948091F106882351F1E09172
:10295000F606F091F706C681D781CE010C960E944B
:10296000DE0A8E010E5F1F4FC8010E94DE0A8E89AB
:102970009091DA06981710F48093DA06F89EC00159
:102980001124B801805F984F0E94850AE0913D07AD
:10299000F0913E079E8986899817A8F2E092D706A3
:1029A000D2CFCD2B11F00E940111C091D806CC23BB
:1029B00051F0D1E00E94D9138111D093D706C150B4
:1029C000C9F71092D8068091D706882309F4AFCFB3
:1029D0000E94DA0B81E00F900FBEDF91CF911F9123
:1029E0000F91FF90EF9008950F931F93CF93DF9374
:1029F0008C01EB010E94B9134091DB065091DC067B
:102A0000F80120813181C9018C0F9D1F42175307A6
:102A100020F48217930740F403C08217930730F025
:102A200021E04817590718F020E001C021E0F80123
:102A300091838083222329F060E0841B950B0E9400
:102A40001C110E948514811102C00E94DA0BDF91D3
:102A5000CF911F910F910895CF93DF93EC01892BB4
:102A600019F40E94DA0B0AC00E94B91360E0CE018B
:102A70000E941C110E948514882399F3DF91CF9145
:102A800008958091D006882321F081E08093D706B5
:102A900008951092D7068091DA0669E0482F50E039
:102AA000649F9001659F300D1124F901E05FF84F9C
:102AB0009081911102C08150F1CFA181B281129613
:102AC0000D90BC91A02DB283A1832D5E384FA2172B
:102AD000B30731F412962D913C91139732832183E1
:102AE00099E0949FF001959FF00D1124E05FF84F5D
:102AF0000180F281E02D2681378130933E072093BB
:102B00003D078093DA0608950F931F93CF93DF93C9
:102B1000EC010FB6F8940F92892B21F4C0913D0778
:102B2000D0913E078E010E5F1F4FC8010E94DE0A42
:102B30008C899D89892B21F0CE010C960E94DE0A9A
:102B4000B8018EED96E00E94850A8FA1813009F4CC
:102B50001FA20F900FBE8091D906882339F00FB6BF
:102B6000F8940F920E9401110F900FBE80913D07C3
:102B700090913E07C817D907C1F48091D9068823E0
:102B800019F00E94DA0B11C09091DE068091DD06EB
:102B9000981305C010923E0710923D0706C0DF91C2
:102BA000CF911F910F910C944115DF91CF911F91FF
:102BB0000F910895CF93DF93EB0160913D077091E2
:102BC0003E07645F7F4F0E94A60A61E0CE01DF915D
:102BD000CF910C941C11CF93DF93EA01E0913D0754
:102BE000F0913E0770687587648760913D0770912A
:102BF0003E07645F7F4F0E94850A61E0CE01DF914E
:102C0000CF910C941C110F931F93CF93DF93DC0192
:102C10001596ED91FC911697C681D7818E01045FC0
:102C20001F4FC8010E94DE0A8091D006811114C096
:102C30000A501109C8010E94DE0A8E899091DA06B5
:102C4000981710F48093DA06B9E08B9FC001112425
:102C5000B801805F984F03C0B80181EF96E00E94F1
:102C6000850AE0913D07F0913E079E898689891784
:102C700020F481E08093D70601C080E0DF91CF91FE
:102C80001F910F9108950F931F93CF93DF93706857
:102C9000FC0171836083C681D7810E94DE0A8E01A8
:102CA0000E5F1F4FC8010E94DE0A8E899091DA06DE
:102CB000981710F48093DA06F9E08F9FC001112471
:102CC000B801805F984F0E94850AE0913D07F0911E
:102CD0003E079E898689891718F481E08093D7067C
:102CE000DF91CF911F910F9108950FB6F8940F9235
:102CF0002091D606FC0120832091DB063091DC0672
:102D0000328321830F900FBE08952091D606FC01D7
:102D100020832091DB063091DC06328321830895E5
:102D2000CF93DF930FB6F8940F924091DB0650914A
:102D3000DC06DB012D913C912F3FBFEF3B07D9F023
:102D4000EC01E981FA81A091D606B881BA1719F091
:102D50004E175F0790F44E1B5F0BFB0142175307A2
:102D600038F4241B350B318320830E94851603C061
:102D70001182108202C080E001C081E00F900FBE7E
:102D8000DF91CF91089581E08093D70608958091D7
:102D90003D0790913E0708950F931F93CF93DF93C4
:102DA000FC01892B09F455C08689A0913D07B0919B
:102DB0003E0756969C91891708F041C024853585B9
:102DC00037FD0CC0A0913D07B0913E0756969C91EF
:102DD00025E030E0291B31093587248729E0829FCF
:102DE000C0011124805F984F228533852817390749
:102DF000E9F48F01EF012296CE010E94DE0AE091F4
:102E00003D07F0913E078689F801868B9091DA069E
:102E1000981710F48093DA06F9E08F9FC00111240F
:102E2000BE01805F984F0E94850A07C0A0913D07B0
:102E3000B0913E0756968C91868B81E00BC0A09195
:102E40003D07B0913E0781E021A156969C9129173C
:102E500008F080E0DF91CF911F910F9108950F93BB
:102E60001F93CF93DF93FC01892B11F480E02CC0DA
:102E700082A1815082A3268991A12917B9F38111DA
:102E8000F5CFEF018F010E5F1F4FC8010E94DE0AD0
:102E900089A18E8B482F50E025E030E0241B350BB4
:102EA0003D872C879091DA06981710F48093DA0604
:102EB00029E0249FC001259F900D1124B801805F57
:102EC000984F0E94850A81E0DF91CF911F910F9169
:102ED00008950F931F93CF93DF93FC01892BD9F1B2
:102EE00091A1961708F4962F86898917A1F122A13E
:102EF000213089F5968B2485358537FD06C025E080
:102F000030E0291B31093587248729E0829FC001E1
:102F10001124805F984F2285338528173907D9F40B
:102F2000EF018F010E5F1F4FC8010E94DE0A8E89DC
:102F30009091DA06981710F48093DA0629E0829FC0
:102F4000C0011124B801805F984FDF91CF911F918C
:102F50000F910C94850ADF91CF911F910F910895E5
:102F6000E0913D07F0913E0784859585E0913D070E
:102F7000F0913E07A0913D07B0913E0756964C91C7
:102F800025E030E0241B310935872487089580919E
:102F90003D0790913E07892B39F0E0913D07F09174
:102FA0003E0782A18F5F82A380913D0790913E07EB
:102FB00008950F931F93182FCB010FB6F8940F921B
:102FC000E0913D07F0913E0743A154A165A176A190
:102FD000452B462B472B69F4E0913D07F0913E07C6
:102FE00021E027A3009729F061E00E941C110E94B4
:102FF000DA0B0F900FBE0FB6F8940F92E0913D07D9
:10300000F0913E0763A174A185A196A16115710598
:1030100081059105A9F0E0913D07F0913E0711234C
:1030200029F013A214A215A216A20AC08B019C01BA
:10303000015011092109310903A314A325A336A3C3
:10304000E0913D07F0913E0717A20F900FBE1F9130
:103050000F9108954F925F926F927F928F929F92FD
:10306000AF92BF92EF92FF920F931F9349015A01C3
:103070000FB6F8940F92E0913D07F0913E0727A11B
:10308000223039F1E0913D07F0913E0723A134A1B0
:1030900045A156A12B013C0140945094609470943A
:1030A000D301C20182239323A423B52383A394A332
:1030B000A5A3B6A3E0913D07F0913E0781E087A369
:1030C000E114F10431F061E0C7010E941C110E947B
:1030D000DA0B0F900FBE0FB6F8940F920115110581
:1030E00069F0E0913D07F0913E0783A194A1A5A16D
:1030F000B6A1F80180839183A283B383E0913D0759
:10310000F0913E0787A18230C1F4E0913D07F09134
:103110003E0743A154A165A176A1D501C4018095C4
:103120009095A095B09584239523A623B72383A3D8
:1031300094A3A5A3B6A381E001C080E0E0913D0780
:10314000F0913E0717A20F900FBE1F910F91FF90B5
:10315000EF90BF90AF909F908F907F906F905F9017
:103160004F9008950F931F93CF93DF93FC010FB6F9
:10317000F8940F920115110549F083A194A1A5A11E
:10318000B6A1E80188839983AA83BB8337A182E033
:1031900087A3223089F058F4213001F583A194A14E
:1031A000A5A1B6A1482B592B6A2B7B2B13C023302A
:1031B00089F0243069F012C083A194A1A5A1B6A121
:1031C0000196A11DB11D83A394A3A5A3B6A306C018
:1031D000323049F143A354A365A376A3313009F5F6
:1031E000EF018F010E5F1F4FC8010E94DE0A8E891A
:1031F0009091DA06981710F48093DA0629E0829FFE
:10320000C0011124B801805F984F0E94850AE091A7
:103210003D07F0913E079E898689891710F40E9428
:10322000DA0B81E001C080E00F900FBEDF91CF91FB
:103230001F910F910895EF92FF920F931F93CF93D9
:10324000DF93FC010115110549F083A194A1A5A10B
:10325000B6A1E80188839983AA83BB8337A182E062
:1032600087A3223089F058F4213001F583A194A17D
:10327000A5A1B6A1482B592B6A2B7B2B13C0233059
:1032800089F0243069F012C083A194A1A5A1B6A150
:103290000196A11DB11D83A394A3A5A3B6A306C047
:1032A0003230D9F143A354A365A376A3313011F092
:1032B00081E034C0EF018091D006811115C08F01EB
:1032C0000E5F1F4FC8010E94DE0A8E899091DA06B8
:1032D000981710F48093DA06E9E08E9FC00111245C
:1032E000B801805F984F05C0BF01645F7F4F81EFD9
:1032F00096E00E94850AE0913D07F0913E079E8985
:1033000086898917A8F6E114F10419F081E0E70134
:10331000888381E08093D70601C080E0DF91CF9160
:103320001F910F91FF90EF900895EF92FF920F93EE
:103330001F93CF93DF93FC0127A182E087A383A192
:1033400094A1A5A1B6A10196A11DB11D83A394A32B
:10335000A5A3B6A32130A1F58B01EF018091D00682
:10336000811116C07F0122E0E20EF11CC7010E940C
:10337000DE0A8E899091DA06981710F48093DA06A7
:10338000E9E08E9FC0011124B701805F984F05C00E
:10339000BF01645F7F4F81EF96E00E94850AE09154
:1033A0003D07F0913E079E898689891748F40115EB
:1033B000110519F081E0F801808381E08093D70640
:1033C000DF91CF911F910F91FF90EF90089500979B
:1033D00021F480913D0790913E070FB6F8940F922B
:1033E000FC0127A1223019F417A281E001C080E07E
:1033F0000F900FBE0895991B79E004C0991F96178E
:1034000008F0961B881F7A95C9F780950895AA1B26
:10341000BB1B51E107C0AA1FBB1FA617B70710F0BF
:10342000A61BB70B881F991F5A95A9F780959095F1
:10343000BC01CD01089597FB072E16F4009407D028
:1034400077FD09D00E94071A07FC05D03EF490953D
:1034500081959F4F0895709561957F4F0895FB0169
:10346000DC0102C001900D9241505040D8F7089500
:04347000F894FFCFFE
:103474000A313233413435365E373839762A303CB6
:103484003E414D00504D0053657420416C61726D96
:10349400006D696E7574657300686F7572730041B1
:1034A4004C41524D21002020202020200000000407
:1034B4000A150404040E111F11111B15110000112B
:1034C4000E1517110E7365636F6E6473004B5044D1
:1034D4005F636865636B00456E7465722074797010
:0E34E400696E67206D6F64650049444C4500B9
:00000001FF
