:100000000C942A000C9447000C9447000C94470071
:100010000C9447000C9447000C9447000C945F0B21
:100020000C9447000C9447000C9447000C94470034
:100030000C9447000C9447000C9447000C94470024
:100040000C9447000C9447000C9447000C94470014
:100050000C94470011241FBECFE5D8E0DEBFCDBF12
:1000600010E0A0E6B0E0E4E1F2E302C005900D92FA
:10007000A63CB107D9F727E0A6ECB0E001C01D927D
:10008000AE32B207E1F70E94D2090C9408190C9421
:100090000000CF93DF9300D0CDB7DEB70E948F1260
:1000A0009A83898382E00E9496068AE30E944E0624
:1000B0001CE36AE070E080912307909124070E947E
:1000C000130E882391F083E00E9496068091D00061
:1000D0000E94780720E040E050E060E070E080910E
:1000E0002307909124070E947F0C6CE271E0CE01FF
:1000F00001960E94C4138091D0008F5F612F0E94EF
:10010000CB189093D000D5CFCF93DF9300D0CDB74D
:10011000DEB70E948F126091D0004CE251E0649FE4
:100120009001659F300D1124821B930B9A83898364
:1001300082E00E9496068AE30E944E061CE06AE076
:1001400070E080912307909124070E94130E88236A
:1001500029F180E00E9496068091CF00612F0E94D5
:10016000CB1881E0890F0E94780786E00E949606EE
:100170008091CE00811103C081E790E002C084E746
:1001800090E00E94580620E040E050E060E070E01F
:1001900080912307909124070E947F0C60E576E40C
:1001A000CE0101960E94C4138091CF008F5F8C30E6
:1001B00031F49091CE009F5F91709093CE00612FAB
:1001C0000E94CB189093CF00BACF80E00E94960691
:1001D0008091CF006CE00E94CB1881E0890F0E94D3
:1001E000780782E00E9496068AE30E944E0680917C
:1001F000D0006CE30E94CB18892F0E94780786E01C
:100200000E9496068091CE00811103C081E790E0A4
:1002100002C084E790E00E9458068EE00E94960695
:100220008091D1000C947807CF93DF9300D0CDB7A5
:10023000DEB781E00E94150D909324078093230779
:100240000E948F129A8389831CE36AE070E0809198
:100250002307909124070E94130E882391F08EE0CB
:100260000E9496068091D1000E94780720E040E02D
:1002700050E060E070E080912307909124070E9495
:100280007F0C65E070E0CE0101960E94C41380915E
:10029000D1008F5F612F0E94CB189093D100D5CFF2
:1002A000CF93DF93CDB7DEB763970FB6F894DEBF79
:1002B0000FBECDBF40E061E081E00E94570C9093FB
:1002C000CD008093CC000E948F129A8B898BCE0137
:1002D00001960E94D8048B8B8F3F61F020E04AE0AA
:1002E00050E0BE016D5E7F4F8091CC009091CD00BB
:1002F0000E947F0C6091600070E0CE0141960E94E8
:10030000C413E5CFCF93DF93EC012881822F90E0D7
:10031000019663E070E00E94EB18892B51F481E0B4
:10032000820F0E94960680E20E944E0688818F5FAF
:10033000888388818F5F873111F0888304C080E1D2
:1003400088830E94960681E0DF91CF910C944E063F
:10035000CF93DF93EC012881822F90E0019763E037
:1003600070E00E94EB18892B51F48FEF820F0E94EE
:10037000960680E20E944E0688818150888388819B
:1003800081508E3011F0888304C086E188830E94FA
:10039000960688810E94960681E0DF91CF910C94A9
:1003A0004E06CF93DF93FC0120812631E9F4EC0166
:1003B0009091CE009F5F91709093CE0086E00E9456
:1003C00096068091CE00811103C081E790E002C0C3
:1003D00084E790E00E94580688810E94960681E09A
:1003E000DF91CF910C944E06DF91CF910895EF925B
:1003F000FF920F931F93CF93DF937C01FB01EA01E0
:100400008881813149F1A0F4803109F04AC0D701D7
:100410008C91880F8056982F990F990F482F490F6C
:100420008091CF006AE00E94CB18940FD90134C0AC
:10043000833111F18431A9F58091D0006AE00E94E6
:10044000CB18880F982F990F990F890F8053D701D8
:100450009C91890FD80122C08091CF006AE00E9450
:10046000CB18880F982F990F990F890F8153D701B7
:100470009C91890FD90112C0D7018C91880F8056A9
:10048000982F990F990F282F290F8091D0006AE09B
:100490000E94CB18920FD8019C9301C08C9381E0ED
:1004A0008083888180510E9496068881863121F060
:1004B000F70180810E944E0688818F5F0E94960618
:1004C0002881822F90E0019663E070E00E94EB1893
:1004D000892B51F481E0820F0E94960680E20E94EF
:1004E0004E0688818F5F888388818F5F873111F006
:1004F000888304C080E188830E94960681E0DF91B2
:10050000CF911F910F91FF90EF900C944E06CF92D8
:10051000DF92EF92FF920F931F93CF93DF938C01A3
:100520006B01EA01790120E040E050E060E070E01A
:1005300080912307909124070E947F0C80E10E9404
:100540009606F60110820E94E5008AE08093600022
:10055000F70180810E94960680E20E944E0685E0A7
:1005600090E00E94FC13F80180818F5F8083888176
:10057000882341F18091C8009091C900009731F023
:100580000E9476111092C9001092C80088ECE82EE3
:1005900080E0F82E02E020E030E046E450E067E73B
:1005A00070E089E490E00E9474108091C600909100
:1005B000C700009731F00E9476111092C700109288
:1005C000C6001882E090C600F090C70002E020E06C
:1005D00030E046E450E06FE770E084E890E00E948D
:1005E0007410DF91CF911F910F91FF90EF90DF90EA
:1005F000CF900895CF92DF92EF92FF920F931F93C7
:10060000CF938C016B017A016AE070E0809123073F
:10061000909124070E94130E882399F080E1F7013E
:100620008083C1E0F601C083F70180810E949606B5
:1006300081E00E944E06F80180818F5F8083C09325
:100640006000CF911F910F91FF90EF90DF90CF90BE
:100650000895CF93DF9300D000D01F92CDB7DEB7BF
:100660008FEF8D831C8280E18B831A8219824AE08E
:1006700050E0BE016B5F7F4F8091CC009091CD0028
:100680000E94810D882399F38D818A3291F18C81AA
:10069000882369F38B810E94960680E20E944E06B1
:1006A0008D818E3349F08E3561F08C3379F4CE0133
:1006B00003960E94A80118C0CE0103960E948201F1
:1006C00013C0CE0103960E94D1010EC000ED10E0D0
:1006D0002FEC30E0AE014D5F5F4FBE016F5F7F4F8B
:1006E000CE0105960E94F70183E090E00E94FC1382
:1006F000BECF8A8180FD0BC0AE014D5F5F4FBE0152
:100700006C5F7F4FCE0102960E94FA02B0CF9E012D
:100710002D5F3F4FAE014F5F5F4FBE016C5F7F4F5C
:10072000CE0102960E948702A2CF1ABA17BA14BA53
:1007300011BA0895803208F06CC0623008F069C0C8
:10074000982F97708695869586958230A1F1833093
:1007500009F448C08130B9F04AB321E030E061309B
:1007600039F401C0220F9A95EAF7242B2ABB17C04F
:10077000B90102C0660F771F9A95E2F7CB01809509
:1007800084238ABB0CC047B321E030E0611109C06B
:1007900001C0220F9A95EAF72095242327BB80E019
:1007A0000895B90102C0660F771F9A95E2F7CB0151
:1007B000842B87BBF4CF44B321E030E0613039F4BF
:1007C00001C0220F9A95EAF7242B24BBE8CFB90188
:1007D00002C0660F771F9A95E2F7CB0180958423BC
:1007E00084BBDDCF41B321E030E0613039F401C09A
:1007F000220F9A95EAF7242B21BBD1CFB90102C071
:10080000660F771F9A95E2F7CB018095842381BB11
:10081000C6CF81E00895803208F06CC0623008F0E5
:1008200069C0982F97708695869586958230A1F13C
:10083000833009F448C08130B9F04BB321E030E097
:10084000613039F401C0220F9A95EAF7242B2BBBB3
:1008500017C0B90102C0660F771F9A95E2F7CB0166
:10086000809584238BBB0CC048B321E030E061113C
:1008700009C001C0220F9A95EAF72095242328BBCE
:1008800080E00895B90102C0660F771F9A95E2F7DC
:10089000CB01842B88BBF4CF45B321E030E061303D
:1008A00039F401C0220F9A95EAF7242B25BBE8CF33
:1008B000B90102C0660F771F9A95E2F7CB018095C8
:1008C000842385BBDDCF42B321E030E0613039F4D1
:1008D00001C0220F9A95EAF7242B22BBD1CFB90190
:1008E00002C0660F771F9A95E2F7CB0180958423AB
:1008F00082BBC6CF81E00895843078F4823041F025
:10090000833049F0813011F06ABB03C067BB01C07E
:1009100064BB80E0089561BBFCCF81E00895843022
:1009200078F4823041F0833049F0813011F06BBBB4
:1009300003C068BB01C065BB80E0089562BBFCCF0B
:1009400081E00895FB018032E0F4282F277086951E
:1009500086958695823041F0833041F0813011F0E8
:1009600089B305C086B303C083B301C080B390E0F0
:1009700002C0959587952A95E2F78170808380E083
:10098000089581E00895FB01843080F4823041F0C5
:10099000833041F0813011F089B305C086B303C0C4
:1009A00083B301C080B3808380E0089581E008951F
:1009B0006F927F928F929F92AF92BF92CF92DF926F
:1009C000EF92FF920F931F93CF93DF931F92CDB7B8
:1009D000DEB77C01198206E217E066246A94912C46
:1009E00077247394580160E0F80180810E940B0421
:1009F0008AE2C82E87E0D82E812CBE016F5F7F4F20
:100A0000F60181916F010E94A2042981882D890D30
:100A100090E0F701E80FF91F213011F4108205C0B2
:100A20007082FC01EF59FF4F6080F4E08F0E80E18F
:100A30008812E3CF0F5F1F4F61E0F50180810E94B4
:100A40000B049394F4E09F12CDCF862D0F90DF918D
:100A5000CF911F910F91FF90EF90DF90CF90BF90BB
:100A6000AF909F908F907F906F9008958130A1F10B
:100A700038F0823009F45BC0833009F483C00895F4
:100A80006FE080E00E947C0461E084E00E940B043F
:100A900061E085E00E940B0461E086E00E940B04A7
:100AA00061E087E00E940B0484E080932A0783E0E2
:100AB0008093260785E080932B0782E080932707A9
:100AC00086E080932C0781E08093280787E080935D
:100AD0002D071092290708956FE081E00E947C04A1
:100AE00061E08CE00E940B0461E08DE00E940B0449
:100AF00061E08EE00E940B0461E08FE00E940B0435
:100B00008CE080932A078BE0809326078DE080930A
:100B10002B078AE0809327078EE080932C0789E0DB
:100B2000809328078FE080932D0788E055C06FE001
:100B300082E00E947C0461E084E10E940B0461E099
:100B400085E10E940B0461E086E10E940B0461E0F4
:100B500087E10E940B0484E180932A0783E180935C
:100B6000260785E180932B0782E18093270786E1A2
:100B700080932C0781E18093280787E180932D07DC
:100B800080E12AC06FE083E00E947C0461E08CE198
:100B90000E940B0461E08DE10E940B0461E08EE194
:100BA0000E940B0461E08FE10E940B048CE18093B2
:100BB0002A078BE1809326078DE180932B078AE13A
:100BC000809327078EE180932C0789E18093280783
:100BD0008FE180932D0788E1809329070895E0E055
:100BE000DC012D91CD01213029F4F0E0EF59FF4FC8
:100BF00080810895EF5FE03199F78FEF0895CF93EB
:100C0000C82F60E081E10E940B046C2F617087E0C7
:100C10000E940B04C1FB662760F986E00E940B046A
:100C2000C2FB662760F985E00E940B04C3FB6627C0
:100C300060F984E00E940B04C4FB662760F983E03E
:100C40000E940B04C5FB662760F982E00E940B043A
:100C5000C6FB662760F981E00E940B046C2F661FBB
:100C60006627661F80E00E940B0461E082E10E941B
:100C70000B048FEC97E00197F1F700C0000060E0F3
:100C800082E1CF910C940B04CF93C82F60E080E1F8
:100C90000E940B048C2FCF910C94FF05CF93C82F8B
:100CA00061E080E10E940B048C2FCF910C94FF0532
:100CB000EF92FF920F931F93CF937C01C0E08701C7
:100CC0000C0F111DF8018081882359F0C03119F4EF
:100CD00080EC0E944406F80180810E944E06CF5F9E
:100CE000EECFCF911F910F91FF90EF90089581E08B
:100CF0000C9444060F931F93CF938C01C0E0F8012E
:100D0000EC0FF11D8081882369F00E944E062FEFC1
:100D100084E39CE0215080409040E1F700C0000057
:100D2000CF5FEDCFCF911F910F910895803110F4D7
:100D3000805801C080550C9444060F931F93CF93A5
:100D4000DF938C01C0E08C2F0E949606D0E0F80162
:100D5000ED0FF11D8081882321F00E944E06DF5F98
:100D6000F6CF2FEF89E698E1215080409040E1F7DF
:100D700000C000000E947706CF5FC53021F7DF91E9
:100D8000CF911F910F9108950F931F93CF93DF93EE
:100D90008C01862F880F880F880F805C0E94440684
:100DA000E801085F1F4F89910E944E06C017D107C6
:100DB000D1F780E8DF91CF911F910F910C944406F9
:100DC00061E080E10E949A0361E081E10E949A0360
:100DD00061E082E10E949A0361E087E00E949A0349
:100DE00061E086E00E949A0361E085E00E949A0338
:100DF00061E084E00E949A0361E083E00E949A032C
:100E000061E082E00E949A0361E081E00E949A031F
:100E100061E080E00E949A032FE788E391E021508F
:100E200080409040E1F700C000002FEF89EF90E094
:100E3000215080409040E1F700C0000088E30E940C
:100E4000440625E82A95F1F700008CE00E9444064C
:100E500085E88A95F1F7000081E00E9444068FE959
:100E60009FE00197F1F700C0000060E085E990E0A5
:100E70000E94C40661E085E890E00C94C406CF921D
:100E8000DF92EF92FF920F931F93CF93DF93EC01CA
:100E900000E080E090E02AE0EAE0F0E0209771F0E6
:100EA000289F7001299FF00C1124CE01BF010E94E0
:100EB000D7188E0D9F1DEB010F5FF0CF10E02AE0D9
:100EC000E22EF12CC017D10750F4B7010E94D718B9
:100ED0006B01805D0E944E06C6012196F3CFDF9123
:100EE000CF911F910F91FF90EF90DF90CF900895D9
:100EF000CF936AE00E94CB18C92F805D0E944E06F6
:100F000080E38C0FCF910C944E06805D0C944E06BE
:100F1000CF93DF938BE090E00E940209EC010097F1
:100F200031F0FC0111921192CF010E944309CE01D0
:100F3000DF91CF910895AF92BF92CF92DF92EF925F
:100F4000FF920F931F93CF93DF936C017B01B42E1D
:100F5000A22E0E948912F601C081D181CE018E217C
:100F60009F21A11003C0892B21F43BC0E816F9068C
:100F7000C1F5BB2041F0C701809590958C239D233E
:100F8000F6019183808300E010E00E945513012B4D
:100F900009F43DC0811102C00E94AA0A0E94801675
:100FA00091FD1CC00FB6F8940F92F60180819181DB
:100FB000970128233923A11003C0232B21F40CC04F
:100FC000E216F30649F4BB2039F0E094F094E822ED
:100FD000F922F601F182E0820F900FBEEC01DD27CD
:100FE00016C00115110589F2BB2019F060E071E00F
:100FF00002C060E070E0A11074606E297F29A80132
:10100000C60102960E94BB14C0E0D0E0BECFCE0164
:10101000DF91CF911F910F91FF90EF90DF90CF90D4
:10102000BF90AF900895FC010FB6F8940F928081A5
:1010300091816095709568237923718360830F9007
:101040000FBE0895FC01808191810895CF92DF92B7
:10105000EF92FF920F931F93CF93DF938C01EB01DD
:101060007C0185E0E80EF11C0E948912D8011796D8
:10107000ED91FC9118978D919C911197C82BD92BCC
:10108000CD93DC93C0E0D0E0D8016D917C911197B5
:10109000EE15FF05E1F0D280C38020813181C901C6
:1010A0009927AC014623572332FD03C0452B21F479
:1010B0000BC08417950741F430FF02C0C82BD92B11
:1010C0007260CF010E941315ED2DFC2DDDCFC09570
:1010D000D0956C237D236D937C930E945513F8016A
:1010E00080819181DF91CF911F910F91FF90EF90BF
:1010F000DF90CF900895AF92BF92CF92DF92EF92A0
:10110000FF920F931F93CF93DF937C01EB018A0132
:1011100069010E948912F701A080B180BE01C70158
:101120000E942608CA29DB29CE01802391230817B3
:10113000190769F4F70120813181C80180959095E4
:101140008223932391838083C12CD12C10C0C1149E
:10115000D10451F0A601B8017560C70102960E9442
:10116000BB14C0E0D0E003C0F701C081D1810E9470
:101170005513CD28F9F0811102C00E94AA0A0E94DD
:10118000801691FD15C00FB6F8940F92F70180817B
:1011900091819801282339230217130739F4A801F4
:1011A0004095509548235923518340830F900FBE9B
:1011B000EC01DD27CE01DF91CF911F910F91FF90C0
:1011C000EF90DF90CF90BF90AF900895CF93DF93D3
:1011D000EC010E9489128A81882339F060E072E074
:1011E0008F8198850E941315F6CFCE010E94340995
:1011F000DF91CF910C945513BA010C942608BA01D3
:101200000C941308CF93DF93EC010E948912809114
:10121000D2009091D300892B31F487ED90E0909328
:10122000D3008093D2002091D4003091D500C90121
:101230008C0F9D1F8B3D45E0940770F428173907EC
:1012400058F4C091D200D091D300C20FD31F909315
:10125000D5008093D40002C0C0E0D0E00E945513B6
:10126000CE01DF91CF91089508951092D50010928C
:10127000D40008952091D4003091D5008BED95E0F5
:10128000821B930B0895FC010396928381832FEFB9
:101290003FEF3483238396838583908787831082EF
:1012A0000895FC01118610860895CF93DF939C0169
:1012B000FB01DC011196CD91DC911297D383C2839F
:1012C0008C819D81958384838C819D81DC01139623
:1012D0007C936E9312977D836C8331872087F9010D
:1012E00080818F5F8083DF91CF9108950F931F934B
:1012F000CF93DF938C01FB01808191818F3F2FEF92
:10130000920721F4E801AF81B8850EC0D801139689
:1013100012962D913C911397E901488159818417C8
:10132000950710F0D901F4CF12968D919C911397E7
:1013300093838283EC01FD83EC83B583A4831396AE
:10134000FC93EE93129711870087F80180818F5FDD
:101350008083DF91CF911F910F910895CF93DF93F9
:10136000FC01A085B1858281938124813581EC01C6
:101370003D832C83C481D5819B838A8311968D9173
:101380009C911297E817F90721F41296DC93CE93FB
:101390001197118610868C9181508C938C91DF91DE
:1013A000CF910895EF92FF920F930E94E0060E9462
:1013B00077060E94E50081E00E943605E12CF12CC1
:1013C00002E020E030E046E450E06DE970E084E1C6
:1013D00091E00E94741020E030E046E450E065EABD
:1013E00070E080E591E00E94741020E030E042E37C
:1013F00050E06FEA70E089E293E00E9474100E946E
:101400005A1280E090E00F91FF90EF90089531E143
:10141000FC013083319722E220833197A3E3A0833C
:10142000319760833197708331971082319760E8EC
:10143000608331971082319762E06083319763E077
:101440006083319764E06083319765E06083319712
:1014500066E06083319767E06083319768E060837E
:10146000319769E06083319760E160833197308321
:10147000319732E13083319733E13083319734E172
:101480003083319735E13083319736E130833197BE
:1014900037E13083319738E13083319739E1308358
:1014A000319730E23083319731E2308331972083B6
:1014B000319723E2208331974083319750833197CE
:1014C00026E22083319727E22083319728E2208388
:1014D000319729E22083319720E32083319721E35C
:1014E00020838697089581E68BBD87EA8ABD8BE0CD
:1014F0008EBD89B7806189BFA0911F07B091200779
:10150000CD91CDBFDD91DEBFFF91EF91DF91CF9106
:10151000BF91AF919F918F917F916F915F914F910B
:101520003F912F911F910F91FF90EF90DF90CF90FF
:10153000BF90AF909F908F907F906F905F904F90F3
:101540003F902F901F900F900FBE0F90089581E055
:10155000089508950F920FB6F8940F921F921124D8
:101560002F923F924F925F926F927F928F929F92B3
:10157000AF92BF92CF92DF92EF92FF920F931F93A1
:101580002F933F934F935F936F937F938F939F938B
:10159000AF93BF93CF93DF93EF93FF93A0911F0778
:1015A000B09120070DB60D920EB60D920E94111447
:1015B000A0911F07B0912007CD91CDBFDD91DEBF77
:1015C000FF91EF91DF91CF91BF91AF919F918F915B
:1015D0007F916F915F914F913F912F911F910F914B
:1015E000FF90EF90DF90CF90BF90AF909F908F9043
:1015F0007F906F905F904F903F902F901F900F9033
:101600000FBE0F9008950F920FB6F8940F921F928D
:1016100011242F923F924F925F926F927F928F92FE
:101620009F92AF92BF92CF92DF92EF92FF920F9371
:101630001F932F933F934F935F936F937F938F935A
:101640009F93AF93BF93CF93DF93EF93FF93A091BB
:101650001F07B09120070DB60D920EB60D920E9495
:10166000A91281110E941114A0911F07B0912007A7
:10167000CD91CDBFDD91DEBFFF91EF91DF91CF9195
:10168000BF91AF919F918F917F916F915F914F919A
:101690003F912F911F910F91FF90EF90DF90CF908E
:1016A000BF90AF909F908F907F906F905F904F9082
:1016B0003F902F901F900F900FBE0F9008950E94A3
:1016C000030B18950FB6F8940F92FC01928D0F90B2
:1016D0000FBE81E0911180E008950F931F93CF9387
:1016E000DF93EC01042F1A8D4C8D41110BC08881C2
:1016F0009981892BE9F58C819D810E94FF151D82BE
:101700001C8237C050E0011115C08A819B810E9464
:10171000FF182C8D8A819B81820F911D9B838A8368
:101720002C813D818217930718F1888199819B83D1
:101730008A831EC08E819F810E94FF188C8D90E04D
:101740009195819591092E813F81280F391F3F8303
:101750002E83488159812417350730F42C813D812F
:10176000820F931F9F838E83023011F41111115049
:1017700080E01F5F1A8FDF91CF911F910F91089525
:10178000FC01CB01448D4423A1F050E02681378138
:10179000240F351F37832683648175812617370709
:1017A00020F02081318137832683668177810C94F4
:1017B000FF180895EF92FF921F93CF93DF93EC01F0
:1017C0000FB6F8940F921E8D7C0181E1E80EF11C9A
:1017D00011165CF48989882341F0C7010E94D31453
:1017E00081110E9493151150F3CF8FEF8E8F0F90C0
:1017F0000FBE0FB6F8940F921D8D7E0188E0E80EA3
:10180000F11C11165CF48885882341F0C7010E9401
:10181000D31481110E9493151150F3CF8FEF8D8F48
:101820000F900FBEDF91CF911F91FF90EF90089521
:10183000CF93DF93EC010FB6F8940F924881598152
:101840008B8D7C8D9A01879F200D311D11243D8346
:101850002C831A8E5B834A8390E00197789F9001D6
:10186000799F300D1124CA01820F931F9F838E83AD
:101870008FEF8D8F8E8F61110CC08885882389F042
:10188000CE0108960E94D314882359F00E94AA0A18
:1018900008C0CE0108960E944309CE0141960E94DD
:1018A00043090F900FBE81E0DF91CF9108950F9310
:1018B0001F93CF93DF93082F162F662321F0869F67
:1018C000C001112402C080E090E04F960E940209FE
:1018D000EC01009771F0111103C09983888303C054
:1018E0004F96998388830B8F1C8F61E0CE010E94F5
:1018F000180CCE01DF91CF911F910F910895AF92F7
:10190000BF92CF92DF92FF920F931F93CF93DF93FB
:1019100000D000D01F92CDB7DEB78C016B015D8384
:101920004C83F22E80E0580198E0A90EB11C0FB64E
:10193000F8940F92F801228D938D291718F0F2E098
:10194000FF1214C04F2DB601C8010E946D0BF801A3
:101950009189992321F0C80141960E94D3148111E5
:101960000E94AA0A0F900FBE81E050C02C813D81D9
:10197000232B19F40F900FBE48C0811104C0CE0173
:1019800001960E9455150F900FBE0E9489120FB646
:10199000F8940F92F801858D8F3F09F4158EF801A8
:1019A000868D8F3F09F4168E0F900FBEBE016C5FBF
:1019B0007F4FCE0101960E946015811121C00FB6A4
:1019C000F8940F92F801928D0F900FBE838D9813AB
:1019D00011C06C817D81C5010E94AA14C8010E94BA
:1019E000DA0B0E945513882311F081E0A0CF0E94EA
:1019F000AA0AFBCFC8010E94DA0B0E945513F5CF4B
:101A0000C8010E94DA0B0E94551380E00F900F90DE
:101A10000F900F900F90DF91CF911F910F91FF903A
:101A2000DF90CF90BF90AF900895CF93DF93482F72
:101A300060E081E00E94570CEC01009761F01D828C
:101A40001C82198218821E8220E040E050E060E093
:101A500070E00E947F0CCE01DF91CF910895EF924C
:101A6000FF921F93CF93DF93EC019A8D8B8D981784
:101A700010F02230E1F47A011E8D422FCE010E9437
:101A80006D0B1F3F81F48989882379F0CE0141963F
:101A90000E94D314882349F0E114F10431F081E06D
:101AA000F701808305C01F5F1E8F81E001C080E0C9
:101AB000DF91CF911F91FF90EF900895CF93DF9327
:101AC000FC01928D838D9817C0F4868D9F5F928F55
:101AD0008F3F79F48189882371F0EB01CF01419622
:101AE0000E94D314882339F0209729F081E088835D
:101AF00005C08F5F868F81E001C080E0DF91CF91CC
:101B00000895AF92BF92CF92DF92FF920F931F93EF
:101B1000CF93DF9300D000D01F92CDB7DEB78C01FA
:101B20006B015D834C8380E0580191E1A90EB11CEB
:101B30000FB6F8940F92F801F28CFF20A9F0B601CD
:101B4000C8010E94C00BFA94F801F28E80858823A8
:101B500039F0C80108960E94D31481110E94AA0A84
:101B60000F900FBE81E050C02C813D81232B19F4D2
:101B70000F900FBE48C0811104C0CE0101960E9493
:101B800055150F900FBE0E9489120FB6F8940F9250
:101B9000F801858D8F3F09F4158EF801868D8F3FF2
:101BA00009F4168E0F900FBEBE016C5F7F4FCE0101
:101BB00001960E94601581111CC0C8010E94620B31
:101BC000882389F06C817D81C5010E94AA14C80117
:101BD0000E94DA0B0E945513882311F081E0A8CFF0
:101BE0000E94AA0AFBCFC8010E94DA0B0E9455137B
:101BF000F5CFC8010E94DA0B0E945513C8010E945C
:101C0000620B882359F380E00F900F900F900F9094
:101C10000F90DF91CF911F910F91FF90DF90CF90A8
:101C2000BF90AF900895CF92DF92FF920F931F93D2
:101C3000CF93DF9300D000D01F92CDB7DEB78C01D9
:101C40007D836C83F12C90E0680181E1C80ED11C8A
:101C50000FB6F8940F92D8015A968C915A97882310
:101C6000E9F081505A968C935A978D919C91892BCB
:101C700029F40E949716F80195838483D801189659
:101C80008C91882339F0C80108960E94D3148111E1
:101C90000E94AA0A0F900FBE81E07AC02C813D817C
:101CA000232B09F472C0911104C0CE0101960E9449
:101CB00055150F900FBE0E9489120FB6F8940F921F
:101CC000F801858D8F3F09F4158ED8015E968C91B1
:101CD0005E978F3F11F45E961C920F900FBEBE016F
:101CE0006C5F7F4FCE0101960E94601581112BC061
:101CF000C8010E94620B882301F1F8018081918163
:101D0000892B51F40FB6F8940F92848195810E942B
:101D10009C15F82E0F900FBE6C817D81C6010E942C
:101D2000AA14C8010E94DA0B0E945513882311F0EF
:101D300091E08ECF0E94AA0AFBCFC8010E94DA0B65
:101D40000E945513F5CFC8010E94DA0B0E9455136B
:101D5000C8010E94620B882359F3FF20C1F00FB61F
:101D6000F8940F92F8018189882339F00688F78961
:101D7000E02D808165E0681B01C060E0D801149609
:101D80008D919C9115970E9439160F900FBE80E09F
:101D90000F900F900F900F900F90DF91CF911F91A8
:101DA0000F91FF90DF90CF900895CF92DF92EF9246
:101DB000FF920F931F93CF93DF9300D000D01F9219
:101DC000CDB7DEB78C017B015D834C8380E0680179
:101DD00091E1C90ED11C0FB6F8940F92F801928DC3
:101DE0009923B9F0C680D780B701C8010E94C00B03
:101DF000F801D782C6828189882339F0C8014196CB
:101E00000E94D31481110E94AA0A0F900FBE81E094
:101E100050C02C813D81232B19F40F900FBE48C078
:101E2000811104C0CE0101960E9455150F900FBE7E
:101E30000E9489120FB6F8940F92F801858D8F3F9A
:101E400009F4158EF801868D8F3F09F4168E0F90D8
:101E50000FBEBE016C5F7F4FCE0101960E946015E0
:101E600081111CC0C8010E94620B882389F06C811B
:101E70007D81C6010E94AA14C8010E94DA0B0E944B
:101E80005513882311F081E0A6CF0E94AA0AFBCF48
:101E9000C8010E94DA0B0E945513F5CFC8010E94B9
:101EA000DA0B0E945513C8010E94620B882359F374
:101EB00080E00F900F900F900F900F90DF91CF91D7
:101EC0001F910F91FF90EF90DF90CF900895EF92C8
:101ED000FF920F931F93CF93DF93FC01028D00239A
:101EE000E9F07A01EC01158D0E94C00B01500A8FB8
:101EF0001F3F81F48885882379F0CE0108960E94DF
:101F0000D314882349F0E114F10431F081E0F701A2
:101F1000808305C01F5F1D8F81E001C080E0DF91DD
:101F2000CF911F910F91FF90EF9008950F931F9302
:101F3000CF93DF93FC01228D222349F0EC0106812F
:101F400017810E94C00B1F830E8381E001C080E0D7
:101F5000DF91CF911F910F9108950FB6F8940F92D2
:101F6000FC01828D0F900FBE08950FB6F8940F926A
:101F7000FC01228D0F900FBE838D821B0895FC0102
:101F8000828D08950C943409FC01928D81E09111A9
:101F900080E00895FC01928D81E0238D291380E07B
:101FA0000895E091DE06F091DF068081811103C083
:101FB0008FEF9FEF0CC0E091DE06F091DF06058009
:101FC000F681E02D0680F781E02D82819381909348
:101FD000B6068093B5060895FF920F931F93CF9393
:101FE000DF93EC01F62E0091BD061091BE068091A4
:101FF0001F079091200702960E94AE09CF3F8FEFF6
:10200000D80789F4FF2079F060911F0770912007AD
:102010006E5F7F4F80EC96E0DF91CF911F910F9123
:10202000FF900C945509C00FD11FE0911F07F0914C
:102030002007D383C28360911F0770912007C017C8
:10204000D10768F48091DC069091DD066E5F7F4FCA
:10205000DF91CF911F910F91FF900C9476098091A1
:10206000DE069091DF066E5F7F4F0E9476098091B9
:10207000B5069091B606C817D90720F4D093B606D6
:10208000C093B506DF91CF911F910F91FF900895F6
:102090008091C906882309F10FB6F8940F92E09158
:1020A000CF06F091D006C681D781CE0102960E945C
:1020B000AE098091BF0681508093BF068091C9060A
:1020C00081508093C9060F900FBE8F89988D0E9412
:1020D0003409CE010E943409DBCF8091F2068230B0
:1020E000B8F20E94AA0AD4CF4F925F926F927F9269
:1020F0008F929F92AF92BF92CF92DF92EF92FF9218
:102100000F931F93CF93DF934C016B015A01290169
:10211000CA010E9402093C01892B09F4D5C088E25A
:1021200090E00E940209EC01009789F0788E6F8A96
:1021300021E0A21AB1086A0C7B1CC114D104C9F0B9
:10214000BC01675E7F4FF601C601089607C0C30158
:102150000E943409B9C08E179F0749F09F01419131
:10216000DB014D93BD01D9012C912111F4CF18A2AF
:1021700001C0198E053008F004E00E8B09A31AA2E5
:102180006E01B2E0CB0ED11CC6010E945109CE01F6
:102190000C960E945109D987C88785E090E0801B82
:1021A00091099D878C87DB8BCA8B1BA21CA21DA269
:1021B0001EA21FA2A201B401C3010E94070A9983B3
:1021C0008883E114F10419F0F701D183C0830FB6BD
:1021D000F8940F928091BF068F5F8093BF06809125
:1021E0001F0790912007892BC1F5D0932007C0933A
:1021F0001F078091BF06813009F03FC002EF16E053
:102200008FE1E82E87E0F82EC8010E944309075F9E
:102210001F4FE016F106C1F789EE96E00E944309D0
:1022200080EE96E00E94430983ED96E00E94430908
:102230008AEC96E00E94430980EC96E00E944309F4
:1022400089EE96E09093DF068093DE0680EE96E0BE
:102250009093DD068093DC0610C08091BB0681114F
:102260000CC0E0911F07F091200796898E8989178D
:1022700020F0D0932007C0931F078091B7068F5F8F
:102280008093B7068E899091BC06981710F48093BE
:10229000BC06F9E08F9FC0011124B6018E50994F02
:1022A0000E9455090F900FBE8091BB06882351F004
:1022B000E0911F07F091200796898E89981710F4F6
:1022C0000E94AA0A81E001C08FEFDF91CF911F9198
:1022D0000F91FF90EF90DF90CF90BF90AF909F90C5
:1022E0008F907F906F905F904F9008950F931F9302
:1022F000CF93DF93EC010FB6F8940F92892B21F462
:10230000C0911F07D09120078E010E5F1F4FC8019B
:102310000E94AE098C899D89892B21F0CE010C96F3
:102320000E94AE098091B7068F5F8093B7068091B7
:102330001F0790912007C817D90759F4B8018AECF4
:1023400096E00E9455098091C9068F5F8093C90667
:102350000EC08091BF0681508093BF068F89988DF3
:102360000E943409CE010E9434090E94D10F0F90BF
:102370000FBE8091BB06882349F080911F07909182
:102380002007C817D90711F40E94AA0ADF91CF913C
:102390001F910F9108950F931F93CF93DF93209177
:1023A0001F073091200782179307B9F10097A9F111
:1023B0000FB6F8940F92FC0122853385205C3640DD
:1023C00051F5FC0124893589F6E0233D3F0719F1D9
:1023D000232B09F5EC018C010E5F1F4FC8010E94F1
:1023E000AE098E899091BC06981710F48093BC06B4
:1023F00029E0829FC0011124B8018E50994F0E949C
:102400005509E0911F07F09120079E89868998174A
:1024100010F00E94AA0A0F900FBEDF91CF911F917A
:102420000F910895EF92FF921F93CF93DF93EC01EA
:102430008A859B85805C964099F48C899D8926E0ED
:10244000833D920769F0892B59F48091B206882365
:1024500049F0BE01645F7F4F83ED96E00E9455090D
:1024600010E021C0E0911F07F091200711E09E8944
:102470008689981708F410E07E0182E0E80EF11CCE
:10248000C7010E94AE098E899091BC06981710F47E
:102490008093BC0629E0829FC0011124B7018E50B1
:1024A000994F0E945509812FDF91CF911F91FF9085
:1024B000EF900895EF92FF920F9383EBE82E86E062
:1024C000F82E00E020E030E045E550E061EC70E0FF
:1024D00088E490E10E947410813091F4F8942FEF19
:1024E0003FEF3093B6062093B5068093BB0610925B
:1024F000BE061092BD060F91FF90EF900C94730AE8
:102500000F91FF90EF900895F8941092BB060C94F1
:10251000A90A8091B2068F5F8093B20608950FB624
:10252000F8940F928091BD069091BE060F900FBE59
:1025300008958091BD069091BE0608958091BF06D2
:102540000895009721F480911F07909120074996E4
:102550000895CF92DF92EF92FF920F931F93CF9344
:10256000DF938091B20681118CC00091BD0610915D
:10257000BE060F5F1F4F1093BE060093BD060115E8
:102580001105B9F48091DE069091DF062091DC06FA
:102590003091DD063093DF062093DE069093DD0652
:1025A0008093DC068091B8068F5F8093B8060E9406
:1025B000D10F8091B5069091B606C0E008171907B3
:1025C00008F44FC0D9E0E091DE06F091DF0680818B
:1025D000811103C08FEF9FEF11C0E091DE06F091F3
:1025E000DF060580F681E02DE680F780D7011296A0
:1025F0008D919C9113970817190728F49093B606AC
:102600008093B5062EC06701B2E0CB0ED11CC60187
:102610000E94AE09F70184899589892B21F0C701B1
:102620000C960E94AE09D70156968C919091BC06EB
:10263000981710F48093BC06D89FC0011124B601EE
:102640008E50994F0E945509E0911F07F091200785
:10265000D70156969C918689981708F4B4CFC1E0AB
:10266000B2CFE0911F07F0912007E689B9E0EB9F18
:10267000F0011124EE50F94F8081823040F0C1E02A
:1026800006C08091BA068F5F8093BA06C0E0809141
:10269000B9068111C1E08C2FDF91CF911F910F916D
:1026A000FF90EF90DF90CF900895EF92FF920F93FD
:1026B0001F93CF93DF930FB6F8940F928091B206D9
:1026C00081508093B2068091B206882311F080E099
:1026D00052C08091BF068823D1F3C0E0D0E089E0EA
:1026E000F82EEE24E3948091D306882351F1E091F3
:1026F000D806F091D906C681D781CE010C960E94EA
:10270000AE098E010E5F1F4FC8010E94AE098E896F
:102710009091BC06981710F48093BC06F89EC001F7
:102720001124B8018E50994F0E945509E0911F075E
:10273000F09120079E8986899817A8F2E092B90641
:10274000D2CFCD2B11F00E94D10FC091BA06CC236D
:1027500051F0D1E00E94A9128111D093B906C15065
:10276000C9F71092BA068091B906882309F4AFCF51
:102770000E94AA0A81E00F900FBEDF91CF911F91B6
:102780000F91FF90EF9008950F931F93CF93DF93D6
:102790008C01EB010E9489124091BD065091BE064A
:1027A000F80120813181C9018C0F9D1F4217530709
:1027B00020F48217930740F403C08217930730F088
:1027C00021E04817590718F020E001C021E0F80186
:1027D00091838083222329F060E0841B950B0E9463
:1027E000EC0F0E945513811102C00E94AA0ADF91CA
:1027F000CF911F910F910895CF93DF93EC01892B17
:1028000019F40E94AA0A0AC00E94891260E0CE014F
:102810000E94EC0F0E945513882399F3DF91CF910A
:1028200008958091B206882321F081E08093B90653
:1028300008951092B9068091BC0669E0482F50E0D7
:10284000649F9001659F300D1124F901EE50F94FFE
:102850009081911102C08150F1CFA181B281129675
:102860000D90BC91A02DB283A1832B50394FA2179C
:10287000B30731F412962D913C9113973283218343
:1028800099E0949FF001959FF00D1124EE50F94FBF
:102890000180F281E02D268137813093200720933B
:1028A0001F078093BC0608950F931F93CF93DF9368
:1028B000EC010FB6F8940F92892B21F4C0911F07F9
:1028C000D09120078E010E5F1F4FC8010E94AE09F4
:1028D0008C899D89892B21F0CE010C960E94AE092E
:1028E000B80180EC96E00E9455098FA1813009F46F
:1028F0001FA20F900FBE8091BB06882339F00FB640
:10290000F8940F920E94D10F0F900FBE80911F0775
:1029100090912007C817D907C1F48091BB0688237E
:1029200019F00E94AA0A11C09091C0068091BF06BA
:10293000981305C01092200710921F0706C0DF9160
:10294000CF911F910F910C941114DF91CF911F9192
:102950000F910895CF93DF93EB0160911F07709162
:102960002007645F7F4F0E94760961E0CE01DF910E
:10297000CF910C94EC0FCF93DF93EA01E0911F0706
:10298000F091200770687587648760911F077091C8
:102990002007645F7F4F0E94550961E0CE01DF91FF
:1029A000CF910C94EC0F0F931F93CF93DF93DC0127
:1029B0001596ED91FC911697C681D7818E01045F23
:1029C0001F4FC8010E94AE098091B206811114C048
:1029D0000A501109C8010E94AE098E899091BC0667
:1029E000981710F48093BC06B9E08B9FC0011124A6
:1029F000B8018E50994F03C0B80183ED96E00E9454
:102A00005509E0911F07F09120079E898689891753
:102A100020F481E08093B90601C080E0DF91CF917E
:102A20001F910F9108950F931F93CF93DF937068B9
:102A3000FC0171836083C681D7810E94AE098E013B
:102A40000E5F1F4FC8010E94AE098E899091BC068F
:102A5000981710F48093BC06F9E08F9FC0011124F1
:102A6000B8018E50994F0E945509E0911F07F091CF
:102A700020079E898689891718F481E08093B9061A
:102A8000DF91CF911F910F9108950FB6F8940F9297
:102A90002091B806FC0120832091BD063091BE062E
:102AA000328321830F900FBE08952091B806FC0158
:102AB00020832091BD063091BE0632832183089584
:102AC000CF93DF930FB6F8940F924091BD065091CB
:102AD000BE06DB012D913C912F3FBFEF3B07D9F0A4
:102AE000EC01E981FA81A091B806B881BA1719F012
:102AF0004E175F0790F44E1B5F0BFB014217530705
:102B000038F4241B350B318320830E94551503C0F4
:102B10001182108202C080E001C081E00F900FBEE0
:102B2000DF91CF91089581E08093B9060895809157
:102B30001F079091200708950F931F93CF93DF9362
:102B4000FC01892B09F455C08689A0911F07B0911B
:102B5000200756969C91891708F041C02485358539
:102B600037FD0CC0A0911F07B091200756969C918D
:102B700025E030E0291B31093587248729E0829F31
:102B8000C00111248E50994F2285338528173907AB
:102B9000E9F48F01EF012296CE010E94AE09E09187
:102BA0001F07F09120078689F801868B9091BC065B
:102BB000981710F48093BC06F9E08F9FC001112490
:102BC000BE018E50994F0E94550907C0A0911F0762
:102BD000B091200756968C91868B81E00BC0A09116
:102BE0001F07B091200781E021A156969C912917DB
:102BF00008F080E0DF91CF911F910F9108950F931E
:102C00001F93CF93DF93FC01892B11F480E02CC03C
:102C100082A1815082A3268991A12917B9F381113C
:102C2000F5CFEF018F010E5F1F4FC8010E94AE0963
:102C300089A18E8B482F50E025E030E0241B350B16
:102C40003D872C879091BC06981710F48093BC06A2
:102C500029E0249FC001259F900D1124B8018E50BA
:102C6000994F0E94550981E0DF91CF911F910F91FB
:102C700008950F931F93CF93DF93FC01892BD9F114
:102C800091A1961708F4962F86898917A1F122A1A0
:102C9000213089F5968B2485358537FD06C025E0E2
:102CA00030E0291B31093587248729E0829FC00144
:102CB00011248E50994F2285338528173907D9F46E
:102CC000EF018F010E5F1F4FC8010E94AE098E8970
:102CD0009091BC06981710F48093BC0629E0829F5F
:102CE000C0011124B8018E50994FDF91CF911F91EF
:102CF0000F910C945509DF91CF911F910F91089579
:102D0000E0911F07F091200784859585E0911F07CA
:102D1000F0912007A0911F07B091200756964C9183
:102D200025E030E0241B3109358724870895809100
:102D30001F0790912007892B39F0E0911F07F09130
:102D4000200782A18F5F82A380911F0790912007A7
:102D500008950F931F93182FCB010FB6F8940F927D
:102D6000E0911F07F091200743A154A165A176A12E
:102D7000452B462B472B69F4E0911F07F091200764
:102D800021E027A3009729F061E00E94EC0F0E9448
:102D9000AA0A0F900FBE0FB6F8940F92E0911F078A
:102DA000F091200763A174A185A196A16115710519
:102DB00081059105A9F0E0911F07F09120071123EB
:102DC00029F013A214A215A216A20AC08B019C011D
:102DD000015011092109310903A314A325A336A326
:102DE000E0911F07F091200717A20F900FBE1F91CF
:102DF0000F9108954F925F926F927F928F929F9260
:102E0000AF92BF92EF92FF920F931F9349015A0125
:102E10000FB6F8940F92E0911F07F091200727A1B9
:102E2000223039F1E0911F07F091200723A134A14E
:102E300045A156A12B013C0140945094609470949C
:102E4000D301C20182239323A423B52383A394A394
:102E5000A5A3B6A3E0911F07F091200781E087A307
:102E6000E114F10431F061E0C7010E94EC0F0E940F
:102E7000AA0A0F900FBE0FB6F8940F920115110514
:102E800069F0E0911F07F091200783A194A1A5A10B
:102E9000B6A1F80180839183A283B383E0911F07D9
:102EA000F091200787A18230C1F4E0911F07F091D3
:102EB000200743A154A165A176A1D501C401809545
:102EC0009095A095B09584239523A623B72383A33B
:102ED00094A3A5A3B6A381E001C080E0E0911F0701
:102EE000F091200717A20F900FBE1F910F91FF9036
:102EF000EF90BF90AF909F908F907F906F905F907A
:102F00004F9008950F931F93CF93DF93FC010FB65B
:102F1000F8940F920115110549F083A194A1A5A180
:102F2000B6A1E80188839983AA83BB8337A182E095
:102F300087A3223089F058F4213001F583A194A1B0
:102F4000A5A1B6A1482B592B6A2B7B2B13C023308C
:102F500089F0243069F012C083A194A1A5A1B6A183
:102F60000196A11DB11D83A394A3A5A3B6A306C07A
:102F7000323049F143A354A365A376A3313009F558
:102F8000EF018F010E5F1F4FC8010E94AE098E89AD
:102F90009091BC06981710F48093BC0629E0829F9C
:102FA000C0011124B8018E50994F0E945509E0913B
:102FB0001F07F09120079E898689891710F40E94C7
:102FC000AA0A81E001C080E00F900FBEDF91CF918F
:102FD0001F910F910895EF92FF920F931F93CF933C
:102FE000DF93FC010115110549F083A194A1A5A16E
:102FF000B6A1E80188839983AA83BB8337A182E0C5
:1030000087A3223089F058F4213001F583A194A1DF
:10301000A5A1B6A1482B592B6A2B7B2B13C02330BB
:1030200089F0243069F012C083A194A1A5A1B6A1B2
:103030000196A11DB11D83A394A3A5A3B6A306C0A9
:103040003230D9F143A354A365A376A3313011F0F4
:1030500081E034C0EF018091B206811115C08F016B
:103060000E5F1F4FC8010E94AE098E899091BC0669
:10307000981710F48093BC06E9E08E9FC0011124DC
:10308000B8018E50994F05C0BF01645F7F4F83ED3B
:1030900096E00E945509E0911F07F09120079E8954
:1030A00086898917A8F6E114F10419F081E0E70197
:1030B000888381E08093B90601C080E0DF91CF91E1
:1030C0001F910F91FF90EF900895EF92FF920F9351
:1030D0001F93CF93DF93FC0127A182E087A383A1F5
:1030E00094A1A5A1B6A10196A11DB11D83A394A38E
:1030F000A5A3B6A32130A1F58B01EF018091B20603
:10310000811116C07F0122E0E20EF11CC7010E946E
:10311000AE098E899091BC06981710F48093BC0676
:10312000E9E08E9FC0011124B7018E50994F05C070
:10313000BF01645F7F4F83ED96E00E945509E091E7
:103140001F07F09120079E898689891748F4011589
:10315000110519F081E0F801808381E08093B906C0
:10316000DF91CF911F910F91FF90EF9008950097FD
:1031700021F480911F07909120070FB6F8940F92C9
:10318000FC0127A1223019F417A281E001C080E0E0
:103190000F900FBE0895991B79E004C0991F9617F0
:1031A00008F0961B881F7A95C9F780950895AA1B89
:1031B000BB1B51E107C0AA1FBB1FA617B70710F022
:1031C000A61BB70B881F991F5A95A9F78095909554
:1031D000BC01CD01089597FB072E16F4009407D08B
:1031E00077FD09D00E94D71807FC05D03EF49095D2
:1031F00081959F4F0895709561957F4F0895FB01CC
:10320000DC0102C001900D9241505040D8F7089562
:04321000F894FFCF60
:103214000A313233413435365E373839762A303C18
:103224003E414D00504D006D696E757465730068C4
:103234006F757273000000040A150404040E111F54
:1032440011111B15110000110E1517110E73656372
:103254006F6E6473004B50445F636865636B004535
:103264006E74657220747970696E67206D6F646521
:063274000049444C450036
:00000001FF
