:100000000C9434000C940B070C9434070C945D078B
:100010000C9451000C9451000C9451000C94E20E7D
:100020000C9451000C9451000C9451000C9451000C
:100030000C9451000C9451000C9451000C945100FC
:100040000C9451000C9451000C9451000C945100EC
:100050000C9451008D1E8D1E8D1ECC1EB71EC61E0B
:100060008D1E8D1ECC1EB71E11241FBECFE5D8E0FD
:10007000DEBFCDBF10E0A0E6B0E0E0EDFEE302C0E1
:1000800005900D92A23DB107D9F727E0A2EDB0E0AF
:1000900001C01D92A636B207E1F70E944D0D0C94E7
:1000A000661F0C9400000895CF93DF9300D0CDB766
:1000B000DEB70E9432166091E50048E354E0649F89
:1000C0009001659F300D1124821B930B9A838983C5
:1000D00082E00E94AC098AE30E9464091CE06AE0A5
:1000E00070E080915A0790915B070E9496118823D7
:1000F00029F180E00E94AC098091E400612F0E9408
:100100000B1F81E0890F0E942F0A86E00E94AC0934
:100110008091E300811103C081E790E002C084E791
:1001200090E00E946E0920E040E050E060E070E066
:1001300080915A0790915B070E94021060E27DEF68
:10014000CE0101960E9467178091E4008F5F8C308A
:1001500031F49091E3009F5F91709093E300612FE1
:100160000E940B1F9093E400BACFCF93DF9300D08F
:100170001F92CDB7DEB70E9432169A83898382E040
:100180000E94AC098AE30E94640980EF8B831CE320
:100190008091DE0080FF22C09091E4008091E10018
:1001A00098131CC09091E5008091E200981316C04E
:1001B0009091E3008091E000981310C088EDE82E44
:1001C00080E0F82E05E09E012D5F3F4F45E550E0B1
:1001D00069E870E087EE94E00E9413146AE070E032
:1001E00080915A0790915B070E9496118823F1F045
:1001F00083E00E94AC098091E5000E942F0A89E00B
:100200000E94AC098091DE0080FF02C080E001C046
:1002100080E20E94640920E040E050E060E070E08D
:1002200080915A0790915B070E94021068E374E086
:10023000CE0101960E9467178091E5008F5F612FC4
:100240000E940B1F9093E500A3CF80E090E00E94F6
:10025000F71782E00E94C50A80E00E94CC0A82E083
:1002600090E00E949F170E94C30AEFCF0E948D0961
:1002700080E00E94AC098091E4006CE00E940B1FBA
:1002800081E0890F0E942F0A82E00E94AC098AE374
:100290000E9464098091E5006CE30E940B1F892F86
:1002A0000E942F0A86E00E94AC098091E300811130
:1002B00003C081E790E002C084E790E00E946E09ED
:1002C00089E00E94AC098091DE0080FF02C080E0DE
:1002D00001C080E20E9464098EE00E94AC09809116
:1002E000E6000C942F0ACF93DF9300D0CDB7DEB792
:1002F0000E9432169A8389831CE36AE070E0809141
:100300005A0790915B070E949611882391F08EE026
:100310000E94AC098091E6000E942F0A20E040E094
:1003200050E060E070E080915A0790915B070E9476
:10033000021062E170E0CE0101960E946717809181
:10034000E6008F5F612F0E940B1F9093E600D5CFD0
:10035000CF93DF93EC012881822F90E0019663E038
:1003600070E00E942B1F892B51F481E0820F0E94C4
:10037000AC0980E20E94640988818F5F888388814C
:100380008F5F873111F0888304C080E188830E94E9
:10039000AC0981E0DF91CF910C946409CF93DF9396
:1003A000EC012881822F90E0019763E070E00E94C9
:1003B0002B1F892B51F48FEF820F0E94AC0980E232
:1003C0000E946409888181508883888181508E30A1
:1003D00011F0888304C086E188830E94AC0988817B
:1003E0000E94AC0981E0DF91CF910C9464090F93D6
:1003F0001F93CF93DF93FC0120812631F1F4EB01B1
:100400008C0198819F5F9170988386E00E94AC096F
:100410008881811103C081E790E002C084E790E009
:100420000E946E09F80180810E94AC0981E0DF9191
:10043000CF911F910F910C946409DF91CF911F917F
:100440000F910895DF92EF92FF920F931F93CF9336
:10045000DF937C01D62EEA01D9018881813151F1E7
:1004600098F4803109F054C0F7018081880F8056DC
:10047000982F990F990F282F290F8C916AE00E94CD
:100480000B1F920F9C9333C0833109F1843109F023
:100490003FC0F80180816AE00E940B1F880F982FEF
:1004A000990F990F890F8053F7019081890FF801F7
:1004B00080831DC08C916AE00E940B1FF701908120
:1004C0009153FAE08F9F900D11249C9310C0F70177
:1004D0008081880F8056982F990F990F282F290F08
:1004E000F80180816AE00E940B1F920F908381E0E7
:1004F00090E002C0880F991FDA94E2F72091DE00A5
:100500003091DF00822B932B9093DF008093DE00ED
:10051000888180510E94AC098881863121F0F701E1
:1005200080810E94640988818F5F0E94AC092881C4
:10053000822F90E0019663E070E00E942B1F892BD0
:1005400051F481E0820F0E94AC0980E20E946409AC
:1005500088818F5F888388818F5F873111F08883DE
:1005600004C080E188830E94AC0981E0DF91CF91D3
:100570001F910F91FF90EF90DF900C946409CF933F
:10058000DF93CDB7DEB761970FB6F894DEBF0FBE2D
:10059000CDBF8FEF898BCE0101960E94EE07898B2C
:1005A0008F3F09F443C08091D2009091D3000E9404
:1005B0006A15809160000E94AC0980E20E94640983
:1005C00089898E3349F08E3561F08C33C1F480E631
:1005D00090E00E94CE012AC080E690E00E94A8012F
:1005E00025C08091DE0081FD03C063EE70E002C093
:1005F00060EE70E080E690E00E94F70117C0809105
:10060000DE0081FD08C005EE10E024EE30E040E69B
:1006100050E068E007C002EE10E021EE30E040E676
:1006200050E069E0CE0141960E94220286E090E00F
:100630000E949F17B0CFEF92FF920F93CF93DF935B
:10064000EC0120E040E050E060E070E080915A076B
:1006500090915B070E94021080E10E94AC090E9409
:10066000360188810E94AC0980E20E946409809171
:10067000DE009091DF0090FF32C08091DC0090910D
:10068000DD00009731F00E9415151092DD001092E8
:10069000DC009CEDE92E90E0F92E02E020E030E055
:1006A00046E450E067E770E085EB90E00E941314A9
:1006B0008091DA009091DB00009731F00E941515CF
:1006C0001092DB001092DA008091DE009091DF0042
:1006D0009E7F9093DF008093DE001092E6008AED0B
:1006E000E82E80E0F82E03E020E030E046E450E021
:1006F0006FE770E084E590E00E941314DF91CF91E2
:100700000F91FF90EF900895CF93DF93EC016AE093
:1007100070E080915A0790915B070E9496118823A0
:1007200049F080E188830E94AC0981E0DF91CF919C
:100730000C946409DF91CF9108958091DE0090912F
:10074000DF009C012078332780799927892B59F481
:1007500080E690E00E9484038091D6009091D700BB
:100760000E946A150CC0232B51F480E690E00E9491
:100770001B038091D6009091D7000E94F7178091BB
:10078000DE009091DF0020E182279093DF008093CC
:10079000DE0008956AE070E080915A0790915B074F
:1007A0000E9496118823A9F180E1809360000E9445
:1007B000AC0981E00E9464098091DE009091DF0025
:1007C00082609093DF008093DE0080E00E94AC099D
:1007D00080E00E942F0A82E00E94AC098AE30E9416
:1007E000640980E00E942F0A86E00E94AC09809193
:1007F000E000811103C081E790E002C084E790E04F
:100800000E946E0987E10E94AC0985E890E00C9493
:100810006E0908958091DE009091DF0091FF05C080
:1008200081609093DF008093DE008091DE009091E4
:10083000DF009D7F9093DF008093DE000E948D0992
:1008400080E1809360000E94AC0981E00E9464090D
:100850008091DE009091DF008D7F9093DF00809388
:10086000DE000E94360120E040E050E060E070E0F1
:1008700080915A0790915B070C94021080E090E001
:100880000E94F71780915807909159070E94F01E17
:100890008111F4CF8091D2009091D3000E946A150B
:1008A0000E9432160AE010E020E030E0AC0162E085
:1008B00080915807909159070E943E1D80915C07D6
:1008C00090915D070E94F01E81110DC00E943216AA
:1008D00020E030E0AC0162E080915C0790915D0720
:1008E0000E943E1DCBCF0AE010E020E030E040E067
:1008F00050E063E080915C0790915D070E943E1D8F
:100900008091DE009091DF0080FF02C08E7F22C0C8
:100910009C012071332780799927892B59F40E94F3
:10092000C30A0E94CA038091D6009091D7000E940A
:100930006A150BC0232B09F0A1CF0E940A048091F5
:10094000D6009091D7000E94F7178091DE00909119
:10095000DF0080589093DF008093DE008FCF0E94ED
:100960008D0980E00E94AC098091E1006CE00E945A
:100970000B1F81E0890F0E942F0A82E00E94AC09C0
:100980008AE30E9464098091E2006CE30E940B1FDD
:10099000892F0E942F0A86E00E94AC098091E30013
:1009A000811103C081E790E002C084E790E00E94DB
:1009B0006E0985E10E94AC098091DE0082FF03C0D0
:1009C0008FE890E002C086E990E00C946E09FC018B
:1009D00000816AE070E080915A0790915B070E9465
:1009E0009611882359F00E94AF048091DE00909107
:1009F000DF0088609093DF008093DE00C0E010E0AD
:100A00008C2F86959801280F311DC9010E945E1F09
:100A1000C0FBCC24C0F8D12C9601220F331F220F2B
:100A2000331F02C0959587952A95E2F7D82FDF707E
:100A3000DE3061F0DF3071F087700E94C50A8D2FC3
:100A40008695869586950E94CC0A07C095E0E92E8A
:100A5000F12C03C082E0E82EF12C8091DE00909111
:100A6000DF0034E083279093DF008093DE0080FF77
:100A700005C083FF1FC00E94AF041CC00E94360146
:100A800020E040E050E060E070E080915A079091F3
:100A90005B070E9402108091DE009091DF00877F4B
:100AA0009093DF008093DE008091D8009091D90070
:100AB0000E941515C7010E949F17CF5FCF71A0CF6D
:100AC0008091D4009091D5000E94B1150E942D0E06
:100AD0000895EF92FF920F931F9381E00E94981068
:100AE00090935B0780935A070DE913E020E030E014
:100AF00040E062E170E08DE990E00E94071D909374
:100B00005D0780935C0703E510E021E030E040E002
:100B100066E070E083EA90E00E94071D9093590719
:100B20008093580786EDE82E80E0F82E04E020E060
:100B300030E045E550E06AEA70E08FEB92E00E9419
:100B4000131494EDE92E90E0F92E20E030E045E515
:100B500050E06EEA70E08EE394E00E94131422ED00
:100B6000E22E20E0F22E05E020E030E042E350E00B
:100B700067EB70E085E291E00E9413148091D6004B
:100B80009091D7001F910F91FF90EF900C94F71761
:100B90001ABA17BA14BA11BA0895803208F06CC0A4
:100BA000623008F069C0982F977086958695869573
:100BB0008230A1F1833009F448C08130B9F04AB3E2
:100BC00021E030E0613039F401C0220F9A95EAF754
:100BD000242B2ABB17C0B90102C0660F771F9A9554
:100BE000E2F7CB01809584238ABB0CC047B321E098
:100BF00030E0611109C001C0220F9A95EAF72095F3
:100C0000242327BB80E00895B90102C0660F771F37
:100C10009A95E2F7CB01842B87BBF4CF44B321E054
:100C200030E0613039F401C0220F9A95EAF7242BA5
:100C300024BBE8CFB90102C0660F771F9A95E2F78F
:100C4000CB018095842384BBDDCF41B321E030E02C
:100C5000613039F401C0220F9A95EAF7242B21BBA9
:100C6000D1CFB90102C0660F771F9A95E2F7CB0189
:100C70008095842381BBC6CF81E00895803208F03F
:100C80006CC0623008F069C0982F97708695869581
:100C900086958230A1F1833009F448C08130B9F0E3
:100CA0004BB321E030E0613039F401C0220F9A9556
:100CB000EAF7242B2BBB17C0B90102C0660F771FC0
:100CC0009A95E2F7CB01809584238BBB0CC048B387
:100CD00021E030E0611109C001C0220F9A95EAF7C6
:100CE0002095242328BB80E00895B90102C0660F37
:100CF000771F9A95E2F7CB01842B88BBF4CF45B3DD
:100D000021E030E0613039F401C0220F9A95EAF712
:100D1000242B25BBE8CFB90102C0660F771F9A9537
:100D2000E2F7CB018095842385BBDDCF42B321E080
:100D300030E0613039F401C0220F9A95EAF7242B94
:100D400022BBD1CFB90102C0660F771F9A95E2F797
:100D5000CB018095842382BBC6CF81E00895843087
:100D600078F4823041F0833049F0813011F06ABB71
:100D700003C067BB01C064BB80E0089561BBFCCFCA
:100D800081E00895843078F4823041F0833049F076
:100D9000813011F06BBB03C068BB01C065BB80E054
:100DA000089562BBFCCF81E00895FB018032E0F43E
:100DB000282F2770869586958695823041F083305E
:100DC00041F0813011F089B305C086B303C083B30D
:100DD00001C080B390E002C0959587952A95E2F70F
:100DE0008170808380E0089581E00895FB01843064
:100DF00080F4823041F0833041F0813011F089B3CA
:100E000005C086B303C083B301C080B3808380E094
:100E1000089581E008951F920F920FB60F9211244A
:100E20002F933F934F935F936F937F938F939F93F2
:100E3000AF93BF93EF93FF93E091E700F091E80049
:100E4000309709F00995FF91EF91BF91AF919F9174
:100E50008F917F916F915F914F913F912F910F9063
:100E60000FBE0F901F9018951F920F920FB60F9202
:100E700011242F933F934F935F936F937F938F939F
:100E80009F93AF93BF93EF93FF93E091E900F091AD
:100E9000EA00309709F00995FF91EF91BF91AF916A
:100EA0009F918F917F916F915F914F913F912F9182
:100EB0000F900FBE0F901F9018951F920F920FB6B4
:100EC0000F9211242F933F934F935F936F937F93D0
:100ED0008F939F93AF93BF93EF93FF93E091EB00BA
:100EE000F091EC00309709F00995FF91EF91BF91D7
:100EF000AF919F918F917F916F915F914F913F91B2
:100F00002F910F900FBE0F901F901895E82FF0E0D3
:100F1000EE0FFF1FE951FF4F7183608308958FB774
:100F200080688FBF0895813039F018F0823039F031
:100F300008958BB7806405C08BB7806802C08BB7FB
:100F400080628BBF0895813039F018F0823039F01B
:100F500008958BB78F7B05C08BB78F7702C08BB797
:100F60008F7D8BBF08958130D1F018F0823071F100
:100F70000895611103C085B78C7F26C0633019F4D2
:100F800085B7836021C0623021F485B78E7F82608F
:100F90001BC0613011F585B78D7F816015C061116F
:100FA00003C085B7837F10C0633019F485B78C60A8
:100FB0000BC0623021F485B78B7F886005C061303B
:100FC00061F485B7877F846085BF089584B76130F9
:100FD00011F4806401C08F7B84BF08956F927F926B
:100FE0008F929F92AF92BF92CF92DF92EF92FF9239
:100FF0000F931F93CF93DF931F92CDB7DEB77C0182
:1010000019820EE517E066246A94912C7724739474
:10101000580160E0F80180810E943E0682E6C82EF9
:1010200087E0D82E812CBE016F5F7F4FF601819142
:101030006F010E94D5062981882D890D90E0F70166
:10104000E80FF91F213011F4108205C07082FC01F5
:10105000EF59FF4F6080F4E08F0E80E18812E3CFFC
:101060000F5F1F4F61E0F50180810E943E0693945F
:10107000F4E09F12CDCF862D0F90DF91CF911F917D
:101080000F91FF90EF90DF90CF90BF90AF909F9027
:101090008F907F906F9008958130A1F138F0823069
:1010A00009F45BC0833009F483C008956FE080E0E9
:1010B0000E94AF0661E084E00E943E0661E085E0A8
:1010C0000E943E0661E086E00E943E0661E087E005
:1010D0000E943E0687E08093620783E080935E076C
:1010E00086E08093630782E080935F0785E08093CA
:1010F000640781E08093600784E080936507109225
:10110000610708956FE081E00E94AF0661E08CE026
:101110000E943E0661E08DE00E943E0661E08EE0A6
:101120000E943E0661E08FE00E943E068FE08093C1
:1011300062078BE080935E078EE0809363078AE00E
:1011400080935F078DE08093640789E08093600758
:101150008CE08093650788E055C06FE082E00E94D4
:10116000AF0661E084E10E943E0661E085E10E94F5
:101170003E0661E086E10E943E0661E087E10E9452
:101180003E0687E18093620783E180935E0786E1F4
:101190008093630782E180935F0785E18093640712
:1011A00081E18093600784E18093650780E12AC034
:1011B0006FE083E00E94AF0661E08CE10E943E0692
:1011C00061E08DE10E943E0661E08EE10E943E06F4
:1011D00061E08FE10E943E068FE1809362078BE120
:1011E00080935E078EE1809363078AE180935F07B7
:1011F0008DE18093640789E1809360078CE180939F
:10120000650788E1809361070895E0E0DC012D9196
:10121000CD01213029F4F0E0EF59FF4F808108958E
:10122000EF5FE03199F78FEF0895CF93C82F60E01B
:101230008EE10E943E066C2F617080E10E943E06A6
:10124000C1FB662760F981E10E943E06C2FB66276A
:1012500060F982E10E943E06C3FB662760F983E1E4
:101260000E943E06C4FB662760F984E10E943E06A8
:10127000C5FB662760F985E10E943E06C6FB66272E
:1012800060F986E10E943E066C2F661F6627661F86
:1012900087E10E943E0661E08DE10E943E068FECF0
:1012A00097E00197F1F700C0000060E08DE1CF9179
:1012B0000C943E06CF93C82F60E08FE10E943E065B
:1012C0008C2FCF910C941509CF93C82F61E08FE13B
:1012D0000E943E068C2FCF910C941509EF92FF923D
:1012E0000F931F93CF937C01C0E087010C0F111D5A
:1012F000F8018081882359F0C03119F480EC0E94F4
:101300005A09F80180810E946409CF5FEECFCF9126
:101310001F910F91FF90EF90089581E00C945A096E
:101320000F931F93CF938C01C0E0F801EC0FF11DD8
:101330008081882369F00E9464092FEF84E39CE098
:10134000215080409040E1F700C00000CF5FEDCF1A
:10135000CF911F910F910895803110F4805801C0F2
:1013600080550C945A090F931F93CF93DF938C01F0
:10137000C0E08C2F0E94AC09D0E0F801ED0FF11D08
:101380008081882321F00E946409DF5FF6CF2FEF70
:1013900089E698E1215080409040E1F700C00000CC
:1013A0000E948D09CF5FC53021F7DF91CF911F914A
:1013B0000F9108950F931F93CF93DF938C01862F86
:1013C000880F880F880F805C0E945A09E801085F27
:1013D0001F4F89910E946409C017D107D1F780E897
:1013E000DF91CF911F910F910C945A09CF92DF9208
:1013F000EF92FF920F931F93CF93DF93EC0100E0E6
:1014000080E090E02AE0EAE0F0E0209771F0289F89
:101410007001299FF00C1124CE01BF010E94171FFB
:101420008E0D9F1DEB010F5FF0CF10E02AE0E22E42
:10143000F12CC017D10750F4B7010E94171F6B01A0
:10144000805D0E946409C6012196F3CFDF91CF91A0
:101450001F910F91FF90EF90DF90CF900895CF9361
:101460006AE00E940B1FC92F805D0E94640980E31F
:101470008C0FCF910C946409805D0C946409CF9318
:10148000DF93CDB7DEB728970FB6F894DEBF0FBE57
:10149000CDBF48E050E060E070E0CE0101960E94D0
:1014A0004E1F60E0CE0101960E94DA0948E050E04C
:1014B00068E070E0CE0101960E944E1F61E0CE010F
:1014C00001960E94DA0928960FB6F894DEBF0FBE87
:1014D000CDBFDF91CF91089561E08FE10E94CD05EE
:1014E00061E08EE10E94CD0561E08DE10E94CD05B5
:1014F00061E080E10E94CD0561E081E10E94CD05BF
:1015000061E082E10E94CD0561E083E10E94CD05AA
:1015100061E084E10E94CD0561E085E10E94CD0596
:1015200061E086E10E94CD0561E087E10E94CD0582
:101530002FE788E391E0215080409040E1F700C020
:1015400000002FEF89EF90E0215080409040E1F7BC
:1015500000C0000088E30E945A0925E82A95F1F7A7
:1015600000008CE00E945A0985E88A95F1F7000096
:1015700081E00E945A098FE99FE00197F1F700C0CE
:1015800000000C943F0A13BE0895811102C013BEDF
:101590000895886683BF08959AEA899F802D112453
:1015A000805B8CBF08958F929F92AF92BF92CF9233
:1015B000DF92EF92FF92CF93DF934B015C01C0E08B
:1015C000D0E0750164010C2E04C0F694E794D79422
:1015D000C7940A94D2F78C2D87700E94C50AC3FA6B
:1015E000882780F90E94CC0A2496C032D10549F799
:1015F000DF91CF91FF90EF90DF90CF90BF90AF90B1
:101600009F908F900895CF93DF938BE090E00E949E
:101610007D0CEC01009731F0FC0111921192CF0189
:101620000E94BE0CCE01DF91CF910895AF92BF9280
:10163000CF92DF92EF92FF920F931F93CF93DF939E
:101640006C017B01B42EA22E0E942C16F601C081E3
:10165000D181CE018E219F21A11003C0892B21F4BD
:101660003BC0E816F906C1F5BB2041F0C7018095E3
:1016700090958C239D23F6019183808300E010E0F8
:101680000E94F816012B09F43DC0811102C00E948E
:101690002D0E0E94491A91FD1CC00FB6F8940F92AE
:1016A000F60180819181970128233923A11003C07D
:1016B000232B21F40CC0E216F30649F4BB2039F0C9
:1016C000E094F094E822F922F601F182E0820F9092
:1016D0000FBEEC01DD2716C00115110589F2BB20F4
:1016E00019F060E071E002C060E070E0A110746089
:1016F0006E297F29A801C60102960E945E18C0E0EB
:10170000D0E0BECFCE01DF91CF911F910F91FF901E
:10171000EF90DF90CF90BF90AF900895FC010FB68F
:10172000F8940F9280819181609570956823792358
:10173000718360830F900FBE0895FC0180819181B9
:101740000895CF92DF92EF92FF920F931F93CF9362
:10175000DF938C01EB017C0185E0E80EF11C0E9417
:101760002C16D8011796ED91FC9118978D919C91AC
:101770001197C82BD92BCD93DC93C0E0D0E0D801D2
:101780006D917C911197EE15FF05E1F0D280C38039
:1017900020813181C9019927AC014623572332FDAD
:1017A00003C0452B21F40BC08417950741F430FF8B
:1017B00002C0C82BD92B7260CF010E94CE18ED2D2C
:1017C000FC2DDDCFC095D0956C237D236D937C934C
:1017D0000E94F816F80180819181DF91CF911F91CD
:1017E0000F91FF90EF90DF90CF900895AF92BF924E
:1017F000CF92DF92EF92FF920F931F93CF93DF93DD
:101800007C01EB018A0169010E942C16F701A0807E
:10181000B180BE01C7010E94A10BCA29DB29CE01FC
:10182000802391230817190769F4F701208131817A
:10183000C801809590958223932391838083C12C46
:10184000D12C10C0C114D10451F0A601B8017560AB
:10185000C70102960E945E18C0E0D0E003C0F70105
:10186000C081D1810E94F816CD28F9F0811102C003
:101870000E942D0E0E94491A91FD15C00FB6F894D2
:101880000F92F70180819181980128233923021753
:10189000130739F4A80140955095482359235183E3
:1018A00040830F900FBEEC01DD27CE01DF91CF9179
:1018B0001F910F91FF90EF90DF90CF90BF90AF906E
:1018C0000895CF93DF93EC010E942C168A81882320
:1018D00039F060E072E08F8198850E94CE18F6CFD3
:1018E000CE010E94AF0CDF91CF910C94F816BA0193
:1018F0000C94A10BBA010C948E0BCF93DF93EC01E7
:101900000E942C168091ED009091EE00892B31F40D
:1019100082EF90E09093EE008093ED002091EF0035
:101920003091F000C9018C0F9D1F8B3D45E094075D
:1019300070F42817390758F4C091ED00D091EE00EB
:10194000C20FD31F9093F0008093EF0002C0C0E05D
:10195000D0E00E94F816CE01DF91CF91089508954E
:101960001092F0001092EF0008952091EF00309156
:10197000F0008BED95E0821B930B0895FC0103961C
:10198000928381832FEF3FEF348323839683858374
:101990009087878310820895FC0111861086089530
:1019A000CF93DF939C01FB01DC011196CD91DC917B
:1019B0001297D383C2838C819D81958384838C818C
:1019C0009D81DC0113967C936E9312977D836C83CB
:1019D00031872087F90180818F5F8083DF91CF91EC
:1019E00008950F931F93CF93DF938C01FB018081A8
:1019F00091818F3F2FEF920721F4E801AF81B885E5
:101A00000EC0D801139612962D913C911397E901BF
:101A1000488159818417950710F0D901F4CF1296A7
:101A20008D919C91139793838283EC01FD83EC83CA
:101A3000B583A4831396FC93EE93129711870087C6
:101A4000F80180818F5F8083DF91CF911F910F918B
:101A50000895CF93DF93FC01A085B18582819381A6
:101A600024813581EC013D832C83C481D5819B8306
:101A70008A8311968D919C911297E817F90721F4AA
:101A80001296DC93CE931197118610868C9181501B
:101A90008C938C91DF91CF910895EF92FF920F93E9
:101AA0000E946C0A0E948D090E94360180E00E940B
:101AB0004C080E94690560E675E080E00E94860798
:101AC00060E08AE10E94CD0561E08AE10E943E0665
:101AD00063E080E00E94B3070E948F0780E00E94CD
:101AE000930761E08BE00E94CD05E12CF12C02E030
:101AF00020E030E04CE350E06CEB70E083E791E0F5
:101B00000E9413140E94F91580E090E00F91FF905D
:101B1000EF90089531E1FC013083319722E2208378
:101B20003197A3E3A0833197608331977083319716
:101B30001082319760E8608331971082319762E0BC
:101B40006083319763E06083319764E0608331970D
:101B500065E06083319766E06083319767E060837A
:101B6000319768E06083319769E06083319760E185
:101B7000608331973083319732E13083319733E19D
:101B80003083319734E13083319735E130833197B9
:101B900036E13083319737E13083319738E1308354
:101BA000319739E13083319730E23083319731E238
:101BB000308331972083319723E22083319740830C
:101BC00031975083319726E22083319727E2208393
:101BD000319728E22083319729E22083319720E34F
:101BE0002083319721E32083869708958BE18BBD75
:101BF0008FE18ABD8BE08EBD89B7806189BFA091DE
:101C00003A07B0913B07CD91CDBFDD91DEBFFF918B
:101C1000EF91DF91CF91BF91AF919F918F917F9184
:101C20006F915F914F913F912F911F910F91FF9075
:101C3000EF90DF90CF90BF90AF909F908F907F906C
:101C40006F905F904F903F902F901F900F900FBE1E
:101C50000F90089581E0089508950F920FB6F894BB
:101C60000F921F9211242F923F924F925F926F9288
:101C70007F928F929F92AF92BF92CF92DF92EF921C
:101C8000FF920F931F932F933F934F935F936F9305
:101C90007F938F939F93AF93BF93CF93DF93EF93F4
:101CA000FF93A0913A07B0913B070DB60D920EB687
:101CB0000D920E94B417A0913A07B0913B07CD91C5
:101CC000CDBFDD91DEBFFF91EF91DF91CF91BF914D
:101CD000AF919F918F917F916F915F914F913F91C4
:101CE0002F911F910F91FF90EF90DF90CF90BF90B9
:101CF000AF909F908F907F906F905F904F903F90AC
:101D00002F901F900F900FBE0F9008950F920FB657
:101D1000F8940F921F9211242F923F924F925F924C
:101D20006F927F928F929F92AF92BF92CF92DF92EB
:101D3000EF92FF920F931F932F933F934F935F93D5
:101D40006F937F938F939F93AF93BF93CF93DF93C3
:101D5000EF93FF93A0913A07B0913B070DB60D9218
:101D60000EB60D920E944C1681110E94B417A091DC
:101D70003A07B0913B07CD91CDBFDD91DEBFFF911A
:101D8000EF91DF91CF91BF91AF919F918F917F9113
:101D90006F915F914F913F912F911F910F91FF9004
:101DA000EF90DF90CF90BF90AF909F908F907F90FB
:101DB0006F905F904F903F902F901F900F900FBEAD
:101DC0000F9008950E94860E18950FB6F8940F9202
:101DD000FC01928D0F900FBE81E0911180E008957B
:101DE0000F931F93CF93DF93EC01042F1A8D4C8D2B
:101DF00041110BC088819981892BE9F58C819D81E6
:101E00000E94C8191D821C8237C050E0011115C004
:101E10008A819B810E94451F2C8D8A819B81820F24
:101E2000911D9B838A832C813D818217930718F132
:101E3000888199819B838A831EC08E819F810E94A5
:101E4000451F8C8D90E09195819591092E813F8160
:101E5000280F391F3F832E83488159812417350766
:101E600030F42C813D81820F931F9F838E8302303B
:101E700011F41111115080E01F5F1A8FDF91CF9183
:101E80001F910F910895FC01CB01448D4423A1F0D3
:101E900050E026813781240F351F378326836481E4
:101EA00075812617370720F02081318137832683FB
:101EB000668177810C94451F0895EF92FF921F93DE
:101EC000CF93DF93EC010FB6F8940F921E8D7C0137
:101ED00081E1E80EF11C11165CF48989882341F038
:101EE000C7010E948E1881110E944E191150F3CF24
:101EF0008FEF8E8F0F900FBE0FB6F8940F921D8D3F
:101F00007E0188E0E80EF11C11165CF488858823B8
:101F100041F0C7010E948E1881110E944E19115084
:101F2000F3CF8FEF8D8F0F900FBEDF91CF911F9169
:101F3000FF90EF900895CF93DF93EC010FB6F894E4
:101F40000F92488159818B8D7C8D9A01879F200D3E
:101F5000311D11243D832C831A8E5B834A8390E0CC
:101F60000197789F9001799F300D1124CA01820F4B
:101F7000931F9F838E838FEF8D8F8E8F61110CC087
:101F80008885882389F0CE0108960E948E188823C0
:101F900059F00E942D0E08C0CE0108960E94BE0C7A
:101FA000CE0141960E94BE0C0F900FBE81E0DF91E2
:101FB000CF9108950F931F93CF93DF93082F162F80
:101FC000662321F0869FC001112402C080E090E0CA
:101FD0004F960E947D0CEC01009771F0111103C027
:101FE0009983888303C04F96998388830B8F1C8FB6
:101FF00061E0CE010E949B0FCE01DF91CF911F9136
:102000000F910895AF92BF92CF92DF92FF920F93FC
:102010001F93CF93DF9300D000D01F92CDB7DEB7D0
:102020008C016B015D834C83F22E80E0580198E0B7
:10203000A90EB11C0FB6F8940F92F801228D938D62
:10204000291718F0F2E0FF1214C04F2DB601C80195
:102050000E94F00EF8019189992321F0C801419660
:102060000E948E1881110E942D0E0F900FBE81E0EC
:1020700050C02C813D81232B19F40F900FBE48C016
:10208000811104C0CE0101960E9410190F900FBE5D
:102090000E942C160FB6F8940F92F801858D8F3F91
:1020A00009F4158EF801868D8F3F09F4168E0F9076
:1020B0000FBEBE016C5F7F4FCE0101960E941B19BF
:1020C000811121C00FB6F8940F92F801928D0F90F4
:1020D0000FBE838D981311C06C817D81C5010E9454
:1020E0004D18C8010E945D0F0E94F816882311F058
:1020F00081E0A0CF0E942D0EFBCFC8010E945D0F92
:102100000E94F816F5CFC8010E945D0F0E94F816D4
:1021100080E00F900F900F900F900F90DF91CF9174
:102120001F910F91FF90DF90CF90BF90AF900895D7
:10213000CF93DF93482F60E081E00E94DA0FEC013B
:10214000009761F01D821C82198218821E8220E095
:1021500040E050E060E070E00E940210CE01DF91AC
:10216000CF910895EF92FF921F93CF93DF93EC01ED
:102170009A8D8B8D981710F02230E1F47A011E8D24
:10218000422FCE010E94F00E1F3F81F489898823DF
:1021900079F0CE0141960E948E18882349F0E1140F
:1021A000F10431F081E0F701808305C01F5F1E8FCD
:1021B00081E001C080E0DF91CF911F91FF90EF900F
:1021C0000895CF93DF93FC01928D838D9817C0F40F
:1021D000868D9F5F928F8F3F79F48189882371F07C
:1021E000EB01CF0141960E948E18882339F0209789
:1021F00029F081E0888305C08F5F868F81E001C070
:1022000080E0DF91CF910895AF92BF92CF92DF929D
:10221000FF920F931F93CF93DF9300D000D01F92B4
:10222000CDB7DEB78C016B015D834C8380E0580134
:1022300091E1A90EB11C0FB6F8940F92F801F28C3F
:10224000FF20A9F0B601C8010E94430FFA94F801DB
:10225000F28E8085882339F0C80108960E948E1876
:1022600081110E942D0E0F900FBE81E050C02C8175
:102270003D81232B19F40F900FBE48C0811104C07B
:10228000CE0101960E9410190F900FBE0E942C16CD
:102290000FB6F8940F92F801858D8F3F09F4158ED3
:1022A000F801868D8F3F09F4168E0F900FBEBE0188
:1022B0006C5F7F4FCE0101960E941B1981111CC0DB
:1022C000C8010E94E50E882389F06C817D81C501DB
:1022D0000E944D18C8010E945D0F0E94F8168823C5
:1022E00011F081E0A8CF0E942D0EFBCFC8010E9403
:1022F0005D0F0E94F816F5CFC8010E945D0F0E9485
:10230000F816C8010E94E50E882359F380E00F906B
:102310000F900F900F900F90DF91CF911F910F9121
:10232000FF90DF90CF90BF90AF900895CF92DF9253
:10233000FF920F931F93CF93DF9300D000D01F9293
:10234000CDB7DEB78C017D836C83F12C90E0680102
:1023500081E1C80ED11C0FB6F8940F92D8015A969D
:102360008C915A978823E9F081505A968C935A970A
:102370008D919C91892B29F40E94601AF801958314
:102380008483D80118968C91882339F0C801089667
:102390000E948E1881110E942D0E0F900FBE81E0B9
:1023A0007AC02C813D81232B09F472C0911104C0A5
:1023B000CE0101960E9410190F900FBE0E942C169C
:1023C0000FB6F8940F92F801858D8F3F09F4158EA2
:1023D000D8015E968C915E978F3F11F45E961C92A9
:1023E0000F900FBEBE016C5F7F4FCE0101960E9421
:1023F0001B1981112BC0C8010E94E50E882301F131
:10240000F80180819181892B51F40FB6F8940F92D5
:10241000848195810E946519F82E0F900FBE6C8102
:102420007D81C6010E944D18C8010E945D0F0E9467
:10243000F816882311F091E08ECF0E942D0EFBCF6D
:10244000C8010E945D0F0E94F816F5CFC8010E94D6
:102450005D0F0E94F816C8010E94E50E882359F30B
:10246000FF20C1F00FB6F8940F92F80181898823FC
:1024700039F00688F789E02D808165E0681B01C08E
:1024800060E0D80114968D919C9115970E94021AD4
:102490000F900FBE80E00F900F900F900F900F9055
:1024A000DF91CF911F910F91FF90DF90CF90089512
:1024B000CF92DF92EF92FF920F931F93CF93DF9310
:1024C00000D000D01F92CDB7DEB78C017B015D83B9
:1024D0004C8380E0680191E1C90ED11C0FB6F894DD
:1024E0000F92F801928D9923B9F0C680D780B70179
:1024F000C8010E94430FF801D782C68281898823D0
:1025000039F0C80141960E948E1881110E942D0E4B
:102510000F900FBE81E050C02C813D81232B19F418
:102520000F900FBE48C0811104C0CE0101960E94D9
:1025300010190F900FBE0E942C160FB6F8940F9230
:10254000F801858D8F3F09F4158EF801868D8F3F38
:1025500009F4168E0F900FBEBE016C5F7F4FCE0147
:1025600001960E941B1981111CC0C8010E94E50E32
:10257000882389F06C817D81C6010E944D18C801B5
:102580000E945D0F0E94F816882311F081E0A6CF0B
:102590000E942D0EFBCFC8010E945D0F0E94F8160D
:1025A000F5CFC8010E945D0F0E94F816C8010E9475
:1025B000E50E882359F380E00F900F900F900F9055
:1025C0000F90DF91CF911F910F91FF90EF90DF90CF
:1025D000CF900895EF92FF920F931F93CF93DF93C5
:1025E000FC01028D0023E9F07A01EC01158D0E94B7
:1025F000430F01500A8F1F3F81F48885882379F0AB
:10260000CE0108960E948E18882349F0E114F10447
:1026100031F081E0F701808305C01F5F1D8F81E0ED
:1026200001C080E0DF91CF911F910F91FF90EF905B
:1026300008950F931F93CF93DF93FC01228D2223E4
:1026400049F0EC01068117810E94430F1F830E831E
:1026500081E001C080E0DF91CF911F910F9108953B
:102660000FB6F8940F92FC01828D0F900FBE089563
:102670000FB6F8940F92FC01228D0F900FBE838D40
:10268000821B0895FC01828D08950C94AF0CFC010F
:10269000928D81E0911180E00895FC01928D81E09E
:1026A000238D291380E00895CF93DF93EC010FB6BB
:1026B000F8940F928D8D8F3F09F41D8E8E8D8F3F74
:1026C00009F41E8E0F900FBE8A8D811104C0CE01B9
:1026D00041960E947618CE01DF91CF910C945D0F48
:1026E000E091F906F091FA068081811103C08FEF25
:1026F0009FEF0CC0E091F906F091FA060580F68193
:10270000E02D0680F781E02D828193819093D106A0
:102710008093D0060895FF920F931F93CF93DF937A
:10272000EC01F62E0091D8061091D90680913A0757
:1027300090913B0702960E94290DCF3F8FEFD8075B
:1027400089F4FF2079F060913A0770913B076E5F42
:102750007F4F8BED96E0DF91CF911F910F91FF900E
:102760000C94D00CC00FD11FE0913A07F0913B07B9
:10277000D383C28360913A0770913B07C017D1079A
:1027800068F48091F7069091F8066E5F7F4FDF91B5
:10279000CF911F910F91FF900C94F10C8091F9064D
:1027A0009091FA066E5F7F4F0E94F10C8091D006E7
:1027B0009091D106C817D90720F4D093D106C093C1
:1027C000D006DF91CF911F910F91FF9008958091D6
:1027D000E406882309F10FB6F8940F92E091EA0617
:1027E000F091EB06C681D781CE0102960E94290D99
:1027F0008091DA0681508093DA068091E406815058
:102800008093E4060F900FBE8F89988D0E94AF0CC5
:10281000CE010E94AF0CDBCF80910D078230B8F261
:102820000E942D0ED4CF4F925F926F927F928F9223
:102830009F92AF92BF92CF92DF92EF92FF920F934F
:102840001F93CF93DF934C016B015A012901CA01F9
:102850000E947D0C3C01892B09F4D5C088E290E0F0
:102860000E947D0CEC01009789F0788E6F8A21E040
:10287000A21AB1086A0C7B1CC114D104C9F0BC01B6
:10288000675E7F4FF601C601089607C0C3010E942C
:10289000AF0CB9C08E179F0749F09F014191DB0132
:1028A0004D93BD01D9012C912111F4CF18A201C083
:1028B000198E053008F004E00E8B09A31AA26E01F0
:1028C000B2E0CB0ED11CC6010E94CC0CCE010C96FE
:1028D0000E94CC0CD987C88785E090E0801B9109C5
:1028E0009D878C87DB8BCA8B1BA21CA21DA21EA2FC
:1028F0001FA2A201B401C3010E948A0D998388839B
:10290000E114F10419F0F701D183C0830FB6F894F4
:102910000F928091DA068F5F8093DA0680913A07F2
:1029200090913B07892BC1F5D0933B07C0933A07A1
:102930008091DA06813009F03FC00DE017E08AE3AC
:10294000E82E87E0F82EC8010E94BE0C075F1F4FDB
:10295000E016F106C1F784E097E00E94BE0C8BEF11
:1029600096E00E94BE0C8EEE96E00E94BE0C85EEB4
:1029700096E00E94BE0C8BED96E00E94BE0C84E0B7
:1029800097E09093FA068093F9068BEF96E0909388
:10299000F8068093F70610C08091D60681110CC00E
:1029A000E0913A07F0913B0796898E89891720F0CC
:1029B000D0933B07C0933A078091D2068F5F8093F4
:1029C000D2068E899091D706981710F48093D70677
:1029D000F9E08F9FC0011124B601835F984F0E94D8
:1029E000D00C0F900FBE8091D606882351F0E09155
:1029F0003A07F0913B0796898E89981710F40E9448
:102A00002D0E81E001C08FEFDF91CF911F910F91CB
:102A1000FF90EF90DF90CF90BF90AF909F908F90FE
:102A20007F906F905F904F9008950F931F93CF9377
:102A3000DF93EC010FB6F8940F92892B21F4C0912B
:102A40003A07D0913B078E010E5F1F4FC8010E94CD
:102A5000290D8C899D89892B21F0CE010C960E942D
:102A6000290D8091D2068F5F8093D20680913A071C
:102A700090913B07C817D90759F4B80185EE96E045
:102A80000E94D00C8091E4068F5F8093E4060EC014
:102A90008091DA0681508093DA068F89988D0E94A2
:102AA000AF0CCE010E94AF0C0E9470130F900FBEAE
:102AB0008091D606882349F080913A0790913B0790
:102AC000C817D90711F40E942D0EDF91CF911F91E5
:102AD0000F9108950F931F93CF93DF9320913A079F
:102AE00030913B0782179307B9F10097A9F10FB610
:102AF000F8940F92FC01228533852B5D364051F509
:102B0000FC0124893589F6E02E3E3F0719F1232B7D
:102B100009F5EC018C010E5F1F4FC8010E94290DC1
:102B20008E899091D706981710F48093D70629E0E4
:102B3000829FC0011124B801835F984F0E94D00C7E
:102B4000E0913A07F0913B079E898689981710F02B
:102B50000E942D0E0F900FBEDF91CF911F910F910C
:102B60000895EF92FF921F93CF93DF93EC018A8534
:102B70009B858B5D964099F48C899D8926E08E3EDD
:102B8000920769F0892B59F48091CD06882349F08A
:102B9000BE01645F7F4F8EEE96E00E94D00C10E085
:102BA00021C0E0913A07F0913B0711E09E898689A8
:102BB000981708F410E07E0182E0E80EF11CC701CE
:102BC0000E94290D8E899091D706981710F4809352
:102BD000D70629E0829FC0011124B701835F984F77
:102BE0000E94D00C812FDF91CF911F91FF90EF9029
:102BF0000895EF92FF920F938EECE82E86E0F82E68
:102C000000E020E030E045E550E064EC70E087EE65
:102C100093E10E9413148130B1F40E94E71C8130CB
:102C200091F4F8942FEF3FEF3093D1062093D00624
:102C30008093D6061092D9061092D8060F91FF9075
:102C4000EF900C94F60D0F91FF90EF900895F8948B
:102C50001092D6060C942C0E8091CD068F5F809337
:102C6000CD0608950FB6F8940F928091D8069091F2
:102C7000D9060F900FBE08958091D8069091D9067D
:102C800008958091DA060895009721F480913A071B
:102C900090913B0749960895CF92DF92EF92FF9271
:102CA0000F931F93CF93DF938091CD0681118CC03A
:102CB0000091D8061091D9060F5F1F4F1093D906C7
:102CC0000093D80601151105B9F48091F906909189
:102CD000FA062091F7063091F8063093FA06209311
:102CE000F9069093F8068093F7068091D3068F5FDC
:102CF0008093D3060E9470138091D0069091D106E4
:102D0000C0E00817190708F44FC0D9E0E091F906B0
:102D1000F091FA068081811103C08FEF9FEF11C0FF
:102D2000E091F906F091FA060580F681E02DE68043
:102D3000F780D70112968D919C9113970817190768
:102D400028F49093D1068093D0062EC06701B2E09C
:102D5000CB0ED11CC6010E94290DF70184899589EB
:102D6000892B21F0C7010C960E94290DD701569698
:102D70008C919091D706981710F48093D706D89F1E
:102D8000C0011124B601835F984F0E94D00CE091DE
:102D90003A07F0913B07D70156969C918689981780
:102DA00008F4B4CFC1E0B2CFE0913A07F0913B070D
:102DB000E689B9E0EB9FF0011124E35FF84F8081D1
:102DC000823040F0C1E006C08091D5068F5F8093CD
:102DD000D506C0E08091D4068111C1E08C2FDF912F
:102DE000CF911F910F91FF90EF90DF90CF900895BA
:102DF000EF92FF920F931F93CF93DF930FB6F89448
:102E00000F928091CD0681508093CD068091CD06A2
:102E1000882311F080E052C08091DA068823D1F334
:102E2000C0E0D0E089E0F82EEE24E3948091EE0635
:102E3000882351F1E091F306F091F406C681D78121
:102E4000CE010C960E94290D8E010E5F1F4FC80106
:102E50000E94290D8E899091D706981710F48093BF
:102E6000D706F89EC0011124B801835F984F0E94D5
:102E7000D00CE0913A07F0913B079E89868998171C
:102E8000A8F2E092D406D2CFCD2B11F00E9470139D
:102E9000C091D506CC2351F0D1E00E944C1681118F
:102EA000D093D406C150C9F71092D5068091D406AC
:102EB000882309F4AFCF0E942D0E81E00F900FBE42
:102EC000DF91CF911F910F91FF90EF9008950F9395
:102ED0001F93CF93DF938C01EB010E942C1640913E
:102EE000D8065091D906F80120813181C9018C0F93
:102EF0009D1F4217530720F48217930740F403C025
:102F00008217930730F021E04817590718F020E0A6
:102F100001C021E0F80191838083222329F060E041
:102F2000841B950B0E948B130E94F816811102C01E
:102F30000E942D0EDF91CF911F910F910895CF9395
:102F4000DF93EC01892B19F40E942D0E0AC00E9418
:102F50002C1660E0CE010E948B130E94F816882385
:102F600099F3DF91CF9108958091CD06882321F0C8
:102F700081E08093D40608951092D4068091D706FC
:102F800069E0482F50E0649F9001659F300D112447
:102F9000F901E35FF84F9081911102C08150F1CFA8
:102FA000A181B28112960D90BC91A02DB283A18314
:102FB000205F384FA217B30731F412962D913C9140
:102FC00013973283218399E0949FF001959FF00D30
:102FD0001124E35FF84F0180F281E02D26813781D3
:102FE00030933B0720933A078093D70608950F93B9
:102FF0001F93CF93DF93EC010FB6F8940F92892BB8
:1030000021F4C0913A07D0913B078E010E5F1F4F0C
:10301000C8010E94290D8C899D89892B21F0CE0140
:103020000C960E94290DB8018BED96E00E94D00C01
:103030008FA1813009F41FA20F900FBE8091D60698
:10304000882339F00FB6F8940F920E9470130F90F6
:103050000FBE80913A0790913B07C817D907C1F47A
:103060008091D606882319F00E942D0E11C09091F0
:10307000DB068091DA06981305C010923B07109288
:103080003A0706C0DF91CF911F910F910C94B417AE
:10309000DF91CF911F910F910895CF93DF93EB01B3
:1030A00060913A0770913B07645F7F4F0E94F10C7B
:1030B00061E0CE01DF91CF910C948B13CF93DF931E
:1030C000EA01E0913A07F0913B07706875876487E1
:1030D00060913A0770913B07645F7F4F0E94D00C6C
:1030E00061E0CE01DF91CF910C948B131F93CF93AE
:1030F000DF93EB01142F60913A0770913B07645FF7
:103100007F4F0E94D00C112311F0CFEFDFEF612F22
:10311000CE01DF91CF911F910C948B130F931F93CE
:10312000CF93DF93DC011596ED91FC911697C68144
:10313000D7818E01045F1F4FC8010E94290D809125
:10314000CD06811114C00A501109C8010E94290D31
:103150008E899091D706981710F48093D706B9E01E
:103160008B9FC0011124B801835F984F03C0B80141
:103170008EEE96E00E94D00CE0913A07F0913B076A
:103180009E898689891720F481E08093D40601C046
:1031900080E0DF91CF911F910F9108950F931F93BE
:1031A000CF93DF937068FC0171836083C681D78100
:1031B0000E94290D8E010E5F1F4FC8010E94290D2C
:1031C0008E899091D706981710F48093D706F9E06E
:1031D0008F9FC0011124B801835F984F0E94D00CCB
:1031E000E0913A07F0913B079E898689891718F488
:1031F00081E08093D406DF91CF911F910F910895C4
:103200000FB6F8940F922091D306FC0120832091F1
:10321000D8063091D906328321830F900FBE0895CE
:103220002091D306FC0120832091D8063091D90645
:10323000328321830895CF93DF930FB6F8940F92D2
:103240004091D8065091D906DB012D913C912F3F3A
:10325000BFEF3B07D9F0EC01E981FA81A091D306D9
:10326000B881BA1719F04E175F0790F44E1B5F0B29
:10327000FB014217530738F4241B350B318320839D
:103280000E94101903C01182108202C080E001C0A8
:1032900081E00F900FBEDF91CF91089581E0809380
:1032A000D406089580913A0790913B070895809144
:1032B000D606882331F08091CD06882321F080E066
:1032C000089581E0089582E008950F931F93CF93AE
:1032D000DF93FC01892B09F455C08689A0913A0738
:1032E000B0913B0756969C91891708F041C0248500
:1032F000358537FD0CC0A0913A07B0913B07569633
:103300009C9125E030E0291B31093587248729E08D
:10331000829FC0011124835F984F2285338528172F
:103320003907E9F48F01EF012296CE010E94290DA1
:10333000E0913A07F0913B078689F801868B9091DE
:10334000D706981710F48093D706F9E08F9FC00135
:103350001124BE01835F984F0E94D00C07C0A0913A
:103360003A07B0913B0756968C91868B81E00BC053
:10337000A0913A07B0913B0781E021A156969C911C
:10338000291708F080E0DF91CF911F910F910895E8
:103390000F931F93CF93DF93FC01892B11F480E0EF
:1033A0002CC082A1815082A3268991A12917B9F34B
:1033B0008111F5CFEF018F010E5F1F4FC8010E94F1
:1033C000290D89A18E8B482F50E025E030E0241B89
:1033D000350B3D872C879091D706981710F4809372
:1033E000D70629E0249FC001259F900D1124B80124
:1033F000835F984F0E94D00C81E0DF91CF911F91A5
:103400000F9108950F931F93CF93DF93FC01892BA6
:10341000D9F191A1961708F4962F86898917A1F101
:1034200022A1213089F5968B2485358537FD06C08C
:1034300025E030E0291B31093587248729E0829F68
:10344000C0011124835F984F2285338528173907DF
:10345000D9F4EF018F010E5F1F4FC8010E94290DA3
:103460008E899091D706981710F48093D70629E09B
:10347000829FC0011124B801835F984FDF91CF91E3
:103480001F910F910C94D00CDF91CF911F910F9150
:103490000895E0913A07F0913B0784859585E09186
:1034A0003A07F0913B07A0913A07B0913B07569637
:1034B0004C9125E030E0241B31093587248708959D
:1034C00080913A0790913B07892B39F0E0913A07B8
:1034D000F0913B0782A18F5F82A380913A07909180
:1034E0003B0708950F931F93182FCB010FB6F89445
:1034F0000F92E0913A07F0913B0743A154A165A1D7
:1035000076A1452B462B472B69F4E0913A07F091C1
:103510003B0721E027A3009729F061E00E948B136D
:103520000E942D0E0F900FBE0FB6F8940F92E091EF
:103530003A07F0913B0763A174A185A196A161159B
:10354000710581059105A9F0E0913A07F0913B07DB
:10355000112329F013A214A215A216A20AC08B01EE
:103560009C01015011092109310903A314A325A3CA
:1035700036A3E0913A07F0913B0717A20F900FBED8
:103580001F910F9108954F925F926F927F928F9249
:103590009F92AF92BF92EF92FF920F931F934901B8
:1035A0005A010FB6F8940F92E0913A07F0913B0759
:1035B00027A1223039F1E0913A07F0913B0723A18E
:1035C00034A145A156A12B013C0140945094609434
:1035D0007094D301C20182239323A423B52383A330
:1035E00094A3A5A3B6A3E0913A07F0913B0781E02D
:1035F00087A3E114F10431F061E0C7010E948B134D
:103600000E942D0E0F900FBE0FB6F8940F92011569
:10361000110569F0E0913A07F0913B0783A194A16D
:10362000A5A1B6A1F80180839183A283B383E09121
:103630003A07F0913B0787A18230C1F4E0913A0745
:10364000F0913B0743A154A165A176A1D501C40126
:1036500080959095A095B09584239523A623B723B4
:1036600083A394A3A5A3B6A381E001C080E0E09169
:103670003A07F0913B0717A20F900FBE1F910F91D1
:10368000FF90EF90BF90AF909F908F907F906F9042
:103690005F904F9008950F931F93CF93DF93FC019A
:1036A0000FB6F8940F920115110549F083A194A16A
:1036B000A5A1B6A1E80188839983AA83BB8337A11A
:1036C00082E087A3223089F058F4213001F583A1EC
:1036D00094A1A5A1B6A1482B592B6A2B7B2B13C013
:1036E000233089F0243069F012C083A194A1A5A1F0
:1036F000B6A10196A11DB11D83A394A3A5A3B6A352
:1037000006C0323049F143A354A365A376A33130F8
:1037100009F5EF018F010E5F1F4FC8010E94290DAF
:103720008E899091D706981710F48093D70629E0D8
:10373000829FC0011124B801835F984F0E94D00C72
:10374000E0913A07F0913B079E898689891710F42A
:103750000E942D0E81E001C080E00F900FBEDF912E
:10376000CF911F910F910895EF92FF920F931F93A6
:10377000CF93DF93FC010115110549F083A194A1BA
:10378000A5A1B6A1E80188839983AA83BB8337A149
:1037900082E087A3223089F058F4213001F583A11B
:1037A00094A1A5A1B6A1482B592B6A2B7B2B13C042
:1037B000233089F0243069F012C083A194A1A5A11F
:1037C000B6A10196A11DB11D83A394A3A5A3B6A381
:1037D00006C03230D9F143A354A365A376A3313098
:1037E00011F081E034C0EF018091CD06811115C048
:1037F0008F010E5F1F4FC8010E94290D8E89909185
:10380000D706981710F48093D706E9E08E9FC00181
:103810001124B801835F984F05C0BF01645F7F4FDB
:103820008EEE96E00E94D00CE0913A07F0913B07B3
:103830009E8986898917A8F6E114F10419F081E0C0
:10384000E701888381E08093D40601C080E0DF91A6
:10385000CF911F910F91FF90EF900895EF92FF92FB
:103860000F931F93CF93DF93FC0127A182E087A3DF
:1038700083A194A1A5A1B6A10196A11DB11D83A309
:1038800094A3A5A3B6A32130A1F58B01EF018091EC
:10389000CD06811116C07F0122E0E20EF11CC701A6
:1038A0000E94290D8E899091D706981710F4809365
:1038B000D706E9E08E9FC0011124B701835F984FBE
:1038C00005C0BF01645F7F4F8EEE96E00E94D00C72
:1038D000E0913A07F0913B079E898689891748F461
:1038E0000115110519F081E0F801808381E08093D2
:1038F000D406DF91CF911F910F91FF90EF90089523
:10390000009721F480913A0790913B070FB6F89405
:103910000F92FC0127A1223019F417A281E001C007
:1039200080E00F900FBE08950FB6F8940F9280912B
:10393000400790914107892BE9F48FE497E00E94BA
:10394000BE0C86E497E00E94BE0C8FE497E0909353
:1039500045078093440786E497E09093430780935C
:10396000420740E065E088E20E94DA0F9093410749
:10397000809340070F900FBE0895FC01738362830C
:10398000918780874617570778F0421B530B848531
:10399000958548175907C8F4BF016E5F7F4F809126
:1039A0004207909143070DC04217530718F462175E
:1039B000730758F4BF016E5F7F4F80914407909169
:1039C00045070E94F10C80E0089581E00895EF9290
:1039D000FF920F930E94941C8091400790914107A1
:1039E000892B81F08EE3E82E87E0F82E04E020E0BA
:1039F00030E045E550E069EC70E08EEC9DE10E941E
:103A0000131401C080E00F91FF90EF9008958F9202
:103A10009F92AF92BF92CF92DF92FF920F931F932C
:103A2000CF93DF934C015B01F42E690183E190E0B9
:103A30000E947D0CEC01892BA1F01A8A0E94941C33
:103A400099828882BD86AC86DF86CE86198B088BEC
:103A5000CE0102960E94CC0CFF2019F08A89846066
:103A60008A8BCE01DF91CF911F910F91FF90DF9054
:103A7000CF90BF90AF909F908F9008950F931F931A
:103A8000CF93DF9300D000D01F92CDB7DEB7A091C7
:103A90004007B0914107109729F1F90169835B83D1
:103AA0004A839D838C836630A4F40E945719E09169
:103AB0004007F091410720E0823011F4A80102C0D4
:103AC00040E050E0BE016F5F7F4FCF010E940210C7
:103AD0000AC020E0AF01BE016F5F7F4FCD010E94A1
:103AE000B21001C080E00F900F900F900F900F90D8
:103AF000DF91CF911F910F910895EF92FF920F9355
:103B00001F93CF93DF93E0914407F09145078081A5
:103B1000882389F10580F681E02DE080F180C6815F
:103B2000D7818E010E5F1F4FC8010E94290DE889C1
:103B3000F989CE0109958A8982FFE5CF8C859D851B
:103B40008E0D9F1DE816F90660F49B838A83D98742
:103B5000C887B80180914407909145070E94F10CF5
:103B6000D2CF00E010E020E030E0A70160E0CE011D
:103B70000E943E1DC8CF80914207909143079093C9
:103B8000450780934407F0934307E0934207DF9192
:103B9000CF911F910F91FF90EF900895CF93DF93F6
:103BA00000D000D01F92CDB7DEB7E0914407F0916E
:103BB0004507D080DD2031F00580F681E02DE080E2
:103BC000F18002C0E12CF12C0E942C160E943216CA
:103BD0008C0180913C0790913D070817190720F44C
:103BE0000E947D1D81E001C080E010933D0700939D
:103BF0003C07811155C0DD20D9F10E151F0508F4D1
:103C00003EC00E94F816E0914407F09145070580F8
:103C1000F681E02DC680D780C60102960E94290D4C
:103C2000D60152968C91529782FF17C01C966D91C7
:103C30007C911D976E0D7F1D9701A801C6010E9402
:103C4000BD1C882369F000E010E020E030E0A7010F
:103C500060E0C6010E943E1D03C08E7FF601828B8C
:103C6000D6015096ED91FC915197C60109951EC061
:103C7000E0914207F0914307808141E0811140E0EB
:103C8000B701601B710B80914007909141070E9422
:103C900054130E94F816811109C00E942D0E06C00F
:103CA0000E94F81603C0898187FF0EC040E050E0F3
:103CB000BE016F5F7F4F80914007909141070E9446
:103CC00004118111F0CF71CFEC80FD80F701828566
:103CD0009385892B21F0C70102960E94290D0E942D
:103CE00032166C0180913C0790913D07C816D906A9
:103CF00010F40E947D1DD0923D07C0923C07E981DF
:103D00000E2E000CFF0BEA30F10580F6E65DFF4F4A
:103D1000D70152968C910C943F1F8160F701828BE2
:103D20002A813B8164857585620F731FA601C701D7
:103D30000E94BD1C882309F4B9CFD7015096ED919C
:103D4000FC915197C7010995F701828982FFAECF97
:103D50004A815B8184859585480F591F00E010E0FA
:103D600020E030E060E0C7010E943E1D9FCF8160EF
:103D7000F701828B6A817B81758764876C0D7D1D5D
:103D80009601A601C7010E94BD1C90CF81FD04C011
:103D9000C7010E94AF0C8ACF8E7FD70152968C93B9
:103DA00085CF80913E0790913F070895FC0184855F
:103DB00095850895FC010FB6F8940F9292896623B9
:103DC00011F0946001C09B7F928B0F900FBE0895FD
:103DD000FC01828193810895FC0180819181089585
:103DE0000FB6F8940F92FC0182890F900FBE81707C
:103DF00008950FB6F8940F920F900FBEFC018685C0
:103E0000978508950FB6F8940F92FC01778766871F
:103E10000F900FBE0895991B79E004C0991F961763
:103E200008F0961B881F7A95C9F780950895AA1BFC
:103E3000BB1B51E107C0AA1FBB1FA617B70710F095
:103E4000A61BB70B881F991F5A95A9F780959095C7
:103E5000BC01CD01089597FB072E16F4009407D0FE
:103E600077FD09D00E94171F07FC05D03EF49095FE
:103E700081959F4F0895709561957F4F0895EE0F3E
:103E8000FF1F0590F491E02D0994FB01DC0102C0B5
:103E900001900D9241505040D8F70895DC01CB01BC
:103EA000FC01E199FECF06C0FFBBEEBBE09A319664
:103EB0000DB20D9241505040B8F70895E199FECFF0
:103EC0009FBB8EBBE09A99278DB30895F894FFCFDE
:103ED00010313233413435365E373839762A303C4A
:103EE0003E414D00504D006D696E757465730068FC
:103EF0006F7572730053657420416C61726D00417F
:103F00004C41524D21002020202020200074696D5A
:103F100065720074696D657232004B5044004B50FD
:103F2000445F495352310042656570007365636FA9
:103F30006E64730049444C4500546D72205376639F
:023F400000007F
:00000001FF
